{
	"FallbackExample.sol": {
		"FunctionsExample": {
			"abi": [
				{
					"inputs": [],
					"stateMutability": "nonpayable",
					"type": "constructor"
				},
				{
					"inputs": [
						{
							"internalType": "address",
							"name": "",
							"type": "address"
						}
					],
					"name": "balanceReceived",
					"outputs": [
						{
							"internalType": "uint256",
							"name": "",
							"type": "uint256"
						}
					],
					"stateMutability": "view",
					"type": "function"
				},
				{
					"inputs": [
						{
							"internalType": "uint256",
							"name": "_amount",
							"type": "uint256"
						}
					],
					"name": "convertWeiToEth",
					"outputs": [
						{
							"internalType": "uint256",
							"name": "",
							"type": "uint256"
						}
					],
					"stateMutability": "pure",
					"type": "function"
				},
				{
					"inputs": [],
					"name": "destroySmartContract",
					"outputs": [],
					"stateMutability": "nonpayable",
					"type": "function"
				},
				{
					"inputs": [],
					"name": "getOwner",
					"outputs": [
						{
							"internalType": "address",
							"name": "",
							"type": "address"
						}
					],
					"stateMutability": "view",
					"type": "function"
				},
				{
					"inputs": [],
					"name": "receiveMoney",
					"outputs": [],
					"stateMutability": "payable",
					"type": "function"
				},
				{
					"inputs": [
						{
							"internalType": "address payable",
							"name": "_to",
							"type": "address"
						},
						{
							"internalType": "uint256",
							"name": "_amount",
							"type": "uint256"
						}
					],
					"name": "withdrawMoney",
					"outputs": [],
					"stateMutability": "nonpayable",
					"type": "function"
				},
				{
					"stateMutability": "payable",
					"type": "receive"
				}
			],
			"devdoc": {
				"kind": "dev",
				"methods": {},
				"version": 1
			},
			"evm": {
				"assembly": "    /* \"FallbackExample.sol\":64:1193  contract FunctionsExample {... */\n  mstore(0x40, 0x80)\n    /* \"FallbackExample.sol\":185:245  constructor() {... */\n  callvalue\n  dup1\n  iszero\n  tag_1\n  jumpi\n  0x00\n  dup1\n  revert\ntag_1:\n  pop\n    /* \"FallbackExample.sol\":226:236  msg.sender */\n  caller\n    /* \"FallbackExample.sol\":210:215  owner */\n  0x01\n  0x00\n    /* \"FallbackExample.sol\":210:237  owner = payable(msg.sender) */\n  0x0100\n  exp\n  dup2\n  sload\n  dup2\n  0xffffffffffffffffffffffffffffffffffffffff\n  mul\n  not\n  and\n  swap1\n  dup4\n  0xffffffffffffffffffffffffffffffffffffffff\n  and\n  mul\n  or\n  swap1\n  sstore\n  pop\n    /* \"FallbackExample.sol\":64:1193  contract FunctionsExample {... */\n  dataSize(sub_0)\n  dup1\n  dataOffset(sub_0)\n  0x00\n  codecopy\n  0x00\n  return\nstop\n\nsub_0: assembly {\n        /* \"FallbackExample.sol\":64:1193  contract FunctionsExample {... */\n      mstore(0x40, 0x80)\n      jumpi(tag_1, lt(calldatasize, 0x04))\n      shr(0xe0, calldataload(0x00))\n      dup1\n      0x0718b2f8\n      eq\n      tag_3\n      jumpi\n      dup1\n      0x6d26ec18\n      eq\n      tag_4\n      jumpi\n      dup1\n      0x85474728\n      eq\n      tag_5\n      jumpi\n      dup1\n      0x893d20e8\n      eq\n      tag_6\n      jumpi\n      dup1\n      0xd18a42e1\n      eq\n      tag_7\n      jumpi\n      dup1\n      0xf274c897\n      eq\n      tag_8\n      jumpi\n      jump(tag_2)\n    tag_1:\n      jumpi(tag_2, calldatasize)\n        /* \"FallbackExample.sol\":1168:1182  receiveMoney() */\n      tag_11\n        /* \"FallbackExample.sol\":1168:1180  receiveMoney */\n      tag_12\n        /* \"FallbackExample.sol\":1168:1182  receiveMoney() */\n      jump\t// in\n    tag_11:\n        /* \"FallbackExample.sol\":64:1193  contract FunctionsExample {... */\n      stop\n    tag_2:\n      0x00\n      dup1\n      revert\n        /* \"FallbackExample.sol\":341:449  function convertWeiToEth(uint _amount) public pure returns(uint) {... */\n    tag_3:\n      callvalue\n      dup1\n      iszero\n      tag_13\n      jumpi\n      0x00\n      dup1\n      revert\n    tag_13:\n      pop\n      tag_14\n      0x04\n      dup1\n      calldatasize\n      sub\n      dup2\n      add\n      swap1\n      tag_15\n      swap2\n      swap1\n      tag_16\n      jump\t// in\n    tag_15:\n      tag_17\n      jump\t// in\n    tag_14:\n      mload(0x40)\n      tag_18\n      swap2\n      swap1\n      tag_19\n      jump\t// in\n    tag_18:\n      mload(0x40)\n      dup1\n      swap2\n      sub\n      swap1\n      return\n        /* \"FallbackExample.sol\":606:793  function receiveMoney() public payable {... */\n    tag_4:\n      tag_20\n      tag_12\n      jump\t// in\n    tag_20:\n      stop\n        /* \"FallbackExample.sol\":457:598  function destroySmartContract() public {... */\n    tag_5:\n      callvalue\n      dup1\n      iszero\n      tag_21\n      jumpi\n      0x00\n      dup1\n      revert\n    tag_21:\n      pop\n      tag_22\n      tag_23\n      jump\t// in\n    tag_22:\n      stop\n        /* \"FallbackExample.sol\":253:333  function getOwner() public view returns(address) {... */\n    tag_6:\n      callvalue\n      dup1\n      iszero\n      tag_24\n      jumpi\n      0x00\n      dup1\n      revert\n    tag_24:\n      pop\n      tag_25\n      tag_26\n      jump\t// in\n    tag_25:\n      mload(0x40)\n      tag_27\n      swap2\n      swap1\n      tag_28\n      jump\t// in\n    tag_27:\n      mload(0x40)\n      dup1\n      swap2\n      sub\n      swap1\n      return\n        /* \"FallbackExample.sol\":99:146  mapping(address => uint) public balanceReceived */\n    tag_7:\n      callvalue\n      dup1\n      iszero\n      tag_29\n      jumpi\n      0x00\n      dup1\n      revert\n    tag_29:\n      pop\n      tag_30\n      0x04\n      dup1\n      calldatasize\n      sub\n      dup2\n      add\n      swap1\n      tag_31\n      swap2\n      swap1\n      tag_32\n      jump\t// in\n    tag_31:\n      tag_33\n      jump\t// in\n    tag_30:\n      mload(0x40)\n      tag_34\n      swap2\n      swap1\n      tag_19\n      jump\t// in\n    tag_34:\n      mload(0x40)\n      dup1\n      swap2\n      sub\n      swap1\n      return\n        /* \"FallbackExample.sol\":801:1121  function withdrawMoney(address payable _to, uint _amount) public {... */\n    tag_8:\n      callvalue\n      dup1\n      iszero\n      tag_35\n      jumpi\n      0x00\n      dup1\n      revert\n    tag_35:\n      pop\n      tag_36\n      0x04\n      dup1\n      calldatasize\n      sub\n      dup2\n      add\n      swap1\n      tag_37\n      swap2\n      swap1\n      tag_38\n      jump\t// in\n    tag_37:\n      tag_39\n      jump\t// in\n    tag_36:\n      stop\n        /* \"FallbackExample.sol\":606:793  function receiveMoney() public payable {... */\n    tag_12:\n        /* \"FallbackExample.sol\":706:721  balanceReceived */\n      0x00\n        /* \"FallbackExample.sol\":706:733  balanceReceived[msg.sender] */\n      dup1\n        /* \"FallbackExample.sol\":722:732  msg.sender */\n      caller\n        /* \"FallbackExample.sol\":706:733  balanceReceived[msg.sender] */\n      0xffffffffffffffffffffffffffffffffffffffff\n      and\n      0xffffffffffffffffffffffffffffffffffffffff\n      and\n      dup2\n      mstore\n      0x20\n      add\n      swap1\n      dup2\n      mstore\n      0x20\n      add\n      0x00\n      keccak256\n      sload\n        /* \"FallbackExample.sol\":693:702  msg.value */\n      callvalue\n        /* \"FallbackExample.sol\":663:678  balanceReceived */\n      0x00\n        /* \"FallbackExample.sol\":663:690  balanceReceived[msg.sender] */\n      dup1\n        /* \"FallbackExample.sol\":679:689  msg.sender */\n      caller\n        /* \"FallbackExample.sol\":663:690  balanceReceived[msg.sender] */\n      0xffffffffffffffffffffffffffffffffffffffff\n      and\n      0xffffffffffffffffffffffffffffffffffffffff\n      and\n      dup2\n      mstore\n      0x20\n      add\n      swap1\n      dup2\n      mstore\n      0x20\n      add\n      0x00\n      keccak256\n      sload\n        /* \"FallbackExample.sol\":663:702  balanceReceived[msg.sender] + msg.value */\n      tag_41\n      swap2\n      swap1\n      tag_42\n      jump\t// in\n    tag_41:\n        /* \"FallbackExample.sol\":663:733  balanceReceived[msg.sender] + msg.value >= balanceReceived[msg.sender] */\n      lt\n      iszero\n        /* \"FallbackExample.sol\":656:734  assert(balanceReceived[msg.sender] + msg.value >= balanceReceived[msg.sender]) */\n      tag_43\n      jumpi\n      tag_44\n      tag_45\n      jump\t// in\n    tag_44:\n    tag_43:\n        /* \"FallbackExample.sol\":776:785  msg.value */\n      callvalue\n        /* \"FallbackExample.sol\":745:760  balanceReceived */\n      0x00\n        /* \"FallbackExample.sol\":745:772  balanceReceived[msg.sender] */\n      dup1\n        /* \"FallbackExample.sol\":761:771  msg.sender */\n      caller\n        /* \"FallbackExample.sol\":745:772  balanceReceived[msg.sender] */\n      0xffffffffffffffffffffffffffffffffffffffff\n      and\n      0xffffffffffffffffffffffffffffffffffffffff\n      and\n      dup2\n      mstore\n      0x20\n      add\n      swap1\n      dup2\n      mstore\n      0x20\n      add\n      0x00\n      keccak256\n      0x00\n        /* \"FallbackExample.sol\":745:785  balanceReceived[msg.sender] += msg.value */\n      dup3\n      dup3\n      sload\n      tag_46\n      swap2\n      swap1\n      tag_42\n      jump\t// in\n    tag_46:\n      swap3\n      pop\n      pop\n      dup2\n      swap1\n      sstore\n      pop\n        /* \"FallbackExample.sol\":606:793  function receiveMoney() public payable {... */\n      jump\t// out\n        /* \"FallbackExample.sol\":341:449  function convertWeiToEth(uint _amount) public pure returns(uint) {... */\n    tag_17:\n        /* \"FallbackExample.sol\":400:404  uint */\n      0x00\n        /* \"FallbackExample.sol\":434:441  1 ether */\n      0x0de0b6b3a7640000\n        /* \"FallbackExample.sol\":424:431  _amount */\n      dup3\n        /* \"FallbackExample.sol\":424:441  _amount / 1 ether */\n      tag_48\n      swap2\n      swap1\n      tag_49\n      jump\t// in\n    tag_48:\n        /* \"FallbackExample.sol\":417:441  return _amount / 1 ether */\n      swap1\n      pop\n        /* \"FallbackExample.sol\":341:449  function convertWeiToEth(uint _amount) public pure returns(uint) {... */\n      swap2\n      swap1\n      pop\n      jump\t// out\n        /* \"FallbackExample.sol\":457:598  function destroySmartContract() public {... */\n    tag_23:\n        /* \"FallbackExample.sol\":529:534  owner */\n      0x01\n      0x00\n      swap1\n      sload\n      swap1\n      0x0100\n      exp\n      swap1\n      div\n      0xffffffffffffffffffffffffffffffffffffffff\n      and\n        /* \"FallbackExample.sol\":515:534  msg.sender == owner */\n      0xffffffffffffffffffffffffffffffffffffffff\n      and\n        /* \"FallbackExample.sol\":515:525  msg.sender */\n      caller\n        /* \"FallbackExample.sol\":515:534  msg.sender == owner */\n      0xffffffffffffffffffffffffffffffffffffffff\n      and\n      eq\n        /* \"FallbackExample.sol\":507:560  require(msg.sender == owner, \"You are not the owner\") */\n      tag_51\n      jumpi\n      mload(0x40)\n      0x08c379a000000000000000000000000000000000000000000000000000000000\n      dup2\n      mstore\n      0x04\n      add\n      tag_52\n      swap1\n      tag_53\n      jump\t// in\n    tag_52:\n      mload(0x40)\n      dup1\n      swap2\n      sub\n      swap1\n      revert\n    tag_51:\n        /* \"FallbackExample.sol\":584:589  owner */\n      0x01\n      0x00\n      swap1\n      sload\n      swap1\n      0x0100\n      exp\n      swap1\n      div\n      0xffffffffffffffffffffffffffffffffffffffff\n      and\n        /* \"FallbackExample.sol\":571:590  selfdestruct(owner) */\n      0xffffffffffffffffffffffffffffffffffffffff\n      and\n      selfdestruct\n        /* \"FallbackExample.sol\":253:333  function getOwner() public view returns(address) {... */\n    tag_26:\n        /* \"FallbackExample.sol\":293:300  address */\n      0x00\n        /* \"FallbackExample.sol\":320:325  owner */\n      0x01\n      0x00\n      swap1\n      sload\n      swap1\n      0x0100\n      exp\n      swap1\n      div\n      0xffffffffffffffffffffffffffffffffffffffff\n      and\n        /* \"FallbackExample.sol\":313:325  return owner */\n      swap1\n      pop\n        /* \"FallbackExample.sol\":253:333  function getOwner() public view returns(address) {... */\n      swap1\n      jump\t// out\n        /* \"FallbackExample.sol\":99:146  mapping(address => uint) public balanceReceived */\n    tag_33:\n      mstore(0x20, 0x00)\n      dup1\n      0x00\n      mstore\n      keccak256(0x00, 0x40)\n      0x00\n      swap2\n      pop\n      swap1\n      pop\n      sload\n      dup2\n      jump\t// out\n        /* \"FallbackExample.sol\":801:1121  function withdrawMoney(address payable _to, uint _amount) public {... */\n    tag_39:\n        /* \"FallbackExample.sol\":896:911  balanceReceived */\n      0x00\n        /* \"FallbackExample.sol\":896:923  balanceReceived[msg.sender] */\n      dup1\n        /* \"FallbackExample.sol\":912:922  msg.sender */\n      caller\n        /* \"FallbackExample.sol\":896:923  balanceReceived[msg.sender] */\n      0xffffffffffffffffffffffffffffffffffffffff\n      and\n      0xffffffffffffffffffffffffffffffffffffffff\n      and\n      dup2\n      mstore\n      0x20\n      add\n      swap1\n      dup2\n      mstore\n      0x20\n      add\n      0x00\n      keccak256\n      sload\n        /* \"FallbackExample.sol\":885:892  _amount */\n      dup2\n        /* \"FallbackExample.sol\":885:923  _amount <= balanceReceived[msg.sender] */\n      gt\n      iszero\n        /* \"FallbackExample.sol\":877:945  require(_amount <= balanceReceived[msg.sender], \"not enough funds.\") */\n      tag_56\n      jumpi\n      mload(0x40)\n      0x08c379a000000000000000000000000000000000000000000000000000000000\n      dup2\n      mstore\n      0x04\n      add\n      tag_57\n      swap1\n      tag_58\n      jump\t// in\n    tag_57:\n      mload(0x40)\n      dup1\n      swap2\n      sub\n      swap1\n      revert\n    tag_56:\n        /* \"FallbackExample.sol\":1024:1031  _amount */\n      dup1\n        /* \"FallbackExample.sol\":994:1009  balanceReceived */\n      0x00\n        /* \"FallbackExample.sol\":994:1021  balanceReceived[msg.sender] */\n      dup1\n        /* \"FallbackExample.sol\":1010:1020  msg.sender */\n      caller\n        /* \"FallbackExample.sol\":994:1021  balanceReceived[msg.sender] */\n      0xffffffffffffffffffffffffffffffffffffffff\n      and\n      0xffffffffffffffffffffffffffffffffffffffff\n      and\n      dup2\n      mstore\n      0x20\n      add\n      swap1\n      dup2\n      mstore\n      0x20\n      add\n      0x00\n      keccak256\n      sload\n        /* \"FallbackExample.sol\":994:1031  balanceReceived[msg.sender] - _amount */\n      tag_59\n      swap2\n      swap1\n      tag_60\n      jump\t// in\n    tag_59:\n        /* \"FallbackExample.sol\":963:978  balanceReceived */\n      0x00\n        /* \"FallbackExample.sol\":963:990  balanceReceived[msg.sender] */\n      dup1\n        /* \"FallbackExample.sol\":979:989  msg.sender */\n      caller\n        /* \"FallbackExample.sol\":963:990  balanceReceived[msg.sender] */\n      0xffffffffffffffffffffffffffffffffffffffff\n      and\n      0xffffffffffffffffffffffffffffffffffffffff\n      and\n      dup2\n      mstore\n      0x20\n      add\n      swap1\n      dup2\n      mstore\n      0x20\n      add\n      0x00\n      keccak256\n      sload\n        /* \"FallbackExample.sol\":963:1031  balanceReceived[msg.sender] >= balanceReceived[msg.sender] - _amount */\n      lt\n      iszero\n        /* \"FallbackExample.sol\":956:1032  assert(balanceReceived[msg.sender] >= balanceReceived[msg.sender] - _amount) */\n      tag_61\n      jumpi\n      tag_62\n      tag_45\n      jump\t// in\n    tag_62:\n    tag_61:\n        /* \"FallbackExample.sol\":1074:1081  _amount */\n      dup1\n        /* \"FallbackExample.sol\":1043:1058  balanceReceived */\n      0x00\n        /* \"FallbackExample.sol\":1043:1070  balanceReceived[msg.sender] */\n      dup1\n        /* \"FallbackExample.sol\":1059:1069  msg.sender */\n      caller\n        /* \"FallbackExample.sol\":1043:1070  balanceReceived[msg.sender] */\n      0xffffffffffffffffffffffffffffffffffffffff\n      and\n      0xffffffffffffffffffffffffffffffffffffffff\n      and\n      dup2\n      mstore\n      0x20\n      add\n      swap1\n      dup2\n      mstore\n      0x20\n      add\n      0x00\n      keccak256\n      0x00\n        /* \"FallbackExample.sol\":1043:1081  balanceReceived[msg.sender] -= _amount */\n      dup3\n      dup3\n      sload\n      tag_63\n      swap2\n      swap1\n      tag_60\n      jump\t// in\n    tag_63:\n      swap3\n      pop\n      pop\n      dup2\n      swap1\n      sstore\n      pop\n        /* \"FallbackExample.sol\":1092:1095  _to */\n      dup2\n        /* \"FallbackExample.sol\":1092:1104  _to.transfer */\n      0xffffffffffffffffffffffffffffffffffffffff\n      and\n        /* \"FallbackExample.sol\":1092:1113  _to.transfer(_amount) */\n      0x08fc\n        /* \"FallbackExample.sol\":1105:1112  _amount */\n      dup3\n        /* \"FallbackExample.sol\":1092:1113  _to.transfer(_amount) */\n      swap1\n      dup2\n      iszero\n      mul\n      swap1\n      mload(0x40)\n      0x00\n      mload(0x40)\n      dup1\n      dup4\n      sub\n      dup2\n      dup6\n      dup9\n      dup9\n      call\n      swap4\n      pop\n      pop\n      pop\n      pop\n      iszero\n      dup1\n      iszero\n      tag_65\n      jumpi\n      returndatasize\n      0x00\n      dup1\n      returndatacopy\n      revert(0x00, returndatasize)\n    tag_65:\n      pop\n        /* \"FallbackExample.sol\":801:1121  function withdrawMoney(address payable _to, uint _amount) public {... */\n      pop\n      pop\n      jump\t// out\n        /* \"#utility.yul\":88:205   */\n    tag_67:\n        /* \"#utility.yul\":197:198   */\n      0x00\n        /* \"#utility.yul\":194:195   */\n      dup1\n        /* \"#utility.yul\":187:199   */\n      revert\n        /* \"#utility.yul\":334:411   */\n    tag_69:\n        /* \"#utility.yul\":371:378   */\n      0x00\n        /* \"#utility.yul\":400:405   */\n      dup2\n        /* \"#utility.yul\":389:405   */\n      swap1\n      pop\n        /* \"#utility.yul\":334:411   */\n      swap2\n      swap1\n      pop\n      jump\t// out\n        /* \"#utility.yul\":417:539   */\n    tag_70:\n        /* \"#utility.yul\":490:514   */\n      tag_94\n        /* \"#utility.yul\":508:513   */\n      dup2\n        /* \"#utility.yul\":490:514   */\n      tag_69\n      jump\t// in\n    tag_94:\n        /* \"#utility.yul\":483:488   */\n      dup2\n        /* \"#utility.yul\":480:515   */\n      eq\n        /* \"#utility.yul\":470:533   */\n      tag_95\n      jumpi\n        /* \"#utility.yul\":529:530   */\n      0x00\n        /* \"#utility.yul\":526:527   */\n      dup1\n        /* \"#utility.yul\":519:531   */\n      revert\n        /* \"#utility.yul\":470:533   */\n    tag_95:\n        /* \"#utility.yul\":417:539   */\n      pop\n      jump\t// out\n        /* \"#utility.yul\":545:684   */\n    tag_71:\n        /* \"#utility.yul\":591:596   */\n      0x00\n        /* \"#utility.yul\":629:635   */\n      dup2\n        /* \"#utility.yul\":616:636   */\n      calldataload\n        /* \"#utility.yul\":607:636   */\n      swap1\n      pop\n        /* \"#utility.yul\":645:678   */\n      tag_97\n        /* \"#utility.yul\":672:677   */\n      dup2\n        /* \"#utility.yul\":645:678   */\n      tag_70\n      jump\t// in\n    tag_97:\n        /* \"#utility.yul\":545:684   */\n      swap3\n      swap2\n      pop\n      pop\n      jump\t// out\n        /* \"#utility.yul\":690:1019   */\n    tag_16:\n        /* \"#utility.yul\":749:755   */\n      0x00\n        /* \"#utility.yul\":798:800   */\n      0x20\n        /* \"#utility.yul\":786:795   */\n      dup3\n        /* \"#utility.yul\":777:784   */\n      dup5\n        /* \"#utility.yul\":773:796   */\n      sub\n        /* \"#utility.yul\":769:801   */\n      slt\n        /* \"#utility.yul\":766:885   */\n      iszero\n      tag_99\n      jumpi\n        /* \"#utility.yul\":804:883   */\n      tag_100\n      tag_67\n      jump\t// in\n    tag_100:\n        /* \"#utility.yul\":766:885   */\n    tag_99:\n        /* \"#utility.yul\":924:925   */\n      0x00\n        /* \"#utility.yul\":949:1002   */\n      tag_101\n        /* \"#utility.yul\":994:1001   */\n      dup5\n        /* \"#utility.yul\":985:991   */\n      dup3\n        /* \"#utility.yul\":974:983   */\n      dup6\n        /* \"#utility.yul\":970:992   */\n      add\n        /* \"#utility.yul\":949:1002   */\n      tag_71\n      jump\t// in\n    tag_101:\n        /* \"#utility.yul\":939:1002   */\n      swap2\n      pop\n        /* \"#utility.yul\":895:1012   */\n      pop\n        /* \"#utility.yul\":690:1019   */\n      swap3\n      swap2\n      pop\n      pop\n      jump\t// out\n        /* \"#utility.yul\":1025:1143   */\n    tag_72:\n        /* \"#utility.yul\":1112:1136   */\n      tag_103\n        /* \"#utility.yul\":1130:1135   */\n      dup2\n        /* \"#utility.yul\":1112:1136   */\n      tag_69\n      jump\t// in\n    tag_103:\n        /* \"#utility.yul\":1107:1110   */\n      dup3\n        /* \"#utility.yul\":1100:1137   */\n      mstore\n        /* \"#utility.yul\":1025:1143   */\n      pop\n      pop\n      jump\t// out\n        /* \"#utility.yul\":1149:1371   */\n    tag_19:\n        /* \"#utility.yul\":1242:1246   */\n      0x00\n        /* \"#utility.yul\":1280:1282   */\n      0x20\n        /* \"#utility.yul\":1269:1278   */\n      dup3\n        /* \"#utility.yul\":1265:1283   */\n      add\n        /* \"#utility.yul\":1257:1283   */\n      swap1\n      pop\n        /* \"#utility.yul\":1293:1364   */\n      tag_105\n        /* \"#utility.yul\":1361:1362   */\n      0x00\n        /* \"#utility.yul\":1350:1359   */\n      dup4\n        /* \"#utility.yul\":1346:1363   */\n      add\n        /* \"#utility.yul\":1337:1343   */\n      dup5\n        /* \"#utility.yul\":1293:1364   */\n      tag_72\n      jump\t// in\n    tag_105:\n        /* \"#utility.yul\":1149:1371   */\n      swap3\n      swap2\n      pop\n      pop\n      jump\t// out\n        /* \"#utility.yul\":1377:1503   */\n    tag_73:\n        /* \"#utility.yul\":1414:1421   */\n      0x00\n        /* \"#utility.yul\":1454:1496   */\n      0xffffffffffffffffffffffffffffffffffffffff\n        /* \"#utility.yul\":1447:1452   */\n      dup3\n        /* \"#utility.yul\":1443:1497   */\n      and\n        /* \"#utility.yul\":1432:1497   */\n      swap1\n      pop\n        /* \"#utility.yul\":1377:1503   */\n      swap2\n      swap1\n      pop\n      jump\t// out\n        /* \"#utility.yul\":1509:1605   */\n    tag_74:\n        /* \"#utility.yul\":1546:1553   */\n      0x00\n        /* \"#utility.yul\":1575:1599   */\n      tag_108\n        /* \"#utility.yul\":1593:1598   */\n      dup3\n        /* \"#utility.yul\":1575:1599   */\n      tag_73\n      jump\t// in\n    tag_108:\n        /* \"#utility.yul\":1564:1599   */\n      swap1\n      pop\n        /* \"#utility.yul\":1509:1605   */\n      swap2\n      swap1\n      pop\n      jump\t// out\n        /* \"#utility.yul\":1611:1729   */\n    tag_75:\n        /* \"#utility.yul\":1698:1722   */\n      tag_110\n        /* \"#utility.yul\":1716:1721   */\n      dup2\n        /* \"#utility.yul\":1698:1722   */\n      tag_74\n      jump\t// in\n    tag_110:\n        /* \"#utility.yul\":1693:1696   */\n      dup3\n        /* \"#utility.yul\":1686:1723   */\n      mstore\n        /* \"#utility.yul\":1611:1729   */\n      pop\n      pop\n      jump\t// out\n        /* \"#utility.yul\":1735:1957   */\n    tag_28:\n        /* \"#utility.yul\":1828:1832   */\n      0x00\n        /* \"#utility.yul\":1866:1868   */\n      0x20\n        /* \"#utility.yul\":1855:1864   */\n      dup3\n        /* \"#utility.yul\":1851:1869   */\n      add\n        /* \"#utility.yul\":1843:1869   */\n      swap1\n      pop\n        /* \"#utility.yul\":1879:1950   */\n      tag_112\n        /* \"#utility.yul\":1947:1948   */\n      0x00\n        /* \"#utility.yul\":1936:1945   */\n      dup4\n        /* \"#utility.yul\":1932:1949   */\n      add\n        /* \"#utility.yul\":1923:1929   */\n      dup5\n        /* \"#utility.yul\":1879:1950   */\n      tag_75\n      jump\t// in\n    tag_112:\n        /* \"#utility.yul\":1735:1957   */\n      swap3\n      swap2\n      pop\n      pop\n      jump\t// out\n        /* \"#utility.yul\":1963:2085   */\n    tag_76:\n        /* \"#utility.yul\":2036:2060   */\n      tag_114\n        /* \"#utility.yul\":2054:2059   */\n      dup2\n        /* \"#utility.yul\":2036:2060   */\n      tag_74\n      jump\t// in\n    tag_114:\n        /* \"#utility.yul\":2029:2034   */\n      dup2\n        /* \"#utility.yul\":2026:2061   */\n      eq\n        /* \"#utility.yul\":2016:2079   */\n      tag_115\n      jumpi\n        /* \"#utility.yul\":2075:2076   */\n      0x00\n        /* \"#utility.yul\":2072:2073   */\n      dup1\n        /* \"#utility.yul\":2065:2077   */\n      revert\n        /* \"#utility.yul\":2016:2079   */\n    tag_115:\n        /* \"#utility.yul\":1963:2085   */\n      pop\n      jump\t// out\n        /* \"#utility.yul\":2091:2230   */\n    tag_77:\n        /* \"#utility.yul\":2137:2142   */\n      0x00\n        /* \"#utility.yul\":2175:2181   */\n      dup2\n        /* \"#utility.yul\":2162:2182   */\n      calldataload\n        /* \"#utility.yul\":2153:2182   */\n      swap1\n      pop\n        /* \"#utility.yul\":2191:2224   */\n      tag_117\n        /* \"#utility.yul\":2218:2223   */\n      dup2\n        /* \"#utility.yul\":2191:2224   */\n      tag_76\n      jump\t// in\n    tag_117:\n        /* \"#utility.yul\":2091:2230   */\n      swap3\n      swap2\n      pop\n      pop\n      jump\t// out\n        /* \"#utility.yul\":2236:2565   */\n    tag_32:\n        /* \"#utility.yul\":2295:2301   */\n      0x00\n        /* \"#utility.yul\":2344:2346   */\n      0x20\n        /* \"#utility.yul\":2332:2341   */\n      dup3\n        /* \"#utility.yul\":2323:2330   */\n      dup5\n        /* \"#utility.yul\":2319:2342   */\n      sub\n        /* \"#utility.yul\":2315:2347   */\n      slt\n        /* \"#utility.yul\":2312:2431   */\n      iszero\n      tag_119\n      jumpi\n        /* \"#utility.yul\":2350:2429   */\n      tag_120\n      tag_67\n      jump\t// in\n    tag_120:\n        /* \"#utility.yul\":2312:2431   */\n    tag_119:\n        /* \"#utility.yul\":2470:2471   */\n      0x00\n        /* \"#utility.yul\":2495:2548   */\n      tag_121\n        /* \"#utility.yul\":2540:2547   */\n      dup5\n        /* \"#utility.yul\":2531:2537   */\n      dup3\n        /* \"#utility.yul\":2520:2529   */\n      dup6\n        /* \"#utility.yul\":2516:2538   */\n      add\n        /* \"#utility.yul\":2495:2548   */\n      tag_77\n      jump\t// in\n    tag_121:\n        /* \"#utility.yul\":2485:2548   */\n      swap2\n      pop\n        /* \"#utility.yul\":2441:2558   */\n      pop\n        /* \"#utility.yul\":2236:2565   */\n      swap3\n      swap2\n      pop\n      pop\n      jump\t// out\n        /* \"#utility.yul\":2571:2675   */\n    tag_78:\n        /* \"#utility.yul\":2616:2623   */\n      0x00\n        /* \"#utility.yul\":2645:2669   */\n      tag_123\n        /* \"#utility.yul\":2663:2668   */\n      dup3\n        /* \"#utility.yul\":2645:2669   */\n      tag_73\n      jump\t// in\n    tag_123:\n        /* \"#utility.yul\":2634:2669   */\n      swap1\n      pop\n        /* \"#utility.yul\":2571:2675   */\n      swap2\n      swap1\n      pop\n      jump\t// out\n        /* \"#utility.yul\":2681:2819   */\n    tag_79:\n        /* \"#utility.yul\":2762:2794   */\n      tag_125\n        /* \"#utility.yul\":2788:2793   */\n      dup2\n        /* \"#utility.yul\":2762:2794   */\n      tag_78\n      jump\t// in\n    tag_125:\n        /* \"#utility.yul\":2755:2760   */\n      dup2\n        /* \"#utility.yul\":2752:2795   */\n      eq\n        /* \"#utility.yul\":2742:2813   */\n      tag_126\n      jumpi\n        /* \"#utility.yul\":2809:2810   */\n      0x00\n        /* \"#utility.yul\":2806:2807   */\n      dup1\n        /* \"#utility.yul\":2799:2811   */\n      revert\n        /* \"#utility.yul\":2742:2813   */\n    tag_126:\n        /* \"#utility.yul\":2681:2819   */\n      pop\n      jump\t// out\n        /* \"#utility.yul\":2825:2980   */\n    tag_80:\n        /* \"#utility.yul\":2879:2884   */\n      0x00\n        /* \"#utility.yul\":2917:2923   */\n      dup2\n        /* \"#utility.yul\":2904:2924   */\n      calldataload\n        /* \"#utility.yul\":2895:2924   */\n      swap1\n      pop\n        /* \"#utility.yul\":2933:2974   */\n      tag_128\n        /* \"#utility.yul\":2968:2973   */\n      dup2\n        /* \"#utility.yul\":2933:2974   */\n      tag_79\n      jump\t// in\n    tag_128:\n        /* \"#utility.yul\":2825:2980   */\n      swap3\n      swap2\n      pop\n      pop\n      jump\t// out\n        /* \"#utility.yul\":2986:3476   */\n    tag_38:\n        /* \"#utility.yul\":3062:3068   */\n      0x00\n        /* \"#utility.yul\":3070:3076   */\n      dup1\n        /* \"#utility.yul\":3119:3121   */\n      0x40\n        /* \"#utility.yul\":3107:3116   */\n      dup4\n        /* \"#utility.yul\":3098:3105   */\n      dup6\n        /* \"#utility.yul\":3094:3117   */\n      sub\n        /* \"#utility.yul\":3090:3122   */\n      slt\n        /* \"#utility.yul\":3087:3206   */\n      iszero\n      tag_130\n      jumpi\n        /* \"#utility.yul\":3125:3204   */\n      tag_131\n      tag_67\n      jump\t// in\n    tag_131:\n        /* \"#utility.yul\":3087:3206   */\n    tag_130:\n        /* \"#utility.yul\":3245:3246   */\n      0x00\n        /* \"#utility.yul\":3270:3331   */\n      tag_132\n        /* \"#utility.yul\":3323:3330   */\n      dup6\n        /* \"#utility.yul\":3314:3320   */\n      dup3\n        /* \"#utility.yul\":3303:3312   */\n      dup7\n        /* \"#utility.yul\":3299:3321   */\n      add\n        /* \"#utility.yul\":3270:3331   */\n      tag_80\n      jump\t// in\n    tag_132:\n        /* \"#utility.yul\":3260:3331   */\n      swap3\n      pop\n        /* \"#utility.yul\":3216:3341   */\n      pop\n        /* \"#utility.yul\":3380:3382   */\n      0x20\n        /* \"#utility.yul\":3406:3459   */\n      tag_133\n        /* \"#utility.yul\":3451:3458   */\n      dup6\n        /* \"#utility.yul\":3442:3448   */\n      dup3\n        /* \"#utility.yul\":3431:3440   */\n      dup7\n        /* \"#utility.yul\":3427:3449   */\n      add\n        /* \"#utility.yul\":3406:3459   */\n      tag_71\n      jump\t// in\n    tag_133:\n        /* \"#utility.yul\":3396:3459   */\n      swap2\n      pop\n        /* \"#utility.yul\":3351:3469   */\n      pop\n        /* \"#utility.yul\":2986:3476   */\n      swap3\n      pop\n      swap3\n      swap1\n      pop\n      jump\t// out\n        /* \"#utility.yul\":3482:3662   */\n    tag_81:\n        /* \"#utility.yul\":3530:3607   */\n      0x4e487b7100000000000000000000000000000000000000000000000000000000\n        /* \"#utility.yul\":3527:3528   */\n      0x00\n        /* \"#utility.yul\":3520:3608   */\n      mstore\n        /* \"#utility.yul\":3627:3631   */\n      0x11\n        /* \"#utility.yul\":3624:3625   */\n      0x04\n        /* \"#utility.yul\":3617:3632   */\n      mstore\n        /* \"#utility.yul\":3651:3655   */\n      0x24\n        /* \"#utility.yul\":3648:3649   */\n      0x00\n        /* \"#utility.yul\":3641:3656   */\n      revert\n        /* \"#utility.yul\":3668:3859   */\n    tag_42:\n        /* \"#utility.yul\":3708:3711   */\n      0x00\n        /* \"#utility.yul\":3727:3747   */\n      tag_136\n        /* \"#utility.yul\":3745:3746   */\n      dup3\n        /* \"#utility.yul\":3727:3747   */\n      tag_69\n      jump\t// in\n    tag_136:\n        /* \"#utility.yul\":3722:3747   */\n      swap2\n      pop\n        /* \"#utility.yul\":3761:3781   */\n      tag_137\n        /* \"#utility.yul\":3779:3780   */\n      dup4\n        /* \"#utility.yul\":3761:3781   */\n      tag_69\n      jump\t// in\n    tag_137:\n        /* \"#utility.yul\":3756:3781   */\n      swap3\n      pop\n        /* \"#utility.yul\":3804:3805   */\n      dup3\n        /* \"#utility.yul\":3801:3802   */\n      dup3\n        /* \"#utility.yul\":3797:3806   */\n      add\n        /* \"#utility.yul\":3790:3806   */\n      swap1\n      pop\n        /* \"#utility.yul\":3825:3828   */\n      dup1\n        /* \"#utility.yul\":3822:3823   */\n      dup3\n        /* \"#utility.yul\":3819:3829   */\n      gt\n        /* \"#utility.yul\":3816:3852   */\n      iszero\n      tag_138\n      jumpi\n        /* \"#utility.yul\":3832:3850   */\n      tag_139\n      tag_81\n      jump\t// in\n    tag_139:\n        /* \"#utility.yul\":3816:3852   */\n    tag_138:\n        /* \"#utility.yul\":3668:3859   */\n      swap3\n      swap2\n      pop\n      pop\n      jump\t// out\n        /* \"#utility.yul\":3865:4045   */\n    tag_45:\n        /* \"#utility.yul\":3913:3990   */\n      0x4e487b7100000000000000000000000000000000000000000000000000000000\n        /* \"#utility.yul\":3910:3911   */\n      0x00\n        /* \"#utility.yul\":3903:3991   */\n      mstore\n        /* \"#utility.yul\":4010:4014   */\n      0x01\n        /* \"#utility.yul\":4007:4008   */\n      0x04\n        /* \"#utility.yul\":4000:4015   */\n      mstore\n        /* \"#utility.yul\":4034:4038   */\n      0x24\n        /* \"#utility.yul\":4031:4032   */\n      0x00\n        /* \"#utility.yul\":4024:4039   */\n      revert\n        /* \"#utility.yul\":4051:4231   */\n    tag_82:\n        /* \"#utility.yul\":4099:4176   */\n      0x4e487b7100000000000000000000000000000000000000000000000000000000\n        /* \"#utility.yul\":4096:4097   */\n      0x00\n        /* \"#utility.yul\":4089:4177   */\n      mstore\n        /* \"#utility.yul\":4196:4200   */\n      0x12\n        /* \"#utility.yul\":4193:4194   */\n      0x04\n        /* \"#utility.yul\":4186:4201   */\n      mstore\n        /* \"#utility.yul\":4220:4224   */\n      0x24\n        /* \"#utility.yul\":4217:4218   */\n      0x00\n        /* \"#utility.yul\":4210:4225   */\n      revert\n        /* \"#utility.yul\":4237:4422   */\n    tag_49:\n        /* \"#utility.yul\":4277:4278   */\n      0x00\n        /* \"#utility.yul\":4294:4314   */\n      tag_143\n        /* \"#utility.yul\":4312:4313   */\n      dup3\n        /* \"#utility.yul\":4294:4314   */\n      tag_69\n      jump\t// in\n    tag_143:\n        /* \"#utility.yul\":4289:4314   */\n      swap2\n      pop\n        /* \"#utility.yul\":4328:4348   */\n      tag_144\n        /* \"#utility.yul\":4346:4347   */\n      dup4\n        /* \"#utility.yul\":4328:4348   */\n      tag_69\n      jump\t// in\n    tag_144:\n        /* \"#utility.yul\":4323:4348   */\n      swap3\n      pop\n        /* \"#utility.yul\":4367:4368   */\n      dup3\n        /* \"#utility.yul\":4357:4392   */\n      tag_145\n      jumpi\n        /* \"#utility.yul\":4372:4390   */\n      tag_146\n      tag_82\n      jump\t// in\n    tag_146:\n        /* \"#utility.yul\":4357:4392   */\n    tag_145:\n        /* \"#utility.yul\":4414:4415   */\n      dup3\n        /* \"#utility.yul\":4411:4412   */\n      dup3\n        /* \"#utility.yul\":4407:4416   */\n      div\n        /* \"#utility.yul\":4402:4416   */\n      swap1\n      pop\n        /* \"#utility.yul\":4237:4422   */\n      swap3\n      swap2\n      pop\n      pop\n      jump\t// out\n        /* \"#utility.yul\":4428:4597   */\n    tag_83:\n        /* \"#utility.yul\":4512:4523   */\n      0x00\n        /* \"#utility.yul\":4546:4552   */\n      dup3\n        /* \"#utility.yul\":4541:4544   */\n      dup3\n        /* \"#utility.yul\":4534:4553   */\n      mstore\n        /* \"#utility.yul\":4586:4590   */\n      0x20\n        /* \"#utility.yul\":4581:4584   */\n      dup3\n        /* \"#utility.yul\":4577:4591   */\n      add\n        /* \"#utility.yul\":4562:4591   */\n      swap1\n      pop\n        /* \"#utility.yul\":4428:4597   */\n      swap3\n      swap2\n      pop\n      pop\n      jump\t// out\n        /* \"#utility.yul\":4603:4774   */\n    tag_84:\n        /* \"#utility.yul\":4743:4766   */\n      0x596f7520617265206e6f7420746865206f776e65720000000000000000000000\n        /* \"#utility.yul\":4739:4740   */\n      0x00\n        /* \"#utility.yul\":4731:4737   */\n      dup3\n        /* \"#utility.yul\":4727:4741   */\n      add\n        /* \"#utility.yul\":4720:4767   */\n      mstore\n        /* \"#utility.yul\":4603:4774   */\n      pop\n      jump\t// out\n        /* \"#utility.yul\":4780:5146   */\n    tag_85:\n        /* \"#utility.yul\":4922:4925   */\n      0x00\n        /* \"#utility.yul\":4943:5010   */\n      tag_150\n        /* \"#utility.yul\":5007:5009   */\n      0x15\n        /* \"#utility.yul\":5002:5005   */\n      dup4\n        /* \"#utility.yul\":4943:5010   */\n      tag_83\n      jump\t// in\n    tag_150:\n        /* \"#utility.yul\":4936:5010   */\n      swap2\n      pop\n        /* \"#utility.yul\":5019:5112   */\n      tag_151\n        /* \"#utility.yul\":5108:5111   */\n      dup3\n        /* \"#utility.yul\":5019:5112   */\n      tag_84\n      jump\t// in\n    tag_151:\n        /* \"#utility.yul\":5137:5139   */\n      0x20\n        /* \"#utility.yul\":5132:5135   */\n      dup3\n        /* \"#utility.yul\":5128:5140   */\n      add\n        /* \"#utility.yul\":5121:5140   */\n      swap1\n      pop\n        /* \"#utility.yul\":4780:5146   */\n      swap2\n      swap1\n      pop\n      jump\t// out\n        /* \"#utility.yul\":5152:5571   */\n    tag_53:\n        /* \"#utility.yul\":5318:5322   */\n      0x00\n        /* \"#utility.yul\":5356:5358   */\n      0x20\n        /* \"#utility.yul\":5345:5354   */\n      dup3\n        /* \"#utility.yul\":5341:5359   */\n      add\n        /* \"#utility.yul\":5333:5359   */\n      swap1\n      pop\n        /* \"#utility.yul\":5405:5414   */\n      dup2\n        /* \"#utility.yul\":5399:5403   */\n      dup2\n        /* \"#utility.yul\":5395:5415   */\n      sub\n        /* \"#utility.yul\":5391:5392   */\n      0x00\n        /* \"#utility.yul\":5380:5389   */\n      dup4\n        /* \"#utility.yul\":5376:5393   */\n      add\n        /* \"#utility.yul\":5369:5416   */\n      mstore\n        /* \"#utility.yul\":5433:5564   */\n      tag_153\n        /* \"#utility.yul\":5559:5563   */\n      dup2\n        /* \"#utility.yul\":5433:5564   */\n      tag_85\n      jump\t// in\n    tag_153:\n        /* \"#utility.yul\":5425:5564   */\n      swap1\n      pop\n        /* \"#utility.yul\":5152:5571   */\n      swap2\n      swap1\n      pop\n      jump\t// out\n        /* \"#utility.yul\":5577:5744   */\n    tag_86:\n        /* \"#utility.yul\":5717:5736   */\n      0x6e6f7420656e6f7567682066756e64732e000000000000000000000000000000\n        /* \"#utility.yul\":5713:5714   */\n      0x00\n        /* \"#utility.yul\":5705:5711   */\n      dup3\n        /* \"#utility.yul\":5701:5715   */\n      add\n        /* \"#utility.yul\":5694:5737   */\n      mstore\n        /* \"#utility.yul\":5577:5744   */\n      pop\n      jump\t// out\n        /* \"#utility.yul\":5750:6116   */\n    tag_87:\n        /* \"#utility.yul\":5892:5895   */\n      0x00\n        /* \"#utility.yul\":5913:5980   */\n      tag_156\n        /* \"#utility.yul\":5977:5979   */\n      0x11\n        /* \"#utility.yul\":5972:5975   */\n      dup4\n        /* \"#utility.yul\":5913:5980   */\n      tag_83\n      jump\t// in\n    tag_156:\n        /* \"#utility.yul\":5906:5980   */\n      swap2\n      pop\n        /* \"#utility.yul\":5989:6082   */\n      tag_157\n        /* \"#utility.yul\":6078:6081   */\n      dup3\n        /* \"#utility.yul\":5989:6082   */\n      tag_86\n      jump\t// in\n    tag_157:\n        /* \"#utility.yul\":6107:6109   */\n      0x20\n        /* \"#utility.yul\":6102:6105   */\n      dup3\n        /* \"#utility.yul\":6098:6110   */\n      add\n        /* \"#utility.yul\":6091:6110   */\n      swap1\n      pop\n        /* \"#utility.yul\":5750:6116   */\n      swap2\n      swap1\n      pop\n      jump\t// out\n        /* \"#utility.yul\":6122:6541   */\n    tag_58:\n        /* \"#utility.yul\":6288:6292   */\n      0x00\n        /* \"#utility.yul\":6326:6328   */\n      0x20\n        /* \"#utility.yul\":6315:6324   */\n      dup3\n        /* \"#utility.yul\":6311:6329   */\n      add\n        /* \"#utility.yul\":6303:6329   */\n      swap1\n      pop\n        /* \"#utility.yul\":6375:6384   */\n      dup2\n        /* \"#utility.yul\":6369:6373   */\n      dup2\n        /* \"#utility.yul\":6365:6385   */\n      sub\n        /* \"#utility.yul\":6361:6362   */\n      0x00\n        /* \"#utility.yul\":6350:6359   */\n      dup4\n        /* \"#utility.yul\":6346:6363   */\n      add\n        /* \"#utility.yul\":6339:6386   */\n      mstore\n        /* \"#utility.yul\":6403:6534   */\n      tag_159\n        /* \"#utility.yul\":6529:6533   */\n      dup2\n        /* \"#utility.yul\":6403:6534   */\n      tag_87\n      jump\t// in\n    tag_159:\n        /* \"#utility.yul\":6395:6534   */\n      swap1\n      pop\n        /* \"#utility.yul\":6122:6541   */\n      swap2\n      swap1\n      pop\n      jump\t// out\n        /* \"#utility.yul\":6547:6741   */\n    tag_60:\n        /* \"#utility.yul\":6587:6591   */\n      0x00\n        /* \"#utility.yul\":6607:6627   */\n      tag_161\n        /* \"#utility.yul\":6625:6626   */\n      dup3\n        /* \"#utility.yul\":6607:6627   */\n      tag_69\n      jump\t// in\n    tag_161:\n        /* \"#utility.yul\":6602:6627   */\n      swap2\n      pop\n        /* \"#utility.yul\":6641:6661   */\n      tag_162\n        /* \"#utility.yul\":6659:6660   */\n      dup4\n        /* \"#utility.yul\":6641:6661   */\n      tag_69\n      jump\t// in\n    tag_162:\n        /* \"#utility.yul\":6636:6661   */\n      swap3\n      pop\n        /* \"#utility.yul\":6685:6686   */\n      dup3\n        /* \"#utility.yul\":6682:6683   */\n      dup3\n        /* \"#utility.yul\":6678:6687   */\n      sub\n        /* \"#utility.yul\":6670:6687   */\n      swap1\n      pop\n        /* \"#utility.yul\":6709:6710   */\n      dup2\n        /* \"#utility.yul\":6703:6707   */\n      dup2\n        /* \"#utility.yul\":6700:6711   */\n      gt\n        /* \"#utility.yul\":6697:6734   */\n      iszero\n      tag_163\n      jumpi\n        /* \"#utility.yul\":6714:6732   */\n      tag_164\n      tag_81\n      jump\t// in\n    tag_164:\n        /* \"#utility.yul\":6697:6734   */\n    tag_163:\n        /* \"#utility.yul\":6547:6741   */\n      swap3\n      swap2\n      pop\n      pop\n      jump\t// out\n\n    auxdata: 0xa264697066735822122039efc49e330b0aac70b2706f7aed96acdfddc6f18c715fd23639a9ee51c40e9d64736f6c63430008180033\n}\n",
				"bytecode": {
					"linkReferences": {},
					"object": "608060405234801561000f575f80fd5b503360015f6101000a81548173ffffffffffffffffffffffffffffffffffffffff021916908373ffffffffffffffffffffffffffffffffffffffff1602179055506108ee8061005d5f395ff3fe608060405260043610610058575f3560e01c80630718b2f81461006b5780636d26ec18146100a757806385474728146100b1578063893d20e8146100c7578063d18a42e1146100f1578063f274c8971461012d57610067565b3661006757610065610155565b005b5f80fd5b348015610076575f80fd5b50610091600480360381019061008c9190610542565b61023d565b60405161009e919061057c565b60405180910390f35b6100af610155565b005b3480156100bc575f80fd5b506100c5610259565b005b3480156100d2575f80fd5b506100db610322565b6040516100e891906105d4565b60405180910390f35b3480156100fc575f80fd5b5061011760048036038101906101129190610617565b61034a565b604051610124919061057c565b60405180910390f35b348015610138575f80fd5b50610153600480360381019061014e919061067d565b61035e565b005b5f803373ffffffffffffffffffffffffffffffffffffffff1673ffffffffffffffffffffffffffffffffffffffff1681526020019081526020015f2054345f803373ffffffffffffffffffffffffffffffffffffffff1673ffffffffffffffffffffffffffffffffffffffff1681526020019081526020015f20546101da91906106e8565b10156101e9576101e861071b565b5b345f803373ffffffffffffffffffffffffffffffffffffffff1673ffffffffffffffffffffffffffffffffffffffff1681526020019081526020015f205f82825461023491906106e8565b92505081905550565b5f670de0b6b3a7640000826102529190610775565b9050919050565b60015f9054906101000a900473ffffffffffffffffffffffffffffffffffffffff1673ffffffffffffffffffffffffffffffffffffffff163373ffffffffffffffffffffffffffffffffffffffff16146102e8576040517f08c379a00000000000000000000000000000000000000000000000000000000081526004016102df906107ff565b60405180910390fd5b60015f9054906101000a900473ffffffffffffffffffffffffffffffffffffffff1673ffffffffffffffffffffffffffffffffffffffff16ff5b5f60015f9054906101000a900473ffffffffffffffffffffffffffffffffffffffff16905090565b5f602052805f5260405f205f915090505481565b5f803373ffffffffffffffffffffffffffffffffffffffff1673ffffffffffffffffffffffffffffffffffffffff1681526020019081526020015f20548111156103dd576040517f08c379a00000000000000000000000000000000000000000000000000000000081526004016103d490610867565b60405180910390fd5b805f803373ffffffffffffffffffffffffffffffffffffffff1673ffffffffffffffffffffffffffffffffffffffff1681526020019081526020015f20546104259190610885565b5f803373ffffffffffffffffffffffffffffffffffffffff1673ffffffffffffffffffffffffffffffffffffffff1681526020019081526020015f205410156104715761047061071b565b5b805f803373ffffffffffffffffffffffffffffffffffffffff1673ffffffffffffffffffffffffffffffffffffffff1681526020019081526020015f205f8282546104bc9190610885565b925050819055508173ffffffffffffffffffffffffffffffffffffffff166108fc8290811502906040515f60405180830381858888f19350505050158015610506573d5f803e3d5ffd5b505050565b5f80fd5b5f819050919050565b6105218161050f565b811461052b575f80fd5b50565b5f8135905061053c81610518565b92915050565b5f602082840312156105575761055661050b565b5b5f6105648482850161052e565b91505092915050565b6105768161050f565b82525050565b5f60208201905061058f5f83018461056d565b92915050565b5f73ffffffffffffffffffffffffffffffffffffffff82169050919050565b5f6105be82610595565b9050919050565b6105ce816105b4565b82525050565b5f6020820190506105e75f8301846105c5565b92915050565b6105f6816105b4565b8114610600575f80fd5b50565b5f81359050610611816105ed565b92915050565b5f6020828403121561062c5761062b61050b565b5b5f61063984828501610603565b91505092915050565b5f61064c82610595565b9050919050565b61065c81610642565b8114610666575f80fd5b50565b5f8135905061067781610653565b92915050565b5f80604083850312156106935761069261050b565b5b5f6106a085828601610669565b92505060206106b18582860161052e565b9150509250929050565b7f4e487b71000000000000000000000000000000000000000000000000000000005f52601160045260245ffd5b5f6106f28261050f565b91506106fd8361050f565b9250828201905080821115610715576107146106bb565b5b92915050565b7f4e487b71000000000000000000000000000000000000000000000000000000005f52600160045260245ffd5b7f4e487b71000000000000000000000000000000000000000000000000000000005f52601260045260245ffd5b5f61077f8261050f565b915061078a8361050f565b92508261079a57610799610748565b5b828204905092915050565b5f82825260208201905092915050565b7f596f7520617265206e6f7420746865206f776e657200000000000000000000005f82015250565b5f6107e96015836107a5565b91506107f4826107b5565b602082019050919050565b5f6020820190508181035f830152610816816107dd565b9050919050565b7f6e6f7420656e6f7567682066756e64732e0000000000000000000000000000005f82015250565b5f6108516011836107a5565b915061085c8261081d565b602082019050919050565b5f6020820190508181035f83015261087e81610845565b9050919050565b5f61088f8261050f565b915061089a8361050f565b92508282039050818111156108b2576108b16106bb565b5b9291505056fea264697066735822122039efc49e330b0aac70b2706f7aed96acdfddc6f18c715fd23639a9ee51c40e9d64736f6c63430008180033",
					"opcodes": "PUSH1 0x80 PUSH1 0x40 MSTORE CALLVALUE DUP1 ISZERO PUSH2 0xF JUMPI PUSH0 DUP1 REVERT JUMPDEST POP CALLER PUSH1 0x1 PUSH0 PUSH2 0x100 EXP DUP2 SLOAD DUP2 PUSH20 0xFFFFFFFFFFFFFFFFFFFFFFFFFFFFFFFFFFFFFFFF MUL NOT AND SWAP1 DUP4 PUSH20 0xFFFFFFFFFFFFFFFFFFFFFFFFFFFFFFFFFFFFFFFF AND MUL OR SWAP1 SSTORE POP PUSH2 0x8EE DUP1 PUSH2 0x5D PUSH0 CODECOPY PUSH0 RETURN INVALID PUSH1 0x80 PUSH1 0x40 MSTORE PUSH1 0x4 CALLDATASIZE LT PUSH2 0x58 JUMPI PUSH0 CALLDATALOAD PUSH1 0xE0 SHR DUP1 PUSH4 0x718B2F8 EQ PUSH2 0x6B JUMPI DUP1 PUSH4 0x6D26EC18 EQ PUSH2 0xA7 JUMPI DUP1 PUSH4 0x85474728 EQ PUSH2 0xB1 JUMPI DUP1 PUSH4 0x893D20E8 EQ PUSH2 0xC7 JUMPI DUP1 PUSH4 0xD18A42E1 EQ PUSH2 0xF1 JUMPI DUP1 PUSH4 0xF274C897 EQ PUSH2 0x12D JUMPI PUSH2 0x67 JUMP JUMPDEST CALLDATASIZE PUSH2 0x67 JUMPI PUSH2 0x65 PUSH2 0x155 JUMP JUMPDEST STOP JUMPDEST PUSH0 DUP1 REVERT JUMPDEST CALLVALUE DUP1 ISZERO PUSH2 0x76 JUMPI PUSH0 DUP1 REVERT JUMPDEST POP PUSH2 0x91 PUSH1 0x4 DUP1 CALLDATASIZE SUB DUP2 ADD SWAP1 PUSH2 0x8C SWAP2 SWAP1 PUSH2 0x542 JUMP JUMPDEST PUSH2 0x23D JUMP JUMPDEST PUSH1 0x40 MLOAD PUSH2 0x9E SWAP2 SWAP1 PUSH2 0x57C JUMP JUMPDEST PUSH1 0x40 MLOAD DUP1 SWAP2 SUB SWAP1 RETURN JUMPDEST PUSH2 0xAF PUSH2 0x155 JUMP JUMPDEST STOP JUMPDEST CALLVALUE DUP1 ISZERO PUSH2 0xBC JUMPI PUSH0 DUP1 REVERT JUMPDEST POP PUSH2 0xC5 PUSH2 0x259 JUMP JUMPDEST STOP JUMPDEST CALLVALUE DUP1 ISZERO PUSH2 0xD2 JUMPI PUSH0 DUP1 REVERT JUMPDEST POP PUSH2 0xDB PUSH2 0x322 JUMP JUMPDEST PUSH1 0x40 MLOAD PUSH2 0xE8 SWAP2 SWAP1 PUSH2 0x5D4 JUMP JUMPDEST PUSH1 0x40 MLOAD DUP1 SWAP2 SUB SWAP1 RETURN JUMPDEST CALLVALUE DUP1 ISZERO PUSH2 0xFC JUMPI PUSH0 DUP1 REVERT JUMPDEST POP PUSH2 0x117 PUSH1 0x4 DUP1 CALLDATASIZE SUB DUP2 ADD SWAP1 PUSH2 0x112 SWAP2 SWAP1 PUSH2 0x617 JUMP JUMPDEST PUSH2 0x34A JUMP JUMPDEST PUSH1 0x40 MLOAD PUSH2 0x124 SWAP2 SWAP1 PUSH2 0x57C JUMP JUMPDEST PUSH1 0x40 MLOAD DUP1 SWAP2 SUB SWAP1 RETURN JUMPDEST CALLVALUE DUP1 ISZERO PUSH2 0x138 JUMPI PUSH0 DUP1 REVERT JUMPDEST POP PUSH2 0x153 PUSH1 0x4 DUP1 CALLDATASIZE SUB DUP2 ADD SWAP1 PUSH2 0x14E SWAP2 SWAP1 PUSH2 0x67D JUMP JUMPDEST PUSH2 0x35E JUMP JUMPDEST STOP JUMPDEST PUSH0 DUP1 CALLER PUSH20 0xFFFFFFFFFFFFFFFFFFFFFFFFFFFFFFFFFFFFFFFF AND PUSH20 0xFFFFFFFFFFFFFFFFFFFFFFFFFFFFFFFFFFFFFFFF AND DUP2 MSTORE PUSH1 0x20 ADD SWAP1 DUP2 MSTORE PUSH1 0x20 ADD PUSH0 KECCAK256 SLOAD CALLVALUE PUSH0 DUP1 CALLER PUSH20 0xFFFFFFFFFFFFFFFFFFFFFFFFFFFFFFFFFFFFFFFF AND PUSH20 0xFFFFFFFFFFFFFFFFFFFFFFFFFFFFFFFFFFFFFFFF AND DUP2 MSTORE PUSH1 0x20 ADD SWAP1 DUP2 MSTORE PUSH1 0x20 ADD PUSH0 KECCAK256 SLOAD PUSH2 0x1DA SWAP2 SWAP1 PUSH2 0x6E8 JUMP JUMPDEST LT ISZERO PUSH2 0x1E9 JUMPI PUSH2 0x1E8 PUSH2 0x71B JUMP JUMPDEST JUMPDEST CALLVALUE PUSH0 DUP1 CALLER PUSH20 0xFFFFFFFFFFFFFFFFFFFFFFFFFFFFFFFFFFFFFFFF AND PUSH20 0xFFFFFFFFFFFFFFFFFFFFFFFFFFFFFFFFFFFFFFFF AND DUP2 MSTORE PUSH1 0x20 ADD SWAP1 DUP2 MSTORE PUSH1 0x20 ADD PUSH0 KECCAK256 PUSH0 DUP3 DUP3 SLOAD PUSH2 0x234 SWAP2 SWAP1 PUSH2 0x6E8 JUMP JUMPDEST SWAP3 POP POP DUP2 SWAP1 SSTORE POP JUMP JUMPDEST PUSH0 PUSH8 0xDE0B6B3A7640000 DUP3 PUSH2 0x252 SWAP2 SWAP1 PUSH2 0x775 JUMP JUMPDEST SWAP1 POP SWAP2 SWAP1 POP JUMP JUMPDEST PUSH1 0x1 PUSH0 SWAP1 SLOAD SWAP1 PUSH2 0x100 EXP SWAP1 DIV PUSH20 0xFFFFFFFFFFFFFFFFFFFFFFFFFFFFFFFFFFFFFFFF AND PUSH20 0xFFFFFFFFFFFFFFFFFFFFFFFFFFFFFFFFFFFFFFFF AND CALLER PUSH20 0xFFFFFFFFFFFFFFFFFFFFFFFFFFFFFFFFFFFFFFFF AND EQ PUSH2 0x2E8 JUMPI PUSH1 0x40 MLOAD PUSH32 0x8C379A000000000000000000000000000000000000000000000000000000000 DUP2 MSTORE PUSH1 0x4 ADD PUSH2 0x2DF SWAP1 PUSH2 0x7FF JUMP JUMPDEST PUSH1 0x40 MLOAD DUP1 SWAP2 SUB SWAP1 REVERT JUMPDEST PUSH1 0x1 PUSH0 SWAP1 SLOAD SWAP1 PUSH2 0x100 EXP SWAP1 DIV PUSH20 0xFFFFFFFFFFFFFFFFFFFFFFFFFFFFFFFFFFFFFFFF AND PUSH20 0xFFFFFFFFFFFFFFFFFFFFFFFFFFFFFFFFFFFFFFFF AND SELFDESTRUCT JUMPDEST PUSH0 PUSH1 0x1 PUSH0 SWAP1 SLOAD SWAP1 PUSH2 0x100 EXP SWAP1 DIV PUSH20 0xFFFFFFFFFFFFFFFFFFFFFFFFFFFFFFFFFFFFFFFF AND SWAP1 POP SWAP1 JUMP JUMPDEST PUSH0 PUSH1 0x20 MSTORE DUP1 PUSH0 MSTORE PUSH1 0x40 PUSH0 KECCAK256 PUSH0 SWAP2 POP SWAP1 POP SLOAD DUP2 JUMP JUMPDEST PUSH0 DUP1 CALLER PUSH20 0xFFFFFFFFFFFFFFFFFFFFFFFFFFFFFFFFFFFFFFFF AND PUSH20 0xFFFFFFFFFFFFFFFFFFFFFFFFFFFFFFFFFFFFFFFF AND DUP2 MSTORE PUSH1 0x20 ADD SWAP1 DUP2 MSTORE PUSH1 0x20 ADD PUSH0 KECCAK256 SLOAD DUP2 GT ISZERO PUSH2 0x3DD JUMPI PUSH1 0x40 MLOAD PUSH32 0x8C379A000000000000000000000000000000000000000000000000000000000 DUP2 MSTORE PUSH1 0x4 ADD PUSH2 0x3D4 SWAP1 PUSH2 0x867 JUMP JUMPDEST PUSH1 0x40 MLOAD DUP1 SWAP2 SUB SWAP1 REVERT JUMPDEST DUP1 PUSH0 DUP1 CALLER PUSH20 0xFFFFFFFFFFFFFFFFFFFFFFFFFFFFFFFFFFFFFFFF AND PUSH20 0xFFFFFFFFFFFFFFFFFFFFFFFFFFFFFFFFFFFFFFFF AND DUP2 MSTORE PUSH1 0x20 ADD SWAP1 DUP2 MSTORE PUSH1 0x20 ADD PUSH0 KECCAK256 SLOAD PUSH2 0x425 SWAP2 SWAP1 PUSH2 0x885 JUMP JUMPDEST PUSH0 DUP1 CALLER PUSH20 0xFFFFFFFFFFFFFFFFFFFFFFFFFFFFFFFFFFFFFFFF AND PUSH20 0xFFFFFFFFFFFFFFFFFFFFFFFFFFFFFFFFFFFFFFFF AND DUP2 MSTORE PUSH1 0x20 ADD SWAP1 DUP2 MSTORE PUSH1 0x20 ADD PUSH0 KECCAK256 SLOAD LT ISZERO PUSH2 0x471 JUMPI PUSH2 0x470 PUSH2 0x71B JUMP JUMPDEST JUMPDEST DUP1 PUSH0 DUP1 CALLER PUSH20 0xFFFFFFFFFFFFFFFFFFFFFFFFFFFFFFFFFFFFFFFF AND PUSH20 0xFFFFFFFFFFFFFFFFFFFFFFFFFFFFFFFFFFFFFFFF AND DUP2 MSTORE PUSH1 0x20 ADD SWAP1 DUP2 MSTORE PUSH1 0x20 ADD PUSH0 KECCAK256 PUSH0 DUP3 DUP3 SLOAD PUSH2 0x4BC SWAP2 SWAP1 PUSH2 0x885 JUMP JUMPDEST SWAP3 POP POP DUP2 SWAP1 SSTORE POP DUP2 PUSH20 0xFFFFFFFFFFFFFFFFFFFFFFFFFFFFFFFFFFFFFFFF AND PUSH2 0x8FC DUP3 SWAP1 DUP2 ISZERO MUL SWAP1 PUSH1 0x40 MLOAD PUSH0 PUSH1 0x40 MLOAD DUP1 DUP4 SUB DUP2 DUP6 DUP9 DUP9 CALL SWAP4 POP POP POP POP ISZERO DUP1 ISZERO PUSH2 0x506 JUMPI RETURNDATASIZE PUSH0 DUP1 RETURNDATACOPY RETURNDATASIZE PUSH0 REVERT JUMPDEST POP POP POP JUMP JUMPDEST PUSH0 DUP1 REVERT JUMPDEST PUSH0 DUP2 SWAP1 POP SWAP2 SWAP1 POP JUMP JUMPDEST PUSH2 0x521 DUP2 PUSH2 0x50F JUMP JUMPDEST DUP2 EQ PUSH2 0x52B JUMPI PUSH0 DUP1 REVERT JUMPDEST POP JUMP JUMPDEST PUSH0 DUP2 CALLDATALOAD SWAP1 POP PUSH2 0x53C DUP2 PUSH2 0x518 JUMP JUMPDEST SWAP3 SWAP2 POP POP JUMP JUMPDEST PUSH0 PUSH1 0x20 DUP3 DUP5 SUB SLT ISZERO PUSH2 0x557 JUMPI PUSH2 0x556 PUSH2 0x50B JUMP JUMPDEST JUMPDEST PUSH0 PUSH2 0x564 DUP5 DUP3 DUP6 ADD PUSH2 0x52E JUMP JUMPDEST SWAP2 POP POP SWAP3 SWAP2 POP POP JUMP JUMPDEST PUSH2 0x576 DUP2 PUSH2 0x50F JUMP JUMPDEST DUP3 MSTORE POP POP JUMP JUMPDEST PUSH0 PUSH1 0x20 DUP3 ADD SWAP1 POP PUSH2 0x58F PUSH0 DUP4 ADD DUP5 PUSH2 0x56D JUMP JUMPDEST SWAP3 SWAP2 POP POP JUMP JUMPDEST PUSH0 PUSH20 0xFFFFFFFFFFFFFFFFFFFFFFFFFFFFFFFFFFFFFFFF DUP3 AND SWAP1 POP SWAP2 SWAP1 POP JUMP JUMPDEST PUSH0 PUSH2 0x5BE DUP3 PUSH2 0x595 JUMP JUMPDEST SWAP1 POP SWAP2 SWAP1 POP JUMP JUMPDEST PUSH2 0x5CE DUP2 PUSH2 0x5B4 JUMP JUMPDEST DUP3 MSTORE POP POP JUMP JUMPDEST PUSH0 PUSH1 0x20 DUP3 ADD SWAP1 POP PUSH2 0x5E7 PUSH0 DUP4 ADD DUP5 PUSH2 0x5C5 JUMP JUMPDEST SWAP3 SWAP2 POP POP JUMP JUMPDEST PUSH2 0x5F6 DUP2 PUSH2 0x5B4 JUMP JUMPDEST DUP2 EQ PUSH2 0x600 JUMPI PUSH0 DUP1 REVERT JUMPDEST POP JUMP JUMPDEST PUSH0 DUP2 CALLDATALOAD SWAP1 POP PUSH2 0x611 DUP2 PUSH2 0x5ED JUMP JUMPDEST SWAP3 SWAP2 POP POP JUMP JUMPDEST PUSH0 PUSH1 0x20 DUP3 DUP5 SUB SLT ISZERO PUSH2 0x62C JUMPI PUSH2 0x62B PUSH2 0x50B JUMP JUMPDEST JUMPDEST PUSH0 PUSH2 0x639 DUP5 DUP3 DUP6 ADD PUSH2 0x603 JUMP JUMPDEST SWAP2 POP POP SWAP3 SWAP2 POP POP JUMP JUMPDEST PUSH0 PUSH2 0x64C DUP3 PUSH2 0x595 JUMP JUMPDEST SWAP1 POP SWAP2 SWAP1 POP JUMP JUMPDEST PUSH2 0x65C DUP2 PUSH2 0x642 JUMP JUMPDEST DUP2 EQ PUSH2 0x666 JUMPI PUSH0 DUP1 REVERT JUMPDEST POP JUMP JUMPDEST PUSH0 DUP2 CALLDATALOAD SWAP1 POP PUSH2 0x677 DUP2 PUSH2 0x653 JUMP JUMPDEST SWAP3 SWAP2 POP POP JUMP JUMPDEST PUSH0 DUP1 PUSH1 0x40 DUP4 DUP6 SUB SLT ISZERO PUSH2 0x693 JUMPI PUSH2 0x692 PUSH2 0x50B JUMP JUMPDEST JUMPDEST PUSH0 PUSH2 0x6A0 DUP6 DUP3 DUP7 ADD PUSH2 0x669 JUMP JUMPDEST SWAP3 POP POP PUSH1 0x20 PUSH2 0x6B1 DUP6 DUP3 DUP7 ADD PUSH2 0x52E JUMP JUMPDEST SWAP2 POP POP SWAP3 POP SWAP3 SWAP1 POP JUMP JUMPDEST PUSH32 0x4E487B7100000000000000000000000000000000000000000000000000000000 PUSH0 MSTORE PUSH1 0x11 PUSH1 0x4 MSTORE PUSH1 0x24 PUSH0 REVERT JUMPDEST PUSH0 PUSH2 0x6F2 DUP3 PUSH2 0x50F JUMP JUMPDEST SWAP2 POP PUSH2 0x6FD DUP4 PUSH2 0x50F JUMP JUMPDEST SWAP3 POP DUP3 DUP3 ADD SWAP1 POP DUP1 DUP3 GT ISZERO PUSH2 0x715 JUMPI PUSH2 0x714 PUSH2 0x6BB JUMP JUMPDEST JUMPDEST SWAP3 SWAP2 POP POP JUMP JUMPDEST PUSH32 0x4E487B7100000000000000000000000000000000000000000000000000000000 PUSH0 MSTORE PUSH1 0x1 PUSH1 0x4 MSTORE PUSH1 0x24 PUSH0 REVERT JUMPDEST PUSH32 0x4E487B7100000000000000000000000000000000000000000000000000000000 PUSH0 MSTORE PUSH1 0x12 PUSH1 0x4 MSTORE PUSH1 0x24 PUSH0 REVERT JUMPDEST PUSH0 PUSH2 0x77F DUP3 PUSH2 0x50F JUMP JUMPDEST SWAP2 POP PUSH2 0x78A DUP4 PUSH2 0x50F JUMP JUMPDEST SWAP3 POP DUP3 PUSH2 0x79A JUMPI PUSH2 0x799 PUSH2 0x748 JUMP JUMPDEST JUMPDEST DUP3 DUP3 DIV SWAP1 POP SWAP3 SWAP2 POP POP JUMP JUMPDEST PUSH0 DUP3 DUP3 MSTORE PUSH1 0x20 DUP3 ADD SWAP1 POP SWAP3 SWAP2 POP POP JUMP JUMPDEST PUSH32 0x596F7520617265206E6F7420746865206F776E65720000000000000000000000 PUSH0 DUP3 ADD MSTORE POP JUMP JUMPDEST PUSH0 PUSH2 0x7E9 PUSH1 0x15 DUP4 PUSH2 0x7A5 JUMP JUMPDEST SWAP2 POP PUSH2 0x7F4 DUP3 PUSH2 0x7B5 JUMP JUMPDEST PUSH1 0x20 DUP3 ADD SWAP1 POP SWAP2 SWAP1 POP JUMP JUMPDEST PUSH0 PUSH1 0x20 DUP3 ADD SWAP1 POP DUP2 DUP2 SUB PUSH0 DUP4 ADD MSTORE PUSH2 0x816 DUP2 PUSH2 0x7DD JUMP JUMPDEST SWAP1 POP SWAP2 SWAP1 POP JUMP JUMPDEST PUSH32 0x6E6F7420656E6F7567682066756E64732E000000000000000000000000000000 PUSH0 DUP3 ADD MSTORE POP JUMP JUMPDEST PUSH0 PUSH2 0x851 PUSH1 0x11 DUP4 PUSH2 0x7A5 JUMP JUMPDEST SWAP2 POP PUSH2 0x85C DUP3 PUSH2 0x81D JUMP JUMPDEST PUSH1 0x20 DUP3 ADD SWAP1 POP SWAP2 SWAP1 POP JUMP JUMPDEST PUSH0 PUSH1 0x20 DUP3 ADD SWAP1 POP DUP2 DUP2 SUB PUSH0 DUP4 ADD MSTORE PUSH2 0x87E DUP2 PUSH2 0x845 JUMP JUMPDEST SWAP1 POP SWAP2 SWAP1 POP JUMP JUMPDEST PUSH0 PUSH2 0x88F DUP3 PUSH2 0x50F JUMP JUMPDEST SWAP2 POP PUSH2 0x89A DUP4 PUSH2 0x50F JUMP JUMPDEST SWAP3 POP DUP3 DUP3 SUB SWAP1 POP DUP2 DUP2 GT ISZERO PUSH2 0x8B2 JUMPI PUSH2 0x8B1 PUSH2 0x6BB JUMP JUMPDEST JUMPDEST SWAP3 SWAP2 POP POP JUMP INVALID LOG2 PUSH5 0x6970667358 0x22 SLT KECCAK256 CODECOPY 0xEF 0xC4 SWAP15 CALLER SIGNEXTEND EXP 0xAC PUSH17 0xB2706F7AED96ACDFDDC6F18C715FD23639 0xA9 0xEE MLOAD 0xC4 0xE SWAP14 PUSH5 0x736F6C6343 STOP ADDMOD XOR STOP CALLER "
				},
				"gasEstimates": {
					"creation": {
						"codeDepositCost": "457200",
						"executionCost": "24756",
						"totalCost": "481956"
					},
					"external": {
						"balanceReceived(address)": "2867",
						"convertWeiToEth(uint256)": "infinite",
						"destroySmartContract()": "32069",
						"getOwner()": "2559",
						"receiveMoney()": "infinite",
						"withdrawMoney(address,uint256)": "infinite"
					}
				},
				"methodIdentifiers": {
					"balanceReceived(address)": "d18a42e1",
					"convertWeiToEth(uint256)": "0718b2f8",
					"destroySmartContract()": "85474728",
					"getOwner()": "893d20e8",
					"receiveMoney()": "6d26ec18",
					"withdrawMoney(address,uint256)": "f274c897"
				}
			},
			"storageLayout": {
				"storage": [
					{
						"astId": 5,
						"contract": "FallbackExample.sol:FunctionsExample",
						"label": "balanceReceived",
						"offset": 0,
						"slot": "0",
						"type": "t_mapping(t_address,t_uint256)"
					},
					{
						"astId": 7,
						"contract": "FallbackExample.sol:FunctionsExample",
						"label": "owner",
						"offset": 0,
						"slot": "1",
						"type": "t_address_payable"
					}
				],
				"types": {
					"t_address": {
						"encoding": "inplace",
						"label": "address",
						"numberOfBytes": "20"
					},
					"t_address_payable": {
						"encoding": "inplace",
						"label": "address payable",
						"numberOfBytes": "20"
					},
					"t_mapping(t_address,t_uint256)": {
						"encoding": "mapping",
						"key": "t_address",
						"label": "mapping(address => uint256)",
						"numberOfBytes": "32",
						"value": "t_uint256"
					},
					"t_uint256": {
						"encoding": "inplace",
						"label": "uint256",
						"numberOfBytes": "32"
					}
				}
			},
			"userdoc": {
				"kind": "user",
				"methods": {},
				"version": 1
			}
		}
	}
}