{
	"exceptions.sol": {
		"ExceptionExample": {
			"abi": [
				{
					"inputs": [
						{
							"internalType": "address",
							"name": "",
							"type": "address"
						}
					],
					"name": "balanceReceived",
					"outputs": [
						{
							"internalType": "uint64",
							"name": "",
							"type": "uint64"
						}
					],
					"stateMutability": "view",
					"type": "function"
				},
				{
					"inputs": [],
					"name": "receiveMoney",
					"outputs": [],
					"stateMutability": "payable",
					"type": "function"
				},
				{
					"inputs": [
						{
							"internalType": "address payable",
							"name": "_to",
							"type": "address"
						},
						{
							"internalType": "uint64",
							"name": "_amount",
							"type": "uint64"
						}
					],
					"name": "withdrawMoney",
					"outputs": [],
					"stateMutability": "nonpayable",
					"type": "function"
				}
			],
			"devdoc": {
				"kind": "dev",
				"methods": {},
				"version": 1
			},
			"evm": {
				"assembly": "    /* \"exceptions.sol\":62:719  contract ExceptionExample {... */\n  mstore(0x40, 0x80)\n  callvalue\n  dup1\n  iszero\n  tag_1\n  jumpi\n  0x00\n  dup1\n  revert\ntag_1:\n  pop\n  dataSize(sub_0)\n  dup1\n  dataOffset(sub_0)\n  0x00\n  codecopy\n  0x00\n  return\nstop\n\nsub_0: assembly {\n        /* \"exceptions.sol\":62:719  contract ExceptionExample {... */\n      mstore(0x40, 0x80)\n      jumpi(tag_1, lt(calldatasize, 0x04))\n      shr(0xe0, calldataload(0x00))\n      dup1\n      0x0ad19aeb\n      eq\n      tag_2\n      jumpi\n      dup1\n      0x6d26ec18\n      eq\n      tag_3\n      jumpi\n      dup1\n      0xd18a42e1\n      eq\n      tag_4\n      jumpi\n    tag_1:\n      0x00\n      dup1\n      revert\n        /* \"exceptions.sol\":385:716  function withdrawMoney(address payable _to, uint64 _amount) public {... */\n    tag_2:\n      callvalue\n      dup1\n      iszero\n      tag_5\n      jumpi\n      0x00\n      dup1\n      revert\n    tag_5:\n      pop\n      tag_6\n      0x04\n      dup1\n      calldatasize\n      sub\n      dup2\n      add\n      swap1\n      tag_7\n      swap2\n      swap1\n      tag_8\n      jump\t// in\n    tag_7:\n      tag_9\n      jump\t// in\n    tag_6:\n      stop\n        /* \"exceptions.sol\":155:377  function receiveMoney() public payable {... */\n    tag_3:\n      tag_10\n      tag_11\n      jump\t// in\n    tag_10:\n      stop\n        /* \"exceptions.sol\":97:146  mapping(address => uint64) public balanceReceived */\n    tag_4:\n      callvalue\n      dup1\n      iszero\n      tag_12\n      jumpi\n      0x00\n      dup1\n      revert\n    tag_12:\n      pop\n      tag_13\n      0x04\n      dup1\n      calldatasize\n      sub\n      dup2\n      add\n      swap1\n      tag_14\n      swap2\n      swap1\n      tag_15\n      jump\t// in\n    tag_14:\n      tag_16\n      jump\t// in\n    tag_13:\n      mload(0x40)\n      tag_17\n      swap2\n      swap1\n      tag_18\n      jump\t// in\n    tag_17:\n      mload(0x40)\n      dup1\n      swap2\n      sub\n      swap1\n      return\n        /* \"exceptions.sol\":385:716  function withdrawMoney(address payable _to, uint64 _amount) public {... */\n    tag_9:\n        /* \"exceptions.sol\":482:497  balanceReceived */\n      0x00\n        /* \"exceptions.sol\":482:509  balanceReceived[msg.sender] */\n      dup1\n        /* \"exceptions.sol\":498:508  msg.sender */\n      caller\n        /* \"exceptions.sol\":482:509  balanceReceived[msg.sender] */\n      0xffffffffffffffffffffffffffffffffffffffff\n      and\n      0xffffffffffffffffffffffffffffffffffffffff\n      and\n      dup2\n      mstore\n      0x20\n      add\n      swap1\n      dup2\n      mstore\n      0x20\n      add\n      0x00\n      keccak256\n      0x00\n      swap1\n      sload\n      swap1\n      0x0100\n      exp\n      swap1\n      div\n      0xffffffffffffffff\n      and\n        /* \"exceptions.sol\":471:509  _amount <= balanceReceived[msg.sender] */\n      0xffffffffffffffff\n      and\n        /* \"exceptions.sol\":471:478  _amount */\n      dup2\n        /* \"exceptions.sol\":471:509  _amount <= balanceReceived[msg.sender] */\n      0xffffffffffffffff\n      and\n      gt\n      iszero\n        /* \"exceptions.sol\":463:540  require(_amount <= balanceReceived[msg.sender], \"Not Enough Funds, aborting\") */\n      tag_20\n      jumpi\n      mload(0x40)\n      0x08c379a000000000000000000000000000000000000000000000000000000000\n      dup2\n      mstore\n      0x04\n      add\n      tag_21\n      swap1\n      tag_22\n      jump\t// in\n    tag_21:\n      mload(0x40)\n      dup1\n      swap2\n      sub\n      swap1\n      revert\n    tag_20:\n        /* \"exceptions.sol\":619:626  _amount */\n      dup1\n        /* \"exceptions.sol\":589:604  balanceReceived */\n      0x00\n        /* \"exceptions.sol\":589:616  balanceReceived[msg.sender] */\n      dup1\n        /* \"exceptions.sol\":605:615  msg.sender */\n      caller\n        /* \"exceptions.sol\":589:616  balanceReceived[msg.sender] */\n      0xffffffffffffffffffffffffffffffffffffffff\n      and\n      0xffffffffffffffffffffffffffffffffffffffff\n      and\n      dup2\n      mstore\n      0x20\n      add\n      swap1\n      dup2\n      mstore\n      0x20\n      add\n      0x00\n      keccak256\n      0x00\n      swap1\n      sload\n      swap1\n      0x0100\n      exp\n      swap1\n      div\n      0xffffffffffffffff\n      and\n        /* \"exceptions.sol\":589:626  balanceReceived[msg.sender] - _amount */\n      tag_23\n      swap2\n      swap1\n      tag_24\n      jump\t// in\n    tag_23:\n        /* \"exceptions.sol\":558:626  balanceReceived[msg.sender] >= balanceReceived[msg.sender] - _amount */\n      0xffffffffffffffff\n      and\n        /* \"exceptions.sol\":558:573  balanceReceived */\n      0x00\n        /* \"exceptions.sol\":558:585  balanceReceived[msg.sender] */\n      dup1\n        /* \"exceptions.sol\":574:584  msg.sender */\n      caller\n        /* \"exceptions.sol\":558:585  balanceReceived[msg.sender] */\n      0xffffffffffffffffffffffffffffffffffffffff\n      and\n      0xffffffffffffffffffffffffffffffffffffffff\n      and\n      dup2\n      mstore\n      0x20\n      add\n      swap1\n      dup2\n      mstore\n      0x20\n      add\n      0x00\n      keccak256\n      0x00\n      swap1\n      sload\n      swap1\n      0x0100\n      exp\n      swap1\n      div\n      0xffffffffffffffff\n      and\n        /* \"exceptions.sol\":558:626  balanceReceived[msg.sender] >= balanceReceived[msg.sender] - _amount */\n      0xffffffffffffffff\n      and\n      lt\n      iszero\n        /* \"exceptions.sol\":551:627  assert(balanceReceived[msg.sender] >= balanceReceived[msg.sender] - _amount) */\n      tag_25\n      jumpi\n      tag_26\n      tag_27\n      jump\t// in\n    tag_26:\n    tag_25:\n        /* \"exceptions.sol\":669:676  _amount */\n      dup1\n        /* \"exceptions.sol\":638:653  balanceReceived */\n      0x00\n        /* \"exceptions.sol\":638:665  balanceReceived[msg.sender] */\n      dup1\n        /* \"exceptions.sol\":654:664  msg.sender */\n      caller\n        /* \"exceptions.sol\":638:665  balanceReceived[msg.sender] */\n      0xffffffffffffffffffffffffffffffffffffffff\n      and\n      0xffffffffffffffffffffffffffffffffffffffff\n      and\n      dup2\n      mstore\n      0x20\n      add\n      swap1\n      dup2\n      mstore\n      0x20\n      add\n      0x00\n      keccak256\n      0x00\n        /* \"exceptions.sol\":638:676  balanceReceived[msg.sender] -= _amount */\n      dup3\n      dup3\n      dup3\n      swap1\n      sload\n      swap1\n      0x0100\n      exp\n      swap1\n      div\n      0xffffffffffffffff\n      and\n      tag_28\n      swap2\n      swap1\n      tag_24\n      jump\t// in\n    tag_28:\n      swap3\n      pop\n      0x0100\n      exp\n      dup2\n      sload\n      dup2\n      0xffffffffffffffff\n      mul\n      not\n      and\n      swap1\n      dup4\n      0xffffffffffffffff\n      and\n      mul\n      or\n      swap1\n      sstore\n      pop\n        /* \"exceptions.sol\":687:690  _to */\n      dup2\n        /* \"exceptions.sol\":687:699  _to.transfer */\n      0xffffffffffffffffffffffffffffffffffffffff\n      and\n        /* \"exceptions.sol\":687:708  _to.transfer(_amount) */\n      0x08fc\n        /* \"exceptions.sol\":700:707  _amount */\n      dup3\n        /* \"exceptions.sol\":687:708  _to.transfer(_amount) */\n      0xffffffffffffffff\n      and\n      swap1\n      dup2\n      iszero\n      mul\n      swap1\n      mload(0x40)\n      0x00\n      mload(0x40)\n      dup1\n      dup4\n      sub\n      dup2\n      dup6\n      dup9\n      dup9\n      call\n      swap4\n      pop\n      pop\n      pop\n      pop\n      iszero\n      dup1\n      iszero\n      tag_30\n      jumpi\n      returndatasize\n      0x00\n      dup1\n      returndatacopy\n      revert(0x00, returndatasize)\n    tag_30:\n      pop\n        /* \"exceptions.sol\":385:716  function withdrawMoney(address payable _to, uint64 _amount) public {... */\n      pop\n      pop\n      jump\t// out\n        /* \"exceptions.sol\":155:377  function receiveMoney() public payable {... */\n    tag_11:\n        /* \"exceptions.sol\":232:241  msg.value */\n      callvalue\n        /* \"exceptions.sol\":212:242  msg.value == uint64(msg.value) */\n      0xffffffffffffffff\n      and\n        /* \"exceptions.sol\":212:221  msg.value */\n      callvalue\n        /* \"exceptions.sol\":212:242  msg.value == uint64(msg.value) */\n      eq\n        /* \"exceptions.sol\":205:243  assert(msg.value == uint64(msg.value)) */\n      tag_32\n      jumpi\n      tag_33\n      tag_27\n      jump\t// in\n    tag_33:\n    tag_32:\n        /* \"exceptions.sol\":292:301  msg.value */\n      callvalue\n        /* \"exceptions.sol\":254:269  balanceReceived */\n      0x00\n        /* \"exceptions.sol\":254:281  balanceReceived[msg.sender] */\n      dup1\n        /* \"exceptions.sol\":270:280  msg.sender */\n      caller\n        /* \"exceptions.sol\":254:281  balanceReceived[msg.sender] */\n      0xffffffffffffffffffffffffffffffffffffffff\n      and\n      0xffffffffffffffffffffffffffffffffffffffff\n      and\n      dup2\n      mstore\n      0x20\n      add\n      swap1\n      dup2\n      mstore\n      0x20\n      add\n      0x00\n      keccak256\n      0x00\n        /* \"exceptions.sol\":254:302  balanceReceived[msg.sender] += uint64(msg.value) */\n      dup3\n      dup3\n      dup3\n      swap1\n      sload\n      swap1\n      0x0100\n      exp\n      swap1\n      div\n      0xffffffffffffffff\n      and\n      tag_34\n      swap2\n      swap1\n      tag_35\n      jump\t// in\n    tag_34:\n      swap3\n      pop\n      0x0100\n      exp\n      dup2\n      sload\n      dup2\n      0xffffffffffffffff\n      mul\n      not\n      and\n      swap1\n      dup4\n      0xffffffffffffffff\n      and\n      mul\n      or\n      swap1\n      sstore\n      pop\n        /* \"exceptions.sol\":358:367  msg.value */\n      callvalue\n        /* \"exceptions.sol\":320:368  balanceReceived[msg.sender] >= uint64(msg.value) */\n      0xffffffffffffffff\n      and\n        /* \"exceptions.sol\":320:335  balanceReceived */\n      0x00\n        /* \"exceptions.sol\":320:347  balanceReceived[msg.sender] */\n      dup1\n        /* \"exceptions.sol\":336:346  msg.sender */\n      caller\n        /* \"exceptions.sol\":320:347  balanceReceived[msg.sender] */\n      0xffffffffffffffffffffffffffffffffffffffff\n      and\n      0xffffffffffffffffffffffffffffffffffffffff\n      and\n      dup2\n      mstore\n      0x20\n      add\n      swap1\n      dup2\n      mstore\n      0x20\n      add\n      0x00\n      keccak256\n      0x00\n      swap1\n      sload\n      swap1\n      0x0100\n      exp\n      swap1\n      div\n      0xffffffffffffffff\n      and\n        /* \"exceptions.sol\":320:368  balanceReceived[msg.sender] >= uint64(msg.value) */\n      0xffffffffffffffff\n      and\n      lt\n      iszero\n        /* \"exceptions.sol\":313:369  assert(balanceReceived[msg.sender] >= uint64(msg.value)) */\n      tag_36\n      jumpi\n      tag_37\n      tag_27\n      jump\t// in\n    tag_37:\n    tag_36:\n        /* \"exceptions.sol\":155:377  function receiveMoney() public payable {... */\n      jump\t// out\n        /* \"exceptions.sol\":97:146  mapping(address => uint64) public balanceReceived */\n    tag_16:\n      mstore(0x20, 0x00)\n      dup1\n      0x00\n      mstore\n      keccak256(0x00, 0x40)\n      0x00\n      swap2\n      pop\n      sload\n      swap1\n      0x0100\n      exp\n      swap1\n      div\n      0xffffffffffffffff\n      and\n      dup2\n      jump\t// out\n        /* \"#utility.yul\":88:205   */\n    tag_39:\n        /* \"#utility.yul\":197:198   */\n      0x00\n        /* \"#utility.yul\":194:195   */\n      dup1\n        /* \"#utility.yul\":187:199   */\n      revert\n        /* \"#utility.yul\":334:460   */\n    tag_41:\n        /* \"#utility.yul\":371:378   */\n      0x00\n        /* \"#utility.yul\":411:453   */\n      0xffffffffffffffffffffffffffffffffffffffff\n        /* \"#utility.yul\":404:409   */\n      dup3\n        /* \"#utility.yul\":400:454   */\n      and\n        /* \"#utility.yul\":389:454   */\n      swap1\n      pop\n        /* \"#utility.yul\":334:460   */\n      swap2\n      swap1\n      pop\n      jump\t// out\n        /* \"#utility.yul\":466:570   */\n    tag_42:\n        /* \"#utility.yul\":511:518   */\n      0x00\n        /* \"#utility.yul\":540:564   */\n      tag_62\n        /* \"#utility.yul\":558:563   */\n      dup3\n        /* \"#utility.yul\":540:564   */\n      tag_41\n      jump\t// in\n    tag_62:\n        /* \"#utility.yul\":529:564   */\n      swap1\n      pop\n        /* \"#utility.yul\":466:570   */\n      swap2\n      swap1\n      pop\n      jump\t// out\n        /* \"#utility.yul\":576:714   */\n    tag_43:\n        /* \"#utility.yul\":657:689   */\n      tag_64\n        /* \"#utility.yul\":683:688   */\n      dup2\n        /* \"#utility.yul\":657:689   */\n      tag_42\n      jump\t// in\n    tag_64:\n        /* \"#utility.yul\":650:655   */\n      dup2\n        /* \"#utility.yul\":647:690   */\n      eq\n        /* \"#utility.yul\":637:708   */\n      tag_65\n      jumpi\n        /* \"#utility.yul\":704:705   */\n      0x00\n        /* \"#utility.yul\":701:702   */\n      dup1\n        /* \"#utility.yul\":694:706   */\n      revert\n        /* \"#utility.yul\":637:708   */\n    tag_65:\n        /* \"#utility.yul\":576:714   */\n      pop\n      jump\t// out\n        /* \"#utility.yul\":720:875   */\n    tag_44:\n        /* \"#utility.yul\":774:779   */\n      0x00\n        /* \"#utility.yul\":812:818   */\n      dup2\n        /* \"#utility.yul\":799:819   */\n      calldataload\n        /* \"#utility.yul\":790:819   */\n      swap1\n      pop\n        /* \"#utility.yul\":828:869   */\n      tag_67\n        /* \"#utility.yul\":863:868   */\n      dup2\n        /* \"#utility.yul\":828:869   */\n      tag_43\n      jump\t// in\n    tag_67:\n        /* \"#utility.yul\":720:875   */\n      swap3\n      swap2\n      pop\n      pop\n      jump\t// out\n        /* \"#utility.yul\":881:982   */\n    tag_45:\n        /* \"#utility.yul\":917:924   */\n      0x00\n        /* \"#utility.yul\":957:975   */\n      0xffffffffffffffff\n        /* \"#utility.yul\":950:955   */\n      dup3\n        /* \"#utility.yul\":946:976   */\n      and\n        /* \"#utility.yul\":935:976   */\n      swap1\n      pop\n        /* \"#utility.yul\":881:982   */\n      swap2\n      swap1\n      pop\n      jump\t// out\n        /* \"#utility.yul\":988:1108   */\n    tag_46:\n        /* \"#utility.yul\":1060:1083   */\n      tag_70\n        /* \"#utility.yul\":1077:1082   */\n      dup2\n        /* \"#utility.yul\":1060:1083   */\n      tag_45\n      jump\t// in\n    tag_70:\n        /* \"#utility.yul\":1053:1058   */\n      dup2\n        /* \"#utility.yul\":1050:1084   */\n      eq\n        /* \"#utility.yul\":1040:1102   */\n      tag_71\n      jumpi\n        /* \"#utility.yul\":1098:1099   */\n      0x00\n        /* \"#utility.yul\":1095:1096   */\n      dup1\n        /* \"#utility.yul\":1088:1100   */\n      revert\n        /* \"#utility.yul\":1040:1102   */\n    tag_71:\n        /* \"#utility.yul\":988:1108   */\n      pop\n      jump\t// out\n        /* \"#utility.yul\":1114:1251   */\n    tag_47:\n        /* \"#utility.yul\":1159:1164   */\n      0x00\n        /* \"#utility.yul\":1197:1203   */\n      dup2\n        /* \"#utility.yul\":1184:1204   */\n      calldataload\n        /* \"#utility.yul\":1175:1204   */\n      swap1\n      pop\n        /* \"#utility.yul\":1213:1245   */\n      tag_73\n        /* \"#utility.yul\":1239:1244   */\n      dup2\n        /* \"#utility.yul\":1213:1245   */\n      tag_46\n      jump\t// in\n    tag_73:\n        /* \"#utility.yul\":1114:1251   */\n      swap3\n      swap2\n      pop\n      pop\n      jump\t// out\n        /* \"#utility.yul\":1257:1745   */\n    tag_8:\n        /* \"#utility.yul\":1332:1338   */\n      0x00\n        /* \"#utility.yul\":1340:1346   */\n      dup1\n        /* \"#utility.yul\":1389:1391   */\n      0x40\n        /* \"#utility.yul\":1377:1386   */\n      dup4\n        /* \"#utility.yul\":1368:1375   */\n      dup6\n        /* \"#utility.yul\":1364:1387   */\n      sub\n        /* \"#utility.yul\":1360:1392   */\n      slt\n        /* \"#utility.yul\":1357:1476   */\n      iszero\n      tag_75\n      jumpi\n        /* \"#utility.yul\":1395:1474   */\n      tag_76\n      tag_39\n      jump\t// in\n    tag_76:\n        /* \"#utility.yul\":1357:1476   */\n    tag_75:\n        /* \"#utility.yul\":1515:1516   */\n      0x00\n        /* \"#utility.yul\":1540:1601   */\n      tag_77\n        /* \"#utility.yul\":1593:1600   */\n      dup6\n        /* \"#utility.yul\":1584:1590   */\n      dup3\n        /* \"#utility.yul\":1573:1582   */\n      dup7\n        /* \"#utility.yul\":1569:1591   */\n      add\n        /* \"#utility.yul\":1540:1601   */\n      tag_44\n      jump\t// in\n    tag_77:\n        /* \"#utility.yul\":1530:1601   */\n      swap3\n      pop\n        /* \"#utility.yul\":1486:1611   */\n      pop\n        /* \"#utility.yul\":1650:1652   */\n      0x20\n        /* \"#utility.yul\":1676:1728   */\n      tag_78\n        /* \"#utility.yul\":1720:1727   */\n      dup6\n        /* \"#utility.yul\":1711:1717   */\n      dup3\n        /* \"#utility.yul\":1700:1709   */\n      dup7\n        /* \"#utility.yul\":1696:1718   */\n      add\n        /* \"#utility.yul\":1676:1728   */\n      tag_47\n      jump\t// in\n    tag_78:\n        /* \"#utility.yul\":1666:1728   */\n      swap2\n      pop\n        /* \"#utility.yul\":1621:1738   */\n      pop\n        /* \"#utility.yul\":1257:1745   */\n      swap3\n      pop\n      swap3\n      swap1\n      pop\n      jump\t// out\n        /* \"#utility.yul\":1751:1847   */\n    tag_48:\n        /* \"#utility.yul\":1788:1795   */\n      0x00\n        /* \"#utility.yul\":1817:1841   */\n      tag_80\n        /* \"#utility.yul\":1835:1840   */\n      dup3\n        /* \"#utility.yul\":1817:1841   */\n      tag_41\n      jump\t// in\n    tag_80:\n        /* \"#utility.yul\":1806:1841   */\n      swap1\n      pop\n        /* \"#utility.yul\":1751:1847   */\n      swap2\n      swap1\n      pop\n      jump\t// out\n        /* \"#utility.yul\":1853:1975   */\n    tag_49:\n        /* \"#utility.yul\":1926:1950   */\n      tag_82\n        /* \"#utility.yul\":1944:1949   */\n      dup2\n        /* \"#utility.yul\":1926:1950   */\n      tag_48\n      jump\t// in\n    tag_82:\n        /* \"#utility.yul\":1919:1924   */\n      dup2\n        /* \"#utility.yul\":1916:1951   */\n      eq\n        /* \"#utility.yul\":1906:1969   */\n      tag_83\n      jumpi\n        /* \"#utility.yul\":1965:1966   */\n      0x00\n        /* \"#utility.yul\":1962:1963   */\n      dup1\n        /* \"#utility.yul\":1955:1967   */\n      revert\n        /* \"#utility.yul\":1906:1969   */\n    tag_83:\n        /* \"#utility.yul\":1853:1975   */\n      pop\n      jump\t// out\n        /* \"#utility.yul\":1981:2120   */\n    tag_50:\n        /* \"#utility.yul\":2027:2032   */\n      0x00\n        /* \"#utility.yul\":2065:2071   */\n      dup2\n        /* \"#utility.yul\":2052:2072   */\n      calldataload\n        /* \"#utility.yul\":2043:2072   */\n      swap1\n      pop\n        /* \"#utility.yul\":2081:2114   */\n      tag_85\n        /* \"#utility.yul\":2108:2113   */\n      dup2\n        /* \"#utility.yul\":2081:2114   */\n      tag_49\n      jump\t// in\n    tag_85:\n        /* \"#utility.yul\":1981:2120   */\n      swap3\n      swap2\n      pop\n      pop\n      jump\t// out\n        /* \"#utility.yul\":2126:2455   */\n    tag_15:\n        /* \"#utility.yul\":2185:2191   */\n      0x00\n        /* \"#utility.yul\":2234:2236   */\n      0x20\n        /* \"#utility.yul\":2222:2231   */\n      dup3\n        /* \"#utility.yul\":2213:2220   */\n      dup5\n        /* \"#utility.yul\":2209:2232   */\n      sub\n        /* \"#utility.yul\":2205:2237   */\n      slt\n        /* \"#utility.yul\":2202:2321   */\n      iszero\n      tag_87\n      jumpi\n        /* \"#utility.yul\":2240:2319   */\n      tag_88\n      tag_39\n      jump\t// in\n    tag_88:\n        /* \"#utility.yul\":2202:2321   */\n    tag_87:\n        /* \"#utility.yul\":2360:2361   */\n      0x00\n        /* \"#utility.yul\":2385:2438   */\n      tag_89\n        /* \"#utility.yul\":2430:2437   */\n      dup5\n        /* \"#utility.yul\":2421:2427   */\n      dup3\n        /* \"#utility.yul\":2410:2419   */\n      dup6\n        /* \"#utility.yul\":2406:2428   */\n      add\n        /* \"#utility.yul\":2385:2438   */\n      tag_50\n      jump\t// in\n    tag_89:\n        /* \"#utility.yul\":2375:2438   */\n      swap2\n      pop\n        /* \"#utility.yul\":2331:2448   */\n      pop\n        /* \"#utility.yul\":2126:2455   */\n      swap3\n      swap2\n      pop\n      pop\n      jump\t// out\n        /* \"#utility.yul\":2461:2576   */\n    tag_51:\n        /* \"#utility.yul\":2546:2569   */\n      tag_91\n        /* \"#utility.yul\":2563:2568   */\n      dup2\n        /* \"#utility.yul\":2546:2569   */\n      tag_45\n      jump\t// in\n    tag_91:\n        /* \"#utility.yul\":2541:2544   */\n      dup3\n        /* \"#utility.yul\":2534:2570   */\n      mstore\n        /* \"#utility.yul\":2461:2576   */\n      pop\n      pop\n      jump\t// out\n        /* \"#utility.yul\":2582:2800   */\n    tag_18:\n        /* \"#utility.yul\":2673:2677   */\n      0x00\n        /* \"#utility.yul\":2711:2713   */\n      0x20\n        /* \"#utility.yul\":2700:2709   */\n      dup3\n        /* \"#utility.yul\":2696:2714   */\n      add\n        /* \"#utility.yul\":2688:2714   */\n      swap1\n      pop\n        /* \"#utility.yul\":2724:2793   */\n      tag_93\n        /* \"#utility.yul\":2790:2791   */\n      0x00\n        /* \"#utility.yul\":2779:2788   */\n      dup4\n        /* \"#utility.yul\":2775:2792   */\n      add\n        /* \"#utility.yul\":2766:2772   */\n      dup5\n        /* \"#utility.yul\":2724:2793   */\n      tag_51\n      jump\t// in\n    tag_93:\n        /* \"#utility.yul\":2582:2800   */\n      swap3\n      swap2\n      pop\n      pop\n      jump\t// out\n        /* \"#utility.yul\":2806:2975   */\n    tag_52:\n        /* \"#utility.yul\":2890:2901   */\n      0x00\n        /* \"#utility.yul\":2924:2930   */\n      dup3\n        /* \"#utility.yul\":2919:2922   */\n      dup3\n        /* \"#utility.yul\":2912:2931   */\n      mstore\n        /* \"#utility.yul\":2964:2968   */\n      0x20\n        /* \"#utility.yul\":2959:2962   */\n      dup3\n        /* \"#utility.yul\":2955:2969   */\n      add\n        /* \"#utility.yul\":2940:2969   */\n      swap1\n      pop\n        /* \"#utility.yul\":2806:2975   */\n      swap3\n      swap2\n      pop\n      pop\n      jump\t// out\n        /* \"#utility.yul\":2981:3157   */\n    tag_53:\n        /* \"#utility.yul\":3121:3149   */\n      0x4e6f7420456e6f7567682046756e64732c2061626f7274696e67000000000000\n        /* \"#utility.yul\":3117:3118   */\n      0x00\n        /* \"#utility.yul\":3109:3115   */\n      dup3\n        /* \"#utility.yul\":3105:3119   */\n      add\n        /* \"#utility.yul\":3098:3150   */\n      mstore\n        /* \"#utility.yul\":2981:3157   */\n      pop\n      jump\t// out\n        /* \"#utility.yul\":3163:3529   */\n    tag_54:\n        /* \"#utility.yul\":3305:3308   */\n      0x00\n        /* \"#utility.yul\":3326:3393   */\n      tag_97\n        /* \"#utility.yul\":3390:3392   */\n      0x1a\n        /* \"#utility.yul\":3385:3388   */\n      dup4\n        /* \"#utility.yul\":3326:3393   */\n      tag_52\n      jump\t// in\n    tag_97:\n        /* \"#utility.yul\":3319:3393   */\n      swap2\n      pop\n        /* \"#utility.yul\":3402:3495   */\n      tag_98\n        /* \"#utility.yul\":3491:3494   */\n      dup3\n        /* \"#utility.yul\":3402:3495   */\n      tag_53\n      jump\t// in\n    tag_98:\n        /* \"#utility.yul\":3520:3522   */\n      0x20\n        /* \"#utility.yul\":3515:3518   */\n      dup3\n        /* \"#utility.yul\":3511:3523   */\n      add\n        /* \"#utility.yul\":3504:3523   */\n      swap1\n      pop\n        /* \"#utility.yul\":3163:3529   */\n      swap2\n      swap1\n      pop\n      jump\t// out\n        /* \"#utility.yul\":3535:3954   */\n    tag_22:\n        /* \"#utility.yul\":3701:3705   */\n      0x00\n        /* \"#utility.yul\":3739:3741   */\n      0x20\n        /* \"#utility.yul\":3728:3737   */\n      dup3\n        /* \"#utility.yul\":3724:3742   */\n      add\n        /* \"#utility.yul\":3716:3742   */\n      swap1\n      pop\n        /* \"#utility.yul\":3788:3797   */\n      dup2\n        /* \"#utility.yul\":3782:3786   */\n      dup2\n        /* \"#utility.yul\":3778:3798   */\n      sub\n        /* \"#utility.yul\":3774:3775   */\n      0x00\n        /* \"#utility.yul\":3763:3772   */\n      dup4\n        /* \"#utility.yul\":3759:3776   */\n      add\n        /* \"#utility.yul\":3752:3799   */\n      mstore\n        /* \"#utility.yul\":3816:3947   */\n      tag_100\n        /* \"#utility.yul\":3942:3946   */\n      dup2\n        /* \"#utility.yul\":3816:3947   */\n      tag_54\n      jump\t// in\n    tag_100:\n        /* \"#utility.yul\":3808:3947   */\n      swap1\n      pop\n        /* \"#utility.yul\":3535:3954   */\n      swap2\n      swap1\n      pop\n      jump\t// out\n        /* \"#utility.yul\":3960:4140   */\n    tag_55:\n        /* \"#utility.yul\":4008:4085   */\n      0x4e487b7100000000000000000000000000000000000000000000000000000000\n        /* \"#utility.yul\":4005:4006   */\n      0x00\n        /* \"#utility.yul\":3998:4086   */\n      mstore\n        /* \"#utility.yul\":4105:4109   */\n      0x11\n        /* \"#utility.yul\":4102:4103   */\n      0x04\n        /* \"#utility.yul\":4095:4110   */\n      mstore\n        /* \"#utility.yul\":4129:4133   */\n      0x24\n        /* \"#utility.yul\":4126:4127   */\n      0x00\n        /* \"#utility.yul\":4119:4134   */\n      revert\n        /* \"#utility.yul\":4146:4354   */\n    tag_24:\n        /* \"#utility.yul\":4185:4189   */\n      0x00\n        /* \"#utility.yul\":4205:4224   */\n      tag_103\n        /* \"#utility.yul\":4222:4223   */\n      dup3\n        /* \"#utility.yul\":4205:4224   */\n      tag_45\n      jump\t// in\n    tag_103:\n        /* \"#utility.yul\":4200:4224   */\n      swap2\n      pop\n        /* \"#utility.yul\":4238:4257   */\n      tag_104\n        /* \"#utility.yul\":4255:4256   */\n      dup4\n        /* \"#utility.yul\":4238:4257   */\n      tag_45\n      jump\t// in\n    tag_104:\n        /* \"#utility.yul\":4233:4257   */\n      swap3\n      pop\n        /* \"#utility.yul\":4281:4282   */\n      dup3\n        /* \"#utility.yul\":4278:4279   */\n      dup3\n        /* \"#utility.yul\":4274:4283   */\n      sub\n        /* \"#utility.yul\":4266:4283   */\n      swap1\n      pop\n        /* \"#utility.yul\":4305:4323   */\n      0xffffffffffffffff\n        /* \"#utility.yul\":4299:4303   */\n      dup2\n        /* \"#utility.yul\":4296:4324   */\n      gt\n        /* \"#utility.yul\":4293:4347   */\n      iszero\n      tag_105\n      jumpi\n        /* \"#utility.yul\":4327:4345   */\n      tag_106\n      tag_55\n      jump\t// in\n    tag_106:\n        /* \"#utility.yul\":4293:4347   */\n    tag_105:\n        /* \"#utility.yul\":4146:4354   */\n      swap3\n      swap2\n      pop\n      pop\n      jump\t// out\n        /* \"#utility.yul\":4360:4540   */\n    tag_27:\n        /* \"#utility.yul\":4408:4485   */\n      0x4e487b7100000000000000000000000000000000000000000000000000000000\n        /* \"#utility.yul\":4405:4406   */\n      0x00\n        /* \"#utility.yul\":4398:4486   */\n      mstore\n        /* \"#utility.yul\":4505:4509   */\n      0x01\n        /* \"#utility.yul\":4502:4503   */\n      0x04\n        /* \"#utility.yul\":4495:4510   */\n      mstore\n        /* \"#utility.yul\":4529:4533   */\n      0x24\n        /* \"#utility.yul\":4526:4527   */\n      0x00\n        /* \"#utility.yul\":4519:4534   */\n      revert\n        /* \"#utility.yul\":4546:4751   */\n    tag_35:\n        /* \"#utility.yul\":4585:4588   */\n      0x00\n        /* \"#utility.yul\":4604:4623   */\n      tag_109\n        /* \"#utility.yul\":4621:4622   */\n      dup3\n        /* \"#utility.yul\":4604:4623   */\n      tag_45\n      jump\t// in\n    tag_109:\n        /* \"#utility.yul\":4599:4623   */\n      swap2\n      pop\n        /* \"#utility.yul\":4637:4656   */\n      tag_110\n        /* \"#utility.yul\":4654:4655   */\n      dup4\n        /* \"#utility.yul\":4637:4656   */\n      tag_45\n      jump\t// in\n    tag_110:\n        /* \"#utility.yul\":4632:4656   */\n      swap3\n      pop\n        /* \"#utility.yul\":4679:4680   */\n      dup3\n        /* \"#utility.yul\":4676:4677   */\n      dup3\n        /* \"#utility.yul\":4672:4681   */\n      add\n        /* \"#utility.yul\":4665:4681   */\n      swap1\n      pop\n        /* \"#utility.yul\":4702:4720   */\n      0xffffffffffffffff\n        /* \"#utility.yul\":4697:4700   */\n      dup2\n        /* \"#utility.yul\":4694:4721   */\n      gt\n        /* \"#utility.yul\":4691:4744   */\n      iszero\n      tag_111\n      jumpi\n        /* \"#utility.yul\":4724:4742   */\n      tag_112\n      tag_55\n      jump\t// in\n    tag_112:\n        /* \"#utility.yul\":4691:4744   */\n    tag_111:\n        /* \"#utility.yul\":4546:4751   */\n      swap3\n      swap2\n      pop\n      pop\n      jump\t// out\n\n    auxdata: 0xa264697066735822122082a9b6e5a89f918a8228617830eb7fc4c398cb7fbc1659db28d4f7b970bf9fe064736f6c63430008180033\n}\n",
				"bytecode": {
					"linkReferences": {},
					"object": "608060405234801561000f575f80fd5b5061070b8061001d5f395ff3fe608060405260043610610033575f3560e01c80630ad19aeb146100375780636d26ec181461005f578063d18a42e114610069575b5f80fd5b348015610042575f80fd5b5061005d600480360381019061005891906104c1565b6100a5565b005b6100676102ef565b005b348015610074575f80fd5b5061008f600480360381019061008a919061053a565b610403565b60405161009c9190610574565b60405180910390f35b5f803373ffffffffffffffffffffffffffffffffffffffff1673ffffffffffffffffffffffffffffffffffffffff1681526020019081526020015f205f9054906101000a900467ffffffffffffffff1667ffffffffffffffff168167ffffffffffffffff16111561014b576040517f08c379a0000000000000000000000000000000000000000000000000000000008152600401610142906105e7565b60405180910390fd5b805f803373ffffffffffffffffffffffffffffffffffffffff1673ffffffffffffffffffffffffffffffffffffffff1681526020019081526020015f205f9054906101000a900467ffffffffffffffff166101a69190610632565b67ffffffffffffffff165f803373ffffffffffffffffffffffffffffffffffffffff1673ffffffffffffffffffffffffffffffffffffffff1681526020019081526020015f205f9054906101000a900467ffffffffffffffff1667ffffffffffffffff1610156102195761021861066d565b5b805f803373ffffffffffffffffffffffffffffffffffffffff1673ffffffffffffffffffffffffffffffffffffffff1681526020019081526020015f205f8282829054906101000a900467ffffffffffffffff166102779190610632565b92506101000a81548167ffffffffffffffff021916908367ffffffffffffffff1602179055508173ffffffffffffffffffffffffffffffffffffffff166108fc8267ffffffffffffffff1690811502906040515f60405180830381858888f193505050501580156102ea573d5f803e3d5ffd5b505050565b3467ffffffffffffffff1634146103095761030861066d565b5b345f803373ffffffffffffffffffffffffffffffffffffffff1673ffffffffffffffffffffffffffffffffffffffff1681526020019081526020015f205f8282829054906101000a900467ffffffffffffffff16610367919061069a565b92506101000a81548167ffffffffffffffff021916908367ffffffffffffffff1602179055503467ffffffffffffffff165f803373ffffffffffffffffffffffffffffffffffffffff1673ffffffffffffffffffffffffffffffffffffffff1681526020019081526020015f205f9054906101000a900467ffffffffffffffff1667ffffffffffffffff1610156104015761040061066d565b5b565b5f602052805f5260405f205f915054906101000a900467ffffffffffffffff1681565b5f80fd5b5f73ffffffffffffffffffffffffffffffffffffffff82169050919050565b5f6104538261042a565b9050919050565b61046381610449565b811461046d575f80fd5b50565b5f8135905061047e8161045a565b92915050565b5f67ffffffffffffffff82169050919050565b6104a081610484565b81146104aa575f80fd5b50565b5f813590506104bb81610497565b92915050565b5f80604083850312156104d7576104d6610426565b5b5f6104e485828601610470565b92505060206104f5858286016104ad565b9150509250929050565b5f6105098261042a565b9050919050565b610519816104ff565b8114610523575f80fd5b50565b5f8135905061053481610510565b92915050565b5f6020828403121561054f5761054e610426565b5b5f61055c84828501610526565b91505092915050565b61056e81610484565b82525050565b5f6020820190506105875f830184610565565b92915050565b5f82825260208201905092915050565b7f4e6f7420456e6f7567682046756e64732c2061626f7274696e670000000000005f82015250565b5f6105d1601a8361058d565b91506105dc8261059d565b602082019050919050565b5f6020820190508181035f8301526105fe816105c5565b9050919050565b7f4e487b71000000000000000000000000000000000000000000000000000000005f52601160045260245ffd5b5f61063c82610484565b915061064783610484565b9250828203905067ffffffffffffffff81111561066757610666610605565b5b92915050565b7f4e487b71000000000000000000000000000000000000000000000000000000005f52600160045260245ffd5b5f6106a482610484565b91506106af83610484565b9250828201905067ffffffffffffffff8111156106cf576106ce610605565b5b9291505056fea264697066735822122082a9b6e5a89f918a8228617830eb7fc4c398cb7fbc1659db28d4f7b970bf9fe064736f6c63430008180033",
					"opcodes": "PUSH1 0x80 PUSH1 0x40 MSTORE CALLVALUE DUP1 ISZERO PUSH2 0xF JUMPI PUSH0 DUP1 REVERT JUMPDEST POP PUSH2 0x70B DUP1 PUSH2 0x1D PUSH0 CODECOPY PUSH0 RETURN INVALID PUSH1 0x80 PUSH1 0x40 MSTORE PUSH1 0x4 CALLDATASIZE LT PUSH2 0x33 JUMPI PUSH0 CALLDATALOAD PUSH1 0xE0 SHR DUP1 PUSH4 0xAD19AEB EQ PUSH2 0x37 JUMPI DUP1 PUSH4 0x6D26EC18 EQ PUSH2 0x5F JUMPI DUP1 PUSH4 0xD18A42E1 EQ PUSH2 0x69 JUMPI JUMPDEST PUSH0 DUP1 REVERT JUMPDEST CALLVALUE DUP1 ISZERO PUSH2 0x42 JUMPI PUSH0 DUP1 REVERT JUMPDEST POP PUSH2 0x5D PUSH1 0x4 DUP1 CALLDATASIZE SUB DUP2 ADD SWAP1 PUSH2 0x58 SWAP2 SWAP1 PUSH2 0x4C1 JUMP JUMPDEST PUSH2 0xA5 JUMP JUMPDEST STOP JUMPDEST PUSH2 0x67 PUSH2 0x2EF JUMP JUMPDEST STOP JUMPDEST CALLVALUE DUP1 ISZERO PUSH2 0x74 JUMPI PUSH0 DUP1 REVERT JUMPDEST POP PUSH2 0x8F PUSH1 0x4 DUP1 CALLDATASIZE SUB DUP2 ADD SWAP1 PUSH2 0x8A SWAP2 SWAP1 PUSH2 0x53A JUMP JUMPDEST PUSH2 0x403 JUMP JUMPDEST PUSH1 0x40 MLOAD PUSH2 0x9C SWAP2 SWAP1 PUSH2 0x574 JUMP JUMPDEST PUSH1 0x40 MLOAD DUP1 SWAP2 SUB SWAP1 RETURN JUMPDEST PUSH0 DUP1 CALLER PUSH20 0xFFFFFFFFFFFFFFFFFFFFFFFFFFFFFFFFFFFFFFFF AND PUSH20 0xFFFFFFFFFFFFFFFFFFFFFFFFFFFFFFFFFFFFFFFF AND DUP2 MSTORE PUSH1 0x20 ADD SWAP1 DUP2 MSTORE PUSH1 0x20 ADD PUSH0 KECCAK256 PUSH0 SWAP1 SLOAD SWAP1 PUSH2 0x100 EXP SWAP1 DIV PUSH8 0xFFFFFFFFFFFFFFFF AND PUSH8 0xFFFFFFFFFFFFFFFF AND DUP2 PUSH8 0xFFFFFFFFFFFFFFFF AND GT ISZERO PUSH2 0x14B JUMPI PUSH1 0x40 MLOAD PUSH32 0x8C379A000000000000000000000000000000000000000000000000000000000 DUP2 MSTORE PUSH1 0x4 ADD PUSH2 0x142 SWAP1 PUSH2 0x5E7 JUMP JUMPDEST PUSH1 0x40 MLOAD DUP1 SWAP2 SUB SWAP1 REVERT JUMPDEST DUP1 PUSH0 DUP1 CALLER PUSH20 0xFFFFFFFFFFFFFFFFFFFFFFFFFFFFFFFFFFFFFFFF AND PUSH20 0xFFFFFFFFFFFFFFFFFFFFFFFFFFFFFFFFFFFFFFFF AND DUP2 MSTORE PUSH1 0x20 ADD SWAP1 DUP2 MSTORE PUSH1 0x20 ADD PUSH0 KECCAK256 PUSH0 SWAP1 SLOAD SWAP1 PUSH2 0x100 EXP SWAP1 DIV PUSH8 0xFFFFFFFFFFFFFFFF AND PUSH2 0x1A6 SWAP2 SWAP1 PUSH2 0x632 JUMP JUMPDEST PUSH8 0xFFFFFFFFFFFFFFFF AND PUSH0 DUP1 CALLER PUSH20 0xFFFFFFFFFFFFFFFFFFFFFFFFFFFFFFFFFFFFFFFF AND PUSH20 0xFFFFFFFFFFFFFFFFFFFFFFFFFFFFFFFFFFFFFFFF AND DUP2 MSTORE PUSH1 0x20 ADD SWAP1 DUP2 MSTORE PUSH1 0x20 ADD PUSH0 KECCAK256 PUSH0 SWAP1 SLOAD SWAP1 PUSH2 0x100 EXP SWAP1 DIV PUSH8 0xFFFFFFFFFFFFFFFF AND PUSH8 0xFFFFFFFFFFFFFFFF AND LT ISZERO PUSH2 0x219 JUMPI PUSH2 0x218 PUSH2 0x66D JUMP JUMPDEST JUMPDEST DUP1 PUSH0 DUP1 CALLER PUSH20 0xFFFFFFFFFFFFFFFFFFFFFFFFFFFFFFFFFFFFFFFF AND PUSH20 0xFFFFFFFFFFFFFFFFFFFFFFFFFFFFFFFFFFFFFFFF AND DUP2 MSTORE PUSH1 0x20 ADD SWAP1 DUP2 MSTORE PUSH1 0x20 ADD PUSH0 KECCAK256 PUSH0 DUP3 DUP3 DUP3 SWAP1 SLOAD SWAP1 PUSH2 0x100 EXP SWAP1 DIV PUSH8 0xFFFFFFFFFFFFFFFF AND PUSH2 0x277 SWAP2 SWAP1 PUSH2 0x632 JUMP JUMPDEST SWAP3 POP PUSH2 0x100 EXP DUP2 SLOAD DUP2 PUSH8 0xFFFFFFFFFFFFFFFF MUL NOT AND SWAP1 DUP4 PUSH8 0xFFFFFFFFFFFFFFFF AND MUL OR SWAP1 SSTORE POP DUP2 PUSH20 0xFFFFFFFFFFFFFFFFFFFFFFFFFFFFFFFFFFFFFFFF AND PUSH2 0x8FC DUP3 PUSH8 0xFFFFFFFFFFFFFFFF AND SWAP1 DUP2 ISZERO MUL SWAP1 PUSH1 0x40 MLOAD PUSH0 PUSH1 0x40 MLOAD DUP1 DUP4 SUB DUP2 DUP6 DUP9 DUP9 CALL SWAP4 POP POP POP POP ISZERO DUP1 ISZERO PUSH2 0x2EA JUMPI RETURNDATASIZE PUSH0 DUP1 RETURNDATACOPY RETURNDATASIZE PUSH0 REVERT JUMPDEST POP POP POP JUMP JUMPDEST CALLVALUE PUSH8 0xFFFFFFFFFFFFFFFF AND CALLVALUE EQ PUSH2 0x309 JUMPI PUSH2 0x308 PUSH2 0x66D JUMP JUMPDEST JUMPDEST CALLVALUE PUSH0 DUP1 CALLER PUSH20 0xFFFFFFFFFFFFFFFFFFFFFFFFFFFFFFFFFFFFFFFF AND PUSH20 0xFFFFFFFFFFFFFFFFFFFFFFFFFFFFFFFFFFFFFFFF AND DUP2 MSTORE PUSH1 0x20 ADD SWAP1 DUP2 MSTORE PUSH1 0x20 ADD PUSH0 KECCAK256 PUSH0 DUP3 DUP3 DUP3 SWAP1 SLOAD SWAP1 PUSH2 0x100 EXP SWAP1 DIV PUSH8 0xFFFFFFFFFFFFFFFF AND PUSH2 0x367 SWAP2 SWAP1 PUSH2 0x69A JUMP JUMPDEST SWAP3 POP PUSH2 0x100 EXP DUP2 SLOAD DUP2 PUSH8 0xFFFFFFFFFFFFFFFF MUL NOT AND SWAP1 DUP4 PUSH8 0xFFFFFFFFFFFFFFFF AND MUL OR SWAP1 SSTORE POP CALLVALUE PUSH8 0xFFFFFFFFFFFFFFFF AND PUSH0 DUP1 CALLER PUSH20 0xFFFFFFFFFFFFFFFFFFFFFFFFFFFFFFFFFFFFFFFF AND PUSH20 0xFFFFFFFFFFFFFFFFFFFFFFFFFFFFFFFFFFFFFFFF AND DUP2 MSTORE PUSH1 0x20 ADD SWAP1 DUP2 MSTORE PUSH1 0x20 ADD PUSH0 KECCAK256 PUSH0 SWAP1 SLOAD SWAP1 PUSH2 0x100 EXP SWAP1 DIV PUSH8 0xFFFFFFFFFFFFFFFF AND PUSH8 0xFFFFFFFFFFFFFFFF AND LT ISZERO PUSH2 0x401 JUMPI PUSH2 0x400 PUSH2 0x66D JUMP JUMPDEST JUMPDEST JUMP JUMPDEST PUSH0 PUSH1 0x20 MSTORE DUP1 PUSH0 MSTORE PUSH1 0x40 PUSH0 KECCAK256 PUSH0 SWAP2 POP SLOAD SWAP1 PUSH2 0x100 EXP SWAP1 DIV PUSH8 0xFFFFFFFFFFFFFFFF AND DUP2 JUMP JUMPDEST PUSH0 DUP1 REVERT JUMPDEST PUSH0 PUSH20 0xFFFFFFFFFFFFFFFFFFFFFFFFFFFFFFFFFFFFFFFF DUP3 AND SWAP1 POP SWAP2 SWAP1 POP JUMP JUMPDEST PUSH0 PUSH2 0x453 DUP3 PUSH2 0x42A JUMP JUMPDEST SWAP1 POP SWAP2 SWAP1 POP JUMP JUMPDEST PUSH2 0x463 DUP2 PUSH2 0x449 JUMP JUMPDEST DUP2 EQ PUSH2 0x46D JUMPI PUSH0 DUP1 REVERT JUMPDEST POP JUMP JUMPDEST PUSH0 DUP2 CALLDATALOAD SWAP1 POP PUSH2 0x47E DUP2 PUSH2 0x45A JUMP JUMPDEST SWAP3 SWAP2 POP POP JUMP JUMPDEST PUSH0 PUSH8 0xFFFFFFFFFFFFFFFF DUP3 AND SWAP1 POP SWAP2 SWAP1 POP JUMP JUMPDEST PUSH2 0x4A0 DUP2 PUSH2 0x484 JUMP JUMPDEST DUP2 EQ PUSH2 0x4AA JUMPI PUSH0 DUP1 REVERT JUMPDEST POP JUMP JUMPDEST PUSH0 DUP2 CALLDATALOAD SWAP1 POP PUSH2 0x4BB DUP2 PUSH2 0x497 JUMP JUMPDEST SWAP3 SWAP2 POP POP JUMP JUMPDEST PUSH0 DUP1 PUSH1 0x40 DUP4 DUP6 SUB SLT ISZERO PUSH2 0x4D7 JUMPI PUSH2 0x4D6 PUSH2 0x426 JUMP JUMPDEST JUMPDEST PUSH0 PUSH2 0x4E4 DUP6 DUP3 DUP7 ADD PUSH2 0x470 JUMP JUMPDEST SWAP3 POP POP PUSH1 0x20 PUSH2 0x4F5 DUP6 DUP3 DUP7 ADD PUSH2 0x4AD JUMP JUMPDEST SWAP2 POP POP SWAP3 POP SWAP3 SWAP1 POP JUMP JUMPDEST PUSH0 PUSH2 0x509 DUP3 PUSH2 0x42A JUMP JUMPDEST SWAP1 POP SWAP2 SWAP1 POP JUMP JUMPDEST PUSH2 0x519 DUP2 PUSH2 0x4FF JUMP JUMPDEST DUP2 EQ PUSH2 0x523 JUMPI PUSH0 DUP1 REVERT JUMPDEST POP JUMP JUMPDEST PUSH0 DUP2 CALLDATALOAD SWAP1 POP PUSH2 0x534 DUP2 PUSH2 0x510 JUMP JUMPDEST SWAP3 SWAP2 POP POP JUMP JUMPDEST PUSH0 PUSH1 0x20 DUP3 DUP5 SUB SLT ISZERO PUSH2 0x54F JUMPI PUSH2 0x54E PUSH2 0x426 JUMP JUMPDEST JUMPDEST PUSH0 PUSH2 0x55C DUP5 DUP3 DUP6 ADD PUSH2 0x526 JUMP JUMPDEST SWAP2 POP POP SWAP3 SWAP2 POP POP JUMP JUMPDEST PUSH2 0x56E DUP2 PUSH2 0x484 JUMP JUMPDEST DUP3 MSTORE POP POP JUMP JUMPDEST PUSH0 PUSH1 0x20 DUP3 ADD SWAP1 POP PUSH2 0x587 PUSH0 DUP4 ADD DUP5 PUSH2 0x565 JUMP JUMPDEST SWAP3 SWAP2 POP POP JUMP JUMPDEST PUSH0 DUP3 DUP3 MSTORE PUSH1 0x20 DUP3 ADD SWAP1 POP SWAP3 SWAP2 POP POP JUMP JUMPDEST PUSH32 0x4E6F7420456E6F7567682046756E64732C2061626F7274696E67000000000000 PUSH0 DUP3 ADD MSTORE POP JUMP JUMPDEST PUSH0 PUSH2 0x5D1 PUSH1 0x1A DUP4 PUSH2 0x58D JUMP JUMPDEST SWAP2 POP PUSH2 0x5DC DUP3 PUSH2 0x59D JUMP JUMPDEST PUSH1 0x20 DUP3 ADD SWAP1 POP SWAP2 SWAP1 POP JUMP JUMPDEST PUSH0 PUSH1 0x20 DUP3 ADD SWAP1 POP DUP2 DUP2 SUB PUSH0 DUP4 ADD MSTORE PUSH2 0x5FE DUP2 PUSH2 0x5C5 JUMP JUMPDEST SWAP1 POP SWAP2 SWAP1 POP JUMP JUMPDEST PUSH32 0x4E487B7100000000000000000000000000000000000000000000000000000000 PUSH0 MSTORE PUSH1 0x11 PUSH1 0x4 MSTORE PUSH1 0x24 PUSH0 REVERT JUMPDEST PUSH0 PUSH2 0x63C DUP3 PUSH2 0x484 JUMP JUMPDEST SWAP2 POP PUSH2 0x647 DUP4 PUSH2 0x484 JUMP JUMPDEST SWAP3 POP DUP3 DUP3 SUB SWAP1 POP PUSH8 0xFFFFFFFFFFFFFFFF DUP2 GT ISZERO PUSH2 0x667 JUMPI PUSH2 0x666 PUSH2 0x605 JUMP JUMPDEST JUMPDEST SWAP3 SWAP2 POP POP JUMP JUMPDEST PUSH32 0x4E487B7100000000000000000000000000000000000000000000000000000000 PUSH0 MSTORE PUSH1 0x1 PUSH1 0x4 MSTORE PUSH1 0x24 PUSH0 REVERT JUMPDEST PUSH0 PUSH2 0x6A4 DUP3 PUSH2 0x484 JUMP JUMPDEST SWAP2 POP PUSH2 0x6AF DUP4 PUSH2 0x484 JUMP JUMPDEST SWAP3 POP DUP3 DUP3 ADD SWAP1 POP PUSH8 0xFFFFFFFFFFFFFFFF DUP2 GT ISZERO PUSH2 0x6CF JUMPI PUSH2 0x6CE PUSH2 0x605 JUMP JUMPDEST JUMPDEST SWAP3 SWAP2 POP POP JUMP INVALID LOG2 PUSH5 0x6970667358 0x22 SLT KECCAK256 DUP3 0xA9 0xB6 0xE5 0xA8 SWAP16 SWAP2 DUP11 DUP3 0x28 PUSH2 0x7830 0xEB PUSH32 0xC4C398CB7FBC1659DB28D4F7B970BF9FE064736F6C6343000818003300000000 "
				},
				"gasEstimates": {
					"creation": {
						"codeDepositCost": "360600",
						"executionCost": "397",
						"totalCost": "360997"
					},
					"external": {
						"balanceReceived(address)": "2854",
						"receiveMoney()": "infinite",
						"withdrawMoney(address,uint64)": "infinite"
					}
				},
				"methodIdentifiers": {
					"balanceReceived(address)": "d18a42e1",
					"receiveMoney()": "6d26ec18",
					"withdrawMoney(address,uint64)": "0ad19aeb"
				}
			},
			"storageLayout": {
				"storage": [
					{
						"astId": 5,
						"contract": "exceptions.sol:ExceptionExample",
						"label": "balanceReceived",
						"offset": 0,
						"slot": "0",
						"type": "t_mapping(t_address,t_uint64)"
					}
				],
				"types": {
					"t_address": {
						"encoding": "inplace",
						"label": "address",
						"numberOfBytes": "20"
					},
					"t_mapping(t_address,t_uint64)": {
						"encoding": "mapping",
						"key": "t_address",
						"label": "mapping(address => uint64)",
						"numberOfBytes": "32",
						"value": "t_uint64"
					},
					"t_uint64": {
						"encoding": "inplace",
						"label": "uint64",
						"numberOfBytes": "8"
					}
				}
			},
			"userdoc": {
				"kind": "user",
				"methods": {},
				"version": 1
			}
		}
	}
}