{
	"trycatch.sol": {
		"WillThrow": {
			"abi": [
				{
					"inputs": [],
					"name": "aFunction",
					"outputs": [],
					"stateMutability": "nonpayable",
					"type": "function"
				}
			],
			"devdoc": {
				"kind": "dev",
				"methods": {},
				"version": 1
			},
			"evm": {
				"assembly": "    /* \"trycatch.sol\":62:169  contract WillThrow {... */\n  mstore(0x40, 0x80)\n  callvalue\n  dup1\n  iszero\n  tag_1\n  jumpi\n  0x00\n  dup1\n  revert\ntag_1:\n  pop\n  dataSize(sub_0)\n  dup1\n  dataOffset(sub_0)\n  0x00\n  codecopy\n  0x00\n  return\nstop\n\nsub_0: assembly {\n        /* \"trycatch.sol\":62:169  contract WillThrow {... */\n      mstore(0x40, 0x80)\n      callvalue\n      dup1\n      iszero\n      tag_1\n      jumpi\n      0x00\n      dup1\n      revert\n    tag_1:\n      pop\n      jumpi(tag_2, lt(calldatasize, 0x04))\n      shr(0xe0, calldataload(0x00))\n      dup1\n      0x39c117a4\n      eq\n      tag_3\n      jumpi\n    tag_2:\n      0x00\n      dup1\n      revert\n        /* \"trycatch.sol\":88:166  function aFunction() public {... */\n    tag_3:\n      tag_4\n      tag_5\n      jump\t// in\n    tag_4:\n      stop\n    tag_5:\n        /* \"trycatch.sol\":135:140  false */\n      0x00\n        /* \"trycatch.sol\":127:158  require(false, \"Error message\") */\n      tag_7\n      jumpi\n      mload(0x40)\n      0x08c379a000000000000000000000000000000000000000000000000000000000\n      dup2\n      mstore\n      0x04\n      add\n      tag_8\n      swap1\n      tag_9\n      jump\t// in\n    tag_8:\n      mload(0x40)\n      dup1\n      swap2\n      sub\n      swap1\n      revert\n    tag_7:\n        /* \"trycatch.sol\":88:166  function aFunction() public {... */\n      jump\t// out\n        /* \"#utility.yul\":7:176   */\n    tag_10:\n        /* \"#utility.yul\":91:102   */\n      0x00\n        /* \"#utility.yul\":125:131   */\n      dup3\n        /* \"#utility.yul\":120:123   */\n      dup3\n        /* \"#utility.yul\":113:132   */\n      mstore\n        /* \"#utility.yul\":165:169   */\n      0x20\n        /* \"#utility.yul\":160:163   */\n      dup3\n        /* \"#utility.yul\":156:170   */\n      add\n        /* \"#utility.yul\":141:170   */\n      swap1\n      pop\n        /* \"#utility.yul\":7:176   */\n      swap3\n      swap2\n      pop\n      pop\n      jump\t// out\n        /* \"#utility.yul\":182:345   */\n    tag_11:\n        /* \"#utility.yul\":322:337   */\n      0x4572726f72206d65737361676500000000000000000000000000000000000000\n        /* \"#utility.yul\":318:319   */\n      0x00\n        /* \"#utility.yul\":310:316   */\n      dup3\n        /* \"#utility.yul\":306:320   */\n      add\n        /* \"#utility.yul\":299:338   */\n      mstore\n        /* \"#utility.yul\":182:345   */\n      pop\n      jump\t// out\n        /* \"#utility.yul\":351:717   */\n    tag_12:\n        /* \"#utility.yul\":493:496   */\n      0x00\n        /* \"#utility.yul\":514:581   */\n      tag_17\n        /* \"#utility.yul\":578:580   */\n      0x0d\n        /* \"#utility.yul\":573:576   */\n      dup4\n        /* \"#utility.yul\":514:581   */\n      tag_10\n      jump\t// in\n    tag_17:\n        /* \"#utility.yul\":507:581   */\n      swap2\n      pop\n        /* \"#utility.yul\":590:683   */\n      tag_18\n        /* \"#utility.yul\":679:682   */\n      dup3\n        /* \"#utility.yul\":590:683   */\n      tag_11\n      jump\t// in\n    tag_18:\n        /* \"#utility.yul\":708:710   */\n      0x20\n        /* \"#utility.yul\":703:706   */\n      dup3\n        /* \"#utility.yul\":699:711   */\n      add\n        /* \"#utility.yul\":692:711   */\n      swap1\n      pop\n        /* \"#utility.yul\":351:717   */\n      swap2\n      swap1\n      pop\n      jump\t// out\n        /* \"#utility.yul\":723:1142   */\n    tag_9:\n        /* \"#utility.yul\":889:893   */\n      0x00\n        /* \"#utility.yul\":927:929   */\n      0x20\n        /* \"#utility.yul\":916:925   */\n      dup3\n        /* \"#utility.yul\":912:930   */\n      add\n        /* \"#utility.yul\":904:930   */\n      swap1\n      pop\n        /* \"#utility.yul\":976:985   */\n      dup2\n        /* \"#utility.yul\":970:974   */\n      dup2\n        /* \"#utility.yul\":966:986   */\n      sub\n        /* \"#utility.yul\":962:963   */\n      0x00\n        /* \"#utility.yul\":951:960   */\n      dup4\n        /* \"#utility.yul\":947:964   */\n      add\n        /* \"#utility.yul\":940:987   */\n      mstore\n        /* \"#utility.yul\":1004:1135   */\n      tag_20\n        /* \"#utility.yul\":1130:1134   */\n      dup2\n        /* \"#utility.yul\":1004:1135   */\n      tag_12\n      jump\t// in\n    tag_20:\n        /* \"#utility.yul\":996:1135   */\n      swap1\n      pop\n        /* \"#utility.yul\":723:1142   */\n      swap2\n      swap1\n      pop\n      jump\t// out\n\n    auxdata: 0xa2646970667358221220f2ae58be986eb156e53964561b8764050c38da3c320771eb91e06d955ebdeec864736f6c63430008180033\n}\n",
				"bytecode": {
					"linkReferences": {},
					"object": "608060405234801561000f575f80fd5b506101198061001d5f395ff3fe6080604052348015600e575f80fd5b50600436106026575f3560e01c806339c117a414602a575b5f80fd5b60306032565b005b5f606f576040517f08c379a000000000000000000000000000000000000000000000000000000000815260040160669060c7565b60405180910390fd5b565b5f82825260208201905092915050565b7f4572726f72206d657373616765000000000000000000000000000000000000005f82015250565b5f60b3600d836071565b915060bc826081565b602082019050919050565b5f6020820190508181035f83015260dc8160a9565b905091905056fea2646970667358221220f2ae58be986eb156e53964561b8764050c38da3c320771eb91e06d955ebdeec864736f6c63430008180033",
					"opcodes": "PUSH1 0x80 PUSH1 0x40 MSTORE CALLVALUE DUP1 ISZERO PUSH2 0xF JUMPI PUSH0 DUP1 REVERT JUMPDEST POP PUSH2 0x119 DUP1 PUSH2 0x1D PUSH0 CODECOPY PUSH0 RETURN INVALID PUSH1 0x80 PUSH1 0x40 MSTORE CALLVALUE DUP1 ISZERO PUSH1 0xE JUMPI PUSH0 DUP1 REVERT JUMPDEST POP PUSH1 0x4 CALLDATASIZE LT PUSH1 0x26 JUMPI PUSH0 CALLDATALOAD PUSH1 0xE0 SHR DUP1 PUSH4 0x39C117A4 EQ PUSH1 0x2A JUMPI JUMPDEST PUSH0 DUP1 REVERT JUMPDEST PUSH1 0x30 PUSH1 0x32 JUMP JUMPDEST STOP JUMPDEST PUSH0 PUSH1 0x6F JUMPI PUSH1 0x40 MLOAD PUSH32 0x8C379A000000000000000000000000000000000000000000000000000000000 DUP2 MSTORE PUSH1 0x4 ADD PUSH1 0x66 SWAP1 PUSH1 0xC7 JUMP JUMPDEST PUSH1 0x40 MLOAD DUP1 SWAP2 SUB SWAP1 REVERT JUMPDEST JUMP JUMPDEST PUSH0 DUP3 DUP3 MSTORE PUSH1 0x20 DUP3 ADD SWAP1 POP SWAP3 SWAP2 POP POP JUMP JUMPDEST PUSH32 0x4572726F72206D65737361676500000000000000000000000000000000000000 PUSH0 DUP3 ADD MSTORE POP JUMP JUMPDEST PUSH0 PUSH1 0xB3 PUSH1 0xD DUP4 PUSH1 0x71 JUMP JUMPDEST SWAP2 POP PUSH1 0xBC DUP3 PUSH1 0x81 JUMP JUMPDEST PUSH1 0x20 DUP3 ADD SWAP1 POP SWAP2 SWAP1 POP JUMP JUMPDEST PUSH0 PUSH1 0x20 DUP3 ADD SWAP1 POP DUP2 DUP2 SUB PUSH0 DUP4 ADD MSTORE PUSH1 0xDC DUP2 PUSH1 0xA9 JUMP JUMPDEST SWAP1 POP SWAP2 SWAP1 POP JUMP INVALID LOG2 PUSH5 0x6970667358 0x22 SLT KECCAK256 CALLCODE 0xAE PC 0xBE SWAP9 PUSH15 0xB156E53964561B8764050C38DA3C32 SMOD PUSH18 0xEB91E06D955EBDEEC864736F6C6343000818 STOP CALLER "
				},
				"gasEstimates": {
					"creation": {
						"codeDepositCost": "56200",
						"executionCost": "103",
						"totalCost": "56303"
					},
					"external": {
						"aFunction()": "421"
					}
				},
				"methodIdentifiers": {
					"aFunction()": "39c117a4"
				}
			},
			"storageLayout": {
				"storage": [],
				"types": null
			},
			"userdoc": {
				"kind": "user",
				"methods": {},
				"version": 1
			}
		}
	}
}