{
	"secureContract(using reentrancy guard).sol": {
		"VulnerableContract": {
			"abi": [
				{
					"constant": true,
					"inputs": [],
					"name": "getBalance",
					"outputs": [
						{
							"name": "",
							"type": "uint256"
						}
					],
					"payable": false,
					"stateMutability": "view",
					"type": "function"
				},
				{
					"constant": false,
					"inputs": [],
					"name": "withdraw",
					"outputs": [],
					"payable": false,
					"stateMutability": "nonpayable",
					"type": "function"
				},
				{
					"constant": false,
					"inputs": [],
					"name": "deposit",
					"outputs": [],
					"payable": true,
					"stateMutability": "payable",
					"type": "function"
				},
				{
					"constant": true,
					"inputs": [
						{
							"name": "",
							"type": "address"
						}
					],
					"name": "balance",
					"outputs": [
						{
							"name": "",
							"type": "uint256"
						}
					],
					"payable": false,
					"stateMutability": "view",
					"type": "function"
				}
			],
			"devdoc": {
				"methods": {}
			},
			"evm": {
				"assembly": "    /* \"secureContract(using reentrancy guard).sol\":174:710  contract VulnerableContract is ReentrancyGuard {\r... */\n  mstore(0x40, 0x80)\n    /* \"https://github.com/binodnp/openzeppelin-solidity/blob/master/contracts/utils/ReentrancyGuard.sol\":559:560  1 */\n  0x1\n    /* \"https://github.com/binodnp/openzeppelin-solidity/blob/master/contracts/utils/ReentrancyGuard.sol\":543:556  _guardCounter */\n  0x0\n    /* \"https://github.com/binodnp/openzeppelin-solidity/blob/master/contracts/utils/ReentrancyGuard.sol\":543:560  _guardCounter = 1 */\n  dup2\n  swap1\n  sstore\n  pop\n    /* \"secureContract(using reentrancy guard).sol\":174:710  contract VulnerableContract is ReentrancyGuard {\r... */\n  dataSize(sub_0)\n  dup1\n  dataOffset(sub_0)\n  0x0\n  codecopy\n  0x0\n  return\nstop\n\nsub_0: assembly {\n        /* \"secureContract(using reentrancy guard).sol\":174:710  contract VulnerableContract is ReentrancyGuard {\r... */\n      mstore(0x40, 0x80)\n      jumpi(tag_1, lt(calldatasize, 0x4))\n      calldataload(0x0)\n      0x100000000000000000000000000000000000000000000000000000000\n      swap1\n      div\n      0xffffffff\n      and\n      dup1\n      0x12065fe0\n      eq\n      tag_2\n      jumpi\n      dup1\n      0x3ccfd60b\n      eq\n      tag_3\n      jumpi\n      dup1\n      0xd0e30db0\n      eq\n      tag_4\n      jumpi\n      dup1\n      0xe3d670d7\n      eq\n      tag_5\n      jumpi\n    tag_1:\n      0x0\n      dup1\n      revert\n        /* \"secureContract(using reentrancy guard).sol\":612:707  function getBalance() public view returns(uint) {\r... */\n    tag_2:\n      callvalue\n        /* \"--CODEGEN--\":8:17   */\n      dup1\n        /* \"--CODEGEN--\":5:7   */\n      iszero\n      tag_6\n      jumpi\n        /* \"--CODEGEN--\":30:31   */\n      0x0\n        /* \"--CODEGEN--\":27:28   */\n      dup1\n        /* \"--CODEGEN--\":20:32   */\n      revert\n        /* \"--CODEGEN--\":5:7   */\n    tag_6:\n        /* \"secureContract(using reentrancy guard).sol\":612:707  function getBalance() public view returns(uint) {\r... */\n      pop\n      tag_7\n      jump(tag_8)\n    tag_7:\n      mload(0x40)\n      dup1\n      dup3\n      dup2\n      mstore\n      0x20\n      add\n      swap2\n      pop\n      pop\n      mload(0x40)\n      dup1\n      swap2\n      sub\n      swap1\n      return\n        /* \"secureContract(using reentrancy guard).sol\":369:600  function withdraw() nonReentrant public {\r... */\n    tag_3:\n      callvalue\n        /* \"--CODEGEN--\":8:17   */\n      dup1\n        /* \"--CODEGEN--\":5:7   */\n      iszero\n      tag_9\n      jumpi\n        /* \"--CODEGEN--\":30:31   */\n      0x0\n        /* \"--CODEGEN--\":27:28   */\n      dup1\n        /* \"--CODEGEN--\":20:32   */\n      revert\n        /* \"--CODEGEN--\":5:7   */\n    tag_9:\n        /* \"secureContract(using reentrancy guard).sol\":369:600  function withdraw() nonReentrant public {\r... */\n      pop\n      tag_10\n      jump(tag_11)\n    tag_10:\n      stop\n        /* \"secureContract(using reentrancy guard).sol\":277:362  function deposit() public payable {\r... */\n    tag_4:\n      tag_12\n      jump(tag_13)\n    tag_12:\n      stop\n        /* \"secureContract(using reentrancy guard).sol\":228:267  mapping(address => uint) public balance */\n    tag_5:\n      callvalue\n        /* \"--CODEGEN--\":8:17   */\n      dup1\n        /* \"--CODEGEN--\":5:7   */\n      iszero\n      tag_14\n      jumpi\n        /* \"--CODEGEN--\":30:31   */\n      0x0\n        /* \"--CODEGEN--\":27:28   */\n      dup1\n        /* \"--CODEGEN--\":20:32   */\n      revert\n        /* \"--CODEGEN--\":5:7   */\n    tag_14:\n        /* \"secureContract(using reentrancy guard).sol\":228:267  mapping(address => uint) public balance */\n      pop\n      tag_15\n      0x4\n      dup1\n      calldatasize\n      sub\n      dup2\n      add\n      swap1\n      dup1\n      dup1\n      calldataload\n      0xffffffffffffffffffffffffffffffffffffffff\n      and\n      swap1\n      0x20\n      add\n      swap1\n      swap3\n      swap2\n      swap1\n      pop\n      pop\n      pop\n      jump(tag_16)\n    tag_15:\n      mload(0x40)\n      dup1\n      dup3\n      dup2\n      mstore\n      0x20\n      add\n      swap2\n      pop\n      pop\n      mload(0x40)\n      dup1\n      swap2\n      sub\n      swap1\n      return\n        /* \"secureContract(using reentrancy guard).sol\":612:707  function getBalance() public view returns(uint) {\r... */\n    tag_8:\n        /* \"secureContract(using reentrancy guard).sol\":654:658  uint */\n      0x0\n        /* \"secureContract(using reentrancy guard).sol\":686:690  this */\n      address\n        /* \"secureContract(using reentrancy guard).sol\":678:699  address(this).balance */\n      0xffffffffffffffffffffffffffffffffffffffff\n      and\n      balance\n        /* \"secureContract(using reentrancy guard).sol\":671:699  return address(this).balance */\n      swap1\n      pop\n        /* \"secureContract(using reentrancy guard).sol\":612:707  function getBalance() public view returns(uint) {\r... */\n      swap1\n      jump\t// out\n        /* \"secureContract(using reentrancy guard).sol\":369:600  function withdraw() nonReentrant public {\r... */\n    tag_11:\n        /* \"secureContract(using reentrancy guard).sol\":416:424  uint bal */\n      0x0\n        /* \"secureContract(using reentrancy guard).sol\":477:486  bool sent */\n      dup1\n        /* \"https://github.com/binodnp/openzeppelin-solidity/blob/master/contracts/utils/ReentrancyGuard.sol\":978:998  uint256 localCounter */\n      0x0\n        /* \"https://github.com/binodnp/openzeppelin-solidity/blob/master/contracts/utils/ReentrancyGuard.sol\":971:972  1 */\n      0x1\n        /* \"https://github.com/binodnp/openzeppelin-solidity/blob/master/contracts/utils/ReentrancyGuard.sol\":954:967  _guardCounter */\n      0x0\n      dup1\n        /* \"https://github.com/binodnp/openzeppelin-solidity/blob/master/contracts/utils/ReentrancyGuard.sol\":954:972  _guardCounter += 1 */\n      dup3\n      dup3\n      sload\n      add\n      swap3\n      pop\n      pop\n      dup2\n      swap1\n      sstore\n      pop\n        /* \"https://github.com/binodnp/openzeppelin-solidity/blob/master/contracts/utils/ReentrancyGuard.sol\":1001:1014  _guardCounter */\n      sload(0x0)\n        /* \"https://github.com/binodnp/openzeppelin-solidity/blob/master/contracts/utils/ReentrancyGuard.sol\":978:1014  uint256 localCounter = _guardCounter */\n      swap1\n      pop\n        /* \"secureContract(using reentrancy guard).sol\":427:434  balance */\n      0x1\n        /* \"secureContract(using reentrancy guard).sol\":427:446  balance[msg.sender] */\n      0x0\n        /* \"secureContract(using reentrancy guard).sol\":435:445  msg.sender */\n      caller\n        /* \"secureContract(using reentrancy guard).sol\":427:446  balance[msg.sender] */\n      0xffffffffffffffffffffffffffffffffffffffff\n      and\n      0xffffffffffffffffffffffffffffffffffffffff\n      and\n      dup2\n      mstore\n      0x20\n      add\n      swap1\n      dup2\n      mstore\n      0x20\n      add\n      0x0\n      keccak256\n      sload\n        /* \"secureContract(using reentrancy guard).sol\":416:446  uint bal = balance[msg.sender] */\n      swap3\n      pop\n        /* \"secureContract(using reentrancy guard).sol\":467:468  0 */\n      0x0\n        /* \"secureContract(using reentrancy guard).sol\":461:464  bal */\n      dup4\n        /* \"secureContract(using reentrancy guard).sol\":461:468  bal > 0 */\n      gt\n        /* \"secureContract(using reentrancy guard).sol\":453:469  require(bal > 0) */\n      iszero\n      iszero\n      tag_20\n      jumpi\n      0x0\n      dup1\n      revert\n    tag_20:\n        /* \"secureContract(using reentrancy guard).sol\":492:502  msg.sender */\n      caller\n        /* \"secureContract(using reentrancy guard).sol\":492:507  msg.sender.call */\n      0xffffffffffffffffffffffffffffffffffffffff\n      and\n        /* \"secureContract(using reentrancy guard).sol\":514:517  bal */\n      dup4\n        /* \"secureContract(using reentrancy guard).sol\":492:522  msg.sender.call.value(bal)(\"\") */\n      mload(0x40)\n      dup1\n      0x20\n      add\n      swap1\n      pop\n      0x0\n      mload(0x40)\n      dup1\n      dup4\n      sub\n      dup2\n      dup6\n      dup8\n      gas\n      call\n      swap3\n      pop\n      pop\n      pop\n        /* \"secureContract(using reentrancy guard).sol\":476:522  (bool sent, ) = msg.sender.call.value(bal)(\"\") */\n      swap2\n      pop\n        /* \"secureContract(using reentrancy guard).sol\":537:541  sent */\n      dup2\n        /* \"secureContract(using reentrancy guard).sol\":529:566  require(sent, \"Failed to send Ether\") */\n      iszero\n      iszero\n      tag_21\n      jumpi\n      mload(0x40)\n      0x8c379a000000000000000000000000000000000000000000000000000000000\n      dup2\n      mstore\n      0x4\n      add\n      dup1\n      dup1\n      0x20\n      add\n      dup3\n      dup2\n      sub\n      dup3\n      mstore\n      0x14\n      dup2\n      mstore\n      0x20\n      add\n      dup1\n      0x4661696c656420746f2073656e64204574686572000000000000000000000000\n      dup2\n      mstore\n      pop\n      0x20\n      add\n      swap2\n      pop\n      pop\n      mload(0x40)\n      dup1\n      swap2\n      sub\n      swap1\n      revert\n    tag_21:\n        /* \"secureContract(using reentrancy guard).sol\":595:596  0 */\n      0x0\n        /* \"secureContract(using reentrancy guard).sol\":573:580  balance */\n      0x1\n        /* \"secureContract(using reentrancy guard).sol\":573:592  balance[msg.sender] */\n      0x0\n        /* \"secureContract(using reentrancy guard).sol\":581:591  msg.sender */\n      caller\n        /* \"secureContract(using reentrancy guard).sol\":573:592  balance[msg.sender] */\n      0xffffffffffffffffffffffffffffffffffffffff\n      and\n      0xffffffffffffffffffffffffffffffffffffffff\n      and\n      dup2\n      mstore\n      0x20\n      add\n      swap1\n      dup2\n      mstore\n      0x20\n      add\n      0x0\n      keccak256\n        /* \"secureContract(using reentrancy guard).sol\":573:596  balance[msg.sender] = 0 */\n      dup2\n      swap1\n      sstore\n      pop\n        /* \"https://github.com/binodnp/openzeppelin-solidity/blob/master/contracts/utils/ReentrancyGuard.sol\":1051:1064  _guardCounter */\n      sload(0x0)\n        /* \"https://github.com/binodnp/openzeppelin-solidity/blob/master/contracts/utils/ReentrancyGuard.sol\":1035:1047  localCounter */\n      dup2\n        /* \"https://github.com/binodnp/openzeppelin-solidity/blob/master/contracts/utils/ReentrancyGuard.sol\":1035:1064  localCounter == _guardCounter */\n      eq\n        /* \"https://github.com/binodnp/openzeppelin-solidity/blob/master/contracts/utils/ReentrancyGuard.sol\":1027:1065  require(localCounter == _guardCounter) */\n      iszero\n      iszero\n      tag_22\n      jumpi\n      0x0\n      dup1\n      revert\n    tag_22:\n        /* \"secureContract(using reentrancy guard).sol\":369:600  function withdraw() nonReentrant public {\r... */\n      pop\n      pop\n      pop\n      jump\t// out\n        /* \"secureContract(using reentrancy guard).sol\":277:362  function deposit() public payable {\r... */\n    tag_13:\n        /* \"secureContract(using reentrancy guard).sol\":345:354  msg.value */\n      callvalue\n        /* \"secureContract(using reentrancy guard).sol\":322:329  balance */\n      0x1\n        /* \"secureContract(using reentrancy guard).sol\":322:341  balance[msg.sender] */\n      0x0\n        /* \"secureContract(using reentrancy guard).sol\":330:340  msg.sender */\n      caller\n        /* \"secureContract(using reentrancy guard).sol\":322:341  balance[msg.sender] */\n      0xffffffffffffffffffffffffffffffffffffffff\n      and\n      0xffffffffffffffffffffffffffffffffffffffff\n      and\n      dup2\n      mstore\n      0x20\n      add\n      swap1\n      dup2\n      mstore\n      0x20\n      add\n      0x0\n      keccak256\n      0x0\n        /* \"secureContract(using reentrancy guard).sol\":322:354  balance[msg.sender] += msg.value */\n      dup3\n      dup3\n      sload\n      add\n      swap3\n      pop\n      pop\n      dup2\n      swap1\n      sstore\n      pop\n        /* \"secureContract(using reentrancy guard).sol\":277:362  function deposit() public payable {\r... */\n      jump\t// out\n        /* \"secureContract(using reentrancy guard).sol\":228:267  mapping(address => uint) public balance */\n    tag_16:\n      mstore(0x20, 0x1)\n      dup1\n      0x0\n      mstore\n      keccak256(0x0, 0x40)\n      0x0\n      swap2\n      pop\n      swap1\n      pop\n      sload\n      dup2\n      jump\t// out\n\n    auxdata: 0xa165627a7a7230582025528f9d2c01c94adc2fac89ec3624d7399dec09d40371794f7906afd76776c40029\n}\n",
				"bytecode": {
					"linkReferences": {},
					"object": "6080604052600160008190555061032a8061001b6000396000f300608060405260043610610062576000357c0100000000000000000000000000000000000000000000000000000000900463ffffffff16806312065fe0146100675780633ccfd60b14610092578063d0e30db0146100a9578063e3d670d7146100b3575b600080fd5b34801561007357600080fd5b5061007c61010a565b6040518082815260200191505060405180910390f35b34801561009e57600080fd5b506100a7610129565b005b6100b1610297565b005b3480156100bf57600080fd5b506100f4600480360381019080803573ffffffffffffffffffffffffffffffffffffffff1690602001909291905050506102e6565b6040518082815260200191505060405180910390f35b60003073ffffffffffffffffffffffffffffffffffffffff1631905090565b6000806000600160008082825401925050819055506000549050600160003373ffffffffffffffffffffffffffffffffffffffff1673ffffffffffffffffffffffffffffffffffffffff16815260200190815260200160002054925060008311151561019457600080fd5b3373ffffffffffffffffffffffffffffffffffffffff168360405180602001905060006040518083038185875af192505050915081151561023d576040517f08c379a00000000000000000000000000000000000000000000000000000000081526004018080602001828103825260148152602001807f4661696c656420746f2073656e6420457468657200000000000000000000000081525060200191505060405180910390fd5b6000600160003373ffffffffffffffffffffffffffffffffffffffff1673ffffffffffffffffffffffffffffffffffffffff168152602001908152602001600020819055506000548114151561029257600080fd5b505050565b34600160003373ffffffffffffffffffffffffffffffffffffffff1673ffffffffffffffffffffffffffffffffffffffff16815260200190815260200160002060008282540192505081905550565b600160205280600052604060002060009150905054815600a165627a7a7230582025528f9d2c01c94adc2fac89ec3624d7399dec09d40371794f7906afd76776c40029",
					"opcodes": "PUSH1 0x80 PUSH1 0x40 MSTORE PUSH1 0x1 PUSH1 0x0 DUP2 SWAP1 SSTORE POP PUSH2 0x32A DUP1 PUSH2 0x1B PUSH1 0x0 CODECOPY PUSH1 0x0 RETURN STOP PUSH1 0x80 PUSH1 0x40 MSTORE PUSH1 0x4 CALLDATASIZE LT PUSH2 0x62 JUMPI PUSH1 0x0 CALLDATALOAD PUSH29 0x100000000000000000000000000000000000000000000000000000000 SWAP1 DIV PUSH4 0xFFFFFFFF AND DUP1 PUSH4 0x12065FE0 EQ PUSH2 0x67 JUMPI DUP1 PUSH4 0x3CCFD60B EQ PUSH2 0x92 JUMPI DUP1 PUSH4 0xD0E30DB0 EQ PUSH2 0xA9 JUMPI DUP1 PUSH4 0xE3D670D7 EQ PUSH2 0xB3 JUMPI JUMPDEST PUSH1 0x0 DUP1 REVERT JUMPDEST CALLVALUE DUP1 ISZERO PUSH2 0x73 JUMPI PUSH1 0x0 DUP1 REVERT JUMPDEST POP PUSH2 0x7C PUSH2 0x10A JUMP JUMPDEST PUSH1 0x40 MLOAD DUP1 DUP3 DUP2 MSTORE PUSH1 0x20 ADD SWAP2 POP POP PUSH1 0x40 MLOAD DUP1 SWAP2 SUB SWAP1 RETURN JUMPDEST CALLVALUE DUP1 ISZERO PUSH2 0x9E JUMPI PUSH1 0x0 DUP1 REVERT JUMPDEST POP PUSH2 0xA7 PUSH2 0x129 JUMP JUMPDEST STOP JUMPDEST PUSH2 0xB1 PUSH2 0x297 JUMP JUMPDEST STOP JUMPDEST CALLVALUE DUP1 ISZERO PUSH2 0xBF JUMPI PUSH1 0x0 DUP1 REVERT JUMPDEST POP PUSH2 0xF4 PUSH1 0x4 DUP1 CALLDATASIZE SUB DUP2 ADD SWAP1 DUP1 DUP1 CALLDATALOAD PUSH20 0xFFFFFFFFFFFFFFFFFFFFFFFFFFFFFFFFFFFFFFFF AND SWAP1 PUSH1 0x20 ADD SWAP1 SWAP3 SWAP2 SWAP1 POP POP POP PUSH2 0x2E6 JUMP JUMPDEST PUSH1 0x40 MLOAD DUP1 DUP3 DUP2 MSTORE PUSH1 0x20 ADD SWAP2 POP POP PUSH1 0x40 MLOAD DUP1 SWAP2 SUB SWAP1 RETURN JUMPDEST PUSH1 0x0 ADDRESS PUSH20 0xFFFFFFFFFFFFFFFFFFFFFFFFFFFFFFFFFFFFFFFF AND BALANCE SWAP1 POP SWAP1 JUMP JUMPDEST PUSH1 0x0 DUP1 PUSH1 0x0 PUSH1 0x1 PUSH1 0x0 DUP1 DUP3 DUP3 SLOAD ADD SWAP3 POP POP DUP2 SWAP1 SSTORE POP PUSH1 0x0 SLOAD SWAP1 POP PUSH1 0x1 PUSH1 0x0 CALLER PUSH20 0xFFFFFFFFFFFFFFFFFFFFFFFFFFFFFFFFFFFFFFFF AND PUSH20 0xFFFFFFFFFFFFFFFFFFFFFFFFFFFFFFFFFFFFFFFF AND DUP2 MSTORE PUSH1 0x20 ADD SWAP1 DUP2 MSTORE PUSH1 0x20 ADD PUSH1 0x0 KECCAK256 SLOAD SWAP3 POP PUSH1 0x0 DUP4 GT ISZERO ISZERO PUSH2 0x194 JUMPI PUSH1 0x0 DUP1 REVERT JUMPDEST CALLER PUSH20 0xFFFFFFFFFFFFFFFFFFFFFFFFFFFFFFFFFFFFFFFF AND DUP4 PUSH1 0x40 MLOAD DUP1 PUSH1 0x20 ADD SWAP1 POP PUSH1 0x0 PUSH1 0x40 MLOAD DUP1 DUP4 SUB DUP2 DUP6 DUP8 GAS CALL SWAP3 POP POP POP SWAP2 POP DUP2 ISZERO ISZERO PUSH2 0x23D JUMPI PUSH1 0x40 MLOAD PUSH32 0x8C379A000000000000000000000000000000000000000000000000000000000 DUP2 MSTORE PUSH1 0x4 ADD DUP1 DUP1 PUSH1 0x20 ADD DUP3 DUP2 SUB DUP3 MSTORE PUSH1 0x14 DUP2 MSTORE PUSH1 0x20 ADD DUP1 PUSH32 0x4661696C656420746F2073656E64204574686572000000000000000000000000 DUP2 MSTORE POP PUSH1 0x20 ADD SWAP2 POP POP PUSH1 0x40 MLOAD DUP1 SWAP2 SUB SWAP1 REVERT JUMPDEST PUSH1 0x0 PUSH1 0x1 PUSH1 0x0 CALLER PUSH20 0xFFFFFFFFFFFFFFFFFFFFFFFFFFFFFFFFFFFFFFFF AND PUSH20 0xFFFFFFFFFFFFFFFFFFFFFFFFFFFFFFFFFFFFFFFF AND DUP2 MSTORE PUSH1 0x20 ADD SWAP1 DUP2 MSTORE PUSH1 0x20 ADD PUSH1 0x0 KECCAK256 DUP2 SWAP1 SSTORE POP PUSH1 0x0 SLOAD DUP2 EQ ISZERO ISZERO PUSH2 0x292 JUMPI PUSH1 0x0 DUP1 REVERT JUMPDEST POP POP POP JUMP JUMPDEST CALLVALUE PUSH1 0x1 PUSH1 0x0 CALLER PUSH20 0xFFFFFFFFFFFFFFFFFFFFFFFFFFFFFFFFFFFFFFFF AND PUSH20 0xFFFFFFFFFFFFFFFFFFFFFFFFFFFFFFFFFFFFFFFF AND DUP2 MSTORE PUSH1 0x20 ADD SWAP1 DUP2 MSTORE PUSH1 0x20 ADD PUSH1 0x0 KECCAK256 PUSH1 0x0 DUP3 DUP3 SLOAD ADD SWAP3 POP POP DUP2 SWAP1 SSTORE POP JUMP JUMPDEST PUSH1 0x1 PUSH1 0x20 MSTORE DUP1 PUSH1 0x0 MSTORE PUSH1 0x40 PUSH1 0x0 KECCAK256 PUSH1 0x0 SWAP2 POP SWAP1 POP SLOAD DUP2 JUMP STOP LOG1 PUSH6 0x627A7A723058 KECCAK256 0x25 MSTORE DUP16 SWAP14 0x2c ADD 0xc9 0x4a 0xdc 0x2f 0xac DUP10 0xec CALLDATASIZE 0x24 0xd7 CODECOPY SWAP14 0xec MULMOD 0xd4 SUB PUSH18 0x794F7906AFD76776C4002900000000000000 "
				},
				"gasEstimates": {
					"creation": {
						"codeDepositCost": "162000",
						"executionCost": "20198",
						"totalCost": "182198"
					},
					"external": {
						"balance(address)": "598",
						"deposit()": "20474",
						"getBalance()": "607",
						"withdraw()": "infinite"
					}
				},
				"methodIdentifiers": {
					"balance(address)": "e3d670d7",
					"deposit()": "d0e30db0",
					"getBalance()": "12065fe0",
					"withdraw()": "3ccfd60b"
				}
			},
			"userdoc": {
				"methods": {}
			}
		}
	}
}