{
	"variables.sol": {
		"WorkingWithVariables": {
			"abi": [
				{
					"inputs": [],
					"name": "decrementUint",
					"outputs": [],
					"stateMutability": "nonpayable",
					"type": "function"
				},
				{
					"inputs": [],
					"name": "getBalanceOfAddress",
					"outputs": [
						{
							"internalType": "uint256",
							"name": "",
							"type": "uint256"
						}
					],
					"stateMutability": "view",
					"type": "function"
				},
				{
					"inputs": [],
					"name": "incrementUint",
					"outputs": [],
					"stateMutability": "nonpayable",
					"type": "function"
				},
				{
					"inputs": [],
					"name": "myAddress",
					"outputs": [
						{
							"internalType": "address",
							"name": "",
							"type": "address"
						}
					],
					"stateMutability": "view",
					"type": "function"
				},
				{
					"inputs": [],
					"name": "myBool",
					"outputs": [
						{
							"internalType": "bool",
							"name": "",
							"type": "bool"
						}
					],
					"stateMutability": "view",
					"type": "function"
				},
				{
					"inputs": [],
					"name": "myString",
					"outputs": [
						{
							"internalType": "string",
							"name": "",
							"type": "string"
						}
					],
					"stateMutability": "view",
					"type": "function"
				},
				{
					"inputs": [],
					"name": "myUint",
					"outputs": [
						{
							"internalType": "uint256",
							"name": "",
							"type": "uint256"
						}
					],
					"stateMutability": "view",
					"type": "function"
				},
				{
					"inputs": [],
					"name": "myUint8",
					"outputs": [
						{
							"internalType": "uint8",
							"name": "",
							"type": "uint8"
						}
					],
					"stateMutability": "view",
					"type": "function"
				},
				{
					"inputs": [
						{
							"internalType": "address",
							"name": "_address",
							"type": "address"
						}
					],
					"name": "setAddress",
					"outputs": [],
					"stateMutability": "nonpayable",
					"type": "function"
				},
				{
					"inputs": [
						{
							"internalType": "bool",
							"name": "_myBool",
							"type": "bool"
						}
					],
					"name": "setMyBool",
					"outputs": [],
					"stateMutability": "nonpayable",
					"type": "function"
				},
				{
					"inputs": [
						{
							"internalType": "string",
							"name": "_myString",
							"type": "string"
						}
					],
					"name": "setMyString",
					"outputs": [],
					"stateMutability": "nonpayable",
					"type": "function"
				},
				{
					"inputs": [
						{
							"internalType": "uint256",
							"name": "_myUint",
							"type": "uint256"
						}
					],
					"name": "setMyUint",
					"outputs": [],
					"stateMutability": "nonpayable",
					"type": "function"
				}
			],
			"devdoc": {
				"kind": "dev",
				"methods": {},
				"version": 1
			},
			"evm": {
				"assembly": "    /* \"variables.sol\":62:845  contract WorkingWithVariables{... */\n  mstore(0x40, 0x80)\n  callvalue\n  dup1\n  iszero\n  tag_1\n  jumpi\n  0x00\n  dup1\n  revert\ntag_1:\n  pop\n  dataSize(sub_0)\n  dup1\n  dataOffset(sub_0)\n  0x00\n  codecopy\n  0x00\n  return\nstop\n\nsub_0: assembly {\n        /* \"variables.sol\":62:845  contract WorkingWithVariables{... */\n      mstore(0x40, 0x80)\n      callvalue\n      dup1\n      iszero\n      tag_1\n      jumpi\n      0x00\n      dup1\n      revert\n    tag_1:\n      pop\n      jumpi(tag_2, lt(calldatasize, 0x04))\n      shr(0xe0, calldataload(0x00))\n      dup1\n      0x82180568\n      gt\n      tag_15\n      jumpi\n      dup1\n      0x82180568\n      eq\n      tag_9\n      jumpi\n      dup1\n      0xda50eaee\n      eq\n      tag_10\n      jumpi\n      dup1\n      0xe2a4b2af\n      eq\n      tag_11\n      jumpi\n      dup1\n      0xe30081a0\n      eq\n      tag_12\n      jumpi\n      dup1\n      0xe492fd84\n      eq\n      tag_13\n      jumpi\n      dup1\n      0xeb1b30d9\n      eq\n      tag_14\n      jumpi\n      jump(tag_2)\n    tag_15:\n      dup1\n      0x06540f7e\n      eq\n      tag_3\n      jumpi\n      dup1\n      0x14bf43bd\n      eq\n      tag_4\n      jumpi\n      dup1\n      0x15502612\n      eq\n      tag_5\n      jumpi\n      dup1\n      0x26b85ee1\n      eq\n      tag_6\n      jumpi\n      dup1\n      0x492bfa18\n      eq\n      tag_7\n      jumpi\n      dup1\n      0x6deecdbe\n      eq\n      tag_8\n      jumpi\n    tag_2:\n      0x00\n      dup1\n      revert\n        /* \"variables.sol\":98:119  uint256 public myUint */\n    tag_3:\n      tag_16\n      tag_17\n      jump\t// in\n    tag_16:\n      mload(0x40)\n      tag_18\n      swap2\n      swap1\n      tag_19\n      jump\t// in\n    tag_18:\n      mload(0x40)\n      dup1\n      swap2\n      sub\n      swap1\n      return\n        /* \"variables.sol\":350:410  function incrementUint() public {... */\n    tag_4:\n      tag_20\n      tag_21\n      jump\t// in\n    tag_20:\n      stop\n        /* \"variables.sol\":610:710  function getBalanceOfAddress() public view returns(uint) {... */\n    tag_5:\n      tag_22\n      tag_23\n      jump\t// in\n    tag_22:\n      mload(0x40)\n      tag_24\n      swap2\n      swap1\n      tag_19\n      jump\t// in\n    tag_24:\n      mload(0x40)\n      dup1\n      swap2\n      sub\n      swap1\n      return\n        /* \"variables.sol\":486:510  address public myAddress */\n    tag_6:\n      tag_25\n      tag_26\n      jump\t// in\n    tag_25:\n      mload(0x40)\n      tag_27\n      swap2\n      swap1\n      tag_28\n      jump\t// in\n    tag_27:\n      mload(0x40)\n      dup1\n      swap2\n      sub\n      swap1\n      return\n        /* \"variables.sol\":718:740  string public myString */\n    tag_7:\n      tag_29\n      tag_30\n      jump\t// in\n    tag_29:\n      mload(0x40)\n      tag_31\n      swap2\n      swap1\n      tag_32\n      jump\t// in\n    tag_31:\n      mload(0x40)\n      dup1\n      swap2\n      sub\n      swap1\n      return\n        /* \"variables.sol\":211:229  bool public myBool */\n    tag_8:\n      tag_33\n      tag_34\n      jump\t// in\n    tag_33:\n      mload(0x40)\n      tag_35\n      swap2\n      swap1\n      tag_36\n      jump\t// in\n    tag_35:\n      mload(0x40)\n      dup1\n      swap2\n      sub\n      swap1\n      return\n        /* \"variables.sol\":749:842  function setMyString (string memory _myString) public {... */\n    tag_9:\n      tag_37\n      0x04\n      dup1\n      calldatasize\n      sub\n      dup2\n      add\n      swap1\n      tag_38\n      swap2\n      swap1\n      tag_39\n      jump\t// in\n    tag_38:\n      tag_40\n      jump\t// in\n    tag_37:\n      stop\n        /* \"variables.sol\":418:478  function decrementUint() public {... */\n    tag_10:\n      tag_41\n      tag_42\n      jump\t// in\n    tag_41:\n      stop\n        /* \"variables.sol\":321:341  uint8 public myUint8 */\n    tag_11:\n      tag_43\n      tag_44\n      jump\t// in\n    tag_43:\n      mload(0x40)\n      tag_45\n      swap2\n      swap1\n      tag_46\n      jump\t// in\n    tag_45:\n      mload(0x40)\n      dup1\n      swap2\n      sub\n      swap1\n      return\n        /* \"variables.sol\":519:602  function setAddress(address _address) public{... */\n    tag_12:\n      tag_47\n      0x04\n      dup1\n      calldatasize\n      sub\n      dup2\n      add\n      swap1\n      tag_48\n      swap2\n      swap1\n      tag_49\n      jump\t// in\n    tag_48:\n      tag_50\n      jump\t// in\n    tag_47:\n      stop\n        /* \"variables.sol\":128:203  function setMyUint(uint _myUint) public {... */\n    tag_13:\n      tag_51\n      0x04\n      dup1\n      calldatasize\n      sub\n      dup2\n      add\n      swap1\n      tag_52\n      swap2\n      swap1\n      tag_53\n      jump\t// in\n    tag_52:\n      tag_54\n      jump\t// in\n    tag_51:\n      stop\n        /* \"variables.sol\":238:313  function setMyBool(bool _myBool) public {... */\n    tag_14:\n      tag_55\n      0x04\n      dup1\n      calldatasize\n      sub\n      dup2\n      add\n      swap1\n      tag_56\n      swap2\n      swap1\n      tag_57\n      jump\t// in\n    tag_56:\n      tag_58\n      jump\t// in\n    tag_55:\n      stop\n        /* \"variables.sol\":98:119  uint256 public myUint */\n    tag_17:\n      sload(0x00)\n      dup2\n      jump\t// out\n        /* \"variables.sol\":350:410  function incrementUint() public {... */\n    tag_21:\n        /* \"variables.sol\":393:400  myUint8 */\n      0x01\n      dup1\n        /* \"variables.sol\":393:402  myUint8++ */\n      dup2\n      dup2\n      swap1\n      sload\n      swap1\n      0x0100\n      exp\n      swap1\n      div\n      0xff\n      and\n      dup1\n      swap3\n      swap2\n      swap1\n      tag_60\n      swap1\n      tag_61\n      jump\t// in\n    tag_60:\n      swap2\n      swap1\n      0x0100\n      exp\n      dup2\n      sload\n      dup2\n      0xff\n      mul\n      not\n      and\n      swap1\n      dup4\n      0xff\n      and\n      mul\n      or\n      swap1\n      sstore\n      pop\n      pop\n        /* \"variables.sol\":350:410  function incrementUint() public {... */\n      jump\t// out\n        /* \"variables.sol\":610:710  function getBalanceOfAddress() public view returns(uint) {... */\n    tag_23:\n        /* \"variables.sol\":661:665  uint */\n      0x00\n        /* \"variables.sol\":685:694  myAddress */\n      0x01\n      0x02\n      swap1\n      sload\n      swap1\n      0x0100\n      exp\n      swap1\n      div\n      0xffffffffffffffffffffffffffffffffffffffff\n      and\n        /* \"variables.sol\":685:702  myAddress.balance */\n      0xffffffffffffffffffffffffffffffffffffffff\n      and\n      balance\n        /* \"variables.sol\":678:702  return myAddress.balance */\n      swap1\n      pop\n        /* \"variables.sol\":610:710  function getBalanceOfAddress() public view returns(uint) {... */\n      swap1\n      jump\t// out\n        /* \"variables.sol\":486:510  address public myAddress */\n    tag_26:\n      0x01\n      0x02\n      swap1\n      sload\n      swap1\n      0x0100\n      exp\n      swap1\n      div\n      0xffffffffffffffffffffffffffffffffffffffff\n      and\n      dup2\n      jump\t// out\n        /* \"variables.sol\":718:740  string public myString */\n    tag_30:\n      0x02\n      dup1\n      sload\n      tag_63\n      swap1\n      tag_64\n      jump\t// in\n    tag_63:\n      dup1\n      0x1f\n      add\n      0x20\n      dup1\n      swap2\n      div\n      mul\n      0x20\n      add\n      mload(0x40)\n      swap1\n      dup2\n      add\n      0x40\n      mstore\n      dup1\n      swap3\n      swap2\n      swap1\n      dup2\n      dup2\n      mstore\n      0x20\n      add\n      dup3\n      dup1\n      sload\n      tag_65\n      swap1\n      tag_64\n      jump\t// in\n    tag_65:\n      dup1\n      iszero\n      tag_66\n      jumpi\n      dup1\n      0x1f\n      lt\n      tag_67\n      jumpi\n      0x0100\n      dup1\n      dup4\n      sload\n      div\n      mul\n      dup4\n      mstore\n      swap2\n      0x20\n      add\n      swap2\n      jump(tag_66)\n    tag_67:\n      dup3\n      add\n      swap2\n      swap1\n      0x00\n      mstore\n      keccak256(0x00, 0x20)\n      swap1\n    tag_68:\n      dup2\n      sload\n      dup2\n      mstore\n      swap1\n      0x01\n      add\n      swap1\n      0x20\n      add\n      dup1\n      dup4\n      gt\n      tag_68\n      jumpi\n      dup3\n      swap1\n      sub\n      0x1f\n      and\n      dup3\n      add\n      swap2\n    tag_66:\n      pop\n      pop\n      pop\n      pop\n      pop\n      dup2\n      jump\t// out\n        /* \"variables.sol\":211:229  bool public myBool */\n    tag_34:\n      0x01\n      0x00\n      swap1\n      sload\n      swap1\n      0x0100\n      exp\n      swap1\n      div\n      0xff\n      and\n      dup2\n      jump\t// out\n        /* \"variables.sol\":749:842  function setMyString (string memory _myString) public {... */\n    tag_40:\n        /* \"variables.sol\":825:834  _myString */\n      dup1\n        /* \"variables.sol\":814:822  myString */\n      0x02\n        /* \"variables.sol\":814:834  myString = _myString */\n      swap1\n      dup2\n      tag_70\n      swap2\n      swap1\n      tag_71\n      jump\t// in\n    tag_70:\n      pop\n        /* \"variables.sol\":749:842  function setMyString (string memory _myString) public {... */\n      pop\n      jump\t// out\n        /* \"variables.sol\":418:478  function decrementUint() public {... */\n    tag_42:\n        /* \"variables.sol\":461:468  myUint8 */\n      0x01\n      dup1\n        /* \"variables.sol\":461:470  myUint8-- */\n      dup2\n      dup2\n      swap1\n      sload\n      swap1\n      0x0100\n      exp\n      swap1\n      div\n      0xff\n      and\n      dup1\n      swap3\n      swap2\n      swap1\n      tag_73\n      swap1\n      tag_74\n      jump\t// in\n    tag_73:\n      swap2\n      swap1\n      0x0100\n      exp\n      dup2\n      sload\n      dup2\n      0xff\n      mul\n      not\n      and\n      swap1\n      dup4\n      0xff\n      and\n      mul\n      or\n      swap1\n      sstore\n      pop\n      pop\n        /* \"variables.sol\":418:478  function decrementUint() public {... */\n      jump\t// out\n        /* \"variables.sol\":321:341  uint8 public myUint8 */\n    tag_44:\n      0x01\n      dup1\n      sload\n      swap1\n      0x0100\n      exp\n      swap1\n      div\n      0xff\n      and\n      dup2\n      jump\t// out\n        /* \"variables.sol\":519:602  function setAddress(address _address) public{... */\n    tag_50:\n        /* \"variables.sol\":586:594  _address */\n      dup1\n        /* \"variables.sol\":574:583  myAddress */\n      0x01\n      0x02\n        /* \"variables.sol\":574:594  myAddress = _address */\n      0x0100\n      exp\n      dup2\n      sload\n      dup2\n      0xffffffffffffffffffffffffffffffffffffffff\n      mul\n      not\n      and\n      swap1\n      dup4\n      0xffffffffffffffffffffffffffffffffffffffff\n      and\n      mul\n      or\n      swap1\n      sstore\n      pop\n        /* \"variables.sol\":519:602  function setAddress(address _address) public{... */\n      pop\n      jump\t// out\n        /* \"variables.sol\":128:203  function setMyUint(uint _myUint) public {... */\n    tag_54:\n        /* \"variables.sol\":188:195  _myUint */\n      dup1\n        /* \"variables.sol\":179:185  myUint */\n      0x00\n        /* \"variables.sol\":179:195  myUint = _myUint */\n      dup2\n      swap1\n      sstore\n      pop\n        /* \"variables.sol\":128:203  function setMyUint(uint _myUint) public {... */\n      pop\n      jump\t// out\n        /* \"variables.sol\":238:313  function setMyBool(bool _myBool) public {... */\n    tag_58:\n        /* \"variables.sol\":298:305  _myBool */\n      dup1\n        /* \"variables.sol\":289:295  myBool */\n      0x01\n      0x00\n        /* \"variables.sol\":289:305  myBool = _myBool */\n      0x0100\n      exp\n      dup2\n      sload\n      dup2\n      0xff\n      mul\n      not\n      and\n      swap1\n      dup4\n      iszero\n      iszero\n      mul\n      or\n      swap1\n      sstore\n      pop\n        /* \"variables.sol\":238:313  function setMyBool(bool _myBool) public {... */\n      pop\n      jump\t// out\n        /* \"#utility.yul\":7:84   */\n    tag_78:\n        /* \"#utility.yul\":44:51   */\n      0x00\n        /* \"#utility.yul\":73:78   */\n      dup2\n        /* \"#utility.yul\":62:78   */\n      swap1\n      pop\n        /* \"#utility.yul\":7:84   */\n      swap2\n      swap1\n      pop\n      jump\t// out\n        /* \"#utility.yul\":90:208   */\n    tag_79:\n        /* \"#utility.yul\":177:201   */\n      tag_130\n        /* \"#utility.yul\":195:200   */\n      dup2\n        /* \"#utility.yul\":177:201   */\n      tag_78\n      jump\t// in\n    tag_130:\n        /* \"#utility.yul\":172:175   */\n      dup3\n        /* \"#utility.yul\":165:202   */\n      mstore\n        /* \"#utility.yul\":90:208   */\n      pop\n      pop\n      jump\t// out\n        /* \"#utility.yul\":214:436   */\n    tag_19:\n        /* \"#utility.yul\":307:311   */\n      0x00\n        /* \"#utility.yul\":345:347   */\n      0x20\n        /* \"#utility.yul\":334:343   */\n      dup3\n        /* \"#utility.yul\":330:348   */\n      add\n        /* \"#utility.yul\":322:348   */\n      swap1\n      pop\n        /* \"#utility.yul\":358:429   */\n      tag_132\n        /* \"#utility.yul\":426:427   */\n      0x00\n        /* \"#utility.yul\":415:424   */\n      dup4\n        /* \"#utility.yul\":411:428   */\n      add\n        /* \"#utility.yul\":402:408   */\n      dup5\n        /* \"#utility.yul\":358:429   */\n      tag_79\n      jump\t// in\n    tag_132:\n        /* \"#utility.yul\":214:436   */\n      swap3\n      swap2\n      pop\n      pop\n      jump\t// out\n        /* \"#utility.yul\":442:568   */\n    tag_80:\n        /* \"#utility.yul\":479:486   */\n      0x00\n        /* \"#utility.yul\":519:561   */\n      0xffffffffffffffffffffffffffffffffffffffff\n        /* \"#utility.yul\":512:517   */\n      dup3\n        /* \"#utility.yul\":508:562   */\n      and\n        /* \"#utility.yul\":497:562   */\n      swap1\n      pop\n        /* \"#utility.yul\":442:568   */\n      swap2\n      swap1\n      pop\n      jump\t// out\n        /* \"#utility.yul\":574:670   */\n    tag_81:\n        /* \"#utility.yul\":611:618   */\n      0x00\n        /* \"#utility.yul\":640:664   */\n      tag_135\n        /* \"#utility.yul\":658:663   */\n      dup3\n        /* \"#utility.yul\":640:664   */\n      tag_80\n      jump\t// in\n    tag_135:\n        /* \"#utility.yul\":629:664   */\n      swap1\n      pop\n        /* \"#utility.yul\":574:670   */\n      swap2\n      swap1\n      pop\n      jump\t// out\n        /* \"#utility.yul\":676:794   */\n    tag_82:\n        /* \"#utility.yul\":763:787   */\n      tag_137\n        /* \"#utility.yul\":781:786   */\n      dup2\n        /* \"#utility.yul\":763:787   */\n      tag_81\n      jump\t// in\n    tag_137:\n        /* \"#utility.yul\":758:761   */\n      dup3\n        /* \"#utility.yul\":751:788   */\n      mstore\n        /* \"#utility.yul\":676:794   */\n      pop\n      pop\n      jump\t// out\n        /* \"#utility.yul\":800:1022   */\n    tag_28:\n        /* \"#utility.yul\":893:897   */\n      0x00\n        /* \"#utility.yul\":931:933   */\n      0x20\n        /* \"#utility.yul\":920:929   */\n      dup3\n        /* \"#utility.yul\":916:934   */\n      add\n        /* \"#utility.yul\":908:934   */\n      swap1\n      pop\n        /* \"#utility.yul\":944:1015   */\n      tag_139\n        /* \"#utility.yul\":1012:1013   */\n      0x00\n        /* \"#utility.yul\":1001:1010   */\n      dup4\n        /* \"#utility.yul\":997:1014   */\n      add\n        /* \"#utility.yul\":988:994   */\n      dup5\n        /* \"#utility.yul\":944:1015   */\n      tag_82\n      jump\t// in\n    tag_139:\n        /* \"#utility.yul\":800:1022   */\n      swap3\n      swap2\n      pop\n      pop\n      jump\t// out\n        /* \"#utility.yul\":1028:1127   */\n    tag_83:\n        /* \"#utility.yul\":1080:1086   */\n      0x00\n        /* \"#utility.yul\":1114:1119   */\n      dup2\n        /* \"#utility.yul\":1108:1120   */\n      mload\n        /* \"#utility.yul\":1098:1120   */\n      swap1\n      pop\n        /* \"#utility.yul\":1028:1127   */\n      swap2\n      swap1\n      pop\n      jump\t// out\n        /* \"#utility.yul\":1133:1302   */\n    tag_84:\n        /* \"#utility.yul\":1217:1228   */\n      0x00\n        /* \"#utility.yul\":1251:1257   */\n      dup3\n        /* \"#utility.yul\":1246:1249   */\n      dup3\n        /* \"#utility.yul\":1239:1258   */\n      mstore\n        /* \"#utility.yul\":1291:1295   */\n      0x20\n        /* \"#utility.yul\":1286:1289   */\n      dup3\n        /* \"#utility.yul\":1282:1296   */\n      add\n        /* \"#utility.yul\":1267:1296   */\n      swap1\n      pop\n        /* \"#utility.yul\":1133:1302   */\n      swap3\n      swap2\n      pop\n      pop\n      jump\t// out\n        /* \"#utility.yul\":1308:1554   */\n    tag_85:\n        /* \"#utility.yul\":1389:1390   */\n      0x00\n        /* \"#utility.yul\":1399:1512   */\n    tag_143:\n        /* \"#utility.yul\":1413:1419   */\n      dup4\n        /* \"#utility.yul\":1410:1411   */\n      dup2\n        /* \"#utility.yul\":1407:1420   */\n      lt\n        /* \"#utility.yul\":1399:1512   */\n      iszero\n      tag_145\n      jumpi\n        /* \"#utility.yul\":1498:1499   */\n      dup1\n        /* \"#utility.yul\":1493:1496   */\n      dup3\n        /* \"#utility.yul\":1489:1500   */\n      add\n        /* \"#utility.yul\":1483:1501   */\n      mload\n        /* \"#utility.yul\":1479:1480   */\n      dup2\n        /* \"#utility.yul\":1474:1477   */\n      dup5\n        /* \"#utility.yul\":1470:1481   */\n      add\n        /* \"#utility.yul\":1463:1502   */\n      mstore\n        /* \"#utility.yul\":1435:1437   */\n      0x20\n        /* \"#utility.yul\":1432:1433   */\n      dup2\n        /* \"#utility.yul\":1428:1438   */\n      add\n        /* \"#utility.yul\":1423:1438   */\n      swap1\n      pop\n        /* \"#utility.yul\":1399:1512   */\n      jump(tag_143)\n    tag_145:\n        /* \"#utility.yul\":1546:1547   */\n      0x00\n        /* \"#utility.yul\":1537:1543   */\n      dup5\n        /* \"#utility.yul\":1532:1535   */\n      dup5\n        /* \"#utility.yul\":1528:1544   */\n      add\n        /* \"#utility.yul\":1521:1548   */\n      mstore\n        /* \"#utility.yul\":1370:1554   */\n      pop\n        /* \"#utility.yul\":1308:1554   */\n      pop\n      pop\n      pop\n      jump\t// out\n        /* \"#utility.yul\":1560:1662   */\n    tag_86:\n        /* \"#utility.yul\":1601:1607   */\n      0x00\n        /* \"#utility.yul\":1652:1654   */\n      0x1f\n        /* \"#utility.yul\":1648:1655   */\n      not\n        /* \"#utility.yul\":1643:1645   */\n      0x1f\n        /* \"#utility.yul\":1636:1641   */\n      dup4\n        /* \"#utility.yul\":1632:1646   */\n      add\n        /* \"#utility.yul\":1628:1656   */\n      and\n        /* \"#utility.yul\":1618:1656   */\n      swap1\n      pop\n        /* \"#utility.yul\":1560:1662   */\n      swap2\n      swap1\n      pop\n      jump\t// out\n        /* \"#utility.yul\":1668:2045   */\n    tag_87:\n        /* \"#utility.yul\":1756:1759   */\n      0x00\n        /* \"#utility.yul\":1784:1823   */\n      tag_148\n        /* \"#utility.yul\":1817:1822   */\n      dup3\n        /* \"#utility.yul\":1784:1823   */\n      tag_83\n      jump\t// in\n    tag_148:\n        /* \"#utility.yul\":1839:1910   */\n      tag_149\n        /* \"#utility.yul\":1903:1909   */\n      dup2\n        /* \"#utility.yul\":1898:1901   */\n      dup6\n        /* \"#utility.yul\":1839:1910   */\n      tag_84\n      jump\t// in\n    tag_149:\n        /* \"#utility.yul\":1832:1910   */\n      swap4\n      pop\n        /* \"#utility.yul\":1919:1984   */\n      tag_150\n        /* \"#utility.yul\":1977:1983   */\n      dup2\n        /* \"#utility.yul\":1972:1975   */\n      dup6\n        /* \"#utility.yul\":1965:1969   */\n      0x20\n        /* \"#utility.yul\":1958:1963   */\n      dup7\n        /* \"#utility.yul\":1954:1970   */\n      add\n        /* \"#utility.yul\":1919:1984   */\n      tag_85\n      jump\t// in\n    tag_150:\n        /* \"#utility.yul\":2009:2038   */\n      tag_151\n        /* \"#utility.yul\":2031:2037   */\n      dup2\n        /* \"#utility.yul\":2009:2038   */\n      tag_86\n      jump\t// in\n    tag_151:\n        /* \"#utility.yul\":2004:2007   */\n      dup5\n        /* \"#utility.yul\":2000:2039   */\n      add\n        /* \"#utility.yul\":1993:2039   */\n      swap2\n      pop\n        /* \"#utility.yul\":1760:2045   */\n      pop\n        /* \"#utility.yul\":1668:2045   */\n      swap3\n      swap2\n      pop\n      pop\n      jump\t// out\n        /* \"#utility.yul\":2051:2364   */\n    tag_32:\n        /* \"#utility.yul\":2164:2168   */\n      0x00\n        /* \"#utility.yul\":2202:2204   */\n      0x20\n        /* \"#utility.yul\":2191:2200   */\n      dup3\n        /* \"#utility.yul\":2187:2205   */\n      add\n        /* \"#utility.yul\":2179:2205   */\n      swap1\n      pop\n        /* \"#utility.yul\":2251:2260   */\n      dup2\n        /* \"#utility.yul\":2245:2249   */\n      dup2\n        /* \"#utility.yul\":2241:2261   */\n      sub\n        /* \"#utility.yul\":2237:2238   */\n      0x00\n        /* \"#utility.yul\":2226:2235   */\n      dup4\n        /* \"#utility.yul\":2222:2239   */\n      add\n        /* \"#utility.yul\":2215:2262   */\n      mstore\n        /* \"#utility.yul\":2279:2357   */\n      tag_153\n        /* \"#utility.yul\":2352:2356   */\n      dup2\n        /* \"#utility.yul\":2343:2349   */\n      dup5\n        /* \"#utility.yul\":2279:2357   */\n      tag_87\n      jump\t// in\n    tag_153:\n        /* \"#utility.yul\":2271:2357   */\n      swap1\n      pop\n        /* \"#utility.yul\":2051:2364   */\n      swap3\n      swap2\n      pop\n      pop\n      jump\t// out\n        /* \"#utility.yul\":2370:2460   */\n    tag_88:\n        /* \"#utility.yul\":2404:2411   */\n      0x00\n        /* \"#utility.yul\":2447:2452   */\n      dup2\n        /* \"#utility.yul\":2440:2453   */\n      iszero\n        /* \"#utility.yul\":2433:2454   */\n      iszero\n        /* \"#utility.yul\":2422:2454   */\n      swap1\n      pop\n        /* \"#utility.yul\":2370:2460   */\n      swap2\n      swap1\n      pop\n      jump\t// out\n        /* \"#utility.yul\":2466:2575   */\n    tag_89:\n        /* \"#utility.yul\":2547:2568   */\n      tag_156\n        /* \"#utility.yul\":2562:2567   */\n      dup2\n        /* \"#utility.yul\":2547:2568   */\n      tag_88\n      jump\t// in\n    tag_156:\n        /* \"#utility.yul\":2542:2545   */\n      dup3\n        /* \"#utility.yul\":2535:2569   */\n      mstore\n        /* \"#utility.yul\":2466:2575   */\n      pop\n      pop\n      jump\t// out\n        /* \"#utility.yul\":2581:2791   */\n    tag_36:\n        /* \"#utility.yul\":2668:2672   */\n      0x00\n        /* \"#utility.yul\":2706:2708   */\n      0x20\n        /* \"#utility.yul\":2695:2704   */\n      dup3\n        /* \"#utility.yul\":2691:2709   */\n      add\n        /* \"#utility.yul\":2683:2709   */\n      swap1\n      pop\n        /* \"#utility.yul\":2719:2784   */\n      tag_158\n        /* \"#utility.yul\":2781:2782   */\n      0x00\n        /* \"#utility.yul\":2770:2779   */\n      dup4\n        /* \"#utility.yul\":2766:2783   */\n      add\n        /* \"#utility.yul\":2757:2763   */\n      dup5\n        /* \"#utility.yul\":2719:2784   */\n      tag_89\n      jump\t// in\n    tag_158:\n        /* \"#utility.yul\":2581:2791   */\n      swap3\n      swap2\n      pop\n      pop\n      jump\t// out\n        /* \"#utility.yul\":2797:2872   */\n    tag_90:\n        /* \"#utility.yul\":2830:2836   */\n      0x00\n        /* \"#utility.yul\":2863:2865   */\n      0x40\n        /* \"#utility.yul\":2857:2866   */\n      mload\n        /* \"#utility.yul\":2847:2866   */\n      swap1\n      pop\n        /* \"#utility.yul\":2797:2872   */\n      swap1\n      jump\t// out\n        /* \"#utility.yul\":2878:2995   */\n    tag_91:\n        /* \"#utility.yul\":2987:2988   */\n      0x00\n        /* \"#utility.yul\":2984:2985   */\n      dup1\n        /* \"#utility.yul\":2977:2989   */\n      revert\n        /* \"#utility.yul\":3001:3118   */\n    tag_92:\n        /* \"#utility.yul\":3110:3111   */\n      0x00\n        /* \"#utility.yul\":3107:3108   */\n      dup1\n        /* \"#utility.yul\":3100:3112   */\n      revert\n        /* \"#utility.yul\":3124:3241   */\n    tag_93:\n        /* \"#utility.yul\":3233:3234   */\n      0x00\n        /* \"#utility.yul\":3230:3231   */\n      dup1\n        /* \"#utility.yul\":3223:3235   */\n      revert\n        /* \"#utility.yul\":3247:3364   */\n    tag_94:\n        /* \"#utility.yul\":3356:3357   */\n      0x00\n        /* \"#utility.yul\":3353:3354   */\n      dup1\n        /* \"#utility.yul\":3346:3358   */\n      revert\n        /* \"#utility.yul\":3370:3550   */\n    tag_95:\n        /* \"#utility.yul\":3418:3495   */\n      0x4e487b7100000000000000000000000000000000000000000000000000000000\n        /* \"#utility.yul\":3415:3416   */\n      0x00\n        /* \"#utility.yul\":3408:3496   */\n      mstore\n        /* \"#utility.yul\":3515:3519   */\n      0x41\n        /* \"#utility.yul\":3512:3513   */\n      0x04\n        /* \"#utility.yul\":3505:3520   */\n      mstore\n        /* \"#utility.yul\":3539:3543   */\n      0x24\n        /* \"#utility.yul\":3536:3537   */\n      0x00\n        /* \"#utility.yul\":3529:3544   */\n      revert\n        /* \"#utility.yul\":3556:3837   */\n    tag_96:\n        /* \"#utility.yul\":3639:3666   */\n      tag_166\n        /* \"#utility.yul\":3661:3665   */\n      dup3\n        /* \"#utility.yul\":3639:3666   */\n      tag_86\n      jump\t// in\n    tag_166:\n        /* \"#utility.yul\":3631:3637   */\n      dup2\n        /* \"#utility.yul\":3627:3667   */\n      add\n        /* \"#utility.yul\":3769:3775   */\n      dup2\n        /* \"#utility.yul\":3757:3767   */\n      dup2\n        /* \"#utility.yul\":3754:3776   */\n      lt\n        /* \"#utility.yul\":3733:3751   */\n      0xffffffffffffffff\n        /* \"#utility.yul\":3721:3731   */\n      dup3\n        /* \"#utility.yul\":3718:3752   */\n      gt\n        /* \"#utility.yul\":3715:3777   */\n      or\n        /* \"#utility.yul\":3712:3800   */\n      iszero\n      tag_167\n      jumpi\n        /* \"#utility.yul\":3780:3798   */\n      tag_168\n      tag_95\n      jump\t// in\n    tag_168:\n        /* \"#utility.yul\":3712:3800   */\n    tag_167:\n        /* \"#utility.yul\":3820:3830   */\n      dup1\n        /* \"#utility.yul\":3816:3818   */\n      0x40\n        /* \"#utility.yul\":3809:3831   */\n      mstore\n        /* \"#utility.yul\":3599:3837   */\n      pop\n        /* \"#utility.yul\":3556:3837   */\n      pop\n      pop\n      jump\t// out\n        /* \"#utility.yul\":3843:3972   */\n    tag_97:\n        /* \"#utility.yul\":3877:3883   */\n      0x00\n        /* \"#utility.yul\":3904:3924   */\n      tag_170\n      tag_90\n      jump\t// in\n    tag_170:\n        /* \"#utility.yul\":3894:3924   */\n      swap1\n      pop\n        /* \"#utility.yul\":3933:3966   */\n      tag_171\n        /* \"#utility.yul\":3961:3965   */\n      dup3\n        /* \"#utility.yul\":3953:3959   */\n      dup3\n        /* \"#utility.yul\":3933:3966   */\n      tag_96\n      jump\t// in\n    tag_171:\n        /* \"#utility.yul\":3843:3972   */\n      swap2\n      swap1\n      pop\n      jump\t// out\n        /* \"#utility.yul\":3978:4286   */\n    tag_98:\n        /* \"#utility.yul\":4040:4044   */\n      0x00\n        /* \"#utility.yul\":4130:4148   */\n      0xffffffffffffffff\n        /* \"#utility.yul\":4122:4128   */\n      dup3\n        /* \"#utility.yul\":4119:4149   */\n      gt\n        /* \"#utility.yul\":4116:4172   */\n      iszero\n      tag_173\n      jumpi\n        /* \"#utility.yul\":4152:4170   */\n      tag_174\n      tag_95\n      jump\t// in\n    tag_174:\n        /* \"#utility.yul\":4116:4172   */\n    tag_173:\n        /* \"#utility.yul\":4190:4219   */\n      tag_175\n        /* \"#utility.yul\":4212:4218   */\n      dup3\n        /* \"#utility.yul\":4190:4219   */\n      tag_86\n      jump\t// in\n    tag_175:\n        /* \"#utility.yul\":4182:4219   */\n      swap1\n      pop\n        /* \"#utility.yul\":4274:4278   */\n      0x20\n        /* \"#utility.yul\":4268:4272   */\n      dup2\n        /* \"#utility.yul\":4264:4279   */\n      add\n        /* \"#utility.yul\":4256:4279   */\n      swap1\n      pop\n        /* \"#utility.yul\":3978:4286   */\n      swap2\n      swap1\n      pop\n      jump\t// out\n        /* \"#utility.yul\":4292:4438   */\n    tag_99:\n        /* \"#utility.yul\":4389:4395   */\n      dup3\n        /* \"#utility.yul\":4384:4387   */\n      dup2\n        /* \"#utility.yul\":4379:4382   */\n      dup4\n        /* \"#utility.yul\":4366:4396   */\n      calldatacopy\n        /* \"#utility.yul\":4430:4431   */\n      0x00\n        /* \"#utility.yul\":4421:4427   */\n      dup4\n        /* \"#utility.yul\":4416:4419   */\n      dup4\n        /* \"#utility.yul\":4412:4428   */\n      add\n        /* \"#utility.yul\":4405:4432   */\n      mstore\n        /* \"#utility.yul\":4292:4438   */\n      pop\n      pop\n      pop\n      jump\t// out\n        /* \"#utility.yul\":4444:4869   */\n    tag_100:\n        /* \"#utility.yul\":4522:4527   */\n      0x00\n        /* \"#utility.yul\":4547:4613   */\n      tag_178\n        /* \"#utility.yul\":4563:4612   */\n      tag_179\n        /* \"#utility.yul\":4605:4611   */\n      dup5\n        /* \"#utility.yul\":4563:4612   */\n      tag_98\n      jump\t// in\n    tag_179:\n        /* \"#utility.yul\":4547:4613   */\n      tag_97\n      jump\t// in\n    tag_178:\n        /* \"#utility.yul\":4538:4613   */\n      swap1\n      pop\n        /* \"#utility.yul\":4636:4642   */\n      dup3\n        /* \"#utility.yul\":4629:4634   */\n      dup2\n        /* \"#utility.yul\":4622:4643   */\n      mstore\n        /* \"#utility.yul\":4674:4678   */\n      0x20\n        /* \"#utility.yul\":4667:4672   */\n      dup2\n        /* \"#utility.yul\":4663:4679   */\n      add\n        /* \"#utility.yul\":4712:4715   */\n      dup5\n        /* \"#utility.yul\":4703:4709   */\n      dup5\n        /* \"#utility.yul\":4698:4701   */\n      dup5\n        /* \"#utility.yul\":4694:4710   */\n      add\n        /* \"#utility.yul\":4691:4716   */\n      gt\n        /* \"#utility.yul\":4688:4800   */\n      iszero\n      tag_180\n      jumpi\n        /* \"#utility.yul\":4719:4798   */\n      tag_181\n      tag_94\n      jump\t// in\n    tag_181:\n        /* \"#utility.yul\":4688:4800   */\n    tag_180:\n        /* \"#utility.yul\":4809:4863   */\n      tag_182\n        /* \"#utility.yul\":4856:4862   */\n      dup5\n        /* \"#utility.yul\":4851:4854   */\n      dup3\n        /* \"#utility.yul\":4846:4849   */\n      dup6\n        /* \"#utility.yul\":4809:4863   */\n      tag_99\n      jump\t// in\n    tag_182:\n        /* \"#utility.yul\":4528:4869   */\n      pop\n        /* \"#utility.yul\":4444:4869   */\n      swap4\n      swap3\n      pop\n      pop\n      pop\n      jump\t// out\n        /* \"#utility.yul\":4889:5229   */\n    tag_101:\n        /* \"#utility.yul\":4945:4950   */\n      0x00\n        /* \"#utility.yul\":4994:4997   */\n      dup3\n        /* \"#utility.yul\":4987:4991   */\n      0x1f\n        /* \"#utility.yul\":4979:4985   */\n      dup4\n        /* \"#utility.yul\":4975:4992   */\n      add\n        /* \"#utility.yul\":4971:4998   */\n      slt\n        /* \"#utility.yul\":4961:5083   */\n      tag_184\n      jumpi\n        /* \"#utility.yul\":5002:5081   */\n      tag_185\n      tag_93\n      jump\t// in\n    tag_185:\n        /* \"#utility.yul\":4961:5083   */\n    tag_184:\n        /* \"#utility.yul\":5119:5125   */\n      dup2\n        /* \"#utility.yul\":5106:5126   */\n      calldataload\n        /* \"#utility.yul\":5144:5223   */\n      tag_186\n        /* \"#utility.yul\":5219:5222   */\n      dup5\n        /* \"#utility.yul\":5211:5217   */\n      dup3\n        /* \"#utility.yul\":5204:5208   */\n      0x20\n        /* \"#utility.yul\":5196:5202   */\n      dup7\n        /* \"#utility.yul\":5192:5209   */\n      add\n        /* \"#utility.yul\":5144:5223   */\n      tag_100\n      jump\t// in\n    tag_186:\n        /* \"#utility.yul\":5135:5223   */\n      swap2\n      pop\n        /* \"#utility.yul\":4951:5229   */\n      pop\n        /* \"#utility.yul\":4889:5229   */\n      swap3\n      swap2\n      pop\n      pop\n      jump\t// out\n        /* \"#utility.yul\":5235:5744   */\n    tag_39:\n        /* \"#utility.yul\":5304:5310   */\n      0x00\n        /* \"#utility.yul\":5353:5355   */\n      0x20\n        /* \"#utility.yul\":5341:5350   */\n      dup3\n        /* \"#utility.yul\":5332:5339   */\n      dup5\n        /* \"#utility.yul\":5328:5351   */\n      sub\n        /* \"#utility.yul\":5324:5356   */\n      slt\n        /* \"#utility.yul\":5321:5440   */\n      iszero\n      tag_188\n      jumpi\n        /* \"#utility.yul\":5359:5438   */\n      tag_189\n      tag_91\n      jump\t// in\n    tag_189:\n        /* \"#utility.yul\":5321:5440   */\n    tag_188:\n        /* \"#utility.yul\":5507:5508   */\n      0x00\n        /* \"#utility.yul\":5496:5505   */\n      dup3\n        /* \"#utility.yul\":5492:5509   */\n      add\n        /* \"#utility.yul\":5479:5510   */\n      calldataload\n        /* \"#utility.yul\":5537:5555   */\n      0xffffffffffffffff\n        /* \"#utility.yul\":5529:5535   */\n      dup2\n        /* \"#utility.yul\":5526:5556   */\n      gt\n        /* \"#utility.yul\":5523:5640   */\n      iszero\n      tag_190\n      jumpi\n        /* \"#utility.yul\":5559:5638   */\n      tag_191\n      tag_92\n      jump\t// in\n    tag_191:\n        /* \"#utility.yul\":5523:5640   */\n    tag_190:\n        /* \"#utility.yul\":5664:5727   */\n      tag_192\n        /* \"#utility.yul\":5719:5726   */\n      dup5\n        /* \"#utility.yul\":5710:5716   */\n      dup3\n        /* \"#utility.yul\":5699:5708   */\n      dup6\n        /* \"#utility.yul\":5695:5717   */\n      add\n        /* \"#utility.yul\":5664:5727   */\n      tag_101\n      jump\t// in\n    tag_192:\n        /* \"#utility.yul\":5654:5727   */\n      swap2\n      pop\n        /* \"#utility.yul\":5450:5737   */\n      pop\n        /* \"#utility.yul\":5235:5744   */\n      swap3\n      swap2\n      pop\n      pop\n      jump\t// out\n        /* \"#utility.yul\":5750:5836   */\n    tag_102:\n        /* \"#utility.yul\":5785:5792   */\n      0x00\n        /* \"#utility.yul\":5825:5829   */\n      0xff\n        /* \"#utility.yul\":5818:5823   */\n      dup3\n        /* \"#utility.yul\":5814:5830   */\n      and\n        /* \"#utility.yul\":5803:5830   */\n      swap1\n      pop\n        /* \"#utility.yul\":5750:5836   */\n      swap2\n      swap1\n      pop\n      jump\t// out\n        /* \"#utility.yul\":5842:5954   */\n    tag_103:\n        /* \"#utility.yul\":5925:5947   */\n      tag_195\n        /* \"#utility.yul\":5941:5946   */\n      dup2\n        /* \"#utility.yul\":5925:5947   */\n      tag_102\n      jump\t// in\n    tag_195:\n        /* \"#utility.yul\":5920:5923   */\n      dup3\n        /* \"#utility.yul\":5913:5948   */\n      mstore\n        /* \"#utility.yul\":5842:5954   */\n      pop\n      pop\n      jump\t// out\n        /* \"#utility.yul\":5960:6174   */\n    tag_46:\n        /* \"#utility.yul\":6049:6053   */\n      0x00\n        /* \"#utility.yul\":6087:6089   */\n      0x20\n        /* \"#utility.yul\":6076:6085   */\n      dup3\n        /* \"#utility.yul\":6072:6090   */\n      add\n        /* \"#utility.yul\":6064:6090   */\n      swap1\n      pop\n        /* \"#utility.yul\":6100:6167   */\n      tag_197\n        /* \"#utility.yul\":6164:6165   */\n      0x00\n        /* \"#utility.yul\":6153:6162   */\n      dup4\n        /* \"#utility.yul\":6149:6166   */\n      add\n        /* \"#utility.yul\":6140:6146   */\n      dup5\n        /* \"#utility.yul\":6100:6167   */\n      tag_103\n      jump\t// in\n    tag_197:\n        /* \"#utility.yul\":5960:6174   */\n      swap3\n      swap2\n      pop\n      pop\n      jump\t// out\n        /* \"#utility.yul\":6180:6302   */\n    tag_104:\n        /* \"#utility.yul\":6253:6277   */\n      tag_199\n        /* \"#utility.yul\":6271:6276   */\n      dup2\n        /* \"#utility.yul\":6253:6277   */\n      tag_81\n      jump\t// in\n    tag_199:\n        /* \"#utility.yul\":6246:6251   */\n      dup2\n        /* \"#utility.yul\":6243:6278   */\n      eq\n        /* \"#utility.yul\":6233:6296   */\n      tag_200\n      jumpi\n        /* \"#utility.yul\":6292:6293   */\n      0x00\n        /* \"#utility.yul\":6289:6290   */\n      dup1\n        /* \"#utility.yul\":6282:6294   */\n      revert\n        /* \"#utility.yul\":6233:6296   */\n    tag_200:\n        /* \"#utility.yul\":6180:6302   */\n      pop\n      jump\t// out\n        /* \"#utility.yul\":6308:6447   */\n    tag_105:\n        /* \"#utility.yul\":6354:6359   */\n      0x00\n        /* \"#utility.yul\":6392:6398   */\n      dup2\n        /* \"#utility.yul\":6379:6399   */\n      calldataload\n        /* \"#utility.yul\":6370:6399   */\n      swap1\n      pop\n        /* \"#utility.yul\":6408:6441   */\n      tag_202\n        /* \"#utility.yul\":6435:6440   */\n      dup2\n        /* \"#utility.yul\":6408:6441   */\n      tag_104\n      jump\t// in\n    tag_202:\n        /* \"#utility.yul\":6308:6447   */\n      swap3\n      swap2\n      pop\n      pop\n      jump\t// out\n        /* \"#utility.yul\":6453:6782   */\n    tag_49:\n        /* \"#utility.yul\":6512:6518   */\n      0x00\n        /* \"#utility.yul\":6561:6563   */\n      0x20\n        /* \"#utility.yul\":6549:6558   */\n      dup3\n        /* \"#utility.yul\":6540:6547   */\n      dup5\n        /* \"#utility.yul\":6536:6559   */\n      sub\n        /* \"#utility.yul\":6532:6564   */\n      slt\n        /* \"#utility.yul\":6529:6648   */\n      iszero\n      tag_204\n      jumpi\n        /* \"#utility.yul\":6567:6646   */\n      tag_205\n      tag_91\n      jump\t// in\n    tag_205:\n        /* \"#utility.yul\":6529:6648   */\n    tag_204:\n        /* \"#utility.yul\":6687:6688   */\n      0x00\n        /* \"#utility.yul\":6712:6765   */\n      tag_206\n        /* \"#utility.yul\":6757:6764   */\n      dup5\n        /* \"#utility.yul\":6748:6754   */\n      dup3\n        /* \"#utility.yul\":6737:6746   */\n      dup6\n        /* \"#utility.yul\":6733:6755   */\n      add\n        /* \"#utility.yul\":6712:6765   */\n      tag_105\n      jump\t// in\n    tag_206:\n        /* \"#utility.yul\":6702:6765   */\n      swap2\n      pop\n        /* \"#utility.yul\":6658:6775   */\n      pop\n        /* \"#utility.yul\":6453:6782   */\n      swap3\n      swap2\n      pop\n      pop\n      jump\t// out\n        /* \"#utility.yul\":6788:6910   */\n    tag_106:\n        /* \"#utility.yul\":6861:6885   */\n      tag_208\n        /* \"#utility.yul\":6879:6884   */\n      dup2\n        /* \"#utility.yul\":6861:6885   */\n      tag_78\n      jump\t// in\n    tag_208:\n        /* \"#utility.yul\":6854:6859   */\n      dup2\n        /* \"#utility.yul\":6851:6886   */\n      eq\n        /* \"#utility.yul\":6841:6904   */\n      tag_209\n      jumpi\n        /* \"#utility.yul\":6900:6901   */\n      0x00\n        /* \"#utility.yul\":6897:6898   */\n      dup1\n        /* \"#utility.yul\":6890:6902   */\n      revert\n        /* \"#utility.yul\":6841:6904   */\n    tag_209:\n        /* \"#utility.yul\":6788:6910   */\n      pop\n      jump\t// out\n        /* \"#utility.yul\":6916:7055   */\n    tag_107:\n        /* \"#utility.yul\":6962:6967   */\n      0x00\n        /* \"#utility.yul\":7000:7006   */\n      dup2\n        /* \"#utility.yul\":6987:7007   */\n      calldataload\n        /* \"#utility.yul\":6978:7007   */\n      swap1\n      pop\n        /* \"#utility.yul\":7016:7049   */\n      tag_211\n        /* \"#utility.yul\":7043:7048   */\n      dup2\n        /* \"#utility.yul\":7016:7049   */\n      tag_106\n      jump\t// in\n    tag_211:\n        /* \"#utility.yul\":6916:7055   */\n      swap3\n      swap2\n      pop\n      pop\n      jump\t// out\n        /* \"#utility.yul\":7061:7390   */\n    tag_53:\n        /* \"#utility.yul\":7120:7126   */\n      0x00\n        /* \"#utility.yul\":7169:7171   */\n      0x20\n        /* \"#utility.yul\":7157:7166   */\n      dup3\n        /* \"#utility.yul\":7148:7155   */\n      dup5\n        /* \"#utility.yul\":7144:7167   */\n      sub\n        /* \"#utility.yul\":7140:7172   */\n      slt\n        /* \"#utility.yul\":7137:7256   */\n      iszero\n      tag_213\n      jumpi\n        /* \"#utility.yul\":7175:7254   */\n      tag_214\n      tag_91\n      jump\t// in\n    tag_214:\n        /* \"#utility.yul\":7137:7256   */\n    tag_213:\n        /* \"#utility.yul\":7295:7296   */\n      0x00\n        /* \"#utility.yul\":7320:7373   */\n      tag_215\n        /* \"#utility.yul\":7365:7372   */\n      dup5\n        /* \"#utility.yul\":7356:7362   */\n      dup3\n        /* \"#utility.yul\":7345:7354   */\n      dup6\n        /* \"#utility.yul\":7341:7363   */\n      add\n        /* \"#utility.yul\":7320:7373   */\n      tag_107\n      jump\t// in\n    tag_215:\n        /* \"#utility.yul\":7310:7373   */\n      swap2\n      pop\n        /* \"#utility.yul\":7266:7383   */\n      pop\n        /* \"#utility.yul\":7061:7390   */\n      swap3\n      swap2\n      pop\n      pop\n      jump\t// out\n        /* \"#utility.yul\":7396:7512   */\n    tag_108:\n        /* \"#utility.yul\":7466:7487   */\n      tag_217\n        /* \"#utility.yul\":7481:7486   */\n      dup2\n        /* \"#utility.yul\":7466:7487   */\n      tag_88\n      jump\t// in\n    tag_217:\n        /* \"#utility.yul\":7459:7464   */\n      dup2\n        /* \"#utility.yul\":7456:7488   */\n      eq\n        /* \"#utility.yul\":7446:7506   */\n      tag_218\n      jumpi\n        /* \"#utility.yul\":7502:7503   */\n      0x00\n        /* \"#utility.yul\":7499:7500   */\n      dup1\n        /* \"#utility.yul\":7492:7504   */\n      revert\n        /* \"#utility.yul\":7446:7506   */\n    tag_218:\n        /* \"#utility.yul\":7396:7512   */\n      pop\n      jump\t// out\n        /* \"#utility.yul\":7518:7651   */\n    tag_109:\n        /* \"#utility.yul\":7561:7566   */\n      0x00\n        /* \"#utility.yul\":7599:7605   */\n      dup2\n        /* \"#utility.yul\":7586:7606   */\n      calldataload\n        /* \"#utility.yul\":7577:7606   */\n      swap1\n      pop\n        /* \"#utility.yul\":7615:7645   */\n      tag_220\n        /* \"#utility.yul\":7639:7644   */\n      dup2\n        /* \"#utility.yul\":7615:7645   */\n      tag_108\n      jump\t// in\n    tag_220:\n        /* \"#utility.yul\":7518:7651   */\n      swap3\n      swap2\n      pop\n      pop\n      jump\t// out\n        /* \"#utility.yul\":7657:7980   */\n    tag_57:\n        /* \"#utility.yul\":7713:7719   */\n      0x00\n        /* \"#utility.yul\":7762:7764   */\n      0x20\n        /* \"#utility.yul\":7750:7759   */\n      dup3\n        /* \"#utility.yul\":7741:7748   */\n      dup5\n        /* \"#utility.yul\":7737:7760   */\n      sub\n        /* \"#utility.yul\":7733:7765   */\n      slt\n        /* \"#utility.yul\":7730:7849   */\n      iszero\n      tag_222\n      jumpi\n        /* \"#utility.yul\":7768:7847   */\n      tag_223\n      tag_91\n      jump\t// in\n    tag_223:\n        /* \"#utility.yul\":7730:7849   */\n    tag_222:\n        /* \"#utility.yul\":7888:7889   */\n      0x00\n        /* \"#utility.yul\":7913:7963   */\n      tag_224\n        /* \"#utility.yul\":7955:7962   */\n      dup5\n        /* \"#utility.yul\":7946:7952   */\n      dup3\n        /* \"#utility.yul\":7935:7944   */\n      dup6\n        /* \"#utility.yul\":7931:7953   */\n      add\n        /* \"#utility.yul\":7913:7963   */\n      tag_109\n      jump\t// in\n    tag_224:\n        /* \"#utility.yul\":7903:7963   */\n      swap2\n      pop\n        /* \"#utility.yul\":7859:7973   */\n      pop\n        /* \"#utility.yul\":7657:7980   */\n      swap3\n      swap2\n      pop\n      pop\n      jump\t// out\n        /* \"#utility.yul\":7986:8166   */\n    tag_110:\n        /* \"#utility.yul\":8034:8111   */\n      0x4e487b7100000000000000000000000000000000000000000000000000000000\n        /* \"#utility.yul\":8031:8032   */\n      0x00\n        /* \"#utility.yul\":8024:8112   */\n      mstore\n        /* \"#utility.yul\":8131:8135   */\n      0x11\n        /* \"#utility.yul\":8128:8129   */\n      0x04\n        /* \"#utility.yul\":8121:8136   */\n      mstore\n        /* \"#utility.yul\":8155:8159   */\n      0x24\n        /* \"#utility.yul\":8152:8153   */\n      0x00\n        /* \"#utility.yul\":8145:8160   */\n      revert\n        /* \"#utility.yul\":8172:8339   */\n    tag_61:\n        /* \"#utility.yul\":8209:8212   */\n      0x00\n        /* \"#utility.yul\":8232:8254   */\n      tag_227\n        /* \"#utility.yul\":8248:8253   */\n      dup3\n        /* \"#utility.yul\":8232:8254   */\n      tag_102\n      jump\t// in\n    tag_227:\n        /* \"#utility.yul\":8223:8254   */\n      swap2\n      pop\n        /* \"#utility.yul\":8276:8280   */\n      0xff\n        /* \"#utility.yul\":8269:8274   */\n      dup3\n        /* \"#utility.yul\":8266:8281   */\n      sub\n        /* \"#utility.yul\":8263:8304   */\n      tag_228\n      jumpi\n        /* \"#utility.yul\":8284:8302   */\n      tag_229\n      tag_110\n      jump\t// in\n    tag_229:\n        /* \"#utility.yul\":8263:8304   */\n    tag_228:\n        /* \"#utility.yul\":8331:8332   */\n      0x01\n        /* \"#utility.yul\":8324:8329   */\n      dup3\n        /* \"#utility.yul\":8320:8333   */\n      add\n        /* \"#utility.yul\":8313:8333   */\n      swap1\n      pop\n        /* \"#utility.yul\":8172:8339   */\n      swap2\n      swap1\n      pop\n      jump\t// out\n        /* \"#utility.yul\":8345:8525   */\n    tag_111:\n        /* \"#utility.yul\":8393:8470   */\n      0x4e487b7100000000000000000000000000000000000000000000000000000000\n        /* \"#utility.yul\":8390:8391   */\n      0x00\n        /* \"#utility.yul\":8383:8471   */\n      mstore\n        /* \"#utility.yul\":8490:8494   */\n      0x22\n        /* \"#utility.yul\":8487:8488   */\n      0x04\n        /* \"#utility.yul\":8480:8495   */\n      mstore\n        /* \"#utility.yul\":8514:8518   */\n      0x24\n        /* \"#utility.yul\":8511:8512   */\n      0x00\n        /* \"#utility.yul\":8504:8519   */\n      revert\n        /* \"#utility.yul\":8531:8851   */\n    tag_64:\n        /* \"#utility.yul\":8575:8581   */\n      0x00\n        /* \"#utility.yul\":8612:8613   */\n      0x02\n        /* \"#utility.yul\":8606:8610   */\n      dup3\n        /* \"#utility.yul\":8602:8614   */\n      div\n        /* \"#utility.yul\":8592:8614   */\n      swap1\n      pop\n        /* \"#utility.yul\":8659:8660   */\n      0x01\n        /* \"#utility.yul\":8653:8657   */\n      dup3\n        /* \"#utility.yul\":8649:8661   */\n      and\n        /* \"#utility.yul\":8680:8698   */\n      dup1\n        /* \"#utility.yul\":8670:8751   */\n      tag_232\n      jumpi\n        /* \"#utility.yul\":8736:8740   */\n      0x7f\n        /* \"#utility.yul\":8728:8734   */\n      dup3\n        /* \"#utility.yul\":8724:8741   */\n      and\n        /* \"#utility.yul\":8714:8741   */\n      swap2\n      pop\n        /* \"#utility.yul\":8670:8751   */\n    tag_232:\n        /* \"#utility.yul\":8798:8800   */\n      0x20\n        /* \"#utility.yul\":8790:8796   */\n      dup3\n        /* \"#utility.yul\":8787:8801   */\n      lt\n        /* \"#utility.yul\":8767:8785   */\n      dup2\n        /* \"#utility.yul\":8764:8802   */\n      sub\n        /* \"#utility.yul\":8761:8845   */\n      tag_233\n      jumpi\n        /* \"#utility.yul\":8817:8835   */\n      tag_234\n      tag_111\n      jump\t// in\n    tag_234:\n        /* \"#utility.yul\":8761:8845   */\n    tag_233:\n        /* \"#utility.yul\":8582:8851   */\n      pop\n        /* \"#utility.yul\":8531:8851   */\n      swap2\n      swap1\n      pop\n      jump\t// out\n        /* \"#utility.yul\":8857:8998   */\n    tag_112:\n        /* \"#utility.yul\":8906:8910   */\n      0x00\n        /* \"#utility.yul\":8929:8932   */\n      dup2\n        /* \"#utility.yul\":8921:8932   */\n      swap1\n      pop\n        /* \"#utility.yul\":8952:8955   */\n      dup2\n        /* \"#utility.yul\":8949:8950   */\n      0x00\n        /* \"#utility.yul\":8942:8956   */\n      mstore\n        /* \"#utility.yul\":8986:8990   */\n      0x20\n        /* \"#utility.yul\":8983:8984   */\n      0x00\n        /* \"#utility.yul\":8973:8991   */\n      keccak256\n        /* \"#utility.yul\":8965:8991   */\n      swap1\n      pop\n        /* \"#utility.yul\":8857:8998   */\n      swap2\n      swap1\n      pop\n      jump\t// out\n        /* \"#utility.yul\":9004:9097   */\n    tag_113:\n        /* \"#utility.yul\":9041:9047   */\n      0x00\n        /* \"#utility.yul\":9088:9090   */\n      0x20\n        /* \"#utility.yul\":9083:9085   */\n      0x1f\n        /* \"#utility.yul\":9076:9081   */\n      dup4\n        /* \"#utility.yul\":9072:9086   */\n      add\n        /* \"#utility.yul\":9068:9091   */\n      div\n        /* \"#utility.yul\":9058:9091   */\n      swap1\n      pop\n        /* \"#utility.yul\":9004:9097   */\n      swap2\n      swap1\n      pop\n      jump\t// out\n        /* \"#utility.yul\":9103:9210   */\n    tag_114:\n        /* \"#utility.yul\":9147:9155   */\n      0x00\n        /* \"#utility.yul\":9197:9202   */\n      dup3\n        /* \"#utility.yul\":9191:9195   */\n      dup3\n        /* \"#utility.yul\":9187:9203   */\n      shl\n        /* \"#utility.yul\":9166:9203   */\n      swap1\n      pop\n        /* \"#utility.yul\":9103:9210   */\n      swap3\n      swap2\n      pop\n      pop\n      jump\t// out\n        /* \"#utility.yul\":9216:9609   */\n    tag_115:\n        /* \"#utility.yul\":9285:9291   */\n      0x00\n        /* \"#utility.yul\":9335:9336   */\n      0x08\n        /* \"#utility.yul\":9323:9333   */\n      dup4\n        /* \"#utility.yul\":9319:9337   */\n      mul\n        /* \"#utility.yul\":9358:9455   */\n      tag_239\n        /* \"#utility.yul\":9388:9454   */\n      0xffffffffffffffffffffffffffffffffffffffffffffffffffffffffffffffff\n        /* \"#utility.yul\":9377:9386   */\n      dup3\n        /* \"#utility.yul\":9358:9455   */\n      tag_114\n      jump\t// in\n    tag_239:\n        /* \"#utility.yul\":9476:9515   */\n      tag_240\n        /* \"#utility.yul\":9506:9514   */\n      dup7\n        /* \"#utility.yul\":9495:9504   */\n      dup4\n        /* \"#utility.yul\":9476:9515   */\n      tag_114\n      jump\t// in\n    tag_240:\n        /* \"#utility.yul\":9464:9515   */\n      swap6\n      pop\n        /* \"#utility.yul\":9548:9552   */\n      dup1\n        /* \"#utility.yul\":9544:9553   */\n      not\n        /* \"#utility.yul\":9537:9542   */\n      dup5\n        /* \"#utility.yul\":9533:9554   */\n      and\n        /* \"#utility.yul\":9524:9554   */\n      swap4\n      pop\n        /* \"#utility.yul\":9597:9601   */\n      dup1\n        /* \"#utility.yul\":9587:9595   */\n      dup7\n        /* \"#utility.yul\":9583:9602   */\n      and\n        /* \"#utility.yul\":9576:9581   */\n      dup5\n        /* \"#utility.yul\":9573:9603   */\n      or\n        /* \"#utility.yul\":9563:9603   */\n      swap3\n      pop\n        /* \"#utility.yul\":9292:9609   */\n      pop\n      pop\n        /* \"#utility.yul\":9216:9609   */\n      swap4\n      swap3\n      pop\n      pop\n      pop\n      jump\t// out\n        /* \"#utility.yul\":9615:9675   */\n    tag_116:\n        /* \"#utility.yul\":9643:9646   */\n      0x00\n        /* \"#utility.yul\":9664:9669   */\n      dup2\n        /* \"#utility.yul\":9657:9669   */\n      swap1\n      pop\n        /* \"#utility.yul\":9615:9675   */\n      swap2\n      swap1\n      pop\n      jump\t// out\n        /* \"#utility.yul\":9681:9823   */\n    tag_117:\n        /* \"#utility.yul\":9731:9740   */\n      0x00\n        /* \"#utility.yul\":9764:9817   */\n      tag_243\n        /* \"#utility.yul\":9782:9816   */\n      tag_244\n        /* \"#utility.yul\":9791:9815   */\n      tag_245\n        /* \"#utility.yul\":9809:9814   */\n      dup5\n        /* \"#utility.yul\":9791:9815   */\n      tag_78\n      jump\t// in\n    tag_245:\n        /* \"#utility.yul\":9782:9816   */\n      tag_116\n      jump\t// in\n    tag_244:\n        /* \"#utility.yul\":9764:9817   */\n      tag_78\n      jump\t// in\n    tag_243:\n        /* \"#utility.yul\":9751:9817   */\n      swap1\n      pop\n        /* \"#utility.yul\":9681:9823   */\n      swap2\n      swap1\n      pop\n      jump\t// out\n        /* \"#utility.yul\":9829:9904   */\n    tag_118:\n        /* \"#utility.yul\":9872:9875   */\n      0x00\n        /* \"#utility.yul\":9893:9898   */\n      dup2\n        /* \"#utility.yul\":9886:9898   */\n      swap1\n      pop\n        /* \"#utility.yul\":9829:9904   */\n      swap2\n      swap1\n      pop\n      jump\t// out\n        /* \"#utility.yul\":9910:10179   */\n    tag_119:\n        /* \"#utility.yul\":10020:10059   */\n      tag_248\n        /* \"#utility.yul\":10051:10058   */\n      dup4\n        /* \"#utility.yul\":10020:10059   */\n      tag_117\n      jump\t// in\n    tag_248:\n        /* \"#utility.yul\":10081:10172   */\n      tag_249\n        /* \"#utility.yul\":10130:10171   */\n      tag_250\n        /* \"#utility.yul\":10154:10170   */\n      dup3\n        /* \"#utility.yul\":10130:10171   */\n      tag_118\n      jump\t// in\n    tag_250:\n        /* \"#utility.yul\":10122:10128   */\n      dup5\n        /* \"#utility.yul\":10115:10119   */\n      dup5\n        /* \"#utility.yul\":10109:10120   */\n      sload\n        /* \"#utility.yul\":10081:10172   */\n      tag_115\n      jump\t// in\n    tag_249:\n        /* \"#utility.yul\":10075:10079   */\n      dup3\n        /* \"#utility.yul\":10068:10173   */\n      sstore\n        /* \"#utility.yul\":9986:10179   */\n      pop\n        /* \"#utility.yul\":9910:10179   */\n      pop\n      pop\n      pop\n      jump\t// out\n        /* \"#utility.yul\":10185:10258   */\n    tag_120:\n        /* \"#utility.yul\":10230:10233   */\n      0x00\n        /* \"#utility.yul\":10185:10258   */\n      swap1\n      jump\t// out\n        /* \"#utility.yul\":10264:10453   */\n    tag_121:\n        /* \"#utility.yul\":10341:10373   */\n      tag_253\n      tag_120\n      jump\t// in\n    tag_253:\n        /* \"#utility.yul\":10382:10447   */\n      tag_254\n        /* \"#utility.yul\":10440:10446   */\n      dup2\n        /* \"#utility.yul\":10432:10438   */\n      dup5\n        /* \"#utility.yul\":10426:10430   */\n      dup5\n        /* \"#utility.yul\":10382:10447   */\n      tag_119\n      jump\t// in\n    tag_254:\n        /* \"#utility.yul\":10317:10453   */\n      pop\n        /* \"#utility.yul\":10264:10453   */\n      pop\n      pop\n      jump\t// out\n        /* \"#utility.yul\":10459:10645   */\n    tag_122:\n        /* \"#utility.yul\":10519:10639   */\n    tag_256:\n        /* \"#utility.yul\":10536:10539   */\n      dup2\n        /* \"#utility.yul\":10529:10534   */\n      dup2\n        /* \"#utility.yul\":10526:10540   */\n      lt\n        /* \"#utility.yul\":10519:10639   */\n      iszero\n      tag_258\n      jumpi\n        /* \"#utility.yul\":10590:10629   */\n      tag_259\n        /* \"#utility.yul\":10627:10628   */\n      0x00\n        /* \"#utility.yul\":10620:10625   */\n      dup3\n        /* \"#utility.yul\":10590:10629   */\n      tag_121\n      jump\t// in\n    tag_259:\n        /* \"#utility.yul\":10563:10564   */\n      0x01\n        /* \"#utility.yul\":10556:10561   */\n      dup2\n        /* \"#utility.yul\":10552:10565   */\n      add\n        /* \"#utility.yul\":10543:10565   */\n      swap1\n      pop\n        /* \"#utility.yul\":10519:10639   */\n      jump(tag_256)\n    tag_258:\n        /* \"#utility.yul\":10459:10645   */\n      pop\n      pop\n      jump\t// out\n        /* \"#utility.yul\":10651:11194   */\n    tag_123:\n        /* \"#utility.yul\":10752:10754   */\n      0x1f\n        /* \"#utility.yul\":10747:10750   */\n      dup3\n        /* \"#utility.yul\":10744:10755   */\n      gt\n        /* \"#utility.yul\":10741:11187   */\n      iszero\n      tag_261\n      jumpi\n        /* \"#utility.yul\":10786:10824   */\n      tag_262\n        /* \"#utility.yul\":10818:10823   */\n      dup2\n        /* \"#utility.yul\":10786:10824   */\n      tag_112\n      jump\t// in\n    tag_262:\n        /* \"#utility.yul\":10870:10899   */\n      tag_263\n        /* \"#utility.yul\":10888:10898   */\n      dup5\n        /* \"#utility.yul\":10870:10899   */\n      tag_113\n      jump\t// in\n    tag_263:\n        /* \"#utility.yul\":10860:10868   */\n      dup2\n        /* \"#utility.yul\":10856:10900   */\n      add\n        /* \"#utility.yul\":11053:11055   */\n      0x20\n        /* \"#utility.yul\":11041:11051   */\n      dup6\n        /* \"#utility.yul\":11038:11056   */\n      lt\n        /* \"#utility.yul\":11035:11084   */\n      iszero\n      tag_264\n      jumpi\n        /* \"#utility.yul\":11074:11082   */\n      dup2\n        /* \"#utility.yul\":11059:11082   */\n      swap1\n      pop\n        /* \"#utility.yul\":11035:11084   */\n    tag_264:\n        /* \"#utility.yul\":11097:11177   */\n      tag_265\n        /* \"#utility.yul\":11153:11175   */\n      tag_266\n        /* \"#utility.yul\":11171:11174   */\n      dup6\n        /* \"#utility.yul\":11153:11175   */\n      tag_113\n      jump\t// in\n    tag_266:\n        /* \"#utility.yul\":11143:11151   */\n      dup4\n        /* \"#utility.yul\":11139:11176   */\n      add\n        /* \"#utility.yul\":11126:11137   */\n      dup3\n        /* \"#utility.yul\":11097:11177   */\n      tag_122\n      jump\t// in\n    tag_265:\n        /* \"#utility.yul\":10756:11187   */\n      pop\n      pop\n        /* \"#utility.yul\":10741:11187   */\n    tag_261:\n        /* \"#utility.yul\":10651:11194   */\n      pop\n      pop\n      pop\n      jump\t// out\n        /* \"#utility.yul\":11200:11317   */\n    tag_124:\n        /* \"#utility.yul\":11254:11262   */\n      0x00\n        /* \"#utility.yul\":11304:11309   */\n      dup3\n        /* \"#utility.yul\":11298:11302   */\n      dup3\n        /* \"#utility.yul\":11294:11310   */\n      shr\n        /* \"#utility.yul\":11273:11310   */\n      swap1\n      pop\n        /* \"#utility.yul\":11200:11317   */\n      swap3\n      swap2\n      pop\n      pop\n      jump\t// out\n        /* \"#utility.yul\":11323:11492   */\n    tag_125:\n        /* \"#utility.yul\":11367:11373   */\n      0x00\n        /* \"#utility.yul\":11400:11451   */\n      tag_269\n        /* \"#utility.yul\":11448:11449   */\n      0x00\n        /* \"#utility.yul\":11444:11450   */\n      not\n        /* \"#utility.yul\":11436:11441   */\n      dup5\n        /* \"#utility.yul\":11433:11434   */\n      0x08\n        /* \"#utility.yul\":11429:11442   */\n      mul\n        /* \"#utility.yul\":11400:11451   */\n      tag_124\n      jump\t// in\n    tag_269:\n        /* \"#utility.yul\":11396:11452   */\n      not\n        /* \"#utility.yul\":11481:11485   */\n      dup1\n        /* \"#utility.yul\":11475:11479   */\n      dup4\n        /* \"#utility.yul\":11471:11486   */\n      and\n        /* \"#utility.yul\":11461:11486   */\n      swap2\n      pop\n        /* \"#utility.yul\":11374:11492   */\n      pop\n        /* \"#utility.yul\":11323:11492   */\n      swap3\n      swap2\n      pop\n      pop\n      jump\t// out\n        /* \"#utility.yul\":11497:11792   */\n    tag_126:\n        /* \"#utility.yul\":11573:11577   */\n      0x00\n        /* \"#utility.yul\":11719:11748   */\n      tag_271\n        /* \"#utility.yul\":11744:11747   */\n      dup4\n        /* \"#utility.yul\":11738:11742   */\n      dup4\n        /* \"#utility.yul\":11719:11748   */\n      tag_125\n      jump\t// in\n    tag_271:\n        /* \"#utility.yul\":11711:11748   */\n      swap2\n      pop\n        /* \"#utility.yul\":11781:11784   */\n      dup3\n        /* \"#utility.yul\":11778:11779   */\n      0x02\n        /* \"#utility.yul\":11774:11785   */\n      mul\n        /* \"#utility.yul\":11768:11772   */\n      dup3\n        /* \"#utility.yul\":11765:11786   */\n      or\n        /* \"#utility.yul\":11757:11786   */\n      swap1\n      pop\n        /* \"#utility.yul\":11497:11792   */\n      swap3\n      swap2\n      pop\n      pop\n      jump\t// out\n        /* \"#utility.yul\":11797:13192   */\n    tag_71:\n        /* \"#utility.yul\":11914:11951   */\n      tag_273\n        /* \"#utility.yul\":11947:11950   */\n      dup3\n        /* \"#utility.yul\":11914:11951   */\n      tag_83\n      jump\t// in\n    tag_273:\n        /* \"#utility.yul\":12016:12034   */\n      0xffffffffffffffff\n        /* \"#utility.yul\":12008:12014   */\n      dup2\n        /* \"#utility.yul\":12005:12035   */\n      gt\n        /* \"#utility.yul\":12002:12058   */\n      iszero\n      tag_274\n      jumpi\n        /* \"#utility.yul\":12038:12056   */\n      tag_275\n      tag_95\n      jump\t// in\n    tag_275:\n        /* \"#utility.yul\":12002:12058   */\n    tag_274:\n        /* \"#utility.yul\":12082:12120   */\n      tag_276\n        /* \"#utility.yul\":12114:12118   */\n      dup3\n        /* \"#utility.yul\":12108:12119   */\n      sload\n        /* \"#utility.yul\":12082:12120   */\n      tag_64\n      jump\t// in\n    tag_276:\n        /* \"#utility.yul\":12167:12234   */\n      tag_277\n        /* \"#utility.yul\":12227:12233   */\n      dup3\n        /* \"#utility.yul\":12219:12225   */\n      dup3\n        /* \"#utility.yul\":12213:12217   */\n      dup6\n        /* \"#utility.yul\":12167:12234   */\n      tag_123\n      jump\t// in\n    tag_277:\n        /* \"#utility.yul\":12261:12262   */\n      0x00\n        /* \"#utility.yul\":12285:12289   */\n      0x20\n        /* \"#utility.yul\":12272:12289   */\n      swap1\n      pop\n        /* \"#utility.yul\":12317:12319   */\n      0x1f\n        /* \"#utility.yul\":12309:12315   */\n      dup4\n        /* \"#utility.yul\":12306:12320   */\n      gt\n        /* \"#utility.yul\":12334:12335   */\n      0x01\n        /* \"#utility.yul\":12329:12947   */\n      dup2\n      eq\n      tag_279\n      jumpi\n        /* \"#utility.yul\":12991:12992   */\n      0x00\n        /* \"#utility.yul\":13008:13014   */\n      dup5\n        /* \"#utility.yul\":13005:13082   */\n      iszero\n      tag_280\n      jumpi\n        /* \"#utility.yul\":13057:13066   */\n      dup3\n        /* \"#utility.yul\":13052:13055   */\n      dup8\n        /* \"#utility.yul\":13048:13067   */\n      add\n        /* \"#utility.yul\":13042:13068   */\n      mload\n        /* \"#utility.yul\":13033:13068   */\n      swap1\n      pop\n        /* \"#utility.yul\":13005:13082   */\n    tag_280:\n        /* \"#utility.yul\":13108:13175   */\n      tag_281\n        /* \"#utility.yul\":13168:13174   */\n      dup6\n        /* \"#utility.yul\":13161:13166   */\n      dup3\n        /* \"#utility.yul\":13108:13175   */\n      tag_126\n      jump\t// in\n    tag_281:\n        /* \"#utility.yul\":13102:13106   */\n      dup7\n        /* \"#utility.yul\":13095:13176   */\n      sstore\n        /* \"#utility.yul\":12964:13186   */\n      pop\n        /* \"#utility.yul\":12299:13186   */\n      jump(tag_278)\n        /* \"#utility.yul\":12329:12947   */\n    tag_279:\n        /* \"#utility.yul\":12381:12385   */\n      0x1f\n        /* \"#utility.yul\":12377:12386   */\n      not\n        /* \"#utility.yul\":12369:12375   */\n      dup5\n        /* \"#utility.yul\":12365:12387   */\n      and\n        /* \"#utility.yul\":12415:12452   */\n      tag_282\n        /* \"#utility.yul\":12447:12451   */\n      dup7\n        /* \"#utility.yul\":12415:12452   */\n      tag_112\n      jump\t// in\n    tag_282:\n        /* \"#utility.yul\":12474:12475   */\n      0x00\n        /* \"#utility.yul\":12488:12696   */\n    tag_283:\n        /* \"#utility.yul\":12502:12509   */\n      dup3\n        /* \"#utility.yul\":12499:12500   */\n      dup2\n        /* \"#utility.yul\":12496:12510   */\n      lt\n        /* \"#utility.yul\":12488:12696   */\n      iszero\n      tag_285\n      jumpi\n        /* \"#utility.yul\":12581:12590   */\n      dup5\n        /* \"#utility.yul\":12576:12579   */\n      dup10\n        /* \"#utility.yul\":12572:12591   */\n      add\n        /* \"#utility.yul\":12566:12592   */\n      mload\n        /* \"#utility.yul\":12558:12564   */\n      dup3\n        /* \"#utility.yul\":12551:12593   */\n      sstore\n        /* \"#utility.yul\":12632:12633   */\n      0x01\n        /* \"#utility.yul\":12624:12630   */\n      dup3\n        /* \"#utility.yul\":12620:12634   */\n      add\n        /* \"#utility.yul\":12610:12634   */\n      swap2\n      pop\n        /* \"#utility.yul\":12679:12681   */\n      0x20\n        /* \"#utility.yul\":12668:12677   */\n      dup6\n        /* \"#utility.yul\":12664:12682   */\n      add\n        /* \"#utility.yul\":12651:12682   */\n      swap5\n      pop\n        /* \"#utility.yul\":12525:12529   */\n      0x20\n        /* \"#utility.yul\":12522:12523   */\n      dup2\n        /* \"#utility.yul\":12518:12530   */\n      add\n        /* \"#utility.yul\":12513:12530   */\n      swap1\n      pop\n        /* \"#utility.yul\":12488:12696   */\n      jump(tag_283)\n    tag_285:\n        /* \"#utility.yul\":12724:12730   */\n      dup7\n        /* \"#utility.yul\":12715:12722   */\n      dup4\n        /* \"#utility.yul\":12712:12731   */\n      lt\n        /* \"#utility.yul\":12709:12888   */\n      iszero\n      tag_286\n      jumpi\n        /* \"#utility.yul\":12782:12791   */\n      dup5\n        /* \"#utility.yul\":12777:12780   */\n      dup10\n        /* \"#utility.yul\":12773:12792   */\n      add\n        /* \"#utility.yul\":12767:12793   */\n      mload\n        /* \"#utility.yul\":12825:12873   */\n      tag_287\n        /* \"#utility.yul\":12867:12871   */\n      0x1f\n        /* \"#utility.yul\":12859:12865   */\n      dup10\n        /* \"#utility.yul\":12855:12872   */\n      and\n        /* \"#utility.yul\":12844:12853   */\n      dup3\n        /* \"#utility.yul\":12825:12873   */\n      tag_125\n      jump\t// in\n    tag_287:\n        /* \"#utility.yul\":12817:12823   */\n      dup4\n        /* \"#utility.yul\":12810:12874   */\n      sstore\n        /* \"#utility.yul\":12732:12888   */\n      pop\n        /* \"#utility.yul\":12709:12888   */\n    tag_286:\n        /* \"#utility.yul\":12934:12935   */\n      0x01\n        /* \"#utility.yul\":12930:12931   */\n      0x02\n        /* \"#utility.yul\":12922:12928   */\n      dup9\n        /* \"#utility.yul\":12918:12932   */\n      mul\n        /* \"#utility.yul\":12914:12936   */\n      add\n        /* \"#utility.yul\":12908:12912   */\n      dup9\n        /* \"#utility.yul\":12901:12937   */\n      sstore\n        /* \"#utility.yul\":12336:12947   */\n      pop\n      pop\n      pop\n        /* \"#utility.yul\":12299:13186   */\n    tag_278:\n      pop\n        /* \"#utility.yul\":11889:13192   */\n      pop\n      pop\n      pop\n        /* \"#utility.yul\":11797:13192   */\n      pop\n      pop\n      jump\t// out\n        /* \"#utility.yul\":13198:13365   */\n    tag_74:\n        /* \"#utility.yul\":13235:13238   */\n      0x00\n        /* \"#utility.yul\":13258:13280   */\n      tag_289\n        /* \"#utility.yul\":13274:13279   */\n      dup3\n        /* \"#utility.yul\":13258:13280   */\n      tag_102\n      jump\t// in\n    tag_289:\n        /* \"#utility.yul\":13249:13280   */\n      swap2\n      pop\n        /* \"#utility.yul\":13302:13306   */\n      0x00\n        /* \"#utility.yul\":13295:13300   */\n      dup3\n        /* \"#utility.yul\":13292:13307   */\n      sub\n        /* \"#utility.yul\":13289:13330   */\n      tag_290\n      jumpi\n        /* \"#utility.yul\":13310:13328   */\n      tag_291\n      tag_110\n      jump\t// in\n    tag_291:\n        /* \"#utility.yul\":13289:13330   */\n    tag_290:\n        /* \"#utility.yul\":13357:13358   */\n      0x01\n        /* \"#utility.yul\":13350:13355   */\n      dup3\n        /* \"#utility.yul\":13346:13359   */\n      sub\n        /* \"#utility.yul\":13339:13359   */\n      swap1\n      pop\n        /* \"#utility.yul\":13198:13365   */\n      swap2\n      swap1\n      pop\n      jump\t// out\n\n    auxdata: 0xa2646970667358221220cfdc9688d3afc271f432069499d95f883af0b232734e264d4b93487915f2c9bd64736f6c63430008180033\n}\n",
				"bytecode": {
					"linkReferences": {},
					"object": "608060405234801561000f575f80fd5b50610b8e8061001d5f395ff3fe608060405234801561000f575f80fd5b50600436106100b2575f3560e01c8063821805681161006f5780638218056814610156578063da50eaee14610172578063e2a4b2af1461017c578063e30081a01461019a578063e492fd84146101b6578063eb1b30d9146101d2576100b2565b806306540f7e146100b657806314bf43bd146100d457806315502612146100de57806326b85ee1146100fc578063492bfa181461011a5780636deecdbe14610138575b5f80fd5b6100be6101ee565b6040516100cb919061040e565b60405180910390f35b6100dc6101f3565b005b6100e661022c565b6040516100f3919061040e565b60405180910390f35b61010461026c565b6040516101119190610466565b60405180910390f35b610122610292565b60405161012f9190610509565b60405180910390f35b61014061031e565b60405161014d9190610543565b60405180910390f35b610170600480360381019061016b9190610699565b610330565b005b61017a610343565b005b61018461037c565b60405161019191906106fb565b60405180910390f35b6101b460048036038101906101af919061073e565b61038d565b005b6101d060048036038101906101cb9190610793565b6103d1565b005b6101ec60048036038101906101e791906107e8565b6103da565b005b5f5481565b60018081819054906101000a900460ff168092919061021190610840565b91906101000a81548160ff021916908360ff16021790555050565b5f600160029054906101000a900473ffffffffffffffffffffffffffffffffffffffff1673ffffffffffffffffffffffffffffffffffffffff1631905090565b600160029054906101000a900473ffffffffffffffffffffffffffffffffffffffff1681565b6002805461029f90610895565b80601f01602080910402602001604051908101604052809291908181526020018280546102cb90610895565b80156103165780601f106102ed57610100808354040283529160200191610316565b820191905f5260205f20905b8154815290600101906020018083116102f957829003601f168201915b505050505081565b60015f9054906101000a900460ff1681565b806002908161033f9190610a62565b5050565b60018081819054906101000a900460ff168092919061036190610b31565b91906101000a81548160ff021916908360ff16021790555050565b60018054906101000a900460ff1681565b80600160026101000a81548173ffffffffffffffffffffffffffffffffffffffff021916908373ffffffffffffffffffffffffffffffffffffffff16021790555050565b805f8190555050565b8060015f6101000a81548160ff02191690831515021790555050565b5f819050919050565b610408816103f6565b82525050565b5f6020820190506104215f8301846103ff565b92915050565b5f73ffffffffffffffffffffffffffffffffffffffff82169050919050565b5f61045082610427565b9050919050565b61046081610446565b82525050565b5f6020820190506104795f830184610457565b92915050565b5f81519050919050565b5f82825260208201905092915050565b5f5b838110156104b657808201518184015260208101905061049b565b5f8484015250505050565b5f601f19601f8301169050919050565b5f6104db8261047f565b6104e58185610489565b93506104f5818560208601610499565b6104fe816104c1565b840191505092915050565b5f6020820190508181035f83015261052181846104d1565b905092915050565b5f8115159050919050565b61053d81610529565b82525050565b5f6020820190506105565f830184610534565b92915050565b5f604051905090565b5f80fd5b5f80fd5b5f80fd5b5f80fd5b7f4e487b71000000000000000000000000000000000000000000000000000000005f52604160045260245ffd5b6105ab826104c1565b810181811067ffffffffffffffff821117156105ca576105c9610575565b5b80604052505050565b5f6105dc61055c565b90506105e882826105a2565b919050565b5f67ffffffffffffffff82111561060757610606610575565b5b610610826104c1565b9050602081019050919050565b828183375f83830152505050565b5f61063d610638846105ed565b6105d3565b90508281526020810184848401111561065957610658610571565b5b61066484828561061d565b509392505050565b5f82601f8301126106805761067f61056d565b5b813561069084826020860161062b565b91505092915050565b5f602082840312156106ae576106ad610565565b5b5f82013567ffffffffffffffff8111156106cb576106ca610569565b5b6106d78482850161066c565b91505092915050565b5f60ff82169050919050565b6106f5816106e0565b82525050565b5f60208201905061070e5f8301846106ec565b92915050565b61071d81610446565b8114610727575f80fd5b50565b5f8135905061073881610714565b92915050565b5f6020828403121561075357610752610565565b5b5f6107608482850161072a565b91505092915050565b610772816103f6565b811461077c575f80fd5b50565b5f8135905061078d81610769565b92915050565b5f602082840312156107a8576107a7610565565b5b5f6107b58482850161077f565b91505092915050565b6107c781610529565b81146107d1575f80fd5b50565b5f813590506107e2816107be565b92915050565b5f602082840312156107fd576107fc610565565b5b5f61080a848285016107d4565b91505092915050565b7f4e487b71000000000000000000000000000000000000000000000000000000005f52601160045260245ffd5b5f61084a826106e0565b915060ff820361085d5761085c610813565b5b600182019050919050565b7f4e487b71000000000000000000000000000000000000000000000000000000005f52602260045260245ffd5b5f60028204905060018216806108ac57607f821691505b6020821081036108bf576108be610868565b5b50919050565b5f819050815f5260205f209050919050565b5f6020601f8301049050919050565b5f82821b905092915050565b5f600883026109217fffffffffffffffffffffffffffffffffffffffffffffffffffffffffffffffff826108e6565b61092b86836108e6565b95508019841693508086168417925050509392505050565b5f819050919050565b5f61096661096161095c846103f6565b610943565b6103f6565b9050919050565b5f819050919050565b61097f8361094c565b61099361098b8261096d565b8484546108f2565b825550505050565b5f90565b6109a761099b565b6109b2818484610976565b505050565b5b818110156109d5576109ca5f8261099f565b6001810190506109b8565b5050565b601f821115610a1a576109eb816108c5565b6109f4846108d7565b81016020851015610a03578190505b610a17610a0f856108d7565b8301826109b7565b50505b505050565b5f82821c905092915050565b5f610a3a5f1984600802610a1f565b1980831691505092915050565b5f610a528383610a2b565b9150826002028217905092915050565b610a6b8261047f565b67ffffffffffffffff811115610a8457610a83610575565b5b610a8e8254610895565b610a998282856109d9565b5f60209050601f831160018114610aca575f8415610ab8578287015190505b610ac28582610a47565b865550610b29565b601f198416610ad8866108c5565b5f5b82811015610aff57848901518255600182019150602085019450602081019050610ada565b86831015610b1c5784890151610b18601f891682610a2b565b8355505b6001600288020188555050505b505050505050565b5f610b3b826106e0565b91505f8203610b4d57610b4c610813565b5b60018203905091905056fea2646970667358221220cfdc9688d3afc271f432069499d95f883af0b232734e264d4b93487915f2c9bd64736f6c63430008180033",
					"opcodes": "PUSH1 0x80 PUSH1 0x40 MSTORE CALLVALUE DUP1 ISZERO PUSH2 0xF JUMPI PUSH0 DUP1 REVERT JUMPDEST POP PUSH2 0xB8E DUP1 PUSH2 0x1D PUSH0 CODECOPY PUSH0 RETURN INVALID PUSH1 0x80 PUSH1 0x40 MSTORE CALLVALUE DUP1 ISZERO PUSH2 0xF JUMPI PUSH0 DUP1 REVERT JUMPDEST POP PUSH1 0x4 CALLDATASIZE LT PUSH2 0xB2 JUMPI PUSH0 CALLDATALOAD PUSH1 0xE0 SHR DUP1 PUSH4 0x82180568 GT PUSH2 0x6F JUMPI DUP1 PUSH4 0x82180568 EQ PUSH2 0x156 JUMPI DUP1 PUSH4 0xDA50EAEE EQ PUSH2 0x172 JUMPI DUP1 PUSH4 0xE2A4B2AF EQ PUSH2 0x17C JUMPI DUP1 PUSH4 0xE30081A0 EQ PUSH2 0x19A JUMPI DUP1 PUSH4 0xE492FD84 EQ PUSH2 0x1B6 JUMPI DUP1 PUSH4 0xEB1B30D9 EQ PUSH2 0x1D2 JUMPI PUSH2 0xB2 JUMP JUMPDEST DUP1 PUSH4 0x6540F7E EQ PUSH2 0xB6 JUMPI DUP1 PUSH4 0x14BF43BD EQ PUSH2 0xD4 JUMPI DUP1 PUSH4 0x15502612 EQ PUSH2 0xDE JUMPI DUP1 PUSH4 0x26B85EE1 EQ PUSH2 0xFC JUMPI DUP1 PUSH4 0x492BFA18 EQ PUSH2 0x11A JUMPI DUP1 PUSH4 0x6DEECDBE EQ PUSH2 0x138 JUMPI JUMPDEST PUSH0 DUP1 REVERT JUMPDEST PUSH2 0xBE PUSH2 0x1EE JUMP JUMPDEST PUSH1 0x40 MLOAD PUSH2 0xCB SWAP2 SWAP1 PUSH2 0x40E JUMP JUMPDEST PUSH1 0x40 MLOAD DUP1 SWAP2 SUB SWAP1 RETURN JUMPDEST PUSH2 0xDC PUSH2 0x1F3 JUMP JUMPDEST STOP JUMPDEST PUSH2 0xE6 PUSH2 0x22C JUMP JUMPDEST PUSH1 0x40 MLOAD PUSH2 0xF3 SWAP2 SWAP1 PUSH2 0x40E JUMP JUMPDEST PUSH1 0x40 MLOAD DUP1 SWAP2 SUB SWAP1 RETURN JUMPDEST PUSH2 0x104 PUSH2 0x26C JUMP JUMPDEST PUSH1 0x40 MLOAD PUSH2 0x111 SWAP2 SWAP1 PUSH2 0x466 JUMP JUMPDEST PUSH1 0x40 MLOAD DUP1 SWAP2 SUB SWAP1 RETURN JUMPDEST PUSH2 0x122 PUSH2 0x292 JUMP JUMPDEST PUSH1 0x40 MLOAD PUSH2 0x12F SWAP2 SWAP1 PUSH2 0x509 JUMP JUMPDEST PUSH1 0x40 MLOAD DUP1 SWAP2 SUB SWAP1 RETURN JUMPDEST PUSH2 0x140 PUSH2 0x31E JUMP JUMPDEST PUSH1 0x40 MLOAD PUSH2 0x14D SWAP2 SWAP1 PUSH2 0x543 JUMP JUMPDEST PUSH1 0x40 MLOAD DUP1 SWAP2 SUB SWAP1 RETURN JUMPDEST PUSH2 0x170 PUSH1 0x4 DUP1 CALLDATASIZE SUB DUP2 ADD SWAP1 PUSH2 0x16B SWAP2 SWAP1 PUSH2 0x699 JUMP JUMPDEST PUSH2 0x330 JUMP JUMPDEST STOP JUMPDEST PUSH2 0x17A PUSH2 0x343 JUMP JUMPDEST STOP JUMPDEST PUSH2 0x184 PUSH2 0x37C JUMP JUMPDEST PUSH1 0x40 MLOAD PUSH2 0x191 SWAP2 SWAP1 PUSH2 0x6FB JUMP JUMPDEST PUSH1 0x40 MLOAD DUP1 SWAP2 SUB SWAP1 RETURN JUMPDEST PUSH2 0x1B4 PUSH1 0x4 DUP1 CALLDATASIZE SUB DUP2 ADD SWAP1 PUSH2 0x1AF SWAP2 SWAP1 PUSH2 0x73E JUMP JUMPDEST PUSH2 0x38D JUMP JUMPDEST STOP JUMPDEST PUSH2 0x1D0 PUSH1 0x4 DUP1 CALLDATASIZE SUB DUP2 ADD SWAP1 PUSH2 0x1CB SWAP2 SWAP1 PUSH2 0x793 JUMP JUMPDEST PUSH2 0x3D1 JUMP JUMPDEST STOP JUMPDEST PUSH2 0x1EC PUSH1 0x4 DUP1 CALLDATASIZE SUB DUP2 ADD SWAP1 PUSH2 0x1E7 SWAP2 SWAP1 PUSH2 0x7E8 JUMP JUMPDEST PUSH2 0x3DA JUMP JUMPDEST STOP JUMPDEST PUSH0 SLOAD DUP2 JUMP JUMPDEST PUSH1 0x1 DUP1 DUP2 DUP2 SWAP1 SLOAD SWAP1 PUSH2 0x100 EXP SWAP1 DIV PUSH1 0xFF AND DUP1 SWAP3 SWAP2 SWAP1 PUSH2 0x211 SWAP1 PUSH2 0x840 JUMP JUMPDEST SWAP2 SWAP1 PUSH2 0x100 EXP DUP2 SLOAD DUP2 PUSH1 0xFF MUL NOT AND SWAP1 DUP4 PUSH1 0xFF AND MUL OR SWAP1 SSTORE POP POP JUMP JUMPDEST PUSH0 PUSH1 0x1 PUSH1 0x2 SWAP1 SLOAD SWAP1 PUSH2 0x100 EXP SWAP1 DIV PUSH20 0xFFFFFFFFFFFFFFFFFFFFFFFFFFFFFFFFFFFFFFFF AND PUSH20 0xFFFFFFFFFFFFFFFFFFFFFFFFFFFFFFFFFFFFFFFF AND BALANCE SWAP1 POP SWAP1 JUMP JUMPDEST PUSH1 0x1 PUSH1 0x2 SWAP1 SLOAD SWAP1 PUSH2 0x100 EXP SWAP1 DIV PUSH20 0xFFFFFFFFFFFFFFFFFFFFFFFFFFFFFFFFFFFFFFFF AND DUP2 JUMP JUMPDEST PUSH1 0x2 DUP1 SLOAD PUSH2 0x29F SWAP1 PUSH2 0x895 JUMP JUMPDEST DUP1 PUSH1 0x1F ADD PUSH1 0x20 DUP1 SWAP2 DIV MUL PUSH1 0x20 ADD PUSH1 0x40 MLOAD SWAP1 DUP2 ADD PUSH1 0x40 MSTORE DUP1 SWAP3 SWAP2 SWAP1 DUP2 DUP2 MSTORE PUSH1 0x20 ADD DUP3 DUP1 SLOAD PUSH2 0x2CB SWAP1 PUSH2 0x895 JUMP JUMPDEST DUP1 ISZERO PUSH2 0x316 JUMPI DUP1 PUSH1 0x1F LT PUSH2 0x2ED JUMPI PUSH2 0x100 DUP1 DUP4 SLOAD DIV MUL DUP4 MSTORE SWAP2 PUSH1 0x20 ADD SWAP2 PUSH2 0x316 JUMP JUMPDEST DUP3 ADD SWAP2 SWAP1 PUSH0 MSTORE PUSH1 0x20 PUSH0 KECCAK256 SWAP1 JUMPDEST DUP2 SLOAD DUP2 MSTORE SWAP1 PUSH1 0x1 ADD SWAP1 PUSH1 0x20 ADD DUP1 DUP4 GT PUSH2 0x2F9 JUMPI DUP3 SWAP1 SUB PUSH1 0x1F AND DUP3 ADD SWAP2 JUMPDEST POP POP POP POP POP DUP2 JUMP JUMPDEST PUSH1 0x1 PUSH0 SWAP1 SLOAD SWAP1 PUSH2 0x100 EXP SWAP1 DIV PUSH1 0xFF AND DUP2 JUMP JUMPDEST DUP1 PUSH1 0x2 SWAP1 DUP2 PUSH2 0x33F SWAP2 SWAP1 PUSH2 0xA62 JUMP JUMPDEST POP POP JUMP JUMPDEST PUSH1 0x1 DUP1 DUP2 DUP2 SWAP1 SLOAD SWAP1 PUSH2 0x100 EXP SWAP1 DIV PUSH1 0xFF AND DUP1 SWAP3 SWAP2 SWAP1 PUSH2 0x361 SWAP1 PUSH2 0xB31 JUMP JUMPDEST SWAP2 SWAP1 PUSH2 0x100 EXP DUP2 SLOAD DUP2 PUSH1 0xFF MUL NOT AND SWAP1 DUP4 PUSH1 0xFF AND MUL OR SWAP1 SSTORE POP POP JUMP JUMPDEST PUSH1 0x1 DUP1 SLOAD SWAP1 PUSH2 0x100 EXP SWAP1 DIV PUSH1 0xFF AND DUP2 JUMP JUMPDEST DUP1 PUSH1 0x1 PUSH1 0x2 PUSH2 0x100 EXP DUP2 SLOAD DUP2 PUSH20 0xFFFFFFFFFFFFFFFFFFFFFFFFFFFFFFFFFFFFFFFF MUL NOT AND SWAP1 DUP4 PUSH20 0xFFFFFFFFFFFFFFFFFFFFFFFFFFFFFFFFFFFFFFFF AND MUL OR SWAP1 SSTORE POP POP JUMP JUMPDEST DUP1 PUSH0 DUP2 SWAP1 SSTORE POP POP JUMP JUMPDEST DUP1 PUSH1 0x1 PUSH0 PUSH2 0x100 EXP DUP2 SLOAD DUP2 PUSH1 0xFF MUL NOT AND SWAP1 DUP4 ISZERO ISZERO MUL OR SWAP1 SSTORE POP POP JUMP JUMPDEST PUSH0 DUP2 SWAP1 POP SWAP2 SWAP1 POP JUMP JUMPDEST PUSH2 0x408 DUP2 PUSH2 0x3F6 JUMP JUMPDEST DUP3 MSTORE POP POP JUMP JUMPDEST PUSH0 PUSH1 0x20 DUP3 ADD SWAP1 POP PUSH2 0x421 PUSH0 DUP4 ADD DUP5 PUSH2 0x3FF JUMP JUMPDEST SWAP3 SWAP2 POP POP JUMP JUMPDEST PUSH0 PUSH20 0xFFFFFFFFFFFFFFFFFFFFFFFFFFFFFFFFFFFFFFFF DUP3 AND SWAP1 POP SWAP2 SWAP1 POP JUMP JUMPDEST PUSH0 PUSH2 0x450 DUP3 PUSH2 0x427 JUMP JUMPDEST SWAP1 POP SWAP2 SWAP1 POP JUMP JUMPDEST PUSH2 0x460 DUP2 PUSH2 0x446 JUMP JUMPDEST DUP3 MSTORE POP POP JUMP JUMPDEST PUSH0 PUSH1 0x20 DUP3 ADD SWAP1 POP PUSH2 0x479 PUSH0 DUP4 ADD DUP5 PUSH2 0x457 JUMP JUMPDEST SWAP3 SWAP2 POP POP JUMP JUMPDEST PUSH0 DUP2 MLOAD SWAP1 POP SWAP2 SWAP1 POP JUMP JUMPDEST PUSH0 DUP3 DUP3 MSTORE PUSH1 0x20 DUP3 ADD SWAP1 POP SWAP3 SWAP2 POP POP JUMP JUMPDEST PUSH0 JUMPDEST DUP4 DUP2 LT ISZERO PUSH2 0x4B6 JUMPI DUP1 DUP3 ADD MLOAD DUP2 DUP5 ADD MSTORE PUSH1 0x20 DUP2 ADD SWAP1 POP PUSH2 0x49B JUMP JUMPDEST PUSH0 DUP5 DUP5 ADD MSTORE POP POP POP POP JUMP JUMPDEST PUSH0 PUSH1 0x1F NOT PUSH1 0x1F DUP4 ADD AND SWAP1 POP SWAP2 SWAP1 POP JUMP JUMPDEST PUSH0 PUSH2 0x4DB DUP3 PUSH2 0x47F JUMP JUMPDEST PUSH2 0x4E5 DUP2 DUP6 PUSH2 0x489 JUMP JUMPDEST SWAP4 POP PUSH2 0x4F5 DUP2 DUP6 PUSH1 0x20 DUP7 ADD PUSH2 0x499 JUMP JUMPDEST PUSH2 0x4FE DUP2 PUSH2 0x4C1 JUMP JUMPDEST DUP5 ADD SWAP2 POP POP SWAP3 SWAP2 POP POP JUMP JUMPDEST PUSH0 PUSH1 0x20 DUP3 ADD SWAP1 POP DUP2 DUP2 SUB PUSH0 DUP4 ADD MSTORE PUSH2 0x521 DUP2 DUP5 PUSH2 0x4D1 JUMP JUMPDEST SWAP1 POP SWAP3 SWAP2 POP POP JUMP JUMPDEST PUSH0 DUP2 ISZERO ISZERO SWAP1 POP SWAP2 SWAP1 POP JUMP JUMPDEST PUSH2 0x53D DUP2 PUSH2 0x529 JUMP JUMPDEST DUP3 MSTORE POP POP JUMP JUMPDEST PUSH0 PUSH1 0x20 DUP3 ADD SWAP1 POP PUSH2 0x556 PUSH0 DUP4 ADD DUP5 PUSH2 0x534 JUMP JUMPDEST SWAP3 SWAP2 POP POP JUMP JUMPDEST PUSH0 PUSH1 0x40 MLOAD SWAP1 POP SWAP1 JUMP JUMPDEST PUSH0 DUP1 REVERT JUMPDEST PUSH0 DUP1 REVERT JUMPDEST PUSH0 DUP1 REVERT JUMPDEST PUSH0 DUP1 REVERT JUMPDEST PUSH32 0x4E487B7100000000000000000000000000000000000000000000000000000000 PUSH0 MSTORE PUSH1 0x41 PUSH1 0x4 MSTORE PUSH1 0x24 PUSH0 REVERT JUMPDEST PUSH2 0x5AB DUP3 PUSH2 0x4C1 JUMP JUMPDEST DUP2 ADD DUP2 DUP2 LT PUSH8 0xFFFFFFFFFFFFFFFF DUP3 GT OR ISZERO PUSH2 0x5CA JUMPI PUSH2 0x5C9 PUSH2 0x575 JUMP JUMPDEST JUMPDEST DUP1 PUSH1 0x40 MSTORE POP POP POP JUMP JUMPDEST PUSH0 PUSH2 0x5DC PUSH2 0x55C JUMP JUMPDEST SWAP1 POP PUSH2 0x5E8 DUP3 DUP3 PUSH2 0x5A2 JUMP JUMPDEST SWAP2 SWAP1 POP JUMP JUMPDEST PUSH0 PUSH8 0xFFFFFFFFFFFFFFFF DUP3 GT ISZERO PUSH2 0x607 JUMPI PUSH2 0x606 PUSH2 0x575 JUMP JUMPDEST JUMPDEST PUSH2 0x610 DUP3 PUSH2 0x4C1 JUMP JUMPDEST SWAP1 POP PUSH1 0x20 DUP2 ADD SWAP1 POP SWAP2 SWAP1 POP JUMP JUMPDEST DUP3 DUP2 DUP4 CALLDATACOPY PUSH0 DUP4 DUP4 ADD MSTORE POP POP POP JUMP JUMPDEST PUSH0 PUSH2 0x63D PUSH2 0x638 DUP5 PUSH2 0x5ED JUMP JUMPDEST PUSH2 0x5D3 JUMP JUMPDEST SWAP1 POP DUP3 DUP2 MSTORE PUSH1 0x20 DUP2 ADD DUP5 DUP5 DUP5 ADD GT ISZERO PUSH2 0x659 JUMPI PUSH2 0x658 PUSH2 0x571 JUMP JUMPDEST JUMPDEST PUSH2 0x664 DUP5 DUP3 DUP6 PUSH2 0x61D JUMP JUMPDEST POP SWAP4 SWAP3 POP POP POP JUMP JUMPDEST PUSH0 DUP3 PUSH1 0x1F DUP4 ADD SLT PUSH2 0x680 JUMPI PUSH2 0x67F PUSH2 0x56D JUMP JUMPDEST JUMPDEST DUP2 CALLDATALOAD PUSH2 0x690 DUP5 DUP3 PUSH1 0x20 DUP7 ADD PUSH2 0x62B JUMP JUMPDEST SWAP2 POP POP SWAP3 SWAP2 POP POP JUMP JUMPDEST PUSH0 PUSH1 0x20 DUP3 DUP5 SUB SLT ISZERO PUSH2 0x6AE JUMPI PUSH2 0x6AD PUSH2 0x565 JUMP JUMPDEST JUMPDEST PUSH0 DUP3 ADD CALLDATALOAD PUSH8 0xFFFFFFFFFFFFFFFF DUP2 GT ISZERO PUSH2 0x6CB JUMPI PUSH2 0x6CA PUSH2 0x569 JUMP JUMPDEST JUMPDEST PUSH2 0x6D7 DUP5 DUP3 DUP6 ADD PUSH2 0x66C JUMP JUMPDEST SWAP2 POP POP SWAP3 SWAP2 POP POP JUMP JUMPDEST PUSH0 PUSH1 0xFF DUP3 AND SWAP1 POP SWAP2 SWAP1 POP JUMP JUMPDEST PUSH2 0x6F5 DUP2 PUSH2 0x6E0 JUMP JUMPDEST DUP3 MSTORE POP POP JUMP JUMPDEST PUSH0 PUSH1 0x20 DUP3 ADD SWAP1 POP PUSH2 0x70E PUSH0 DUP4 ADD DUP5 PUSH2 0x6EC JUMP JUMPDEST SWAP3 SWAP2 POP POP JUMP JUMPDEST PUSH2 0x71D DUP2 PUSH2 0x446 JUMP JUMPDEST DUP2 EQ PUSH2 0x727 JUMPI PUSH0 DUP1 REVERT JUMPDEST POP JUMP JUMPDEST PUSH0 DUP2 CALLDATALOAD SWAP1 POP PUSH2 0x738 DUP2 PUSH2 0x714 JUMP JUMPDEST SWAP3 SWAP2 POP POP JUMP JUMPDEST PUSH0 PUSH1 0x20 DUP3 DUP5 SUB SLT ISZERO PUSH2 0x753 JUMPI PUSH2 0x752 PUSH2 0x565 JUMP JUMPDEST JUMPDEST PUSH0 PUSH2 0x760 DUP5 DUP3 DUP6 ADD PUSH2 0x72A JUMP JUMPDEST SWAP2 POP POP SWAP3 SWAP2 POP POP JUMP JUMPDEST PUSH2 0x772 DUP2 PUSH2 0x3F6 JUMP JUMPDEST DUP2 EQ PUSH2 0x77C JUMPI PUSH0 DUP1 REVERT JUMPDEST POP JUMP JUMPDEST PUSH0 DUP2 CALLDATALOAD SWAP1 POP PUSH2 0x78D DUP2 PUSH2 0x769 JUMP JUMPDEST SWAP3 SWAP2 POP POP JUMP JUMPDEST PUSH0 PUSH1 0x20 DUP3 DUP5 SUB SLT ISZERO PUSH2 0x7A8 JUMPI PUSH2 0x7A7 PUSH2 0x565 JUMP JUMPDEST JUMPDEST PUSH0 PUSH2 0x7B5 DUP5 DUP3 DUP6 ADD PUSH2 0x77F JUMP JUMPDEST SWAP2 POP POP SWAP3 SWAP2 POP POP JUMP JUMPDEST PUSH2 0x7C7 DUP2 PUSH2 0x529 JUMP JUMPDEST DUP2 EQ PUSH2 0x7D1 JUMPI PUSH0 DUP1 REVERT JUMPDEST POP JUMP JUMPDEST PUSH0 DUP2 CALLDATALOAD SWAP1 POP PUSH2 0x7E2 DUP2 PUSH2 0x7BE JUMP JUMPDEST SWAP3 SWAP2 POP POP JUMP JUMPDEST PUSH0 PUSH1 0x20 DUP3 DUP5 SUB SLT ISZERO PUSH2 0x7FD JUMPI PUSH2 0x7FC PUSH2 0x565 JUMP JUMPDEST JUMPDEST PUSH0 PUSH2 0x80A DUP5 DUP3 DUP6 ADD PUSH2 0x7D4 JUMP JUMPDEST SWAP2 POP POP SWAP3 SWAP2 POP POP JUMP JUMPDEST PUSH32 0x4E487B7100000000000000000000000000000000000000000000000000000000 PUSH0 MSTORE PUSH1 0x11 PUSH1 0x4 MSTORE PUSH1 0x24 PUSH0 REVERT JUMPDEST PUSH0 PUSH2 0x84A DUP3 PUSH2 0x6E0 JUMP JUMPDEST SWAP2 POP PUSH1 0xFF DUP3 SUB PUSH2 0x85D JUMPI PUSH2 0x85C PUSH2 0x813 JUMP JUMPDEST JUMPDEST PUSH1 0x1 DUP3 ADD SWAP1 POP SWAP2 SWAP1 POP JUMP JUMPDEST PUSH32 0x4E487B7100000000000000000000000000000000000000000000000000000000 PUSH0 MSTORE PUSH1 0x22 PUSH1 0x4 MSTORE PUSH1 0x24 PUSH0 REVERT JUMPDEST PUSH0 PUSH1 0x2 DUP3 DIV SWAP1 POP PUSH1 0x1 DUP3 AND DUP1 PUSH2 0x8AC JUMPI PUSH1 0x7F DUP3 AND SWAP2 POP JUMPDEST PUSH1 0x20 DUP3 LT DUP2 SUB PUSH2 0x8BF JUMPI PUSH2 0x8BE PUSH2 0x868 JUMP JUMPDEST JUMPDEST POP SWAP2 SWAP1 POP JUMP JUMPDEST PUSH0 DUP2 SWAP1 POP DUP2 PUSH0 MSTORE PUSH1 0x20 PUSH0 KECCAK256 SWAP1 POP SWAP2 SWAP1 POP JUMP JUMPDEST PUSH0 PUSH1 0x20 PUSH1 0x1F DUP4 ADD DIV SWAP1 POP SWAP2 SWAP1 POP JUMP JUMPDEST PUSH0 DUP3 DUP3 SHL SWAP1 POP SWAP3 SWAP2 POP POP JUMP JUMPDEST PUSH0 PUSH1 0x8 DUP4 MUL PUSH2 0x921 PUSH32 0xFFFFFFFFFFFFFFFFFFFFFFFFFFFFFFFFFFFFFFFFFFFFFFFFFFFFFFFFFFFFFFFF DUP3 PUSH2 0x8E6 JUMP JUMPDEST PUSH2 0x92B DUP7 DUP4 PUSH2 0x8E6 JUMP JUMPDEST SWAP6 POP DUP1 NOT DUP5 AND SWAP4 POP DUP1 DUP7 AND DUP5 OR SWAP3 POP POP POP SWAP4 SWAP3 POP POP POP JUMP JUMPDEST PUSH0 DUP2 SWAP1 POP SWAP2 SWAP1 POP JUMP JUMPDEST PUSH0 PUSH2 0x966 PUSH2 0x961 PUSH2 0x95C DUP5 PUSH2 0x3F6 JUMP JUMPDEST PUSH2 0x943 JUMP JUMPDEST PUSH2 0x3F6 JUMP JUMPDEST SWAP1 POP SWAP2 SWAP1 POP JUMP JUMPDEST PUSH0 DUP2 SWAP1 POP SWAP2 SWAP1 POP JUMP JUMPDEST PUSH2 0x97F DUP4 PUSH2 0x94C JUMP JUMPDEST PUSH2 0x993 PUSH2 0x98B DUP3 PUSH2 0x96D JUMP JUMPDEST DUP5 DUP5 SLOAD PUSH2 0x8F2 JUMP JUMPDEST DUP3 SSTORE POP POP POP POP JUMP JUMPDEST PUSH0 SWAP1 JUMP JUMPDEST PUSH2 0x9A7 PUSH2 0x99B JUMP JUMPDEST PUSH2 0x9B2 DUP2 DUP5 DUP5 PUSH2 0x976 JUMP JUMPDEST POP POP POP JUMP JUMPDEST JUMPDEST DUP2 DUP2 LT ISZERO PUSH2 0x9D5 JUMPI PUSH2 0x9CA PUSH0 DUP3 PUSH2 0x99F JUMP JUMPDEST PUSH1 0x1 DUP2 ADD SWAP1 POP PUSH2 0x9B8 JUMP JUMPDEST POP POP JUMP JUMPDEST PUSH1 0x1F DUP3 GT ISZERO PUSH2 0xA1A JUMPI PUSH2 0x9EB DUP2 PUSH2 0x8C5 JUMP JUMPDEST PUSH2 0x9F4 DUP5 PUSH2 0x8D7 JUMP JUMPDEST DUP2 ADD PUSH1 0x20 DUP6 LT ISZERO PUSH2 0xA03 JUMPI DUP2 SWAP1 POP JUMPDEST PUSH2 0xA17 PUSH2 0xA0F DUP6 PUSH2 0x8D7 JUMP JUMPDEST DUP4 ADD DUP3 PUSH2 0x9B7 JUMP JUMPDEST POP POP JUMPDEST POP POP POP JUMP JUMPDEST PUSH0 DUP3 DUP3 SHR SWAP1 POP SWAP3 SWAP2 POP POP JUMP JUMPDEST PUSH0 PUSH2 0xA3A PUSH0 NOT DUP5 PUSH1 0x8 MUL PUSH2 0xA1F JUMP JUMPDEST NOT DUP1 DUP4 AND SWAP2 POP POP SWAP3 SWAP2 POP POP JUMP JUMPDEST PUSH0 PUSH2 0xA52 DUP4 DUP4 PUSH2 0xA2B JUMP JUMPDEST SWAP2 POP DUP3 PUSH1 0x2 MUL DUP3 OR SWAP1 POP SWAP3 SWAP2 POP POP JUMP JUMPDEST PUSH2 0xA6B DUP3 PUSH2 0x47F JUMP JUMPDEST PUSH8 0xFFFFFFFFFFFFFFFF DUP2 GT ISZERO PUSH2 0xA84 JUMPI PUSH2 0xA83 PUSH2 0x575 JUMP JUMPDEST JUMPDEST PUSH2 0xA8E DUP3 SLOAD PUSH2 0x895 JUMP JUMPDEST PUSH2 0xA99 DUP3 DUP3 DUP6 PUSH2 0x9D9 JUMP JUMPDEST PUSH0 PUSH1 0x20 SWAP1 POP PUSH1 0x1F DUP4 GT PUSH1 0x1 DUP2 EQ PUSH2 0xACA JUMPI PUSH0 DUP5 ISZERO PUSH2 0xAB8 JUMPI DUP3 DUP8 ADD MLOAD SWAP1 POP JUMPDEST PUSH2 0xAC2 DUP6 DUP3 PUSH2 0xA47 JUMP JUMPDEST DUP7 SSTORE POP PUSH2 0xB29 JUMP JUMPDEST PUSH1 0x1F NOT DUP5 AND PUSH2 0xAD8 DUP7 PUSH2 0x8C5 JUMP JUMPDEST PUSH0 JUMPDEST DUP3 DUP2 LT ISZERO PUSH2 0xAFF JUMPI DUP5 DUP10 ADD MLOAD DUP3 SSTORE PUSH1 0x1 DUP3 ADD SWAP2 POP PUSH1 0x20 DUP6 ADD SWAP5 POP PUSH1 0x20 DUP2 ADD SWAP1 POP PUSH2 0xADA JUMP JUMPDEST DUP7 DUP4 LT ISZERO PUSH2 0xB1C JUMPI DUP5 DUP10 ADD MLOAD PUSH2 0xB18 PUSH1 0x1F DUP10 AND DUP3 PUSH2 0xA2B JUMP JUMPDEST DUP4 SSTORE POP JUMPDEST PUSH1 0x1 PUSH1 0x2 DUP9 MUL ADD DUP9 SSTORE POP POP POP JUMPDEST POP POP POP POP POP POP JUMP JUMPDEST PUSH0 PUSH2 0xB3B DUP3 PUSH2 0x6E0 JUMP JUMPDEST SWAP2 POP PUSH0 DUP3 SUB PUSH2 0xB4D JUMPI PUSH2 0xB4C PUSH2 0x813 JUMP JUMPDEST JUMPDEST PUSH1 0x1 DUP3 SUB SWAP1 POP SWAP2 SWAP1 POP JUMP INVALID LOG2 PUSH5 0x6970667358 0x22 SLT KECCAK256 0xCF 0xDC SWAP7 DUP9 0xD3 0xAF 0xC2 PUSH18 0xF432069499D95F883AF0B232734E264D4B93 BASEFEE PUSH26 0x15F2C9BD64736F6C634300081800330000000000000000000000 "
				},
				"gasEstimates": {
					"creation": {
						"codeDepositCost": "591600",
						"executionCost": "623",
						"totalCost": "592223"
					},
					"external": {
						"decrementUint()": "26817",
						"getBalanceOfAddress()": "5169",
						"incrementUint()": "26819",
						"myAddress()": "2626",
						"myBool()": "2577",
						"myString()": "infinite",
						"myUint()": "2425",
						"myUint8()": "2558",
						"setAddress(address)": "24832",
						"setMyBool(bool)": "24783",
						"setMyString(string)": "infinite",
						"setMyUint(uint256)": "22602"
					}
				},
				"methodIdentifiers": {
					"decrementUint()": "da50eaee",
					"getBalanceOfAddress()": "15502612",
					"incrementUint()": "14bf43bd",
					"myAddress()": "26b85ee1",
					"myBool()": "6deecdbe",
					"myString()": "492bfa18",
					"myUint()": "06540f7e",
					"myUint8()": "e2a4b2af",
					"setAddress(address)": "e30081a0",
					"setMyBool(bool)": "eb1b30d9",
					"setMyString(string)": "82180568",
					"setMyUint(uint256)": "e492fd84"
				}
			},
			"storageLayout": {
				"storage": [
					{
						"astId": 3,
						"contract": "variables.sol:WorkingWithVariables",
						"label": "myUint",
						"offset": 0,
						"slot": "0",
						"type": "t_uint256"
					},
					{
						"astId": 15,
						"contract": "variables.sol:WorkingWithVariables",
						"label": "myBool",
						"offset": 0,
						"slot": "1",
						"type": "t_bool"
					},
					{
						"astId": 27,
						"contract": "variables.sol:WorkingWithVariables",
						"label": "myUint8",
						"offset": 1,
						"slot": "1",
						"type": "t_uint8"
					},
					{
						"astId": 43,
						"contract": "variables.sol:WorkingWithVariables",
						"label": "myAddress",
						"offset": 2,
						"slot": "1",
						"type": "t_address"
					},
					{
						"astId": 64,
						"contract": "variables.sol:WorkingWithVariables",
						"label": "myString",
						"offset": 0,
						"slot": "2",
						"type": "t_string_storage"
					}
				],
				"types": {
					"t_address": {
						"encoding": "inplace",
						"label": "address",
						"numberOfBytes": "20"
					},
					"t_bool": {
						"encoding": "inplace",
						"label": "bool",
						"numberOfBytes": "1"
					},
					"t_string_storage": {
						"encoding": "bytes",
						"label": "string",
						"numberOfBytes": "32"
					},
					"t_uint256": {
						"encoding": "inplace",
						"label": "uint256",
						"numberOfBytes": "32"
					},
					"t_uint8": {
						"encoding": "inplace",
						"label": "uint8",
						"numberOfBytes": "1"
					}
				}
			},
			"userdoc": {
				"kind": "user",
				"methods": {},
				"version": 1
			}
		}
	}
}