{
	"SendMoneyExample.sol": {
		"SendMoneyExample": {
			"abi": [
				{
					"inputs": [],
					"name": "balanceReceived",
					"outputs": [
						{
							"internalType": "uint256",
							"name": "",
							"type": "uint256"
						}
					],
					"stateMutability": "view",
					"type": "function"
				},
				{
					"inputs": [],
					"name": "getBalance",
					"outputs": [
						{
							"internalType": "uint256",
							"name": "",
							"type": "uint256"
						}
					],
					"stateMutability": "view",
					"type": "function"
				},
				{
					"inputs": [],
					"name": "receiveMoney",
					"outputs": [],
					"stateMutability": "payable",
					"type": "function"
				},
				{
					"inputs": [],
					"name": "withdrawMoney",
					"outputs": [],
					"stateMutability": "nonpayable",
					"type": "function"
				},
				{
					"inputs": [
						{
							"internalType": "address payable",
							"name": "_to",
							"type": "address"
						}
					],
					"name": "withdrawMoneyTo",
					"outputs": [],
					"stateMutability": "nonpayable",
					"type": "function"
				}
			],
			"devdoc": {
				"kind": "dev",
				"methods": {},
				"version": 1
			},
			"evm": {
				"assembly": "    /* \"SendMoneyExample.sol\":62:760  contract SendMoneyExample{\r... */\n  mstore(0x40, 0x80)\n  callvalue\n  dup1\n  iszero\n  tag_1\n  jumpi\n  0x00\n  dup1\n  revert\ntag_1:\n  pop\n  dataSize(sub_0)\n  dup1\n  dataOffset(sub_0)\n  0x00\n  codecopy\n  0x00\n  return\nstop\n\nsub_0: assembly {\n        /* \"SendMoneyExample.sol\":62:760  contract SendMoneyExample{\r... */\n      mstore(0x40, 0x80)\n      jumpi(tag_1, lt(calldatasize, 0x04))\n      shr(0xe0, calldataload(0x00))\n      dup1\n      0x0ff8d8a5\n      eq\n      tag_2\n      jumpi\n      dup1\n      0x12065fe0\n      eq\n      tag_3\n      jumpi\n      dup1\n      0x52a90c42\n      eq\n      tag_4\n      jumpi\n      dup1\n      0x6d26ec18\n      eq\n      tag_5\n      jumpi\n      dup1\n      0xac446002\n      eq\n      tag_6\n      jumpi\n    tag_1:\n      0x00\n      dup1\n      revert\n        /* \"SendMoneyExample.sol\":562:757  function withdrawMoneyTo(address payable _to) public {\r... */\n    tag_2:\n      callvalue\n      dup1\n      iszero\n      tag_7\n      jumpi\n      0x00\n      dup1\n      revert\n    tag_7:\n      pop\n      tag_8\n      0x04\n      dup1\n      calldatasize\n      sub\n      dup2\n      add\n      swap1\n      tag_9\n      swap2\n      swap1\n      tag_10\n      jump\t// in\n    tag_9:\n      tag_11\n      jump\t// in\n    tag_8:\n      stop\n        /* \"SendMoneyExample.sol\":226:322  function getBalance() public view returns (uint) {\r... */\n    tag_3:\n      callvalue\n      dup1\n      iszero\n      tag_12\n      jumpi\n      0x00\n      dup1\n      revert\n    tag_12:\n      pop\n      tag_13\n      tag_14\n      jump\t// in\n    tag_13:\n      mload(0x40)\n      tag_15\n      swap2\n      swap1\n      tag_16\n      jump\t// in\n    tag_15:\n      mload(0x40)\n      dup1\n      swap2\n      sub\n      swap1\n      return\n        /* \"SendMoneyExample.sol\":96:123  uint public balanceReceived */\n    tag_4:\n      callvalue\n      dup1\n      iszero\n      tag_17\n      jumpi\n      0x00\n      dup1\n      revert\n    tag_17:\n      pop\n      tag_18\n      tag_19\n      jump\t// in\n    tag_18:\n      mload(0x40)\n      tag_20\n      swap2\n      swap1\n      tag_16\n      jump\t// in\n    tag_20:\n      mload(0x40)\n      dup1\n      swap2\n      sub\n      swap1\n      return\n        /* \"SendMoneyExample.sol\":132:218  function receiveMoney() public payable {\r... */\n    tag_5:\n      tag_21\n      tag_22\n      jump\t// in\n    tag_21:\n      stop\n        /* \"SendMoneyExample.sol\":330:554  function withdrawMoney() public {\r... */\n    tag_6:\n      callvalue\n      dup1\n      iszero\n      tag_23\n      jumpi\n      0x00\n      dup1\n      revert\n    tag_23:\n      pop\n      tag_24\n      tag_25\n      jump\t// in\n    tag_24:\n      stop\n        /* \"SendMoneyExample.sol\":562:757  function withdrawMoneyTo(address payable _to) public {\r... */\n    tag_11:\n        /* \"SendMoneyExample.sol\":626:638  uint balance */\n      0x00\n        /* \"SendMoneyExample.sol\":641:645  this */\n      address\n        /* \"SendMoneyExample.sol\":641:656  this.getBalance */\n      0xffffffffffffffffffffffffffffffffffffffff\n      and\n      0x12065fe0\n        /* \"SendMoneyExample.sol\":641:658  this.getBalance() */\n      mload(0x40)\n      dup2\n      0xffffffff\n      and\n      0xe0\n      shl\n      dup2\n      mstore\n      0x04\n      add\n      0x20\n      mload(0x40)\n      dup1\n      dup4\n      sub\n      dup2\n      dup7\n      dup1\n      extcodesize\n      iszero\n      dup1\n      iszero\n      tag_27\n      jumpi\n      0x00\n      dup1\n      revert\n    tag_27:\n      pop\n      gas\n      staticcall\n      iszero\n      dup1\n      iszero\n      tag_29\n      jumpi\n      returndatasize\n      0x00\n      dup1\n      returndatacopy\n      revert(0x00, returndatasize)\n    tag_29:\n      pop\n      pop\n      pop\n      pop\n      mload(0x40)\n      returndatasize\n      not(0x1f)\n      0x1f\n      dup3\n      add\n      and\n      dup3\n      add\n      dup1\n      0x40\n      mstore\n      pop\n      dup2\n      add\n      swap1\n      tag_30\n      swap2\n      swap1\n      tag_31\n      jump\t// in\n    tag_30:\n        /* \"SendMoneyExample.sol\":626:658  uint balance = this.getBalance() */\n      swap1\n      pop\n        /* \"SendMoneyExample.sol\":687:688  0 */\n      0x00\n        /* \"SendMoneyExample.sol\":677:684  balance */\n      dup2\n        /* \"SendMoneyExample.sol\":677:688  balance > 0 */\n      gt\n        /* \"SendMoneyExample.sol\":669:717  require(balance > 0, \"Contract balance is zero\") */\n      tag_32\n      jumpi\n      mload(0x40)\n      0x08c379a000000000000000000000000000000000000000000000000000000000\n      dup2\n      mstore\n      0x04\n      add\n      tag_33\n      swap1\n      tag_34\n      jump\t// in\n    tag_33:\n      mload(0x40)\n      dup1\n      swap2\n      sub\n      swap1\n      revert\n    tag_32:\n        /* \"SendMoneyExample.sol\":728:731  _to */\n      dup2\n        /* \"SendMoneyExample.sol\":728:740  _to.transfer */\n      0xffffffffffffffffffffffffffffffffffffffff\n      and\n        /* \"SendMoneyExample.sol\":728:749  _to.transfer(balance) */\n      0x08fc\n        /* \"SendMoneyExample.sol\":741:748  balance */\n      dup3\n        /* \"SendMoneyExample.sol\":728:749  _to.transfer(balance) */\n      swap1\n      dup2\n      iszero\n      mul\n      swap1\n      mload(0x40)\n      0x00\n      mload(0x40)\n      dup1\n      dup4\n      sub\n      dup2\n      dup6\n      dup9\n      dup9\n      call\n      swap4\n      pop\n      pop\n      pop\n      pop\n      iszero\n      dup1\n      iszero\n      tag_36\n      jumpi\n      returndatasize\n      0x00\n      dup1\n      returndatacopy\n      revert(0x00, returndatasize)\n    tag_36:\n      pop\n        /* \"SendMoneyExample.sol\":562:757  function withdrawMoneyTo(address payable _to) public {\r... */\n      pop\n      pop\n      jump\t// out\n        /* \"SendMoneyExample.sol\":226:322  function getBalance() public view returns (uint) {\r... */\n    tag_14:\n        /* \"SendMoneyExample.sol\":269:273  uint */\n      0x00\n        /* \"SendMoneyExample.sol\":293:314  address(this).balance */\n      selfbalance\n        /* \"SendMoneyExample.sol\":286:314  return address(this).balance */\n      swap1\n      pop\n        /* \"SendMoneyExample.sol\":226:322  function getBalance() public view returns (uint) {\r... */\n      swap1\n      jump\t// out\n        /* \"SendMoneyExample.sol\":96:123  uint public balanceReceived */\n    tag_19:\n      sload(0x00)\n      dup2\n      jump\t// out\n        /* \"SendMoneyExample.sol\":132:218  function receiveMoney() public payable {\r... */\n    tag_22:\n        /* \"SendMoneyExample.sol\":201:210  msg.value */\n      callvalue\n        /* \"SendMoneyExample.sol\":182:197  balanceReceived */\n      0x00\n      dup1\n        /* \"SendMoneyExample.sol\":182:210  balanceReceived += msg.value */\n      dup3\n      dup3\n      sload\n      tag_39\n      swap2\n      swap1\n      tag_40\n      jump\t// in\n    tag_39:\n      swap3\n      pop\n      pop\n      dup2\n      swap1\n      sstore\n      pop\n        /* \"SendMoneyExample.sol\":132:218  function receiveMoney() public payable {\r... */\n      jump\t// out\n        /* \"SendMoneyExample.sol\":330:554  function withdrawMoney() public {\r... */\n    tag_25:\n        /* \"SendMoneyExample.sol\":373:391  address payable to */\n      0x00\n        /* \"SendMoneyExample.sol\":402:412  msg.sender */\n      caller\n        /* \"SendMoneyExample.sol\":373:413  address payable to = payable(msg.sender) */\n      swap1\n      pop\n        /* \"SendMoneyExample.sol\":424:436  uint balance */\n      0x00\n        /* \"SendMoneyExample.sol\":439:443  this */\n      address\n        /* \"SendMoneyExample.sol\":439:454  this.getBalance */\n      0xffffffffffffffffffffffffffffffffffffffff\n      and\n      0x12065fe0\n        /* \"SendMoneyExample.sol\":439:456  this.getBalance() */\n      mload(0x40)\n      dup2\n      0xffffffff\n      and\n      0xe0\n      shl\n      dup2\n      mstore\n      0x04\n      add\n      0x20\n      mload(0x40)\n      dup1\n      dup4\n      sub\n      dup2\n      dup7\n      dup1\n      extcodesize\n      iszero\n      dup1\n      iszero\n      tag_42\n      jumpi\n      0x00\n      dup1\n      revert\n    tag_42:\n      pop\n      gas\n      staticcall\n      iszero\n      dup1\n      iszero\n      tag_44\n      jumpi\n      returndatasize\n      0x00\n      dup1\n      returndatacopy\n      revert(0x00, returndatasize)\n    tag_44:\n      pop\n      pop\n      pop\n      pop\n      mload(0x40)\n      returndatasize\n      not(0x1f)\n      0x1f\n      dup3\n      add\n      and\n      dup3\n      add\n      dup1\n      0x40\n      mstore\n      pop\n      dup2\n      add\n      swap1\n      tag_45\n      swap2\n      swap1\n      tag_31\n      jump\t// in\n    tag_45:\n        /* \"SendMoneyExample.sol\":424:456  uint balance = this.getBalance() */\n      swap1\n      pop\n        /* \"SendMoneyExample.sol\":485:486  0 */\n      0x00\n        /* \"SendMoneyExample.sol\":475:482  balance */\n      dup2\n        /* \"SendMoneyExample.sol\":475:486  balance > 0 */\n      gt\n        /* \"SendMoneyExample.sol\":467:515  require(balance > 0, \"Contract balance is zero\") */\n      tag_46\n      jumpi\n      mload(0x40)\n      0x08c379a000000000000000000000000000000000000000000000000000000000\n      dup2\n      mstore\n      0x04\n      add\n      tag_47\n      swap1\n      tag_34\n      jump\t// in\n    tag_47:\n      mload(0x40)\n      dup1\n      swap2\n      sub\n      swap1\n      revert\n    tag_46:\n        /* \"SendMoneyExample.sol\":526:528  to */\n      dup2\n        /* \"SendMoneyExample.sol\":526:537  to.transfer */\n      0xffffffffffffffffffffffffffffffffffffffff\n      and\n        /* \"SendMoneyExample.sol\":526:546  to.transfer(balance) */\n      0x08fc\n        /* \"SendMoneyExample.sol\":538:545  balance */\n      dup3\n        /* \"SendMoneyExample.sol\":526:546  to.transfer(balance) */\n      swap1\n      dup2\n      iszero\n      mul\n      swap1\n      mload(0x40)\n      0x00\n      mload(0x40)\n      dup1\n      dup4\n      sub\n      dup2\n      dup6\n      dup9\n      dup9\n      call\n      swap4\n      pop\n      pop\n      pop\n      pop\n      iszero\n      dup1\n      iszero\n      tag_49\n      jumpi\n      returndatasize\n      0x00\n      dup1\n      returndatacopy\n      revert(0x00, returndatasize)\n    tag_49:\n      pop\n        /* \"SendMoneyExample.sol\":330:554  function withdrawMoney() public {\r... */\n      pop\n      pop\n      jump\t// out\n        /* \"#utility.yul\":7:162   */\n    tag_51:\n      0x00\n        /* \"#utility.yul\":99:105   */\n      dup2\n        /* \"#utility.yul\":86:106   */\n      calldataload\n        /* \"#utility.yul\":77:106   */\n      swap1\n      pop\n        /* \"#utility.yul\":115:156   */\n      tag_53\n        /* \"#utility.yul\":150:155   */\n      dup2\n        /* \"#utility.yul\":115:156   */\n      tag_54\n      jump\t// in\n    tag_53:\n        /* \"#utility.yul\":67:162   */\n      swap3\n      swap2\n      pop\n      pop\n      jump\t// out\n        /* \"#utility.yul\":168:311   */\n    tag_55:\n      0x00\n        /* \"#utility.yul\":256:262   */\n      dup2\n        /* \"#utility.yul\":250:263   */\n      mload\n        /* \"#utility.yul\":241:263   */\n      swap1\n      pop\n        /* \"#utility.yul\":272:305   */\n      tag_57\n        /* \"#utility.yul\":299:304   */\n      dup2\n        /* \"#utility.yul\":272:305   */\n      tag_58\n      jump\t// in\n    tag_57:\n        /* \"#utility.yul\":231:311   */\n      swap3\n      swap2\n      pop\n      pop\n      jump\t// out\n        /* \"#utility.yul\":317:595   */\n    tag_10:\n      0x00\n        /* \"#utility.yul\":433:435   */\n      0x20\n        /* \"#utility.yul\":421:430   */\n      dup3\n        /* \"#utility.yul\":412:419   */\n      dup5\n        /* \"#utility.yul\":408:431   */\n      sub\n        /* \"#utility.yul\":404:436   */\n      slt\n        /* \"#utility.yul\":401:403   */\n      iszero\n      tag_60\n      jumpi\n        /* \"#utility.yul\":449:450   */\n      0x00\n        /* \"#utility.yul\":446:447   */\n      dup1\n        /* \"#utility.yul\":439:451   */\n      revert\n        /* \"#utility.yul\":401:403   */\n    tag_60:\n        /* \"#utility.yul\":492:493   */\n      0x00\n        /* \"#utility.yul\":517:578   */\n      tag_61\n        /* \"#utility.yul\":570:577   */\n      dup5\n        /* \"#utility.yul\":561:567   */\n      dup3\n        /* \"#utility.yul\":550:559   */\n      dup6\n        /* \"#utility.yul\":546:568   */\n      add\n        /* \"#utility.yul\":517:578   */\n      tag_51\n      jump\t// in\n    tag_61:\n        /* \"#utility.yul\":507:578   */\n      swap2\n      pop\n        /* \"#utility.yul\":463:588   */\n      pop\n        /* \"#utility.yul\":391:595   */\n      swap3\n      swap2\n      pop\n      pop\n      jump\t// out\n        /* \"#utility.yul\":601:885   */\n    tag_31:\n      0x00\n        /* \"#utility.yul\":720:722   */\n      0x20\n        /* \"#utility.yul\":708:717   */\n      dup3\n        /* \"#utility.yul\":699:706   */\n      dup5\n        /* \"#utility.yul\":695:718   */\n      sub\n        /* \"#utility.yul\":691:723   */\n      slt\n        /* \"#utility.yul\":688:690   */\n      iszero\n      tag_63\n      jumpi\n        /* \"#utility.yul\":736:737   */\n      0x00\n        /* \"#utility.yul\":733:734   */\n      dup1\n        /* \"#utility.yul\":726:738   */\n      revert\n        /* \"#utility.yul\":688:690   */\n    tag_63:\n        /* \"#utility.yul\":779:780   */\n      0x00\n        /* \"#utility.yul\":804:868   */\n      tag_64\n        /* \"#utility.yul\":860:867   */\n      dup5\n        /* \"#utility.yul\":851:857   */\n      dup3\n        /* \"#utility.yul\":840:849   */\n      dup6\n        /* \"#utility.yul\":836:858   */\n      add\n        /* \"#utility.yul\":804:868   */\n      tag_55\n      jump\t// in\n    tag_64:\n        /* \"#utility.yul\":794:868   */\n      swap2\n      pop\n        /* \"#utility.yul\":750:878   */\n      pop\n        /* \"#utility.yul\":678:885   */\n      swap3\n      swap2\n      pop\n      pop\n      jump\t// out\n        /* \"#utility.yul\":891:1213   */\n    tag_65:\n      0x00\n        /* \"#utility.yul\":1054:1121   */\n      tag_67\n        /* \"#utility.yul\":1118:1120   */\n      0x18\n        /* \"#utility.yul\":1113:1116   */\n      dup4\n        /* \"#utility.yul\":1054:1121   */\n      tag_68\n      jump\t// in\n    tag_67:\n        /* \"#utility.yul\":1047:1121   */\n      swap2\n      pop\n        /* \"#utility.yul\":1151:1177   */\n      0x436f6e74726163742062616c616e6365206973207a65726f0000000000000000\n        /* \"#utility.yul\":1147:1148   */\n      0x00\n        /* \"#utility.yul\":1142:1145   */\n      dup4\n        /* \"#utility.yul\":1138:1149   */\n      add\n        /* \"#utility.yul\":1131:1178   */\n      mstore\n        /* \"#utility.yul\":1204:1206   */\n      0x20\n        /* \"#utility.yul\":1199:1202   */\n      dup3\n        /* \"#utility.yul\":1195:1207   */\n      add\n        /* \"#utility.yul\":1188:1207   */\n      swap1\n      pop\n        /* \"#utility.yul\":1037:1213   */\n      swap2\n      swap1\n      pop\n      jump\t// out\n        /* \"#utility.yul\":1219:1337   */\n    tag_69:\n        /* \"#utility.yul\":1306:1330   */\n      tag_71\n        /* \"#utility.yul\":1324:1329   */\n      dup2\n        /* \"#utility.yul\":1306:1330   */\n      tag_72\n      jump\t// in\n    tag_71:\n        /* \"#utility.yul\":1301:1304   */\n      dup3\n        /* \"#utility.yul\":1294:1331   */\n      mstore\n        /* \"#utility.yul\":1284:1337   */\n      pop\n      pop\n      jump\t// out\n        /* \"#utility.yul\":1343:1762   */\n    tag_34:\n      0x00\n        /* \"#utility.yul\":1547:1549   */\n      0x20\n        /* \"#utility.yul\":1536:1545   */\n      dup3\n        /* \"#utility.yul\":1532:1550   */\n      add\n        /* \"#utility.yul\":1524:1550   */\n      swap1\n      pop\n        /* \"#utility.yul\":1596:1605   */\n      dup2\n        /* \"#utility.yul\":1590:1594   */\n      dup2\n        /* \"#utility.yul\":1586:1606   */\n      sub\n        /* \"#utility.yul\":1582:1583   */\n      0x00\n        /* \"#utility.yul\":1571:1580   */\n      dup4\n        /* \"#utility.yul\":1567:1584   */\n      add\n        /* \"#utility.yul\":1560:1607   */\n      mstore\n        /* \"#utility.yul\":1624:1755   */\n      tag_74\n        /* \"#utility.yul\":1750:1754   */\n      dup2\n        /* \"#utility.yul\":1624:1755   */\n      tag_65\n      jump\t// in\n    tag_74:\n        /* \"#utility.yul\":1616:1755   */\n      swap1\n      pop\n        /* \"#utility.yul\":1514:1762   */\n      swap2\n      swap1\n      pop\n      jump\t// out\n        /* \"#utility.yul\":1768:1990   */\n    tag_16:\n      0x00\n        /* \"#utility.yul\":1899:1901   */\n      0x20\n        /* \"#utility.yul\":1888:1897   */\n      dup3\n        /* \"#utility.yul\":1884:1902   */\n      add\n        /* \"#utility.yul\":1876:1902   */\n      swap1\n      pop\n        /* \"#utility.yul\":1912:1983   */\n      tag_76\n        /* \"#utility.yul\":1980:1981   */\n      0x00\n        /* \"#utility.yul\":1969:1978   */\n      dup4\n        /* \"#utility.yul\":1965:1982   */\n      add\n        /* \"#utility.yul\":1956:1962   */\n      dup5\n        /* \"#utility.yul\":1912:1983   */\n      tag_69\n      jump\t// in\n    tag_76:\n        /* \"#utility.yul\":1866:1990   */\n      swap3\n      swap2\n      pop\n      pop\n      jump\t// out\n        /* \"#utility.yul\":1996:2165   */\n    tag_68:\n      0x00\n        /* \"#utility.yul\":2114:2120   */\n      dup3\n        /* \"#utility.yul\":2109:2112   */\n      dup3\n        /* \"#utility.yul\":2102:2121   */\n      mstore\n        /* \"#utility.yul\":2154:2158   */\n      0x20\n        /* \"#utility.yul\":2149:2152   */\n      dup3\n        /* \"#utility.yul\":2145:2159   */\n      add\n        /* \"#utility.yul\":2130:2159   */\n      swap1\n      pop\n        /* \"#utility.yul\":2092:2165   */\n      swap3\n      swap2\n      pop\n      pop\n      jump\t// out\n        /* \"#utility.yul\":2171:2476   */\n    tag_40:\n      0x00\n        /* \"#utility.yul\":2230:2250   */\n      tag_79\n        /* \"#utility.yul\":2248:2249   */\n      dup3\n        /* \"#utility.yul\":2230:2250   */\n      tag_72\n      jump\t// in\n    tag_79:\n        /* \"#utility.yul\":2225:2250   */\n      swap2\n      pop\n        /* \"#utility.yul\":2264:2284   */\n      tag_80\n        /* \"#utility.yul\":2282:2283   */\n      dup4\n        /* \"#utility.yul\":2264:2284   */\n      tag_72\n      jump\t// in\n    tag_80:\n        /* \"#utility.yul\":2259:2284   */\n      swap3\n      pop\n        /* \"#utility.yul\":2418:2419   */\n      dup3\n        /* \"#utility.yul\":2350:2416   */\n      0xffffffffffffffffffffffffffffffffffffffffffffffffffffffffffffffff\n        /* \"#utility.yul\":2346:2420   */\n      sub\n        /* \"#utility.yul\":2343:2344   */\n      dup3\n        /* \"#utility.yul\":2340:2421   */\n      gt\n        /* \"#utility.yul\":2337:2339   */\n      iszero\n      tag_81\n      jumpi\n        /* \"#utility.yul\":2424:2442   */\n      tag_82\n      tag_83\n      jump\t// in\n    tag_82:\n        /* \"#utility.yul\":2337:2339   */\n    tag_81:\n        /* \"#utility.yul\":2468:2469   */\n      dup3\n        /* \"#utility.yul\":2465:2466   */\n      dup3\n        /* \"#utility.yul\":2461:2470   */\n      add\n        /* \"#utility.yul\":2454:2470   */\n      swap1\n      pop\n        /* \"#utility.yul\":2215:2476   */\n      swap3\n      swap2\n      pop\n      pop\n      jump\t// out\n        /* \"#utility.yul\":2482:2586   */\n    tag_84:\n      0x00\n        /* \"#utility.yul\":2556:2580   */\n      tag_86\n        /* \"#utility.yul\":2574:2579   */\n      dup3\n        /* \"#utility.yul\":2556:2580   */\n      tag_87\n      jump\t// in\n    tag_86:\n        /* \"#utility.yul\":2545:2580   */\n      swap1\n      pop\n        /* \"#utility.yul\":2535:2586   */\n      swap2\n      swap1\n      pop\n      jump\t// out\n        /* \"#utility.yul\":2592:2718   */\n    tag_87:\n      0x00\n        /* \"#utility.yul\":2669:2711   */\n      0xffffffffffffffffffffffffffffffffffffffff\n        /* \"#utility.yul\":2662:2667   */\n      dup3\n        /* \"#utility.yul\":2658:2712   */\n      and\n        /* \"#utility.yul\":2647:2712   */\n      swap1\n      pop\n        /* \"#utility.yul\":2637:2718   */\n      swap2\n      swap1\n      pop\n      jump\t// out\n        /* \"#utility.yul\":2724:2801   */\n    tag_72:\n      0x00\n        /* \"#utility.yul\":2790:2795   */\n      dup2\n        /* \"#utility.yul\":2779:2795   */\n      swap1\n      pop\n        /* \"#utility.yul\":2769:2801   */\n      swap2\n      swap1\n      pop\n      jump\t// out\n        /* \"#utility.yul\":2807:2987   */\n    tag_83:\n        /* \"#utility.yul\":2855:2932   */\n      0x4e487b7100000000000000000000000000000000000000000000000000000000\n        /* \"#utility.yul\":2852:2853   */\n      0x00\n        /* \"#utility.yul\":2845:2933   */\n      mstore\n        /* \"#utility.yul\":2952:2956   */\n      0x11\n        /* \"#utility.yul\":2949:2950   */\n      0x04\n        /* \"#utility.yul\":2942:2957   */\n      mstore\n        /* \"#utility.yul\":2976:2980   */\n      0x24\n        /* \"#utility.yul\":2973:2974   */\n      0x00\n        /* \"#utility.yul\":2966:2981   */\n      revert\n        /* \"#utility.yul\":2993:3131   */\n    tag_54:\n        /* \"#utility.yul\":3074:3106   */\n      tag_92\n        /* \"#utility.yul\":3100:3105   */\n      dup2\n        /* \"#utility.yul\":3074:3106   */\n      tag_84\n      jump\t// in\n    tag_92:\n        /* \"#utility.yul\":3067:3072   */\n      dup2\n        /* \"#utility.yul\":3064:3107   */\n      eq\n        /* \"#utility.yul\":3054:3056   */\n      tag_93\n      jumpi\n        /* \"#utility.yul\":3121:3122   */\n      0x00\n        /* \"#utility.yul\":3118:3119   */\n      dup1\n        /* \"#utility.yul\":3111:3123   */\n      revert\n        /* \"#utility.yul\":3054:3056   */\n    tag_93:\n        /* \"#utility.yul\":3044:3131   */\n      pop\n      jump\t// out\n        /* \"#utility.yul\":3137:3259   */\n    tag_58:\n        /* \"#utility.yul\":3210:3234   */\n      tag_95\n        /* \"#utility.yul\":3228:3233   */\n      dup2\n        /* \"#utility.yul\":3210:3234   */\n      tag_72\n      jump\t// in\n    tag_95:\n        /* \"#utility.yul\":3203:3208   */\n      dup2\n        /* \"#utility.yul\":3200:3235   */\n      eq\n        /* \"#utility.yul\":3190:3192   */\n      tag_96\n      jumpi\n        /* \"#utility.yul\":3249:3250   */\n      0x00\n        /* \"#utility.yul\":3246:3247   */\n      dup1\n        /* \"#utility.yul\":3239:3251   */\n      revert\n        /* \"#utility.yul\":3190:3192   */\n    tag_96:\n        /* \"#utility.yul\":3180:3259   */\n      pop\n      jump\t// out\n\n    auxdata: 0xa26469706673582212205bb537ed64881987a812dc6fb2aa560f4685440440368d4cdb1aa1491da8431164736f6c63430008000033\n}\n",
				"bytecode": {
					"linkReferences": {},
					"object": "608060405234801561001057600080fd5b50610578806100206000396000f3fe60806040526004361061004a5760003560e01c80630ff8d8a51461004f57806312065fe01461007857806352a90c42146100a35780636d26ec18146100ce578063ac446002146100d8575b600080fd5b34801561005b57600080fd5b5061007660048036038101906100719190610366565b6100ef565b005b34801561008457600080fd5b5061008d6101ff565b60405161009a9190610427565b60405180910390f35b3480156100af57600080fd5b506100b8610207565b6040516100c59190610427565b60405180910390f35b6100d661020d565b005b3480156100e457600080fd5b506100ed610227565b005b60003073ffffffffffffffffffffffffffffffffffffffff166312065fe06040518163ffffffff1660e01b815260040160206040518083038186803b15801561013757600080fd5b505afa15801561014b573d6000803e3d6000fd5b505050506040513d601f19601f8201168201806040525081019061016f919061038f565b9050600081116101b4576040517f08c379a00000000000000000000000000000000000000000000000000000000081526004016101ab90610407565b60405180910390fd5b8173ffffffffffffffffffffffffffffffffffffffff166108fc829081150290604051600060405180830381858888f193505050501580156101fa573d6000803e3d6000fd5b505050565b600047905090565b60005481565b3460008082825461021e9190610453565b92505081905550565b600033905060003073ffffffffffffffffffffffffffffffffffffffff166312065fe06040518163ffffffff1660e01b815260040160206040518083038186803b15801561027457600080fd5b505afa158015610288573d6000803e3d6000fd5b505050506040513d601f19601f820116820180604052508101906102ac919061038f565b9050600081116102f1576040517f08c379a00000000000000000000000000000000000000000000000000000000081526004016102e890610407565b60405180910390fd5b8173ffffffffffffffffffffffffffffffffffffffff166108fc829081150290604051600060405180830381858888f19350505050158015610337573d6000803e3d6000fd5b505050565b60008135905061034b81610514565b92915050565b6000815190506103608161052b565b92915050565b60006020828403121561037857600080fd5b60006103868482850161033c565b91505092915050565b6000602082840312156103a157600080fd5b60006103af84828501610351565b91505092915050565b60006103c5601883610442565b91507f436f6e74726163742062616c616e6365206973207a65726f00000000000000006000830152602082019050919050565b610401816104db565b82525050565b60006020820190508181036000830152610420816103b8565b9050919050565b600060208201905061043c60008301846103f8565b92915050565b600082825260208201905092915050565b600061045e826104db565b9150610469836104db565b9250827fffffffffffffffffffffffffffffffffffffffffffffffffffffffffffffffff0382111561049e5761049d6104e5565b5b828201905092915050565b60006104b4826104bb565b9050919050565b600073ffffffffffffffffffffffffffffffffffffffff82169050919050565b6000819050919050565b7f4e487b7100000000000000000000000000000000000000000000000000000000600052601160045260246000fd5b61051d816104a9565b811461052857600080fd5b50565b610534816104db565b811461053f57600080fd5b5056fea26469706673582212205bb537ed64881987a812dc6fb2aa560f4685440440368d4cdb1aa1491da8431164736f6c63430008000033",
					"opcodes": "PUSH1 0x80 PUSH1 0x40 MSTORE CALLVALUE DUP1 ISZERO PUSH2 0x10 JUMPI PUSH1 0x0 DUP1 REVERT JUMPDEST POP PUSH2 0x578 DUP1 PUSH2 0x20 PUSH1 0x0 CODECOPY PUSH1 0x0 RETURN INVALID PUSH1 0x80 PUSH1 0x40 MSTORE PUSH1 0x4 CALLDATASIZE LT PUSH2 0x4A JUMPI PUSH1 0x0 CALLDATALOAD PUSH1 0xE0 SHR DUP1 PUSH4 0xFF8D8A5 EQ PUSH2 0x4F JUMPI DUP1 PUSH4 0x12065FE0 EQ PUSH2 0x78 JUMPI DUP1 PUSH4 0x52A90C42 EQ PUSH2 0xA3 JUMPI DUP1 PUSH4 0x6D26EC18 EQ PUSH2 0xCE JUMPI DUP1 PUSH4 0xAC446002 EQ PUSH2 0xD8 JUMPI JUMPDEST PUSH1 0x0 DUP1 REVERT JUMPDEST CALLVALUE DUP1 ISZERO PUSH2 0x5B JUMPI PUSH1 0x0 DUP1 REVERT JUMPDEST POP PUSH2 0x76 PUSH1 0x4 DUP1 CALLDATASIZE SUB DUP2 ADD SWAP1 PUSH2 0x71 SWAP2 SWAP1 PUSH2 0x366 JUMP JUMPDEST PUSH2 0xEF JUMP JUMPDEST STOP JUMPDEST CALLVALUE DUP1 ISZERO PUSH2 0x84 JUMPI PUSH1 0x0 DUP1 REVERT JUMPDEST POP PUSH2 0x8D PUSH2 0x1FF JUMP JUMPDEST PUSH1 0x40 MLOAD PUSH2 0x9A SWAP2 SWAP1 PUSH2 0x427 JUMP JUMPDEST PUSH1 0x40 MLOAD DUP1 SWAP2 SUB SWAP1 RETURN JUMPDEST CALLVALUE DUP1 ISZERO PUSH2 0xAF JUMPI PUSH1 0x0 DUP1 REVERT JUMPDEST POP PUSH2 0xB8 PUSH2 0x207 JUMP JUMPDEST PUSH1 0x40 MLOAD PUSH2 0xC5 SWAP2 SWAP1 PUSH2 0x427 JUMP JUMPDEST PUSH1 0x40 MLOAD DUP1 SWAP2 SUB SWAP1 RETURN JUMPDEST PUSH2 0xD6 PUSH2 0x20D JUMP JUMPDEST STOP JUMPDEST CALLVALUE DUP1 ISZERO PUSH2 0xE4 JUMPI PUSH1 0x0 DUP1 REVERT JUMPDEST POP PUSH2 0xED PUSH2 0x227 JUMP JUMPDEST STOP JUMPDEST PUSH1 0x0 ADDRESS PUSH20 0xFFFFFFFFFFFFFFFFFFFFFFFFFFFFFFFFFFFFFFFF AND PUSH4 0x12065FE0 PUSH1 0x40 MLOAD DUP2 PUSH4 0xFFFFFFFF AND PUSH1 0xE0 SHL DUP2 MSTORE PUSH1 0x4 ADD PUSH1 0x20 PUSH1 0x40 MLOAD DUP1 DUP4 SUB DUP2 DUP7 DUP1 EXTCODESIZE ISZERO DUP1 ISZERO PUSH2 0x137 JUMPI PUSH1 0x0 DUP1 REVERT JUMPDEST POP GAS STATICCALL ISZERO DUP1 ISZERO PUSH2 0x14B JUMPI RETURNDATASIZE PUSH1 0x0 DUP1 RETURNDATACOPY RETURNDATASIZE PUSH1 0x0 REVERT JUMPDEST POP POP POP POP PUSH1 0x40 MLOAD RETURNDATASIZE PUSH1 0x1F NOT PUSH1 0x1F DUP3 ADD AND DUP3 ADD DUP1 PUSH1 0x40 MSTORE POP DUP2 ADD SWAP1 PUSH2 0x16F SWAP2 SWAP1 PUSH2 0x38F JUMP JUMPDEST SWAP1 POP PUSH1 0x0 DUP2 GT PUSH2 0x1B4 JUMPI PUSH1 0x40 MLOAD PUSH32 0x8C379A000000000000000000000000000000000000000000000000000000000 DUP2 MSTORE PUSH1 0x4 ADD PUSH2 0x1AB SWAP1 PUSH2 0x407 JUMP JUMPDEST PUSH1 0x40 MLOAD DUP1 SWAP2 SUB SWAP1 REVERT JUMPDEST DUP2 PUSH20 0xFFFFFFFFFFFFFFFFFFFFFFFFFFFFFFFFFFFFFFFF AND PUSH2 0x8FC DUP3 SWAP1 DUP2 ISZERO MUL SWAP1 PUSH1 0x40 MLOAD PUSH1 0x0 PUSH1 0x40 MLOAD DUP1 DUP4 SUB DUP2 DUP6 DUP9 DUP9 CALL SWAP4 POP POP POP POP ISZERO DUP1 ISZERO PUSH2 0x1FA JUMPI RETURNDATASIZE PUSH1 0x0 DUP1 RETURNDATACOPY RETURNDATASIZE PUSH1 0x0 REVERT JUMPDEST POP POP POP JUMP JUMPDEST PUSH1 0x0 SELFBALANCE SWAP1 POP SWAP1 JUMP JUMPDEST PUSH1 0x0 SLOAD DUP2 JUMP JUMPDEST CALLVALUE PUSH1 0x0 DUP1 DUP3 DUP3 SLOAD PUSH2 0x21E SWAP2 SWAP1 PUSH2 0x453 JUMP JUMPDEST SWAP3 POP POP DUP2 SWAP1 SSTORE POP JUMP JUMPDEST PUSH1 0x0 CALLER SWAP1 POP PUSH1 0x0 ADDRESS PUSH20 0xFFFFFFFFFFFFFFFFFFFFFFFFFFFFFFFFFFFFFFFF AND PUSH4 0x12065FE0 PUSH1 0x40 MLOAD DUP2 PUSH4 0xFFFFFFFF AND PUSH1 0xE0 SHL DUP2 MSTORE PUSH1 0x4 ADD PUSH1 0x20 PUSH1 0x40 MLOAD DUP1 DUP4 SUB DUP2 DUP7 DUP1 EXTCODESIZE ISZERO DUP1 ISZERO PUSH2 0x274 JUMPI PUSH1 0x0 DUP1 REVERT JUMPDEST POP GAS STATICCALL ISZERO DUP1 ISZERO PUSH2 0x288 JUMPI RETURNDATASIZE PUSH1 0x0 DUP1 RETURNDATACOPY RETURNDATASIZE PUSH1 0x0 REVERT JUMPDEST POP POP POP POP PUSH1 0x40 MLOAD RETURNDATASIZE PUSH1 0x1F NOT PUSH1 0x1F DUP3 ADD AND DUP3 ADD DUP1 PUSH1 0x40 MSTORE POP DUP2 ADD SWAP1 PUSH2 0x2AC SWAP2 SWAP1 PUSH2 0x38F JUMP JUMPDEST SWAP1 POP PUSH1 0x0 DUP2 GT PUSH2 0x2F1 JUMPI PUSH1 0x40 MLOAD PUSH32 0x8C379A000000000000000000000000000000000000000000000000000000000 DUP2 MSTORE PUSH1 0x4 ADD PUSH2 0x2E8 SWAP1 PUSH2 0x407 JUMP JUMPDEST PUSH1 0x40 MLOAD DUP1 SWAP2 SUB SWAP1 REVERT JUMPDEST DUP2 PUSH20 0xFFFFFFFFFFFFFFFFFFFFFFFFFFFFFFFFFFFFFFFF AND PUSH2 0x8FC DUP3 SWAP1 DUP2 ISZERO MUL SWAP1 PUSH1 0x40 MLOAD PUSH1 0x0 PUSH1 0x40 MLOAD DUP1 DUP4 SUB DUP2 DUP6 DUP9 DUP9 CALL SWAP4 POP POP POP POP ISZERO DUP1 ISZERO PUSH2 0x337 JUMPI RETURNDATASIZE PUSH1 0x0 DUP1 RETURNDATACOPY RETURNDATASIZE PUSH1 0x0 REVERT JUMPDEST POP POP POP JUMP JUMPDEST PUSH1 0x0 DUP2 CALLDATALOAD SWAP1 POP PUSH2 0x34B DUP2 PUSH2 0x514 JUMP JUMPDEST SWAP3 SWAP2 POP POP JUMP JUMPDEST PUSH1 0x0 DUP2 MLOAD SWAP1 POP PUSH2 0x360 DUP2 PUSH2 0x52B JUMP JUMPDEST SWAP3 SWAP2 POP POP JUMP JUMPDEST PUSH1 0x0 PUSH1 0x20 DUP3 DUP5 SUB SLT ISZERO PUSH2 0x378 JUMPI PUSH1 0x0 DUP1 REVERT JUMPDEST PUSH1 0x0 PUSH2 0x386 DUP5 DUP3 DUP6 ADD PUSH2 0x33C JUMP JUMPDEST SWAP2 POP POP SWAP3 SWAP2 POP POP JUMP JUMPDEST PUSH1 0x0 PUSH1 0x20 DUP3 DUP5 SUB SLT ISZERO PUSH2 0x3A1 JUMPI PUSH1 0x0 DUP1 REVERT JUMPDEST PUSH1 0x0 PUSH2 0x3AF DUP5 DUP3 DUP6 ADD PUSH2 0x351 JUMP JUMPDEST SWAP2 POP POP SWAP3 SWAP2 POP POP JUMP JUMPDEST PUSH1 0x0 PUSH2 0x3C5 PUSH1 0x18 DUP4 PUSH2 0x442 JUMP JUMPDEST SWAP2 POP PUSH32 0x436F6E74726163742062616C616E6365206973207A65726F0000000000000000 PUSH1 0x0 DUP4 ADD MSTORE PUSH1 0x20 DUP3 ADD SWAP1 POP SWAP2 SWAP1 POP JUMP JUMPDEST PUSH2 0x401 DUP2 PUSH2 0x4DB JUMP JUMPDEST DUP3 MSTORE POP POP JUMP JUMPDEST PUSH1 0x0 PUSH1 0x20 DUP3 ADD SWAP1 POP DUP2 DUP2 SUB PUSH1 0x0 DUP4 ADD MSTORE PUSH2 0x420 DUP2 PUSH2 0x3B8 JUMP JUMPDEST SWAP1 POP SWAP2 SWAP1 POP JUMP JUMPDEST PUSH1 0x0 PUSH1 0x20 DUP3 ADD SWAP1 POP PUSH2 0x43C PUSH1 0x0 DUP4 ADD DUP5 PUSH2 0x3F8 JUMP JUMPDEST SWAP3 SWAP2 POP POP JUMP JUMPDEST PUSH1 0x0 DUP3 DUP3 MSTORE PUSH1 0x20 DUP3 ADD SWAP1 POP SWAP3 SWAP2 POP POP JUMP JUMPDEST PUSH1 0x0 PUSH2 0x45E DUP3 PUSH2 0x4DB JUMP JUMPDEST SWAP2 POP PUSH2 0x469 DUP4 PUSH2 0x4DB JUMP JUMPDEST SWAP3 POP DUP3 PUSH32 0xFFFFFFFFFFFFFFFFFFFFFFFFFFFFFFFFFFFFFFFFFFFFFFFFFFFFFFFFFFFFFFFF SUB DUP3 GT ISZERO PUSH2 0x49E JUMPI PUSH2 0x49D PUSH2 0x4E5 JUMP JUMPDEST JUMPDEST DUP3 DUP3 ADD SWAP1 POP SWAP3 SWAP2 POP POP JUMP JUMPDEST PUSH1 0x0 PUSH2 0x4B4 DUP3 PUSH2 0x4BB JUMP JUMPDEST SWAP1 POP SWAP2 SWAP1 POP JUMP JUMPDEST PUSH1 0x0 PUSH20 0xFFFFFFFFFFFFFFFFFFFFFFFFFFFFFFFFFFFFFFFF DUP3 AND SWAP1 POP SWAP2 SWAP1 POP JUMP JUMPDEST PUSH1 0x0 DUP2 SWAP1 POP SWAP2 SWAP1 POP JUMP JUMPDEST PUSH32 0x4E487B7100000000000000000000000000000000000000000000000000000000 PUSH1 0x0 MSTORE PUSH1 0x11 PUSH1 0x4 MSTORE PUSH1 0x24 PUSH1 0x0 REVERT JUMPDEST PUSH2 0x51D DUP2 PUSH2 0x4A9 JUMP JUMPDEST DUP2 EQ PUSH2 0x528 JUMPI PUSH1 0x0 DUP1 REVERT JUMPDEST POP JUMP JUMPDEST PUSH2 0x534 DUP2 PUSH2 0x4DB JUMP JUMPDEST DUP2 EQ PUSH2 0x53F JUMPI PUSH1 0x0 DUP1 REVERT JUMPDEST POP JUMP INVALID LOG2 PUSH5 0x6970667358 0x22 SLT KECCAK256 JUMPDEST 0xB5 CALLDATACOPY 0xED PUSH5 0x881987A812 0xDC PUSH16 0xB2AA560F4685440440368D4CDB1AA149 SAR 0xA8 NUMBER GT PUSH5 0x736F6C6343 STOP ADDMOD STOP STOP CALLER "
				},
				"gasEstimates": {
					"creation": {
						"codeDepositCost": "280000",
						"executionCost": "318",
						"totalCost": "280318"
					},
					"external": {
						"balanceReceived()": "1151",
						"getBalance()": "339",
						"receiveMoney()": "infinite",
						"withdrawMoney()": "infinite",
						"withdrawMoneyTo(address)": "infinite"
					}
				},
				"methodIdentifiers": {
					"balanceReceived()": "52a90c42",
					"getBalance()": "12065fe0",
					"receiveMoney()": "6d26ec18",
					"withdrawMoney()": "ac446002",
					"withdrawMoneyTo(address)": "0ff8d8a5"
				}
			},
			"storageLayout": {
				"storage": [
					{
						"astId": 3,
						"contract": "SendMoneyExample.sol:SendMoneyExample",
						"label": "balanceReceived",
						"offset": 0,
						"slot": "0",
						"type": "t_uint256"
					}
				],
				"types": {
					"t_uint256": {
						"encoding": "inplace",
						"label": "uint256",
						"numberOfBytes": "32"
					}
				}
			},
			"userdoc": {
				"kind": "user",
				"methods": {},
				"version": 1
			}
		}
	}
}