{
	"AbiExample.sol": {
		"DebuggerExample": {
			"abi": [
				{
					"inputs": [],
					"name": "myUint",
					"outputs": [
						{
							"internalType": "uint256",
							"name": "",
							"type": "uint256"
						}
					],
					"stateMutability": "view",
					"type": "function"
				},
				{
					"inputs": [
						{
							"internalType": "uint256",
							"name": "_myuint",
							"type": "uint256"
						}
					],
					"name": "setMyUint",
					"outputs": [],
					"stateMutability": "nonpayable",
					"type": "function"
				}
			],
			"devdoc": {
				"kind": "dev",
				"methods": {},
				"version": 1
			},
			"evm": {
				"assembly": "    /* \"AbiExample.sol\":61:198  contract DebuggerExample {\r... */\n  mstore(0x40, 0x80)\n  callvalue\n  dup1\n  iszero\n  tag_1\n  jumpi\n  0x00\n  dup1\n  revert\ntag_1:\n  pop\n  dataSize(sub_0)\n  dup1\n  dataOffset(sub_0)\n  0x00\n  codecopy\n  0x00\n  return\nstop\n\nsub_0: assembly {\n        /* \"AbiExample.sol\":61:198  contract DebuggerExample {\r... */\n      mstore(0x40, 0x80)\n      callvalue\n      dup1\n      iszero\n      tag_1\n      jumpi\n      0x00\n      dup1\n      revert\n    tag_1:\n      pop\n      jumpi(tag_2, lt(calldatasize, 0x04))\n      shr(0xe0, calldataload(0x00))\n      dup1\n      0x06540f7e\n      eq\n      tag_3\n      jumpi\n      dup1\n      0xe492fd84\n      eq\n      tag_4\n      jumpi\n    tag_2:\n      0x00\n      dup1\n      revert\n        /* \"AbiExample.sol\":93:111  uint public myUint */\n    tag_3:\n      tag_5\n      tag_6\n      jump\t// in\n    tag_5:\n      mload(0x40)\n      tag_7\n      swap2\n      swap1\n      tag_8\n      jump\t// in\n    tag_7:\n      mload(0x40)\n      dup1\n      swap2\n      sub\n      swap1\n      return\n        /* \"AbiExample.sol\":120:195  function setMyUint(uint _myuint) public {\r... */\n    tag_4:\n      tag_9\n      0x04\n      dup1\n      calldatasize\n      sub\n      dup2\n      add\n      swap1\n      tag_10\n      swap2\n      swap1\n      tag_11\n      jump\t// in\n    tag_10:\n      tag_12\n      jump\t// in\n    tag_9:\n      stop\n        /* \"AbiExample.sol\":93:111  uint public myUint */\n    tag_6:\n      sload(0x00)\n      dup2\n      jump\t// out\n        /* \"AbiExample.sol\":120:195  function setMyUint(uint _myuint) public {\r... */\n    tag_12:\n        /* \"AbiExample.sol\":180:187  _myuint */\n      dup1\n        /* \"AbiExample.sol\":171:177  myUint */\n      0x00\n        /* \"AbiExample.sol\":171:187  myUint = _myuint */\n      dup2\n      swap1\n      sstore\n      pop\n        /* \"AbiExample.sol\":120:195  function setMyUint(uint _myuint) public {\r... */\n      pop\n      jump\t// out\n        /* \"#utility.yul\":7:146   */\n    tag_15:\n      0x00\n        /* \"#utility.yul\":91:97   */\n      dup2\n        /* \"#utility.yul\":78:98   */\n      calldataload\n        /* \"#utility.yul\":69:98   */\n      swap1\n      pop\n        /* \"#utility.yul\":107:140   */\n      tag_17\n        /* \"#utility.yul\":134:139   */\n      dup2\n        /* \"#utility.yul\":107:140   */\n      tag_18\n      jump\t// in\n    tag_17:\n        /* \"#utility.yul\":59:146   */\n      swap3\n      swap2\n      pop\n      pop\n      jump\t// out\n        /* \"#utility.yul\":152:414   */\n    tag_11:\n      0x00\n        /* \"#utility.yul\":260:262   */\n      0x20\n        /* \"#utility.yul\":248:257   */\n      dup3\n        /* \"#utility.yul\":239:246   */\n      dup5\n        /* \"#utility.yul\":235:258   */\n      sub\n        /* \"#utility.yul\":231:263   */\n      slt\n        /* \"#utility.yul\":228:230   */\n      iszero\n      tag_20\n      jumpi\n        /* \"#utility.yul\":276:277   */\n      0x00\n        /* \"#utility.yul\":273:274   */\n      dup1\n        /* \"#utility.yul\":266:278   */\n      revert\n        /* \"#utility.yul\":228:230   */\n    tag_20:\n        /* \"#utility.yul\":319:320   */\n      0x00\n        /* \"#utility.yul\":344:397   */\n      tag_21\n        /* \"#utility.yul\":389:396   */\n      dup5\n        /* \"#utility.yul\":380:386   */\n      dup3\n        /* \"#utility.yul\":369:378   */\n      dup6\n        /* \"#utility.yul\":365:387   */\n      add\n        /* \"#utility.yul\":344:397   */\n      tag_15\n      jump\t// in\n    tag_21:\n        /* \"#utility.yul\":334:397   */\n      swap2\n      pop\n        /* \"#utility.yul\":290:407   */\n      pop\n        /* \"#utility.yul\":218:414   */\n      swap3\n      swap2\n      pop\n      pop\n      jump\t// out\n        /* \"#utility.yul\":420:538   */\n    tag_22:\n        /* \"#utility.yul\":507:531   */\n      tag_24\n        /* \"#utility.yul\":525:530   */\n      dup2\n        /* \"#utility.yul\":507:531   */\n      tag_25\n      jump\t// in\n    tag_24:\n        /* \"#utility.yul\":502:505   */\n      dup3\n        /* \"#utility.yul\":495:532   */\n      mstore\n        /* \"#utility.yul\":485:538   */\n      pop\n      pop\n      jump\t// out\n        /* \"#utility.yul\":544:766   */\n    tag_8:\n      0x00\n        /* \"#utility.yul\":675:677   */\n      0x20\n        /* \"#utility.yul\":664:673   */\n      dup3\n        /* \"#utility.yul\":660:678   */\n      add\n        /* \"#utility.yul\":652:678   */\n      swap1\n      pop\n        /* \"#utility.yul\":688:759   */\n      tag_27\n        /* \"#utility.yul\":756:757   */\n      0x00\n        /* \"#utility.yul\":745:754   */\n      dup4\n        /* \"#utility.yul\":741:758   */\n      add\n        /* \"#utility.yul\":732:738   */\n      dup5\n        /* \"#utility.yul\":688:759   */\n      tag_22\n      jump\t// in\n    tag_27:\n        /* \"#utility.yul\":642:766   */\n      swap3\n      swap2\n      pop\n      pop\n      jump\t// out\n        /* \"#utility.yul\":772:849   */\n    tag_25:\n      0x00\n        /* \"#utility.yul\":838:843   */\n      dup2\n        /* \"#utility.yul\":827:843   */\n      swap1\n      pop\n        /* \"#utility.yul\":817:849   */\n      swap2\n      swap1\n      pop\n      jump\t// out\n        /* \"#utility.yul\":855:977   */\n    tag_18:\n        /* \"#utility.yul\":928:952   */\n      tag_30\n        /* \"#utility.yul\":946:951   */\n      dup2\n        /* \"#utility.yul\":928:952   */\n      tag_25\n      jump\t// in\n    tag_30:\n        /* \"#utility.yul\":921:926   */\n      dup2\n        /* \"#utility.yul\":918:953   */\n      eq\n        /* \"#utility.yul\":908:910   */\n      tag_31\n      jumpi\n        /* \"#utility.yul\":967:968   */\n      0x00\n        /* \"#utility.yul\":964:965   */\n      dup1\n        /* \"#utility.yul\":957:969   */\n      revert\n        /* \"#utility.yul\":908:910   */\n    tag_31:\n        /* \"#utility.yul\":898:977   */\n      pop\n      jump\t// out\n\n    auxdata: 0xa26469706673582212201dee97e848fa2a7505c3483eb7c010e447161dd2e7038d92c3e5e7f6c3ed78d564736f6c63430008000033\n}\n",
				"bytecode": {
					"linkReferences": {},
					"object": "608060405234801561001057600080fd5b5061012c806100206000396000f3fe6080604052348015600f57600080fd5b506004361060325760003560e01c806306540f7e146037578063e492fd84146051575b600080fd5b603d6069565b6040516048919060bf565b60405180910390f35b6067600480360381019060639190608c565b606f565b005b60005481565b8060008190555050565b60008135905060868160e2565b92915050565b600060208284031215609d57600080fd5b600060a9848285016079565b91505092915050565b60b98160d8565b82525050565b600060208201905060d2600083018460b2565b92915050565b6000819050919050565b60e98160d8565b811460f357600080fd5b5056fea26469706673582212201dee97e848fa2a7505c3483eb7c010e447161dd2e7038d92c3e5e7f6c3ed78d564736f6c63430008000033",
					"opcodes": "PUSH1 0x80 PUSH1 0x40 MSTORE CALLVALUE DUP1 ISZERO PUSH2 0x10 JUMPI PUSH1 0x0 DUP1 REVERT JUMPDEST POP PUSH2 0x12C DUP1 PUSH2 0x20 PUSH1 0x0 CODECOPY PUSH1 0x0 RETURN INVALID PUSH1 0x80 PUSH1 0x40 MSTORE CALLVALUE DUP1 ISZERO PUSH1 0xF JUMPI PUSH1 0x0 DUP1 REVERT JUMPDEST POP PUSH1 0x4 CALLDATASIZE LT PUSH1 0x32 JUMPI PUSH1 0x0 CALLDATALOAD PUSH1 0xE0 SHR DUP1 PUSH4 0x6540F7E EQ PUSH1 0x37 JUMPI DUP1 PUSH4 0xE492FD84 EQ PUSH1 0x51 JUMPI JUMPDEST PUSH1 0x0 DUP1 REVERT JUMPDEST PUSH1 0x3D PUSH1 0x69 JUMP JUMPDEST PUSH1 0x40 MLOAD PUSH1 0x48 SWAP2 SWAP1 PUSH1 0xBF JUMP JUMPDEST PUSH1 0x40 MLOAD DUP1 SWAP2 SUB SWAP1 RETURN JUMPDEST PUSH1 0x67 PUSH1 0x4 DUP1 CALLDATASIZE SUB DUP2 ADD SWAP1 PUSH1 0x63 SWAP2 SWAP1 PUSH1 0x8C JUMP JUMPDEST PUSH1 0x6F JUMP JUMPDEST STOP JUMPDEST PUSH1 0x0 SLOAD DUP2 JUMP JUMPDEST DUP1 PUSH1 0x0 DUP2 SWAP1 SSTORE POP POP JUMP JUMPDEST PUSH1 0x0 DUP2 CALLDATALOAD SWAP1 POP PUSH1 0x86 DUP2 PUSH1 0xE2 JUMP JUMPDEST SWAP3 SWAP2 POP POP JUMP JUMPDEST PUSH1 0x0 PUSH1 0x20 DUP3 DUP5 SUB SLT ISZERO PUSH1 0x9D JUMPI PUSH1 0x0 DUP1 REVERT JUMPDEST PUSH1 0x0 PUSH1 0xA9 DUP5 DUP3 DUP6 ADD PUSH1 0x79 JUMP JUMPDEST SWAP2 POP POP SWAP3 SWAP2 POP POP JUMP JUMPDEST PUSH1 0xB9 DUP2 PUSH1 0xD8 JUMP JUMPDEST DUP3 MSTORE POP POP JUMP JUMPDEST PUSH1 0x0 PUSH1 0x20 DUP3 ADD SWAP1 POP PUSH1 0xD2 PUSH1 0x0 DUP4 ADD DUP5 PUSH1 0xB2 JUMP JUMPDEST SWAP3 SWAP2 POP POP JUMP JUMPDEST PUSH1 0x0 DUP2 SWAP1 POP SWAP2 SWAP1 POP JUMP JUMPDEST PUSH1 0xE9 DUP2 PUSH1 0xD8 JUMP JUMPDEST DUP2 EQ PUSH1 0xF3 JUMPI PUSH1 0x0 DUP1 REVERT JUMPDEST POP JUMP INVALID LOG2 PUSH5 0x6970667358 0x22 SLT KECCAK256 SAR 0xEE SWAP8 0xE8 0x48 STATICCALL 0x2A PUSH22 0x5C3483EB7C010E447161DD2E7038D92C3E5E7F6C3ED PUSH25 0xD564736F6C6343000800003300000000000000000000000000 "
				},
				"gasEstimates": {
					"creation": {
						"codeDepositCost": "60000",
						"executionCost": "111",
						"totalCost": "60111"
					},
					"external": {
						"myUint()": "1107",
						"setMyUint(uint256)": "20420"
					}
				},
				"methodIdentifiers": {
					"myUint()": "06540f7e",
					"setMyUint(uint256)": "e492fd84"
				}
			},
			"storageLayout": {
				"storage": [
					{
						"astId": 3,
						"contract": "AbiExample.sol:DebuggerExample",
						"label": "myUint",
						"offset": 0,
						"slot": "0",
						"type": "t_uint256"
					}
				],
				"types": {
					"t_uint256": {
						"encoding": "inplace",
						"label": "uint256",
						"numberOfBytes": "32"
					}
				}
			},
			"userdoc": {
				"kind": "user",
				"methods": {},
				"version": 1
			}
		}
	}
}