{
	"data": {
		"bytecode": {
			"linkReferences": {},
			"object": "608060405234801562000010575f80fd5b5060405162000e9838038062000e98833981810160405281019062000036919062000320565b3360025f6101000a81548173ffffffffffffffffffffffffffffffffffffffff021916908373ffffffffffffffffffffffffffffffffffffffff1602179055506001805f60025f9054906101000a900473ffffffffffffffffffffffffffffffffffffffff1673ffffffffffffffffffffffffffffffffffffffff1673ffffffffffffffffffffffffffffffffffffffff1681526020019081526020015f20600201819055505f5b815181101562000163575f60405180604001604052808484815181106200010a57620001096200036f565b5b602002602001015181526020015f815250908060018154018082558091505060019003905f5260205f2090600202015f909190919091505f820151815f01556020820151816001015550508080600101915050620000de565b50506200039c565b5f604051905090565b5f80fd5b5f80fd5b5f80fd5b5f601f19601f8301169050919050565b7f4e487b71000000000000000000000000000000000000000000000000000000005f52604160045260245ffd5b620001c88262000180565b810181811067ffffffffffffffff82111715620001ea57620001e962000190565b5b80604052505050565b5f620001fe6200016b565b90506200020c8282620001bd565b919050565b5f67ffffffffffffffff8211156200022e576200022d62000190565b5b602082029050602081019050919050565b5f80fd5b5f819050919050565b620002578162000243565b811462000262575f80fd5b50565b5f8151905062000275816200024c565b92915050565b5f620002916200028b8462000211565b620001f3565b90508083825260208201905060208402830185811115620002b757620002b66200023f565b5b835b81811015620002e45780620002cf888262000265565b845260208401935050602081019050620002b9565b5050509392505050565b5f82601f8301126200030557620003046200017c565b5b8151620003178482602086016200027b565b91505092915050565b5f6020828403121562000338576200033762000174565b5b5f82015167ffffffffffffffff81111562000358576200035762000178565b5b6200036684828501620002ee565b91505092915050565b7f4e487b71000000000000000000000000000000000000000000000000000000005f52603260045260245ffd5b610aee80620003aa5f395ff3fe608060405234801561000f575f80fd5b506004361061007b575f3560e01c8063609ff1bd11610059578063609ff1bd146100ea5780639e7b8d6114610108578063a3ec138d14610124578063d4d4b5ac146101565761007b565b80630121b93f1461007f578063013cf08b1461009b5780631f9ff6d7146100cc575b5f80fd5b61009960048036038101906100949190610646565b610174565b005b6100b560048036038101906100b09190610646565b6102fd565b6040516100c3929190610698565b60405180910390f35b6100d461032b565b6040516100e191906106bf565b60405180910390f35b6100f261035a565b6040516100ff91906106d8565b60405180910390f35b610122600480360381019061011d919061074b565b6103d2565b005b61013e6004803603810190610139919061074b565b6105b8565b60405161014d93929190610790565b60405180910390f35b61015e6105ea565b60405161016b91906107d4565b60405180910390f35b5f60015f3373ffffffffffffffffffffffffffffffffffffffff1673ffffffffffffffffffffffffffffffffffffffff1681526020019081526020015f2090505f8160020154036101fa576040517f08c379a00000000000000000000000000000000000000000000000000000000081526004016101f190610847565b60405180910390fd5b806001015f9054906101000a900460ff161561024b576040517f08c379a0000000000000000000000000000000000000000000000000000000008152600401610242906108af565b60405180910390fd5b6001816001015f6101000a81548160ff02191690831515021790555081815f018190555080600201545f8381548110610287576102866108cd565b5b905f5260205f2090600202016001015f8282546102a49190610927565b925050819055503373ffffffffffffffffffffffffffffffffffffffff167fd0e6c39f2e086dc49f1524b47725526a56945cd1ff661f37976f1725a1e56986836040516102f191906106d8565b60405180910390a25050565b5f818154811061030b575f80fd5b905f5260205f2090600202015f91509050805f0154908060010154905082565b5f8061033561035a565b81548110610346576103456108cd565b5b905f5260205f2090600202015f0154905090565b5f805f90505f5b5f805490508110156103cd57815f8281548110610381576103806108cd565b5b905f5260205f2090600202016001015411156103c0575f81815481106103aa576103a96108cd565b5b905f5260205f2090600202016001015491508092505b8080600101915050610361565b505090565b60025f9054906101000a900473ffffffffffffffffffffffffffffffffffffffff1673ffffffffffffffffffffffffffffffffffffffff163373ffffffffffffffffffffffffffffffffffffffff1614610461576040517f08c379a0000000000000000000000000000000000000000000000000000000008152600401610458906109ca565b60405180910390fd5b60015f8273ffffffffffffffffffffffffffffffffffffffff1673ffffffffffffffffffffffffffffffffffffffff1681526020019081526020015f206001015f9054906101000a900460ff16156104ee576040517f08c379a00000000000000000000000000000000000000000000000000000000081526004016104e590610a32565b60405180910390fd5b5f60015f8373ffffffffffffffffffffffffffffffffffffffff1673ffffffffffffffffffffffffffffffffffffffff1681526020019081526020015f206002015414610570576040517f08c379a000000000000000000000000000000000000000000000000000000000815260040161056790610a9a565b60405180910390fd5b6001805f8373ffffffffffffffffffffffffffffffffffffffff1673ffffffffffffffffffffffffffffffffffffffff1681526020019081526020015f206002018190555050565b6001602052805f5260405f205f91509050805f015490806001015f9054906101000a900460ff16908060020154905083565b60025f9054906101000a900473ffffffffffffffffffffffffffffffffffffffff1681565b5f80fd5b5f819050919050565b61062581610613565b811461062f575f80fd5b50565b5f813590506106408161061c565b92915050565b5f6020828403121561065b5761065a61060f565b5b5f61066884828501610632565b91505092915050565b5f819050919050565b61068381610671565b82525050565b61069281610613565b82525050565b5f6040820190506106ab5f83018561067a565b6106b86020830184610689565b9392505050565b5f6020820190506106d25f83018461067a565b92915050565b5f6020820190506106eb5f830184610689565b92915050565b5f73ffffffffffffffffffffffffffffffffffffffff82169050919050565b5f61071a826106f1565b9050919050565b61072a81610710565b8114610734575f80fd5b50565b5f8135905061074581610721565b92915050565b5f602082840312156107605761075f61060f565b5b5f61076d84828501610737565b91505092915050565b5f8115159050919050565b61078a81610776565b82525050565b5f6060820190506107a35f830186610689565b6107b06020830185610781565b6107bd6040830184610689565b949350505050565b6107ce81610710565b82525050565b5f6020820190506107e75f8301846107c5565b92915050565b5f82825260208201905092915050565b7f53656e64657220686173206e6f20726967687420746f20766f746500000000005f82015250565b5f610831601b836107ed565b915061083c826107fd565b602082019050919050565b5f6020820190508181035f83015261085e81610825565b9050919050565b7f53656e64657220616c726561647920766f7465640000000000000000000000005f82015250565b5f6108996014836107ed565b91506108a482610865565b602082019050919050565b5f6020820190508181035f8301526108c68161088d565b9050919050565b7f4e487b71000000000000000000000000000000000000000000000000000000005f52603260045260245ffd5b7f4e487b71000000000000000000000000000000000000000000000000000000005f52601160045260245ffd5b5f61093182610613565b915061093c83610613565b9250828201905080821115610954576109536108fa565b5b92915050565b7f4f6e6c7920746865204368616972506572736f6e2063616e20706572666f726d5f8201527f207468697320616374696f6e0000000000000000000000000000000000000000602082015250565b5f6109b4602c836107ed565b91506109bf8261095a565b604082019050919050565b5f6020820190508181035f8301526109e1816109a8565b9050919050565b7f54686520766f7465722068617320616c726561647920766f74656400000000005f82015250565b5f610a1c601b836107ed565b9150610a27826109e8565b602082019050919050565b5f6020820190508181035f830152610a4981610a10565b9050919050565b7f566f74657220616c72656164792068617320766f74696e6720726967687473005f82015250565b5f610a84601f836107ed565b9150610a8f82610a50565b602082019050919050565b5f6020820190508181035f830152610ab181610a78565b905091905056fea264697066735822122084309c9ba1eef1a50704e42441a7454757bec930323866d8bdd2f24f16b7305764736f6c63430008180033",
			"opcodes": "PUSH1 0x80 PUSH1 0x40 MSTORE CALLVALUE DUP1 ISZERO PUSH3 0x10 JUMPI PUSH0 DUP1 REVERT JUMPDEST POP PUSH1 0x40 MLOAD PUSH3 0xE98 CODESIZE SUB DUP1 PUSH3 0xE98 DUP4 CODECOPY DUP2 DUP2 ADD PUSH1 0x40 MSTORE DUP2 ADD SWAP1 PUSH3 0x36 SWAP2 SWAP1 PUSH3 0x320 JUMP JUMPDEST CALLER PUSH1 0x2 PUSH0 PUSH2 0x100 EXP DUP2 SLOAD DUP2 PUSH20 0xFFFFFFFFFFFFFFFFFFFFFFFFFFFFFFFFFFFFFFFF MUL NOT AND SWAP1 DUP4 PUSH20 0xFFFFFFFFFFFFFFFFFFFFFFFFFFFFFFFFFFFFFFFF AND MUL OR SWAP1 SSTORE POP PUSH1 0x1 DUP1 PUSH0 PUSH1 0x2 PUSH0 SWAP1 SLOAD SWAP1 PUSH2 0x100 EXP SWAP1 DIV PUSH20 0xFFFFFFFFFFFFFFFFFFFFFFFFFFFFFFFFFFFFFFFF AND PUSH20 0xFFFFFFFFFFFFFFFFFFFFFFFFFFFFFFFFFFFFFFFF AND PUSH20 0xFFFFFFFFFFFFFFFFFFFFFFFFFFFFFFFFFFFFFFFF AND DUP2 MSTORE PUSH1 0x20 ADD SWAP1 DUP2 MSTORE PUSH1 0x20 ADD PUSH0 KECCAK256 PUSH1 0x2 ADD DUP2 SWAP1 SSTORE POP PUSH0 JUMPDEST DUP2 MLOAD DUP2 LT ISZERO PUSH3 0x163 JUMPI PUSH0 PUSH1 0x40 MLOAD DUP1 PUSH1 0x40 ADD PUSH1 0x40 MSTORE DUP1 DUP5 DUP5 DUP2 MLOAD DUP2 LT PUSH3 0x10A JUMPI PUSH3 0x109 PUSH3 0x36F JUMP JUMPDEST JUMPDEST PUSH1 0x20 MUL PUSH1 0x20 ADD ADD MLOAD DUP2 MSTORE PUSH1 0x20 ADD PUSH0 DUP2 MSTORE POP SWAP1 DUP1 PUSH1 0x1 DUP2 SLOAD ADD DUP1 DUP3 SSTORE DUP1 SWAP2 POP POP PUSH1 0x1 SWAP1 SUB SWAP1 PUSH0 MSTORE PUSH1 0x20 PUSH0 KECCAK256 SWAP1 PUSH1 0x2 MUL ADD PUSH0 SWAP1 SWAP2 SWAP1 SWAP2 SWAP1 SWAP2 POP PUSH0 DUP3 ADD MLOAD DUP2 PUSH0 ADD SSTORE PUSH1 0x20 DUP3 ADD MLOAD DUP2 PUSH1 0x1 ADD SSTORE POP POP DUP1 DUP1 PUSH1 0x1 ADD SWAP2 POP POP PUSH3 0xDE JUMP JUMPDEST POP POP PUSH3 0x39C JUMP JUMPDEST PUSH0 PUSH1 0x40 MLOAD SWAP1 POP SWAP1 JUMP JUMPDEST PUSH0 DUP1 REVERT JUMPDEST PUSH0 DUP1 REVERT JUMPDEST PUSH0 DUP1 REVERT JUMPDEST PUSH0 PUSH1 0x1F NOT PUSH1 0x1F DUP4 ADD AND SWAP1 POP SWAP2 SWAP1 POP JUMP JUMPDEST PUSH32 0x4E487B7100000000000000000000000000000000000000000000000000000000 PUSH0 MSTORE PUSH1 0x41 PUSH1 0x4 MSTORE PUSH1 0x24 PUSH0 REVERT JUMPDEST PUSH3 0x1C8 DUP3 PUSH3 0x180 JUMP JUMPDEST DUP2 ADD DUP2 DUP2 LT PUSH8 0xFFFFFFFFFFFFFFFF DUP3 GT OR ISZERO PUSH3 0x1EA JUMPI PUSH3 0x1E9 PUSH3 0x190 JUMP JUMPDEST JUMPDEST DUP1 PUSH1 0x40 MSTORE POP POP POP JUMP JUMPDEST PUSH0 PUSH3 0x1FE PUSH3 0x16B JUMP JUMPDEST SWAP1 POP PUSH3 0x20C DUP3 DUP3 PUSH3 0x1BD JUMP JUMPDEST SWAP2 SWAP1 POP JUMP JUMPDEST PUSH0 PUSH8 0xFFFFFFFFFFFFFFFF DUP3 GT ISZERO PUSH3 0x22E JUMPI PUSH3 0x22D PUSH3 0x190 JUMP JUMPDEST JUMPDEST PUSH1 0x20 DUP3 MUL SWAP1 POP PUSH1 0x20 DUP2 ADD SWAP1 POP SWAP2 SWAP1 POP JUMP JUMPDEST PUSH0 DUP1 REVERT JUMPDEST PUSH0 DUP2 SWAP1 POP SWAP2 SWAP1 POP JUMP JUMPDEST PUSH3 0x257 DUP2 PUSH3 0x243 JUMP JUMPDEST DUP2 EQ PUSH3 0x262 JUMPI PUSH0 DUP1 REVERT JUMPDEST POP JUMP JUMPDEST PUSH0 DUP2 MLOAD SWAP1 POP PUSH3 0x275 DUP2 PUSH3 0x24C JUMP JUMPDEST SWAP3 SWAP2 POP POP JUMP JUMPDEST PUSH0 PUSH3 0x291 PUSH3 0x28B DUP5 PUSH3 0x211 JUMP JUMPDEST PUSH3 0x1F3 JUMP JUMPDEST SWAP1 POP DUP1 DUP4 DUP3 MSTORE PUSH1 0x20 DUP3 ADD SWAP1 POP PUSH1 0x20 DUP5 MUL DUP4 ADD DUP6 DUP2 GT ISZERO PUSH3 0x2B7 JUMPI PUSH3 0x2B6 PUSH3 0x23F JUMP JUMPDEST JUMPDEST DUP4 JUMPDEST DUP2 DUP2 LT ISZERO PUSH3 0x2E4 JUMPI DUP1 PUSH3 0x2CF DUP9 DUP3 PUSH3 0x265 JUMP JUMPDEST DUP5 MSTORE PUSH1 0x20 DUP5 ADD SWAP4 POP POP PUSH1 0x20 DUP2 ADD SWAP1 POP PUSH3 0x2B9 JUMP JUMPDEST POP POP POP SWAP4 SWAP3 POP POP POP JUMP JUMPDEST PUSH0 DUP3 PUSH1 0x1F DUP4 ADD SLT PUSH3 0x305 JUMPI PUSH3 0x304 PUSH3 0x17C JUMP JUMPDEST JUMPDEST DUP2 MLOAD PUSH3 0x317 DUP5 DUP3 PUSH1 0x20 DUP7 ADD PUSH3 0x27B JUMP JUMPDEST SWAP2 POP POP SWAP3 SWAP2 POP POP JUMP JUMPDEST PUSH0 PUSH1 0x20 DUP3 DUP5 SUB SLT ISZERO PUSH3 0x338 JUMPI PUSH3 0x337 PUSH3 0x174 JUMP JUMPDEST JUMPDEST PUSH0 DUP3 ADD MLOAD PUSH8 0xFFFFFFFFFFFFFFFF DUP2 GT ISZERO PUSH3 0x358 JUMPI PUSH3 0x357 PUSH3 0x178 JUMP JUMPDEST JUMPDEST PUSH3 0x366 DUP5 DUP3 DUP6 ADD PUSH3 0x2EE JUMP JUMPDEST SWAP2 POP POP SWAP3 SWAP2 POP POP JUMP JUMPDEST PUSH32 0x4E487B7100000000000000000000000000000000000000000000000000000000 PUSH0 MSTORE PUSH1 0x32 PUSH1 0x4 MSTORE PUSH1 0x24 PUSH0 REVERT JUMPDEST PUSH2 0xAEE DUP1 PUSH3 0x3AA PUSH0 CODECOPY PUSH0 RETURN INVALID PUSH1 0x80 PUSH1 0x40 MSTORE CALLVALUE DUP1 ISZERO PUSH2 0xF JUMPI PUSH0 DUP1 REVERT JUMPDEST POP PUSH1 0x4 CALLDATASIZE LT PUSH2 0x7B JUMPI PUSH0 CALLDATALOAD PUSH1 0xE0 SHR DUP1 PUSH4 0x609FF1BD GT PUSH2 0x59 JUMPI DUP1 PUSH4 0x609FF1BD EQ PUSH2 0xEA JUMPI DUP1 PUSH4 0x9E7B8D61 EQ PUSH2 0x108 JUMPI DUP1 PUSH4 0xA3EC138D EQ PUSH2 0x124 JUMPI DUP1 PUSH4 0xD4D4B5AC EQ PUSH2 0x156 JUMPI PUSH2 0x7B JUMP JUMPDEST DUP1 PUSH4 0x121B93F EQ PUSH2 0x7F JUMPI DUP1 PUSH4 0x13CF08B EQ PUSH2 0x9B JUMPI DUP1 PUSH4 0x1F9FF6D7 EQ PUSH2 0xCC JUMPI JUMPDEST PUSH0 DUP1 REVERT JUMPDEST PUSH2 0x99 PUSH1 0x4 DUP1 CALLDATASIZE SUB DUP2 ADD SWAP1 PUSH2 0x94 SWAP2 SWAP1 PUSH2 0x646 JUMP JUMPDEST PUSH2 0x174 JUMP JUMPDEST STOP JUMPDEST PUSH2 0xB5 PUSH1 0x4 DUP1 CALLDATASIZE SUB DUP2 ADD SWAP1 PUSH2 0xB0 SWAP2 SWAP1 PUSH2 0x646 JUMP JUMPDEST PUSH2 0x2FD JUMP JUMPDEST PUSH1 0x40 MLOAD PUSH2 0xC3 SWAP3 SWAP2 SWAP1 PUSH2 0x698 JUMP JUMPDEST PUSH1 0x40 MLOAD DUP1 SWAP2 SUB SWAP1 RETURN JUMPDEST PUSH2 0xD4 PUSH2 0x32B JUMP JUMPDEST PUSH1 0x40 MLOAD PUSH2 0xE1 SWAP2 SWAP1 PUSH2 0x6BF JUMP JUMPDEST PUSH1 0x40 MLOAD DUP1 SWAP2 SUB SWAP1 RETURN JUMPDEST PUSH2 0xF2 PUSH2 0x35A JUMP JUMPDEST PUSH1 0x40 MLOAD PUSH2 0xFF SWAP2 SWAP1 PUSH2 0x6D8 JUMP JUMPDEST PUSH1 0x40 MLOAD DUP1 SWAP2 SUB SWAP1 RETURN JUMPDEST PUSH2 0x122 PUSH1 0x4 DUP1 CALLDATASIZE SUB DUP2 ADD SWAP1 PUSH2 0x11D SWAP2 SWAP1 PUSH2 0x74B JUMP JUMPDEST PUSH2 0x3D2 JUMP JUMPDEST STOP JUMPDEST PUSH2 0x13E PUSH1 0x4 DUP1 CALLDATASIZE SUB DUP2 ADD SWAP1 PUSH2 0x139 SWAP2 SWAP1 PUSH2 0x74B JUMP JUMPDEST PUSH2 0x5B8 JUMP JUMPDEST PUSH1 0x40 MLOAD PUSH2 0x14D SWAP4 SWAP3 SWAP2 SWAP1 PUSH2 0x790 JUMP JUMPDEST PUSH1 0x40 MLOAD DUP1 SWAP2 SUB SWAP1 RETURN JUMPDEST PUSH2 0x15E PUSH2 0x5EA JUMP JUMPDEST PUSH1 0x40 MLOAD PUSH2 0x16B SWAP2 SWAP1 PUSH2 0x7D4 JUMP JUMPDEST PUSH1 0x40 MLOAD DUP1 SWAP2 SUB SWAP1 RETURN JUMPDEST PUSH0 PUSH1 0x1 PUSH0 CALLER PUSH20 0xFFFFFFFFFFFFFFFFFFFFFFFFFFFFFFFFFFFFFFFF AND PUSH20 0xFFFFFFFFFFFFFFFFFFFFFFFFFFFFFFFFFFFFFFFF AND DUP2 MSTORE PUSH1 0x20 ADD SWAP1 DUP2 MSTORE PUSH1 0x20 ADD PUSH0 KECCAK256 SWAP1 POP PUSH0 DUP2 PUSH1 0x2 ADD SLOAD SUB PUSH2 0x1FA JUMPI PUSH1 0x40 MLOAD PUSH32 0x8C379A000000000000000000000000000000000000000000000000000000000 DUP2 MSTORE PUSH1 0x4 ADD PUSH2 0x1F1 SWAP1 PUSH2 0x847 JUMP JUMPDEST PUSH1 0x40 MLOAD DUP1 SWAP2 SUB SWAP1 REVERT JUMPDEST DUP1 PUSH1 0x1 ADD PUSH0 SWAP1 SLOAD SWAP1 PUSH2 0x100 EXP SWAP1 DIV PUSH1 0xFF AND ISZERO PUSH2 0x24B JUMPI PUSH1 0x40 MLOAD PUSH32 0x8C379A000000000000000000000000000000000000000000000000000000000 DUP2 MSTORE PUSH1 0x4 ADD PUSH2 0x242 SWAP1 PUSH2 0x8AF JUMP JUMPDEST PUSH1 0x40 MLOAD DUP1 SWAP2 SUB SWAP1 REVERT JUMPDEST PUSH1 0x1 DUP2 PUSH1 0x1 ADD PUSH0 PUSH2 0x100 EXP DUP2 SLOAD DUP2 PUSH1 0xFF MUL NOT AND SWAP1 DUP4 ISZERO ISZERO MUL OR SWAP1 SSTORE POP DUP2 DUP2 PUSH0 ADD DUP2 SWAP1 SSTORE POP DUP1 PUSH1 0x2 ADD SLOAD PUSH0 DUP4 DUP2 SLOAD DUP2 LT PUSH2 0x287 JUMPI PUSH2 0x286 PUSH2 0x8CD JUMP JUMPDEST JUMPDEST SWAP1 PUSH0 MSTORE PUSH1 0x20 PUSH0 KECCAK256 SWAP1 PUSH1 0x2 MUL ADD PUSH1 0x1 ADD PUSH0 DUP3 DUP3 SLOAD PUSH2 0x2A4 SWAP2 SWAP1 PUSH2 0x927 JUMP JUMPDEST SWAP3 POP POP DUP2 SWAP1 SSTORE POP CALLER PUSH20 0xFFFFFFFFFFFFFFFFFFFFFFFFFFFFFFFFFFFFFFFF AND PUSH32 0xD0E6C39F2E086DC49F1524B47725526A56945CD1FF661F37976F1725A1E56986 DUP4 PUSH1 0x40 MLOAD PUSH2 0x2F1 SWAP2 SWAP1 PUSH2 0x6D8 JUMP JUMPDEST PUSH1 0x40 MLOAD DUP1 SWAP2 SUB SWAP1 LOG2 POP POP JUMP JUMPDEST PUSH0 DUP2 DUP2 SLOAD DUP2 LT PUSH2 0x30B JUMPI PUSH0 DUP1 REVERT JUMPDEST SWAP1 PUSH0 MSTORE PUSH1 0x20 PUSH0 KECCAK256 SWAP1 PUSH1 0x2 MUL ADD PUSH0 SWAP2 POP SWAP1 POP DUP1 PUSH0 ADD SLOAD SWAP1 DUP1 PUSH1 0x1 ADD SLOAD SWAP1 POP DUP3 JUMP JUMPDEST PUSH0 DUP1 PUSH2 0x335 PUSH2 0x35A JUMP JUMPDEST DUP2 SLOAD DUP2 LT PUSH2 0x346 JUMPI PUSH2 0x345 PUSH2 0x8CD JUMP JUMPDEST JUMPDEST SWAP1 PUSH0 MSTORE PUSH1 0x20 PUSH0 KECCAK256 SWAP1 PUSH1 0x2 MUL ADD PUSH0 ADD SLOAD SWAP1 POP SWAP1 JUMP JUMPDEST PUSH0 DUP1 PUSH0 SWAP1 POP PUSH0 JUMPDEST PUSH0 DUP1 SLOAD SWAP1 POP DUP2 LT ISZERO PUSH2 0x3CD JUMPI DUP2 PUSH0 DUP3 DUP2 SLOAD DUP2 LT PUSH2 0x381 JUMPI PUSH2 0x380 PUSH2 0x8CD JUMP JUMPDEST JUMPDEST SWAP1 PUSH0 MSTORE PUSH1 0x20 PUSH0 KECCAK256 SWAP1 PUSH1 0x2 MUL ADD PUSH1 0x1 ADD SLOAD GT ISZERO PUSH2 0x3C0 JUMPI PUSH0 DUP2 DUP2 SLOAD DUP2 LT PUSH2 0x3AA JUMPI PUSH2 0x3A9 PUSH2 0x8CD JUMP JUMPDEST JUMPDEST SWAP1 PUSH0 MSTORE PUSH1 0x20 PUSH0 KECCAK256 SWAP1 PUSH1 0x2 MUL ADD PUSH1 0x1 ADD SLOAD SWAP2 POP DUP1 SWAP3 POP JUMPDEST DUP1 DUP1 PUSH1 0x1 ADD SWAP2 POP POP PUSH2 0x361 JUMP JUMPDEST POP POP SWAP1 JUMP JUMPDEST PUSH1 0x2 PUSH0 SWAP1 SLOAD SWAP1 PUSH2 0x100 EXP SWAP1 DIV PUSH20 0xFFFFFFFFFFFFFFFFFFFFFFFFFFFFFFFFFFFFFFFF AND PUSH20 0xFFFFFFFFFFFFFFFFFFFFFFFFFFFFFFFFFFFFFFFF AND CALLER PUSH20 0xFFFFFFFFFFFFFFFFFFFFFFFFFFFFFFFFFFFFFFFF AND EQ PUSH2 0x461 JUMPI PUSH1 0x40 MLOAD PUSH32 0x8C379A000000000000000000000000000000000000000000000000000000000 DUP2 MSTORE PUSH1 0x4 ADD PUSH2 0x458 SWAP1 PUSH2 0x9CA JUMP JUMPDEST PUSH1 0x40 MLOAD DUP1 SWAP2 SUB SWAP1 REVERT JUMPDEST PUSH1 0x1 PUSH0 DUP3 PUSH20 0xFFFFFFFFFFFFFFFFFFFFFFFFFFFFFFFFFFFFFFFF AND PUSH20 0xFFFFFFFFFFFFFFFFFFFFFFFFFFFFFFFFFFFFFFFF AND DUP2 MSTORE PUSH1 0x20 ADD SWAP1 DUP2 MSTORE PUSH1 0x20 ADD PUSH0 KECCAK256 PUSH1 0x1 ADD PUSH0 SWAP1 SLOAD SWAP1 PUSH2 0x100 EXP SWAP1 DIV PUSH1 0xFF AND ISZERO PUSH2 0x4EE JUMPI PUSH1 0x40 MLOAD PUSH32 0x8C379A000000000000000000000000000000000000000000000000000000000 DUP2 MSTORE PUSH1 0x4 ADD PUSH2 0x4E5 SWAP1 PUSH2 0xA32 JUMP JUMPDEST PUSH1 0x40 MLOAD DUP1 SWAP2 SUB SWAP1 REVERT JUMPDEST PUSH0 PUSH1 0x1 PUSH0 DUP4 PUSH20 0xFFFFFFFFFFFFFFFFFFFFFFFFFFFFFFFFFFFFFFFF AND PUSH20 0xFFFFFFFFFFFFFFFFFFFFFFFFFFFFFFFFFFFFFFFF AND DUP2 MSTORE PUSH1 0x20 ADD SWAP1 DUP2 MSTORE PUSH1 0x20 ADD PUSH0 KECCAK256 PUSH1 0x2 ADD SLOAD EQ PUSH2 0x570 JUMPI PUSH1 0x40 MLOAD PUSH32 0x8C379A000000000000000000000000000000000000000000000000000000000 DUP2 MSTORE PUSH1 0x4 ADD PUSH2 0x567 SWAP1 PUSH2 0xA9A JUMP JUMPDEST PUSH1 0x40 MLOAD DUP1 SWAP2 SUB SWAP1 REVERT JUMPDEST PUSH1 0x1 DUP1 PUSH0 DUP4 PUSH20 0xFFFFFFFFFFFFFFFFFFFFFFFFFFFFFFFFFFFFFFFF AND PUSH20 0xFFFFFFFFFFFFFFFFFFFFFFFFFFFFFFFFFFFFFFFF AND DUP2 MSTORE PUSH1 0x20 ADD SWAP1 DUP2 MSTORE PUSH1 0x20 ADD PUSH0 KECCAK256 PUSH1 0x2 ADD DUP2 SWAP1 SSTORE POP POP JUMP JUMPDEST PUSH1 0x1 PUSH1 0x20 MSTORE DUP1 PUSH0 MSTORE PUSH1 0x40 PUSH0 KECCAK256 PUSH0 SWAP2 POP SWAP1 POP DUP1 PUSH0 ADD SLOAD SWAP1 DUP1 PUSH1 0x1 ADD PUSH0 SWAP1 SLOAD SWAP1 PUSH2 0x100 EXP SWAP1 DIV PUSH1 0xFF AND SWAP1 DUP1 PUSH1 0x2 ADD SLOAD SWAP1 POP DUP4 JUMP JUMPDEST PUSH1 0x2 PUSH0 SWAP1 SLOAD SWAP1 PUSH2 0x100 EXP SWAP1 DIV PUSH20 0xFFFFFFFFFFFFFFFFFFFFFFFFFFFFFFFFFFFFFFFF AND DUP2 JUMP JUMPDEST PUSH0 DUP1 REVERT JUMPDEST PUSH0 DUP2 SWAP1 POP SWAP2 SWAP1 POP JUMP JUMPDEST PUSH2 0x625 DUP2 PUSH2 0x613 JUMP JUMPDEST DUP2 EQ PUSH2 0x62F JUMPI PUSH0 DUP1 REVERT JUMPDEST POP JUMP JUMPDEST PUSH0 DUP2 CALLDATALOAD SWAP1 POP PUSH2 0x640 DUP2 PUSH2 0x61C JUMP JUMPDEST SWAP3 SWAP2 POP POP JUMP JUMPDEST PUSH0 PUSH1 0x20 DUP3 DUP5 SUB SLT ISZERO PUSH2 0x65B JUMPI PUSH2 0x65A PUSH2 0x60F JUMP JUMPDEST JUMPDEST PUSH0 PUSH2 0x668 DUP5 DUP3 DUP6 ADD PUSH2 0x632 JUMP JUMPDEST SWAP2 POP POP SWAP3 SWAP2 POP POP JUMP JUMPDEST PUSH0 DUP2 SWAP1 POP SWAP2 SWAP1 POP JUMP JUMPDEST PUSH2 0x683 DUP2 PUSH2 0x671 JUMP JUMPDEST DUP3 MSTORE POP POP JUMP JUMPDEST PUSH2 0x692 DUP2 PUSH2 0x613 JUMP JUMPDEST DUP3 MSTORE POP POP JUMP JUMPDEST PUSH0 PUSH1 0x40 DUP3 ADD SWAP1 POP PUSH2 0x6AB PUSH0 DUP4 ADD DUP6 PUSH2 0x67A JUMP JUMPDEST PUSH2 0x6B8 PUSH1 0x20 DUP4 ADD DUP5 PUSH2 0x689 JUMP JUMPDEST SWAP4 SWAP3 POP POP POP JUMP JUMPDEST PUSH0 PUSH1 0x20 DUP3 ADD SWAP1 POP PUSH2 0x6D2 PUSH0 DUP4 ADD DUP5 PUSH2 0x67A JUMP JUMPDEST SWAP3 SWAP2 POP POP JUMP JUMPDEST PUSH0 PUSH1 0x20 DUP3 ADD SWAP1 POP PUSH2 0x6EB PUSH0 DUP4 ADD DUP5 PUSH2 0x689 JUMP JUMPDEST SWAP3 SWAP2 POP POP JUMP JUMPDEST PUSH0 PUSH20 0xFFFFFFFFFFFFFFFFFFFFFFFFFFFFFFFFFFFFFFFF DUP3 AND SWAP1 POP SWAP2 SWAP1 POP JUMP JUMPDEST PUSH0 PUSH2 0x71A DUP3 PUSH2 0x6F1 JUMP JUMPDEST SWAP1 POP SWAP2 SWAP1 POP JUMP JUMPDEST PUSH2 0x72A DUP2 PUSH2 0x710 JUMP JUMPDEST DUP2 EQ PUSH2 0x734 JUMPI PUSH0 DUP1 REVERT JUMPDEST POP JUMP JUMPDEST PUSH0 DUP2 CALLDATALOAD SWAP1 POP PUSH2 0x745 DUP2 PUSH2 0x721 JUMP JUMPDEST SWAP3 SWAP2 POP POP JUMP JUMPDEST PUSH0 PUSH1 0x20 DUP3 DUP5 SUB SLT ISZERO PUSH2 0x760 JUMPI PUSH2 0x75F PUSH2 0x60F JUMP JUMPDEST JUMPDEST PUSH0 PUSH2 0x76D DUP5 DUP3 DUP6 ADD PUSH2 0x737 JUMP JUMPDEST SWAP2 POP POP SWAP3 SWAP2 POP POP JUMP JUMPDEST PUSH0 DUP2 ISZERO ISZERO SWAP1 POP SWAP2 SWAP1 POP JUMP JUMPDEST PUSH2 0x78A DUP2 PUSH2 0x776 JUMP JUMPDEST DUP3 MSTORE POP POP JUMP JUMPDEST PUSH0 PUSH1 0x60 DUP3 ADD SWAP1 POP PUSH2 0x7A3 PUSH0 DUP4 ADD DUP7 PUSH2 0x689 JUMP JUMPDEST PUSH2 0x7B0 PUSH1 0x20 DUP4 ADD DUP6 PUSH2 0x781 JUMP JUMPDEST PUSH2 0x7BD PUSH1 0x40 DUP4 ADD DUP5 PUSH2 0x689 JUMP JUMPDEST SWAP5 SWAP4 POP POP POP POP JUMP JUMPDEST PUSH2 0x7CE DUP2 PUSH2 0x710 JUMP JUMPDEST DUP3 MSTORE POP POP JUMP JUMPDEST PUSH0 PUSH1 0x20 DUP3 ADD SWAP1 POP PUSH2 0x7E7 PUSH0 DUP4 ADD DUP5 PUSH2 0x7C5 JUMP JUMPDEST SWAP3 SWAP2 POP POP JUMP JUMPDEST PUSH0 DUP3 DUP3 MSTORE PUSH1 0x20 DUP3 ADD SWAP1 POP SWAP3 SWAP2 POP POP JUMP JUMPDEST PUSH32 0x53656E64657220686173206E6F20726967687420746F20766F74650000000000 PUSH0 DUP3 ADD MSTORE POP JUMP JUMPDEST PUSH0 PUSH2 0x831 PUSH1 0x1B DUP4 PUSH2 0x7ED JUMP JUMPDEST SWAP2 POP PUSH2 0x83C DUP3 PUSH2 0x7FD JUMP JUMPDEST PUSH1 0x20 DUP3 ADD SWAP1 POP SWAP2 SWAP1 POP JUMP JUMPDEST PUSH0 PUSH1 0x20 DUP3 ADD SWAP1 POP DUP2 DUP2 SUB PUSH0 DUP4 ADD MSTORE PUSH2 0x85E DUP2 PUSH2 0x825 JUMP JUMPDEST SWAP1 POP SWAP2 SWAP1 POP JUMP JUMPDEST PUSH32 0x53656E64657220616C726561647920766F746564000000000000000000000000 PUSH0 DUP3 ADD MSTORE POP JUMP JUMPDEST PUSH0 PUSH2 0x899 PUSH1 0x14 DUP4 PUSH2 0x7ED JUMP JUMPDEST SWAP2 POP PUSH2 0x8A4 DUP3 PUSH2 0x865 JUMP JUMPDEST PUSH1 0x20 DUP3 ADD SWAP1 POP SWAP2 SWAP1 POP JUMP JUMPDEST PUSH0 PUSH1 0x20 DUP3 ADD SWAP1 POP DUP2 DUP2 SUB PUSH0 DUP4 ADD MSTORE PUSH2 0x8C6 DUP2 PUSH2 0x88D JUMP JUMPDEST SWAP1 POP SWAP2 SWAP1 POP JUMP JUMPDEST PUSH32 0x4E487B7100000000000000000000000000000000000000000000000000000000 PUSH0 MSTORE PUSH1 0x32 PUSH1 0x4 MSTORE PUSH1 0x24 PUSH0 REVERT JUMPDEST PUSH32 0x4E487B7100000000000000000000000000000000000000000000000000000000 PUSH0 MSTORE PUSH1 0x11 PUSH1 0x4 MSTORE PUSH1 0x24 PUSH0 REVERT JUMPDEST PUSH0 PUSH2 0x931 DUP3 PUSH2 0x613 JUMP JUMPDEST SWAP2 POP PUSH2 0x93C DUP4 PUSH2 0x613 JUMP JUMPDEST SWAP3 POP DUP3 DUP3 ADD SWAP1 POP DUP1 DUP3 GT ISZERO PUSH2 0x954 JUMPI PUSH2 0x953 PUSH2 0x8FA JUMP JUMPDEST JUMPDEST SWAP3 SWAP2 POP POP JUMP JUMPDEST PUSH32 0x4F6E6C7920746865204368616972506572736F6E2063616E20706572666F726D PUSH0 DUP3 ADD MSTORE PUSH32 0x207468697320616374696F6E0000000000000000000000000000000000000000 PUSH1 0x20 DUP3 ADD MSTORE POP JUMP JUMPDEST PUSH0 PUSH2 0x9B4 PUSH1 0x2C DUP4 PUSH2 0x7ED JUMP JUMPDEST SWAP2 POP PUSH2 0x9BF DUP3 PUSH2 0x95A JUMP JUMPDEST PUSH1 0x40 DUP3 ADD SWAP1 POP SWAP2 SWAP1 POP JUMP JUMPDEST PUSH0 PUSH1 0x20 DUP3 ADD SWAP1 POP DUP2 DUP2 SUB PUSH0 DUP4 ADD MSTORE PUSH2 0x9E1 DUP2 PUSH2 0x9A8 JUMP JUMPDEST SWAP1 POP SWAP2 SWAP1 POP JUMP JUMPDEST PUSH32 0x54686520766F7465722068617320616C726561647920766F7465640000000000 PUSH0 DUP3 ADD MSTORE POP JUMP JUMPDEST PUSH0 PUSH2 0xA1C PUSH1 0x1B DUP4 PUSH2 0x7ED JUMP JUMPDEST SWAP2 POP PUSH2 0xA27 DUP3 PUSH2 0x9E8 JUMP JUMPDEST PUSH1 0x20 DUP3 ADD SWAP1 POP SWAP2 SWAP1 POP JUMP JUMPDEST PUSH0 PUSH1 0x20 DUP3 ADD SWAP1 POP DUP2 DUP2 SUB PUSH0 DUP4 ADD MSTORE PUSH2 0xA49 DUP2 PUSH2 0xA10 JUMP JUMPDEST SWAP1 POP SWAP2 SWAP1 POP JUMP JUMPDEST PUSH32 0x566F74657220616C72656164792068617320766F74696E672072696768747300 PUSH0 DUP3 ADD MSTORE POP JUMP JUMPDEST PUSH0 PUSH2 0xA84 PUSH1 0x1F DUP4 PUSH2 0x7ED JUMP JUMPDEST SWAP2 POP PUSH2 0xA8F DUP3 PUSH2 0xA50 JUMP JUMPDEST PUSH1 0x20 DUP3 ADD SWAP1 POP SWAP2 SWAP1 POP JUMP JUMPDEST PUSH0 PUSH1 0x20 DUP3 ADD SWAP1 POP DUP2 DUP2 SUB PUSH0 DUP4 ADD MSTORE PUSH2 0xAB1 DUP2 PUSH2 0xA78 JUMP JUMPDEST SWAP1 POP SWAP2 SWAP1 POP JUMP INVALID LOG2 PUSH5 0x6970667358 0x22 SLT KECCAK256 DUP5 ADDRESS SWAP13 SWAP12 LOG1 0xEE CALL 0xA5 SMOD DIV 0xE4 0x24 COINBASE 0xA7 GASLIMIT SELFBALANCE JUMPI 0xBE 0xC9 ADDRESS ORIGIN CODESIZE PUSH7 0xD8BDD2F24F16B7 ADDRESS JUMPI PUSH5 0x736F6C6343 STOP ADDMOD XOR STOP CALLER "
		},
		"gasEstimates": {
			"creation": {
				"codeDepositCost": "559600",
				"executionCost": "infinite",
				"totalCost": "infinite"
			},
			"external": {
				"chairPerson()": "2574",
				"giveRightToVote(address)": "29313",
				"proposals(uint256)": "infinite",
				"vote(uint256)": "infinite",
				"voters(address)": "infinite",
				"winningName()": "infinite",
				"winningProposal()": "infinite"
			}
		},
		"methodIdentifiers": {
			"chairPerson()": "d4d4b5ac",
			"giveRightToVote(address)": "9e7b8d61",
			"proposals(uint256)": "013cf08b",
			"vote(uint256)": "0121b93f",
			"voters(address)": "a3ec138d",
			"winningName()": "1f9ff6d7",
			"winningProposal()": "609ff1bd"
		}
	},
	"abi": [
		{
			"inputs": [
				{
					"internalType": "bytes32[]",
					"name": "proposalNames",
					"type": "bytes32[]"
				}
			],
			"stateMutability": "nonpayable",
			"type": "constructor"
		},
		{
			"anonymous": false,
			"inputs": [
				{
					"indexed": true,
					"internalType": "address",
					"name": "voter",
					"type": "address"
				},
				{
					"indexed": false,
					"internalType": "uint256",
					"name": "proposalIndex",
					"type": "uint256"
				}
			],
			"name": "VoteCasted",
			"type": "event"
		},
		{
			"inputs": [],
			"name": "chairPerson",
			"outputs": [
				{
					"internalType": "address",
					"name": "",
					"type": "address"
				}
			],
			"stateMutability": "view",
			"type": "function"
		},
		{
			"inputs": [
				{
					"internalType": "address",
					"name": "voter",
					"type": "address"
				}
			],
			"name": "giveRightToVote",
			"outputs": [],
			"stateMutability": "nonpayable",
			"type": "function"
		},
		{
			"inputs": [
				{
					"internalType": "uint256",
					"name": "",
					"type": "uint256"
				}
			],
			"name": "proposals",
			"outputs": [
				{
					"internalType": "bytes32",
					"name": "name",
					"type": "bytes32"
				},
				{
					"internalType": "uint256",
					"name": "voteCount",
					"type": "uint256"
				}
			],
			"stateMutability": "view",
			"type": "function"
		},
		{
			"inputs": [
				{
					"internalType": "uint256",
					"name": "proposal",
					"type": "uint256"
				}
			],
			"name": "vote",
			"outputs": [],
			"stateMutability": "nonpayable",
			"type": "function"
		},
		{
			"inputs": [
				{
					"internalType": "address",
					"name": "",
					"type": "address"
				}
			],
			"name": "voters",
			"outputs": [
				{
					"internalType": "uint256",
					"name": "vote",
					"type": "uint256"
				},
				{
					"internalType": "bool",
					"name": "voted",
					"type": "bool"
				},
				{
					"internalType": "uint256",
					"name": "weight",
					"type": "uint256"
				}
			],
			"stateMutability": "view",
			"type": "function"
		},
		{
			"inputs": [],
			"name": "winningName",
			"outputs": [
				{
					"internalType": "bytes32",
					"name": "winningName_",
					"type": "bytes32"
				}
			],
			"stateMutability": "view",
			"type": "function"
		},
		{
			"inputs": [],
			"name": "winningProposal",
			"outputs": [
				{
					"internalType": "uint256",
					"name": "winningProposal_",
					"type": "uint256"
				}
			],
			"stateMutability": "view",
			"type": "function"
		}
	]
}