{
	"data": {
		"bytecode": {
			"linkReferences": {},
			"object": "608060405234801561000f575f80fd5b506104758061001d5f395ff3fe608060405234801561000f575f80fd5b5060043610610029575f3560e01c80638b1885161461002d575b5f80fd5b610035610037565b005b5f60405161004490610131565b604051809103905ff08015801561005d573d5f803e3d5ffd5b5090508073ffffffffffffffffffffffffffffffffffffffff166339c117a46040518163ffffffff1660e01b81526004015f604051808303815f87803b1580156100a5575f80fd5b505af19250505080156100b6575060015b61012d576100c261014a565b806308c379a00361011e57506100d66101e0565b806100e15750610120565b7fdcbe72357183be3854887085e70fd914c4c1733a94106878f48e8ba069d8fabc8160405161011091906102e9565b60405180910390a150610128565b505b3d5f803e3d5ffd5b61012e565b5b50565b6101368061030a83390190565b5f8160e01c9050919050565b5f60033d11156101665760045f803e6101635f5161013e565b90505b90565b5f604051905090565b5f601f19601f8301169050919050565b7f4e487b71000000000000000000000000000000000000000000000000000000005f52604160045260245ffd5b6101b882610172565b810181811067ffffffffffffffff821117156101d7576101d6610182565b5b80604052505050565b5f60443d1061026c576101f1610169565b60043d036004823e80513d602482011167ffffffffffffffff8211171561021957505061026c565b808201805167ffffffffffffffff811115610237575050505061026c565b80602083010160043d03850181111561025457505050505061026c565b610263826020018501866101af565b82955050505050505b90565b5f81519050919050565b5f82825260208201905092915050565b5f5b838110156102a657808201518184015260208101905061028b565b5f8484015250505050565b5f6102bb8261026f565b6102c58185610279565b93506102d5818560208601610289565b6102de81610172565b840191505092915050565b5f6020820190508181035f83015261030181846102b1565b90509291505056fe608060405234801561000f575f80fd5b506101198061001d5f395ff3fe6080604052348015600e575f80fd5b50600436106026575f3560e01c806339c117a414602a575b5f80fd5b60306032565b005b5f606f576040517f08c379a000000000000000000000000000000000000000000000000000000000815260040160669060c7565b60405180910390fd5b565b5f82825260208201905092915050565b7f4572726f72206d657373616765000000000000000000000000000000000000005f82015250565b5f60b3600d836071565b915060bc826081565b602082019050919050565b5f6020820190508181035f83015260dc8160a9565b905091905056fea2646970667358221220f2ae58be986eb156e53964561b8764050c38da3c320771eb91e06d955ebdeec864736f6c63430008180033a26469706673582212202ae4b5548911c1c4a1d97972eb9c8007d87c93b86b0f648a4c66228da3d26d0d64736f6c63430008180033",
			"opcodes": "PUSH1 0x80 PUSH1 0x40 MSTORE CALLVALUE DUP1 ISZERO PUSH2 0xF JUMPI PUSH0 DUP1 REVERT JUMPDEST POP PUSH2 0x475 DUP1 PUSH2 0x1D PUSH0 CODECOPY PUSH0 RETURN INVALID PUSH1 0x80 PUSH1 0x40 MSTORE CALLVALUE DUP1 ISZERO PUSH2 0xF JUMPI PUSH0 DUP1 REVERT JUMPDEST POP PUSH1 0x4 CALLDATASIZE LT PUSH2 0x29 JUMPI PUSH0 CALLDATALOAD PUSH1 0xE0 SHR DUP1 PUSH4 0x8B188516 EQ PUSH2 0x2D JUMPI JUMPDEST PUSH0 DUP1 REVERT JUMPDEST PUSH2 0x35 PUSH2 0x37 JUMP JUMPDEST STOP JUMPDEST PUSH0 PUSH1 0x40 MLOAD PUSH2 0x44 SWAP1 PUSH2 0x131 JUMP JUMPDEST PUSH1 0x40 MLOAD DUP1 SWAP2 SUB SWAP1 PUSH0 CREATE DUP1 ISZERO DUP1 ISZERO PUSH2 0x5D JUMPI RETURNDATASIZE PUSH0 DUP1 RETURNDATACOPY RETURNDATASIZE PUSH0 REVERT JUMPDEST POP SWAP1 POP DUP1 PUSH20 0xFFFFFFFFFFFFFFFFFFFFFFFFFFFFFFFFFFFFFFFF AND PUSH4 0x39C117A4 PUSH1 0x40 MLOAD DUP2 PUSH4 0xFFFFFFFF AND PUSH1 0xE0 SHL DUP2 MSTORE PUSH1 0x4 ADD PUSH0 PUSH1 0x40 MLOAD DUP1 DUP4 SUB DUP2 PUSH0 DUP8 DUP1 EXTCODESIZE ISZERO DUP1 ISZERO PUSH2 0xA5 JUMPI PUSH0 DUP1 REVERT JUMPDEST POP GAS CALL SWAP3 POP POP POP DUP1 ISZERO PUSH2 0xB6 JUMPI POP PUSH1 0x1 JUMPDEST PUSH2 0x12D JUMPI PUSH2 0xC2 PUSH2 0x14A JUMP JUMPDEST DUP1 PUSH4 0x8C379A0 SUB PUSH2 0x11E JUMPI POP PUSH2 0xD6 PUSH2 0x1E0 JUMP JUMPDEST DUP1 PUSH2 0xE1 JUMPI POP PUSH2 0x120 JUMP JUMPDEST PUSH32 0xDCBE72357183BE3854887085E70FD914C4C1733A94106878F48E8BA069D8FABC DUP2 PUSH1 0x40 MLOAD PUSH2 0x110 SWAP2 SWAP1 PUSH2 0x2E9 JUMP JUMPDEST PUSH1 0x40 MLOAD DUP1 SWAP2 SUB SWAP1 LOG1 POP PUSH2 0x128 JUMP JUMPDEST POP JUMPDEST RETURNDATASIZE PUSH0 DUP1 RETURNDATACOPY RETURNDATASIZE PUSH0 REVERT JUMPDEST PUSH2 0x12E JUMP JUMPDEST JUMPDEST POP JUMP JUMPDEST PUSH2 0x136 DUP1 PUSH2 0x30A DUP4 CODECOPY ADD SWAP1 JUMP JUMPDEST PUSH0 DUP2 PUSH1 0xE0 SHR SWAP1 POP SWAP2 SWAP1 POP JUMP JUMPDEST PUSH0 PUSH1 0x3 RETURNDATASIZE GT ISZERO PUSH2 0x166 JUMPI PUSH1 0x4 PUSH0 DUP1 RETURNDATACOPY PUSH2 0x163 PUSH0 MLOAD PUSH2 0x13E JUMP JUMPDEST SWAP1 POP JUMPDEST SWAP1 JUMP JUMPDEST PUSH0 PUSH1 0x40 MLOAD SWAP1 POP SWAP1 JUMP JUMPDEST PUSH0 PUSH1 0x1F NOT PUSH1 0x1F DUP4 ADD AND SWAP1 POP SWAP2 SWAP1 POP JUMP JUMPDEST PUSH32 0x4E487B7100000000000000000000000000000000000000000000000000000000 PUSH0 MSTORE PUSH1 0x41 PUSH1 0x4 MSTORE PUSH1 0x24 PUSH0 REVERT JUMPDEST PUSH2 0x1B8 DUP3 PUSH2 0x172 JUMP JUMPDEST DUP2 ADD DUP2 DUP2 LT PUSH8 0xFFFFFFFFFFFFFFFF DUP3 GT OR ISZERO PUSH2 0x1D7 JUMPI PUSH2 0x1D6 PUSH2 0x182 JUMP JUMPDEST JUMPDEST DUP1 PUSH1 0x40 MSTORE POP POP POP JUMP JUMPDEST PUSH0 PUSH1 0x44 RETURNDATASIZE LT PUSH2 0x26C JUMPI PUSH2 0x1F1 PUSH2 0x169 JUMP JUMPDEST PUSH1 0x4 RETURNDATASIZE SUB PUSH1 0x4 DUP3 RETURNDATACOPY DUP1 MLOAD RETURNDATASIZE PUSH1 0x24 DUP3 ADD GT PUSH8 0xFFFFFFFFFFFFFFFF DUP3 GT OR ISZERO PUSH2 0x219 JUMPI POP POP PUSH2 0x26C JUMP JUMPDEST DUP1 DUP3 ADD DUP1 MLOAD PUSH8 0xFFFFFFFFFFFFFFFF DUP2 GT ISZERO PUSH2 0x237 JUMPI POP POP POP POP PUSH2 0x26C JUMP JUMPDEST DUP1 PUSH1 0x20 DUP4 ADD ADD PUSH1 0x4 RETURNDATASIZE SUB DUP6 ADD DUP2 GT ISZERO PUSH2 0x254 JUMPI POP POP POP POP POP PUSH2 0x26C JUMP JUMPDEST PUSH2 0x263 DUP3 PUSH1 0x20 ADD DUP6 ADD DUP7 PUSH2 0x1AF JUMP JUMPDEST DUP3 SWAP6 POP POP POP POP POP POP JUMPDEST SWAP1 JUMP JUMPDEST PUSH0 DUP2 MLOAD SWAP1 POP SWAP2 SWAP1 POP JUMP JUMPDEST PUSH0 DUP3 DUP3 MSTORE PUSH1 0x20 DUP3 ADD SWAP1 POP SWAP3 SWAP2 POP POP JUMP JUMPDEST PUSH0 JUMPDEST DUP4 DUP2 LT ISZERO PUSH2 0x2A6 JUMPI DUP1 DUP3 ADD MLOAD DUP2 DUP5 ADD MSTORE PUSH1 0x20 DUP2 ADD SWAP1 POP PUSH2 0x28B JUMP JUMPDEST PUSH0 DUP5 DUP5 ADD MSTORE POP POP POP POP JUMP JUMPDEST PUSH0 PUSH2 0x2BB DUP3 PUSH2 0x26F JUMP JUMPDEST PUSH2 0x2C5 DUP2 DUP6 PUSH2 0x279 JUMP JUMPDEST SWAP4 POP PUSH2 0x2D5 DUP2 DUP6 PUSH1 0x20 DUP7 ADD PUSH2 0x289 JUMP JUMPDEST PUSH2 0x2DE DUP2 PUSH2 0x172 JUMP JUMPDEST DUP5 ADD SWAP2 POP POP SWAP3 SWAP2 POP POP JUMP JUMPDEST PUSH0 PUSH1 0x20 DUP3 ADD SWAP1 POP DUP2 DUP2 SUB PUSH0 DUP4 ADD MSTORE PUSH2 0x301 DUP2 DUP5 PUSH2 0x2B1 JUMP JUMPDEST SWAP1 POP SWAP3 SWAP2 POP POP JUMP INVALID PUSH1 0x80 PUSH1 0x40 MSTORE CALLVALUE DUP1 ISZERO PUSH2 0xF JUMPI PUSH0 DUP1 REVERT JUMPDEST POP PUSH2 0x119 DUP1 PUSH2 0x1D PUSH0 CODECOPY PUSH0 RETURN INVALID PUSH1 0x80 PUSH1 0x40 MSTORE CALLVALUE DUP1 ISZERO PUSH1 0xE JUMPI PUSH0 DUP1 REVERT JUMPDEST POP PUSH1 0x4 CALLDATASIZE LT PUSH1 0x26 JUMPI PUSH0 CALLDATALOAD PUSH1 0xE0 SHR DUP1 PUSH4 0x39C117A4 EQ PUSH1 0x2A JUMPI JUMPDEST PUSH0 DUP1 REVERT JUMPDEST PUSH1 0x30 PUSH1 0x32 JUMP JUMPDEST STOP JUMPDEST PUSH0 PUSH1 0x6F JUMPI PUSH1 0x40 MLOAD PUSH32 0x8C379A000000000000000000000000000000000000000000000000000000000 DUP2 MSTORE PUSH1 0x4 ADD PUSH1 0x66 SWAP1 PUSH1 0xC7 JUMP JUMPDEST PUSH1 0x40 MLOAD DUP1 SWAP2 SUB SWAP1 REVERT JUMPDEST JUMP JUMPDEST PUSH0 DUP3 DUP3 MSTORE PUSH1 0x20 DUP3 ADD SWAP1 POP SWAP3 SWAP2 POP POP JUMP JUMPDEST PUSH32 0x4572726F72206D65737361676500000000000000000000000000000000000000 PUSH0 DUP3 ADD MSTORE POP JUMP JUMPDEST PUSH0 PUSH1 0xB3 PUSH1 0xD DUP4 PUSH1 0x71 JUMP JUMPDEST SWAP2 POP PUSH1 0xBC DUP3 PUSH1 0x81 JUMP JUMPDEST PUSH1 0x20 DUP3 ADD SWAP1 POP SWAP2 SWAP1 POP JUMP JUMPDEST PUSH0 PUSH1 0x20 DUP3 ADD SWAP1 POP DUP2 DUP2 SUB PUSH0 DUP4 ADD MSTORE PUSH1 0xDC DUP2 PUSH1 0xA9 JUMP JUMPDEST SWAP1 POP SWAP2 SWAP1 POP JUMP INVALID LOG2 PUSH5 0x6970667358 0x22 SLT KECCAK256 CALLCODE 0xAE PC 0xBE SWAP9 PUSH15 0xB156E53964561B8764050C38DA3C32 SMOD PUSH18 0xEB91E06D955EBDEEC864736F6C6343000818 STOP CALLER LOG2 PUSH5 0x6970667358 0x22 SLT KECCAK256 0x2A 0xE4 0xB5 SLOAD DUP10 GT 0xC1 0xC4 LOG1 0xD9 PUSH26 0x72EB9C8007D87C93B86B0F648A4C66228DA3D26D0D64736F6C63 NUMBER STOP ADDMOD XOR STOP CALLER "
		},
		"gasEstimates": {
			"creation": {
				"codeDepositCost": "228200",
				"executionCost": "267",
				"totalCost": "228467"
			},
			"external": {
				"catchError()": "infinite"
			}
		},
		"methodIdentifiers": {
			"catchError()": "8b188516"
		}
	},
	"abi": [
		{
			"anonymous": false,
			"inputs": [
				{
					"indexed": false,
					"internalType": "string",
					"name": "reason",
					"type": "string"
				}
			],
			"name": "ErrorLogging",
			"type": "event"
		},
		{
			"inputs": [],
			"name": "catchError",
			"outputs": [],
			"stateMutability": "nonpayable",
			"type": "function"
		}
	]
}