{
	"data": {
		"bytecode": {
			"linkReferences": {},
			"object": "608060405234801561000f575f80fd5b50335f806101000a81548173ffffffffffffffffffffffffffffffffffffffff021916908373ffffffffffffffffffffffffffffffffffffffff1602179055506106a48061005c5f395ff3fe608060405260043610610054575f3560e01c80630adec93c1461005857806316c38b3c1461008057806339df43ff146100a85780635c975abb146100d05780638da5cb5b146100fa578063cbedbf5a14610124575b5f80fd5b348015610063575f80fd5b5061007e6004803603810190610079919061043a565b61012e565b005b34801561008b575f80fd5b506100a660048036038101906100a1919061049a565b610256565b005b3480156100b3575f80fd5b506100ce60048036038101906100c9919061043a565b6102ff565b005b3480156100db575f80fd5b506100e46103a5565b6040516100f191906104d4565b60405180910390f35b348015610105575f80fd5b5061010e6103b7565b60405161011b919061050d565b60405180910390f35b61012c6103da565b005b3373ffffffffffffffffffffffffffffffffffffffff165f8054906101000a900473ffffffffffffffffffffffffffffffffffffffff1673ffffffffffffffffffffffffffffffffffffffff16146101bb576040517f08c379a00000000000000000000000000000000000000000000000000000000081526004016101b290610580565b60405180910390fd5b5f15155f60149054906101000a900460ff1615151461020f576040517f08c379a0000000000000000000000000000000000000000000000000000000008152600401610206906105e8565b60405180910390fd5b8073ffffffffffffffffffffffffffffffffffffffff166108fc4790811502906040515f60405180830381858888f19350505050158015610252573d5f803e3d5ffd5b5050565b5f8054906101000a900473ffffffffffffffffffffffffffffffffffffffff1673ffffffffffffffffffffffffffffffffffffffff163373ffffffffffffffffffffffffffffffffffffffff16146102e3576040517f08c379a00000000000000000000000000000000000000000000000000000000081526004016102da90610650565b60405180910390fd5b805f60146101000a81548160ff02191690831515021790555050565b5f8054906101000a900473ffffffffffffffffffffffffffffffffffffffff1673ffffffffffffffffffffffffffffffffffffffff163373ffffffffffffffffffffffffffffffffffffffff161461038c576040517f08c379a000000000000000000000000000000000000000000000000000000000815260040161038390610650565b60405180910390fd5b8073ffffffffffffffffffffffffffffffffffffffff16ff5b5f60149054906101000a900460ff1681565b5f8054906101000a900473ffffffffffffffffffffffffffffffffffffffff1681565b565b5f80fd5b5f73ffffffffffffffffffffffffffffffffffffffff82169050919050565b5f610409826103e0565b9050919050565b610419816103ff565b8114610423575f80fd5b50565b5f8135905061043481610410565b92915050565b5f6020828403121561044f5761044e6103dc565b5b5f61045c84828501610426565b91505092915050565b5f8115159050919050565b61047981610465565b8114610483575f80fd5b50565b5f8135905061049481610470565b92915050565b5f602082840312156104af576104ae6103dc565b5b5f6104bc84828501610486565b91505092915050565b6104ce81610465565b82525050565b5f6020820190506104e75f8301846104c5565b92915050565b5f6104f7826103e0565b9050919050565b610507816104ed565b82525050565b5f6020820190506105205f8301846104fe565b92915050565b5f82825260208201905092915050565b7f596f752063616e6e6f742077697468647261772e0000000000000000000000005f82015250565b5f61056a601483610526565b915061057582610536565b602082019050919050565b5f6020820190508181035f8301526105978161055e565b9050919050565b7f436f6e74726163742050617573656400000000000000000000000000000000005f82015250565b5f6105d2600f83610526565b91506105dd8261059e565b602082019050919050565b5f6020820190508181035f8301526105ff816105c6565b9050919050565b7f596f7520617265206e6f7420746865206f776e657200000000000000000000005f82015250565b5f61063a601583610526565b915061064582610606565b602082019050919050565b5f6020820190508181035f8301526106678161062e565b905091905056fea2646970667358221220f2cc87842b97bc30f5c03d016dd2caddfc91c98b0850bf03c34549304a2f700864736f6c63430008180033",
			"opcodes": "PUSH1 0x80 PUSH1 0x40 MSTORE CALLVALUE DUP1 ISZERO PUSH2 0xF JUMPI PUSH0 DUP1 REVERT JUMPDEST POP CALLER PUSH0 DUP1 PUSH2 0x100 EXP DUP2 SLOAD DUP2 PUSH20 0xFFFFFFFFFFFFFFFFFFFFFFFFFFFFFFFFFFFFFFFF MUL NOT AND SWAP1 DUP4 PUSH20 0xFFFFFFFFFFFFFFFFFFFFFFFFFFFFFFFFFFFFFFFF AND MUL OR SWAP1 SSTORE POP PUSH2 0x6A4 DUP1 PUSH2 0x5C PUSH0 CODECOPY PUSH0 RETURN INVALID PUSH1 0x80 PUSH1 0x40 MSTORE PUSH1 0x4 CALLDATASIZE LT PUSH2 0x54 JUMPI PUSH0 CALLDATALOAD PUSH1 0xE0 SHR DUP1 PUSH4 0xADEC93C EQ PUSH2 0x58 JUMPI DUP1 PUSH4 0x16C38B3C EQ PUSH2 0x80 JUMPI DUP1 PUSH4 0x39DF43FF EQ PUSH2 0xA8 JUMPI DUP1 PUSH4 0x5C975ABB EQ PUSH2 0xD0 JUMPI DUP1 PUSH4 0x8DA5CB5B EQ PUSH2 0xFA JUMPI DUP1 PUSH4 0xCBEDBF5A EQ PUSH2 0x124 JUMPI JUMPDEST PUSH0 DUP1 REVERT JUMPDEST CALLVALUE DUP1 ISZERO PUSH2 0x63 JUMPI PUSH0 DUP1 REVERT JUMPDEST POP PUSH2 0x7E PUSH1 0x4 DUP1 CALLDATASIZE SUB DUP2 ADD SWAP1 PUSH2 0x79 SWAP2 SWAP1 PUSH2 0x43A JUMP JUMPDEST PUSH2 0x12E JUMP JUMPDEST STOP JUMPDEST CALLVALUE DUP1 ISZERO PUSH2 0x8B JUMPI PUSH0 DUP1 REVERT JUMPDEST POP PUSH2 0xA6 PUSH1 0x4 DUP1 CALLDATASIZE SUB DUP2 ADD SWAP1 PUSH2 0xA1 SWAP2 SWAP1 PUSH2 0x49A JUMP JUMPDEST PUSH2 0x256 JUMP JUMPDEST STOP JUMPDEST CALLVALUE DUP1 ISZERO PUSH2 0xB3 JUMPI PUSH0 DUP1 REVERT JUMPDEST POP PUSH2 0xCE PUSH1 0x4 DUP1 CALLDATASIZE SUB DUP2 ADD SWAP1 PUSH2 0xC9 SWAP2 SWAP1 PUSH2 0x43A JUMP JUMPDEST PUSH2 0x2FF JUMP JUMPDEST STOP JUMPDEST CALLVALUE DUP1 ISZERO PUSH2 0xDB JUMPI PUSH0 DUP1 REVERT JUMPDEST POP PUSH2 0xE4 PUSH2 0x3A5 JUMP JUMPDEST PUSH1 0x40 MLOAD PUSH2 0xF1 SWAP2 SWAP1 PUSH2 0x4D4 JUMP JUMPDEST PUSH1 0x40 MLOAD DUP1 SWAP2 SUB SWAP1 RETURN JUMPDEST CALLVALUE DUP1 ISZERO PUSH2 0x105 JUMPI PUSH0 DUP1 REVERT JUMPDEST POP PUSH2 0x10E PUSH2 0x3B7 JUMP JUMPDEST PUSH1 0x40 MLOAD PUSH2 0x11B SWAP2 SWAP1 PUSH2 0x50D JUMP JUMPDEST PUSH1 0x40 MLOAD DUP1 SWAP2 SUB SWAP1 RETURN JUMPDEST PUSH2 0x12C PUSH2 0x3DA JUMP JUMPDEST STOP JUMPDEST CALLER PUSH20 0xFFFFFFFFFFFFFFFFFFFFFFFFFFFFFFFFFFFFFFFF AND PUSH0 DUP1 SLOAD SWAP1 PUSH2 0x100 EXP SWAP1 DIV PUSH20 0xFFFFFFFFFFFFFFFFFFFFFFFFFFFFFFFFFFFFFFFF AND PUSH20 0xFFFFFFFFFFFFFFFFFFFFFFFFFFFFFFFFFFFFFFFF AND EQ PUSH2 0x1BB JUMPI PUSH1 0x40 MLOAD PUSH32 0x8C379A000000000000000000000000000000000000000000000000000000000 DUP2 MSTORE PUSH1 0x4 ADD PUSH2 0x1B2 SWAP1 PUSH2 0x580 JUMP JUMPDEST PUSH1 0x40 MLOAD DUP1 SWAP2 SUB SWAP1 REVERT JUMPDEST PUSH0 ISZERO ISZERO PUSH0 PUSH1 0x14 SWAP1 SLOAD SWAP1 PUSH2 0x100 EXP SWAP1 DIV PUSH1 0xFF AND ISZERO ISZERO EQ PUSH2 0x20F JUMPI PUSH1 0x40 MLOAD PUSH32 0x8C379A000000000000000000000000000000000000000000000000000000000 DUP2 MSTORE PUSH1 0x4 ADD PUSH2 0x206 SWAP1 PUSH2 0x5E8 JUMP JUMPDEST PUSH1 0x40 MLOAD DUP1 SWAP2 SUB SWAP1 REVERT JUMPDEST DUP1 PUSH20 0xFFFFFFFFFFFFFFFFFFFFFFFFFFFFFFFFFFFFFFFF AND PUSH2 0x8FC SELFBALANCE SWAP1 DUP2 ISZERO MUL SWAP1 PUSH1 0x40 MLOAD PUSH0 PUSH1 0x40 MLOAD DUP1 DUP4 SUB DUP2 DUP6 DUP9 DUP9 CALL SWAP4 POP POP POP POP ISZERO DUP1 ISZERO PUSH2 0x252 JUMPI RETURNDATASIZE PUSH0 DUP1 RETURNDATACOPY RETURNDATASIZE PUSH0 REVERT JUMPDEST POP POP JUMP JUMPDEST PUSH0 DUP1 SLOAD SWAP1 PUSH2 0x100 EXP SWAP1 DIV PUSH20 0xFFFFFFFFFFFFFFFFFFFFFFFFFFFFFFFFFFFFFFFF AND PUSH20 0xFFFFFFFFFFFFFFFFFFFFFFFFFFFFFFFFFFFFFFFF AND CALLER PUSH20 0xFFFFFFFFFFFFFFFFFFFFFFFFFFFFFFFFFFFFFFFF AND EQ PUSH2 0x2E3 JUMPI PUSH1 0x40 MLOAD PUSH32 0x8C379A000000000000000000000000000000000000000000000000000000000 DUP2 MSTORE PUSH1 0x4 ADD PUSH2 0x2DA SWAP1 PUSH2 0x650 JUMP JUMPDEST PUSH1 0x40 MLOAD DUP1 SWAP2 SUB SWAP1 REVERT JUMPDEST DUP1 PUSH0 PUSH1 0x14 PUSH2 0x100 EXP DUP2 SLOAD DUP2 PUSH1 0xFF MUL NOT AND SWAP1 DUP4 ISZERO ISZERO MUL OR SWAP1 SSTORE POP POP JUMP JUMPDEST PUSH0 DUP1 SLOAD SWAP1 PUSH2 0x100 EXP SWAP1 DIV PUSH20 0xFFFFFFFFFFFFFFFFFFFFFFFFFFFFFFFFFFFFFFFF AND PUSH20 0xFFFFFFFFFFFFFFFFFFFFFFFFFFFFFFFFFFFFFFFF AND CALLER PUSH20 0xFFFFFFFFFFFFFFFFFFFFFFFFFFFFFFFFFFFFFFFF AND EQ PUSH2 0x38C JUMPI PUSH1 0x40 MLOAD PUSH32 0x8C379A000000000000000000000000000000000000000000000000000000000 DUP2 MSTORE PUSH1 0x4 ADD PUSH2 0x383 SWAP1 PUSH2 0x650 JUMP JUMPDEST PUSH1 0x40 MLOAD DUP1 SWAP2 SUB SWAP1 REVERT JUMPDEST DUP1 PUSH20 0xFFFFFFFFFFFFFFFFFFFFFFFFFFFFFFFFFFFFFFFF AND SELFDESTRUCT JUMPDEST PUSH0 PUSH1 0x14 SWAP1 SLOAD SWAP1 PUSH2 0x100 EXP SWAP1 DIV PUSH1 0xFF AND DUP2 JUMP JUMPDEST PUSH0 DUP1 SLOAD SWAP1 PUSH2 0x100 EXP SWAP1 DIV PUSH20 0xFFFFFFFFFFFFFFFFFFFFFFFFFFFFFFFFFFFFFFFF AND DUP2 JUMP JUMPDEST JUMP JUMPDEST PUSH0 DUP1 REVERT JUMPDEST PUSH0 PUSH20 0xFFFFFFFFFFFFFFFFFFFFFFFFFFFFFFFFFFFFFFFF DUP3 AND SWAP1 POP SWAP2 SWAP1 POP JUMP JUMPDEST PUSH0 PUSH2 0x409 DUP3 PUSH2 0x3E0 JUMP JUMPDEST SWAP1 POP SWAP2 SWAP1 POP JUMP JUMPDEST PUSH2 0x419 DUP2 PUSH2 0x3FF JUMP JUMPDEST DUP2 EQ PUSH2 0x423 JUMPI PUSH0 DUP1 REVERT JUMPDEST POP JUMP JUMPDEST PUSH0 DUP2 CALLDATALOAD SWAP1 POP PUSH2 0x434 DUP2 PUSH2 0x410 JUMP JUMPDEST SWAP3 SWAP2 POP POP JUMP JUMPDEST PUSH0 PUSH1 0x20 DUP3 DUP5 SUB SLT ISZERO PUSH2 0x44F JUMPI PUSH2 0x44E PUSH2 0x3DC JUMP JUMPDEST JUMPDEST PUSH0 PUSH2 0x45C DUP5 DUP3 DUP6 ADD PUSH2 0x426 JUMP JUMPDEST SWAP2 POP POP SWAP3 SWAP2 POP POP JUMP JUMPDEST PUSH0 DUP2 ISZERO ISZERO SWAP1 POP SWAP2 SWAP1 POP JUMP JUMPDEST PUSH2 0x479 DUP2 PUSH2 0x465 JUMP JUMPDEST DUP2 EQ PUSH2 0x483 JUMPI PUSH0 DUP1 REVERT JUMPDEST POP JUMP JUMPDEST PUSH0 DUP2 CALLDATALOAD SWAP1 POP PUSH2 0x494 DUP2 PUSH2 0x470 JUMP JUMPDEST SWAP3 SWAP2 POP POP JUMP JUMPDEST PUSH0 PUSH1 0x20 DUP3 DUP5 SUB SLT ISZERO PUSH2 0x4AF JUMPI PUSH2 0x4AE PUSH2 0x3DC JUMP JUMPDEST JUMPDEST PUSH0 PUSH2 0x4BC DUP5 DUP3 DUP6 ADD PUSH2 0x486 JUMP JUMPDEST SWAP2 POP POP SWAP3 SWAP2 POP POP JUMP JUMPDEST PUSH2 0x4CE DUP2 PUSH2 0x465 JUMP JUMPDEST DUP3 MSTORE POP POP JUMP JUMPDEST PUSH0 PUSH1 0x20 DUP3 ADD SWAP1 POP PUSH2 0x4E7 PUSH0 DUP4 ADD DUP5 PUSH2 0x4C5 JUMP JUMPDEST SWAP3 SWAP2 POP POP JUMP JUMPDEST PUSH0 PUSH2 0x4F7 DUP3 PUSH2 0x3E0 JUMP JUMPDEST SWAP1 POP SWAP2 SWAP1 POP JUMP JUMPDEST PUSH2 0x507 DUP2 PUSH2 0x4ED JUMP JUMPDEST DUP3 MSTORE POP POP JUMP JUMPDEST PUSH0 PUSH1 0x20 DUP3 ADD SWAP1 POP PUSH2 0x520 PUSH0 DUP4 ADD DUP5 PUSH2 0x4FE JUMP JUMPDEST SWAP3 SWAP2 POP POP JUMP JUMPDEST PUSH0 DUP3 DUP3 MSTORE PUSH1 0x20 DUP3 ADD SWAP1 POP SWAP3 SWAP2 POP POP JUMP JUMPDEST PUSH32 0x596F752063616E6E6F742077697468647261772E000000000000000000000000 PUSH0 DUP3 ADD MSTORE POP JUMP JUMPDEST PUSH0 PUSH2 0x56A PUSH1 0x14 DUP4 PUSH2 0x526 JUMP JUMPDEST SWAP2 POP PUSH2 0x575 DUP3 PUSH2 0x536 JUMP JUMPDEST PUSH1 0x20 DUP3 ADD SWAP1 POP SWAP2 SWAP1 POP JUMP JUMPDEST PUSH0 PUSH1 0x20 DUP3 ADD SWAP1 POP DUP2 DUP2 SUB PUSH0 DUP4 ADD MSTORE PUSH2 0x597 DUP2 PUSH2 0x55E JUMP JUMPDEST SWAP1 POP SWAP2 SWAP1 POP JUMP JUMPDEST PUSH32 0x436F6E7472616374205061757365640000000000000000000000000000000000 PUSH0 DUP3 ADD MSTORE POP JUMP JUMPDEST PUSH0 PUSH2 0x5D2 PUSH1 0xF DUP4 PUSH2 0x526 JUMP JUMPDEST SWAP2 POP PUSH2 0x5DD DUP3 PUSH2 0x59E JUMP JUMPDEST PUSH1 0x20 DUP3 ADD SWAP1 POP SWAP2 SWAP1 POP JUMP JUMPDEST PUSH0 PUSH1 0x20 DUP3 ADD SWAP1 POP DUP2 DUP2 SUB PUSH0 DUP4 ADD MSTORE PUSH2 0x5FF DUP2 PUSH2 0x5C6 JUMP JUMPDEST SWAP1 POP SWAP2 SWAP1 POP JUMP JUMPDEST PUSH32 0x596F7520617265206E6F7420746865206F776E65720000000000000000000000 PUSH0 DUP3 ADD MSTORE POP JUMP JUMPDEST PUSH0 PUSH2 0x63A PUSH1 0x15 DUP4 PUSH2 0x526 JUMP JUMPDEST SWAP2 POP PUSH2 0x645 DUP3 PUSH2 0x606 JUMP JUMPDEST PUSH1 0x20 DUP3 ADD SWAP1 POP SWAP2 SWAP1 POP JUMP JUMPDEST PUSH0 PUSH1 0x20 DUP3 ADD SWAP1 POP DUP2 DUP2 SUB PUSH0 DUP4 ADD MSTORE PUSH2 0x667 DUP2 PUSH2 0x62E JUMP JUMPDEST SWAP1 POP SWAP2 SWAP1 POP JUMP INVALID LOG2 PUSH5 0x6970667358 0x22 SLT KECCAK256 CALLCODE 0xCC DUP8 DUP5 0x2B SWAP8 0xBC ADDRESS CREATE2 0xC0 RETURNDATASIZE ADD PUSH14 0xD2CADDFC91C98B0850BF03C34549 ADDRESS BLOBBASEFEE 0x2F PUSH17 0x864736F6C634300081800330000000000 "
		},
		"gasEstimates": {
			"creation": {
				"codeDepositCost": "340000",
				"executionCost": "24643",
				"totalCost": "364643"
			},
			"external": {
				"destroySmartContract(address)": "30235",
				"owner()": "2571",
				"paused()": "2560",
				"sendMoney()": "207",
				"setPaused(bool)": "26889",
				"withdrawAllMoney(address)": "infinite"
			}
		},
		"methodIdentifiers": {
			"destroySmartContract(address)": "39df43ff",
			"owner()": "8da5cb5b",
			"paused()": "5c975abb",
			"sendMoney()": "cbedbf5a",
			"setPaused(bool)": "16c38b3c",
			"withdrawAllMoney(address)": "0adec93c"
		}
	},
	"abi": [
		{
			"inputs": [],
			"stateMutability": "nonpayable",
			"type": "constructor"
		},
		{
			"inputs": [
				{
					"internalType": "address payable",
					"name": "_to",
					"type": "address"
				}
			],
			"name": "destroySmartContract",
			"outputs": [],
			"stateMutability": "nonpayable",
			"type": "function"
		},
		{
			"inputs": [],
			"name": "owner",
			"outputs": [
				{
					"internalType": "address",
					"name": "",
					"type": "address"
				}
			],
			"stateMutability": "view",
			"type": "function"
		},
		{
			"inputs": [],
			"name": "paused",
			"outputs": [
				{
					"internalType": "bool",
					"name": "",
					"type": "bool"
				}
			],
			"stateMutability": "view",
			"type": "function"
		},
		{
			"inputs": [],
			"name": "sendMoney",
			"outputs": [],
			"stateMutability": "payable",
			"type": "function"
		},
		{
			"inputs": [
				{
					"internalType": "bool",
					"name": "_paused",
					"type": "bool"
				}
			],
			"name": "setPaused",
			"outputs": [],
			"stateMutability": "nonpayable",
			"type": "function"
		},
		{
			"inputs": [
				{
					"internalType": "address payable",
					"name": "_to",
					"type": "address"
				}
			],
			"name": "withdrawAllMoney",
			"outputs": [],
			"stateMutability": "nonpayable",
			"type": "function"
		}
	]
}