{
	"data": {
		"bytecode": {
			"linkReferences": {},
			"object": "6080604052600142610011919061009d565b5f55601e42610020919061009d565b600155603c42610030919061009d565b600255610e1042610041919061009d565b6003556201518042610053919061009d565b600455348015610061575f80fd5b506100d0565b5f819050919050565b7f4e487b71000000000000000000000000000000000000000000000000000000005f52601160045260245ffd5b5f6100a782610067565b91506100b283610067565b92508282019050808211156100ca576100c9610070565b5b92915050565b610173806100dd5f395ff3fe608060405234801561000f575f80fd5b5060043610610055575f3560e01c806323e5f1c51461005957806340c91a70146100775780635a8ac02d146100955780637b76ac91146100b3578063d42e1596146100d1575b5f80fd5b6100616100ef565b60405161006e9190610124565b60405180910390f35b61007f6100f5565b60405161008c9190610124565b60405180910390f35b61009d6100fb565b6040516100aa9190610124565b60405180910390f35b6100bb610100565b6040516100c89190610124565b60405180910390f35b6100d9610106565b6040516100e69190610124565b60405180910390f35b60035481565b60015481565b5f5481565b60045481565b60025481565b5f819050919050565b61011e8161010c565b82525050565b5f6020820190506101375f830184610115565b9291505056fea26469706673582212207cc3828567bfd8c34228c731efd65b8489346bbb06c4f665e135b716ee11bb6464736f6c63430008140033",
			"opcodes": "PUSH1 0x80 PUSH1 0x40 MSTORE PUSH1 0x1 TIMESTAMP PUSH2 0x11 SWAP2 SWAP1 PUSH2 0x9D JUMP JUMPDEST PUSH0 SSTORE PUSH1 0x1E TIMESTAMP PUSH2 0x20 SWAP2 SWAP1 PUSH2 0x9D JUMP JUMPDEST PUSH1 0x1 SSTORE PUSH1 0x3C TIMESTAMP PUSH2 0x30 SWAP2 SWAP1 PUSH2 0x9D JUMP JUMPDEST PUSH1 0x2 SSTORE PUSH2 0xE10 TIMESTAMP PUSH2 0x41 SWAP2 SWAP1 PUSH2 0x9D JUMP JUMPDEST PUSH1 0x3 SSTORE PUSH3 0x15180 TIMESTAMP PUSH2 0x53 SWAP2 SWAP1 PUSH2 0x9D JUMP JUMPDEST PUSH1 0x4 SSTORE CALLVALUE DUP1 ISZERO PUSH2 0x61 JUMPI PUSH0 DUP1 REVERT JUMPDEST POP PUSH2 0xD0 JUMP JUMPDEST PUSH0 DUP2 SWAP1 POP SWAP2 SWAP1 POP JUMP JUMPDEST PUSH32 0x4E487B7100000000000000000000000000000000000000000000000000000000 PUSH0 MSTORE PUSH1 0x11 PUSH1 0x4 MSTORE PUSH1 0x24 PUSH0 REVERT JUMPDEST PUSH0 PUSH2 0xA7 DUP3 PUSH2 0x67 JUMP JUMPDEST SWAP2 POP PUSH2 0xB2 DUP4 PUSH2 0x67 JUMP JUMPDEST SWAP3 POP DUP3 DUP3 ADD SWAP1 POP DUP1 DUP3 GT ISZERO PUSH2 0xCA JUMPI PUSH2 0xC9 PUSH2 0x70 JUMP JUMPDEST JUMPDEST SWAP3 SWAP2 POP POP JUMP JUMPDEST PUSH2 0x173 DUP1 PUSH2 0xDD PUSH0 CODECOPY PUSH0 RETURN INVALID PUSH1 0x80 PUSH1 0x40 MSTORE CALLVALUE DUP1 ISZERO PUSH2 0xF JUMPI PUSH0 DUP1 REVERT JUMPDEST POP PUSH1 0x4 CALLDATASIZE LT PUSH2 0x55 JUMPI PUSH0 CALLDATALOAD PUSH1 0xE0 SHR DUP1 PUSH4 0x23E5F1C5 EQ PUSH2 0x59 JUMPI DUP1 PUSH4 0x40C91A70 EQ PUSH2 0x77 JUMPI DUP1 PUSH4 0x5A8AC02D EQ PUSH2 0x95 JUMPI DUP1 PUSH4 0x7B76AC91 EQ PUSH2 0xB3 JUMPI DUP1 PUSH4 0xD42E1596 EQ PUSH2 0xD1 JUMPI JUMPDEST PUSH0 DUP1 REVERT JUMPDEST PUSH2 0x61 PUSH2 0xEF JUMP JUMPDEST PUSH1 0x40 MLOAD PUSH2 0x6E SWAP2 SWAP1 PUSH2 0x124 JUMP JUMPDEST PUSH1 0x40 MLOAD DUP1 SWAP2 SUB SWAP1 RETURN JUMPDEST PUSH2 0x7F PUSH2 0xF5 JUMP JUMPDEST PUSH1 0x40 MLOAD PUSH2 0x8C SWAP2 SWAP1 PUSH2 0x124 JUMP JUMPDEST PUSH1 0x40 MLOAD DUP1 SWAP2 SUB SWAP1 RETURN JUMPDEST PUSH2 0x9D PUSH2 0xFB JUMP JUMPDEST PUSH1 0x40 MLOAD PUSH2 0xAA SWAP2 SWAP1 PUSH2 0x124 JUMP JUMPDEST PUSH1 0x40 MLOAD DUP1 SWAP2 SUB SWAP1 RETURN JUMPDEST PUSH2 0xBB PUSH2 0x100 JUMP JUMPDEST PUSH1 0x40 MLOAD PUSH2 0xC8 SWAP2 SWAP1 PUSH2 0x124 JUMP JUMPDEST PUSH1 0x40 MLOAD DUP1 SWAP2 SUB SWAP1 RETURN JUMPDEST PUSH2 0xD9 PUSH2 0x106 JUMP JUMPDEST PUSH1 0x40 MLOAD PUSH2 0xE6 SWAP2 SWAP1 PUSH2 0x124 JUMP JUMPDEST PUSH1 0x40 MLOAD DUP1 SWAP2 SUB SWAP1 RETURN JUMPDEST PUSH1 0x3 SLOAD DUP2 JUMP JUMPDEST PUSH1 0x1 SLOAD DUP2 JUMP JUMPDEST PUSH0 SLOAD DUP2 JUMP JUMPDEST PUSH1 0x4 SLOAD DUP2 JUMP JUMPDEST PUSH1 0x2 SLOAD DUP2 JUMP JUMPDEST PUSH0 DUP2 SWAP1 POP SWAP2 SWAP1 POP JUMP JUMPDEST PUSH2 0x11E DUP2 PUSH2 0x10C JUMP JUMPDEST DUP3 MSTORE POP POP JUMP JUMPDEST PUSH0 PUSH1 0x20 DUP3 ADD SWAP1 POP PUSH2 0x137 PUSH0 DUP4 ADD DUP5 PUSH2 0x115 JUMP JUMPDEST SWAP3 SWAP2 POP POP JUMP INVALID LOG2 PUSH5 0x6970667358 0x22 SLT KECCAK256 PUSH29 0xC3828567BFD8C34228C731EFD65B8489346BBB06C4F665E135B716EE11 0xBB PUSH5 0x64736F6C63 NUMBER STOP ADDMOD EQ STOP CALLER "
		},
		"gasEstimates": {
			"creation": {
				"codeDepositCost": "74200",
				"executionCost": "infinite",
				"totalCost": "infinite"
			},
			"external": {
				"Oneminute()": "2491",
				"Thirtysecond()": "2425",
				"day()": "2469",
				"hour()": "2403",
				"second()": "2446"
			}
		},
		"methodIdentifiers": {
			"Oneminute()": "d42e1596",
			"Thirtysecond()": "40c91a70",
			"day()": "7b76ac91",
			"hour()": "23e5f1c5",
			"second()": "5a8ac02d"
		}
	},
	"abi": [
		{
			"inputs": [],
			"name": "Oneminute",
			"outputs": [
				{
					"internalType": "uint256",
					"name": "",
					"type": "uint256"
				}
			],
			"stateMutability": "view",
			"type": "function"
		},
		{
			"inputs": [],
			"name": "Thirtysecond",
			"outputs": [
				{
					"internalType": "uint256",
					"name": "",
					"type": "uint256"
				}
			],
			"stateMutability": "view",
			"type": "function"
		},
		{
			"inputs": [],
			"name": "day",
			"outputs": [
				{
					"internalType": "uint256",
					"name": "",
					"type": "uint256"
				}
			],
			"stateMutability": "view",
			"type": "function"
		},
		{
			"inputs": [],
			"name": "hour",
			"outputs": [
				{
					"internalType": "uint256",
					"name": "",
					"type": "uint256"
				}
			],
			"stateMutability": "view",
			"type": "function"
		},
		{
			"inputs": [],
			"name": "second",
			"outputs": [
				{
					"internalType": "uint256",
					"name": "",
					"type": "uint256"
				}
			],
			"stateMutability": "view",
			"type": "function"
		}
	]
}